{
	"contracts/MechaWarNFT/MechaWar.sol": {
		"MechaWar": {
			"abi": [
				{
					"inputs": [],
					"stateMutability": "nonpayable",
					"type": "constructor"
				},
				{
					"inputs": [
						{
							"internalType": "address",
							"name": "sender",
							"type": "address"
						},
						{
							"internalType": "uint256",
							"name": "tokenId",
							"type": "uint256"
						},
						{
							"internalType": "address",
							"name": "owner",
							"type": "address"
						}
					],
					"name": "ERC721IncorrectOwner",
					"type": "error"
				},
				{
					"inputs": [
						{
							"internalType": "address",
							"name": "operator",
							"type": "address"
						},
						{
							"internalType": "uint256",
							"name": "tokenId",
							"type": "uint256"
						}
					],
					"name": "ERC721InsufficientApproval",
					"type": "error"
				},
				{
					"inputs": [
						{
							"internalType": "address",
							"name": "approver",
							"type": "address"
						}
					],
					"name": "ERC721InvalidApprover",
					"type": "error"
				},
				{
					"inputs": [
						{
							"internalType": "address",
							"name": "operator",
							"type": "address"
						}
					],
					"name": "ERC721InvalidOperator",
					"type": "error"
				},
				{
					"inputs": [
						{
							"internalType": "address",
							"name": "owner",
							"type": "address"
						}
					],
					"name": "ERC721InvalidOwner",
					"type": "error"
				},
				{
					"inputs": [
						{
							"internalType": "address",
							"name": "receiver",
							"type": "address"
						}
					],
					"name": "ERC721InvalidReceiver",
					"type": "error"
				},
				{
					"inputs": [
						{
							"internalType": "address",
							"name": "sender",
							"type": "address"
						}
					],
					"name": "ERC721InvalidSender",
					"type": "error"
				},
				{
					"inputs": [
						{
							"internalType": "uint256",
							"name": "tokenId",
							"type": "uint256"
						}
					],
					"name": "ERC721NonexistentToken",
					"type": "error"
				},
				{
					"anonymous": false,
					"inputs": [
						{
							"indexed": true,
							"internalType": "address",
							"name": "owner",
							"type": "address"
						},
						{
							"indexed": true,
							"internalType": "address",
							"name": "approved",
							"type": "address"
						},
						{
							"indexed": true,
							"internalType": "uint256",
							"name": "tokenId",
							"type": "uint256"
						}
					],
					"name": "Approval",
					"type": "event"
				},
				{
					"anonymous": false,
					"inputs": [
						{
							"indexed": true,
							"internalType": "address",
							"name": "owner",
							"type": "address"
						},
						{
							"indexed": true,
							"internalType": "address",
							"name": "operator",
							"type": "address"
						},
						{
							"indexed": false,
							"internalType": "bool",
							"name": "approved",
							"type": "bool"
						}
					],
					"name": "ApprovalForAll",
					"type": "event"
				},
				{
					"anonymous": false,
					"inputs": [
						{
							"indexed": true,
							"internalType": "address",
							"name": "from",
							"type": "address"
						},
						{
							"indexed": true,
							"internalType": "address",
							"name": "to",
							"type": "address"
						},
						{
							"indexed": true,
							"internalType": "uint256",
							"name": "tokenId",
							"type": "uint256"
						}
					],
					"name": "Transfer",
					"type": "event"
				},
				{
					"inputs": [
						{
							"internalType": "address",
							"name": "to",
							"type": "address"
						},
						{
							"internalType": "uint256",
							"name": "tokenId",
							"type": "uint256"
						}
					],
					"name": "approve",
					"outputs": [],
					"stateMutability": "nonpayable",
					"type": "function"
				},
				{
					"inputs": [
						{
							"internalType": "address",
							"name": "owner",
							"type": "address"
						}
					],
					"name": "balanceOf",
					"outputs": [
						{
							"internalType": "uint256",
							"name": "",
							"type": "uint256"
						}
					],
					"stateMutability": "view",
					"type": "function"
				},
				{
					"inputs": [
						{
							"internalType": "uint256",
							"name": "_attackingMecha",
							"type": "uint256"
						},
						{
							"internalType": "uint256",
							"name": "_defendingMecha",
							"type": "uint256"
						}
					],
					"name": "battle",
					"outputs": [],
					"stateMutability": "nonpayable",
					"type": "function"
				},
				{
					"inputs": [
						{
							"internalType": "uint256",
							"name": "",
							"type": "uint256"
						}
					],
					"name": "battles",
					"outputs": [
						{
							"internalType": "uint256",
							"name": "attackingMecha",
							"type": "uint256"
						},
						{
							"internalType": "uint256",
							"name": "defendingMecha",
							"type": "uint256"
						},
						{
							"internalType": "uint8",
							"name": "rounds",
							"type": "uint8"
						},
						{
							"internalType": "address",
							"name": "winner",
							"type": "address"
						}
					],
					"stateMutability": "view",
					"type": "function"
				},
				{
					"inputs": [
						{
							"internalType": "string",
							"name": "_name",
							"type": "string"
						},
						{
							"internalType": "address",
							"name": "_to",
							"type": "address"
						},
						{
							"internalType": "uint8",
							"name": "_strength",
							"type": "uint8"
						},
						{
							"internalType": "uint8",
							"name": "_defense",
							"type": "uint8"
						},
						{
							"internalType": "uint8",
							"name": "_agility",
							"type": "uint8"
						},
						{
							"internalType": "string",
							"name": "_img",
							"type": "string"
						}
					],
					"name": "createNewMecha",
					"outputs": [],
					"stateMutability": "nonpayable",
					"type": "function"
				},
				{
					"inputs": [],
					"name": "gameOwner",
					"outputs": [
						{
							"internalType": "address",
							"name": "",
							"type": "address"
						}
					],
					"stateMutability": "view",
					"type": "function"
				},
				{
					"inputs": [
						{
							"internalType": "uint256",
							"name": "tokenId",
							"type": "uint256"
						}
					],
					"name": "getApproved",
					"outputs": [
						{
							"internalType": "address",
							"name": "",
							"type": "address"
						}
					],
					"stateMutability": "view",
					"type": "function"
				},
				{
					"inputs": [
						{
							"internalType": "address",
							"name": "owner",
							"type": "address"
						},
						{
							"internalType": "address",
							"name": "operator",
							"type": "address"
						}
					],
					"name": "isApprovedForAll",
					"outputs": [
						{
							"internalType": "bool",
							"name": "",
							"type": "bool"
						}
					],
					"stateMutability": "view",
					"type": "function"
				},
				{
					"inputs": [
						{
							"internalType": "uint256",
							"name": "",
							"type": "uint256"
						}
					],
					"name": "mechas",
					"outputs": [
						{
							"internalType": "string",
							"name": "name",
							"type": "string"
						},
						{
							"internalType": "string",
							"name": "img",
							"type": "string"
						},
						{
							"internalType": "uint256",
							"name": "strength",
							"type": "uint256"
						},
						{
							"internalType": "uint256",
							"name": "defense",
							"type": "uint256"
						},
						{
							"internalType": "uint256",
							"name": "agility",
							"type": "uint256"
						}
					],
					"stateMutability": "view",
					"type": "function"
				},
				{
					"inputs": [],
					"name": "name",
					"outputs": [
						{
							"internalType": "string",
							"name": "",
							"type": "string"
						}
					],
					"stateMutability": "view",
					"type": "function"
				},
				{
					"inputs": [
						{
							"internalType": "uint256",
							"name": "tokenId",
							"type": "uint256"
						}
					],
					"name": "ownerOf",
					"outputs": [
						{
							"internalType": "address",
							"name": "",
							"type": "address"
						}
					],
					"stateMutability": "view",
					"type": "function"
				},
				{
					"inputs": [
						{
							"internalType": "address",
							"name": "from",
							"type": "address"
						},
						{
							"internalType": "address",
							"name": "to",
							"type": "address"
						},
						{
							"internalType": "uint256",
							"name": "tokenId",
							"type": "uint256"
						}
					],
					"name": "safeTransferFrom",
					"outputs": [],
					"stateMutability": "nonpayable",
					"type": "function"
				},
				{
					"inputs": [
						{
							"internalType": "address",
							"name": "from",
							"type": "address"
						},
						{
							"internalType": "address",
							"name": "to",
							"type": "address"
						},
						{
							"internalType": "uint256",
							"name": "tokenId",
							"type": "uint256"
						},
						{
							"internalType": "bytes",
							"name": "data",
							"type": "bytes"
						}
					],
					"name": "safeTransferFrom",
					"outputs": [],
					"stateMutability": "nonpayable",
					"type": "function"
				},
				{
					"inputs": [
						{
							"internalType": "address",
							"name": "operator",
							"type": "address"
						},
						{
							"internalType": "bool",
							"name": "approved",
							"type": "bool"
						}
					],
					"name": "setApprovalForAll",
					"outputs": [],
					"stateMutability": "nonpayable",
					"type": "function"
				},
				{
					"inputs": [
						{
							"internalType": "bytes4",
							"name": "interfaceId",
							"type": "bytes4"
						}
					],
					"name": "supportsInterface",
					"outputs": [
						{
							"internalType": "bool",
							"name": "",
							"type": "bool"
						}
					],
					"stateMutability": "view",
					"type": "function"
				},
				{
					"inputs": [],
					"name": "symbol",
					"outputs": [
						{
							"internalType": "string",
							"name": "",
							"type": "string"
						}
					],
					"stateMutability": "view",
					"type": "function"
				},
				{
					"inputs": [
						{
							"internalType": "uint256",
							"name": "tokenId",
							"type": "uint256"
						}
					],
					"name": "tokenURI",
					"outputs": [
						{
							"internalType": "string",
							"name": "",
							"type": "string"
						}
					],
					"stateMutability": "view",
					"type": "function"
				},
				{
					"inputs": [
						{
							"internalType": "address",
							"name": "from",
							"type": "address"
						},
						{
							"internalType": "address",
							"name": "to",
							"type": "address"
						},
						{
							"internalType": "uint256",
							"name": "tokenId",
							"type": "uint256"
						}
					],
					"name": "transferFrom",
					"outputs": [],
					"stateMutability": "nonpayable",
					"type": "function"
				}
			],
			"devdoc": {
				"errors": {
					"ERC721IncorrectOwner(address,uint256,address)": [
						{
							"details": "Indicates an error related to the ownership over a particular token. Used in transfers.",
							"params": {
								"owner": "Address of the current owner of a token.",
								"sender": "Address whose tokens are being transferred.",
								"tokenId": "Identifier number of a token."
							}
						}
					],
					"ERC721InsufficientApproval(address,uint256)": [
						{
							"details": "Indicates a failure with the `operator`’s approval. Used in transfers.",
							"params": {
								"operator": "Address that may be allowed to operate on tokens without being their owner.",
								"tokenId": "Identifier number of a token."
							}
						}
					],
					"ERC721InvalidApprover(address)": [
						{
							"details": "Indicates a failure with the `approver` of a token to be approved. Used in approvals.",
							"params": {
								"approver": "Address initiating an approval operation."
							}
						}
					],
					"ERC721InvalidOperator(address)": [
						{
							"details": "Indicates a failure with the `operator` to be approved. Used in approvals.",
							"params": {
								"operator": "Address that may be allowed to operate on tokens without being their owner."
							}
						}
					],
					"ERC721InvalidOwner(address)": [
						{
							"details": "Indicates that an address can't be an owner. For example, `address(0)` is a forbidden owner in EIP-20. Used in balance queries.",
							"params": {
								"owner": "Address of the current owner of a token."
							}
						}
					],
					"ERC721InvalidReceiver(address)": [
						{
							"details": "Indicates a failure with the token `receiver`. Used in transfers.",
							"params": {
								"receiver": "Address to which tokens are being transferred."
							}
						}
					],
					"ERC721InvalidSender(address)": [
						{
							"details": "Indicates a failure with the token `sender`. Used in transfers.",
							"params": {
								"sender": "Address whose tokens are being transferred."
							}
						}
					],
					"ERC721NonexistentToken(uint256)": [
						{
							"details": "Indicates a `tokenId` whose `owner` is the zero address.",
							"params": {
								"tokenId": "Identifier number of a token."
							}
						}
					]
				},
				"events": {
					"Approval(address,address,uint256)": {
						"details": "Emitted when `owner` enables `approved` to manage the `tokenId` token."
					},
					"ApprovalForAll(address,address,bool)": {
						"details": "Emitted when `owner` enables or disables (`approved`) `operator` to manage all of its assets."
					},
					"Transfer(address,address,uint256)": {
						"details": "Emitted when `tokenId` token is transferred from `from` to `to`."
					}
				},
				"kind": "dev",
				"methods": {
					"approve(address,uint256)": {
						"details": "See {IERC721-approve}."
					},
					"balanceOf(address)": {
						"details": "See {IERC721-balanceOf}."
					},
					"getApproved(uint256)": {
						"details": "See {IERC721-getApproved}."
					},
					"isApprovedForAll(address,address)": {
						"details": "See {IERC721-isApprovedForAll}."
					},
					"name()": {
						"details": "See {IERC721Metadata-name}."
					},
					"ownerOf(uint256)": {
						"details": "See {IERC721-ownerOf}."
					},
					"safeTransferFrom(address,address,uint256)": {
						"details": "See {IERC721-safeTransferFrom}."
					},
					"safeTransferFrom(address,address,uint256,bytes)": {
						"details": "See {IERC721-safeTransferFrom}."
					},
					"setApprovalForAll(address,bool)": {
						"details": "See {IERC721-setApprovalForAll}."
					},
					"supportsInterface(bytes4)": {
						"details": "See {IERC165-supportsInterface}."
					},
					"symbol()": {
						"details": "See {IERC721Metadata-symbol}."
					},
					"tokenURI(uint256)": {
						"details": "See {IERC721Metadata-tokenURI}."
					},
					"transferFrom(address,address,uint256)": {
						"details": "See {IERC721-transferFrom}."
					}
				},
				"version": 1
			},
			"evm": {
				"assembly": "    /* \"contracts/MechaWarNFT/MechaWar.sol\":117:3456  contract MechaWar is ERC721 {... */\n  mstore(0x40, 0x80)\n    /* \"contracts/MechaWarNFT/MechaWar.sol\":566:645  constructor() ERC721(\"MechaWar\", \"MWR\") {... */\n  callvalue\n  dup1\n  iszero\n  tag_1\n  jumpi\n  0x00\n  dup1\n  revert\ntag_1:\n  pop\n    /* \"@openzeppelin/contracts/token/ERC721/ERC721.sol\":1381:1494  constructor(string memory name_, string memory symbol_) {... */\n  mload(0x40)\n  dup1\n  0x40\n  add\n  0x40\n  mstore\n  dup1\n  0x08\n  dup2\n  mstore\n  0x20\n  add\n  0x4d65636861576172000000000000000000000000000000000000000000000000\n  dup2\n  mstore\n  pop\n  mload(0x40)\n  dup1\n  0x40\n  add\n  0x40\n  mstore\n  dup1\n  0x03\n  dup2\n  mstore\n  0x20\n  add\n  0x4d57520000000000000000000000000000000000000000000000000000000000\n  dup2\n  mstore\n  pop\n    /* \"@openzeppelin/contracts/token/ERC721/ERC721.sol\":1455:1460  name_ */\n  dup2\n    /* \"@openzeppelin/contracts/token/ERC721/ERC721.sol\":1447:1452  _name */\n  0x00\n    /* \"@openzeppelin/contracts/token/ERC721/ERC721.sol\":1447:1460  _name = name_ */\n  swap1\n  dup2\n  tag_5\n  swap2\n  swap1\n  tag_6\n  jump\t// in\ntag_5:\n  pop\n    /* \"@openzeppelin/contracts/token/ERC721/ERC721.sol\":1480:1487  symbol_ */\n  dup1\n    /* \"@openzeppelin/contracts/token/ERC721/ERC721.sol\":1470:1477  _symbol */\n  0x01\n    /* \"@openzeppelin/contracts/token/ERC721/ERC721.sol\":1470:1487  _symbol = symbol_ */\n  swap1\n  dup2\n  tag_7\n  swap2\n  swap1\n  tag_6\n  jump\t// in\ntag_7:\n  pop\n    /* \"@openzeppelin/contracts/token/ERC721/ERC721.sol\":1381:1494  constructor(string memory name_, string memory symbol_) {... */\n  pop\n  pop\n    /* \"contracts/MechaWarNFT/MechaWar.sol\":628:638  msg.sender */\n  caller\n    /* \"contracts/MechaWarNFT/MechaWar.sol\":616:625  gameOwner */\n  0x08\n  0x00\n    /* \"contracts/MechaWarNFT/MechaWar.sol\":616:638  gameOwner = msg.sender */\n  0x0100\n  exp\n  dup2\n  sload\n  dup2\n  0xffffffffffffffffffffffffffffffffffffffff\n  mul\n  not\n  and\n  swap1\n  dup4\n  0xffffffffffffffffffffffffffffffffffffffff\n  and\n  mul\n  or\n  swap1\n  sstore\n  pop\n    /* \"contracts/MechaWarNFT/MechaWar.sol\":117:3456  contract MechaWar is ERC721 {... */\n  jump(tag_9)\n    /* \"#utility.yul\":7:106   */\ntag_10:\n    /* \"#utility.yul\":59:65   */\n  0x00\n    /* \"#utility.yul\":93:98   */\n  dup2\n    /* \"#utility.yul\":87:99   */\n  mload\n    /* \"#utility.yul\":77:99   */\n  swap1\n  pop\n    /* \"#utility.yul\":7:106   */\n  swap2\n  swap1\n  pop\n  jump\t// out\n    /* \"#utility.yul\":112:292   */\ntag_11:\n    /* \"#utility.yul\":160:237   */\n  0x4e487b7100000000000000000000000000000000000000000000000000000000\n    /* \"#utility.yul\":157:158   */\n  0x00\n    /* \"#utility.yul\":150:238   */\n  mstore\n    /* \"#utility.yul\":257:261   */\n  0x41\n    /* \"#utility.yul\":254:255   */\n  0x04\n    /* \"#utility.yul\":247:262   */\n  mstore\n    /* \"#utility.yul\":281:285   */\n  0x24\n    /* \"#utility.yul\":278:279   */\n  0x00\n    /* \"#utility.yul\":271:286   */\n  revert\n    /* \"#utility.yul\":298:478   */\ntag_12:\n    /* \"#utility.yul\":346:423   */\n  0x4e487b7100000000000000000000000000000000000000000000000000000000\n    /* \"#utility.yul\":343:344   */\n  0x00\n    /* \"#utility.yul\":336:424   */\n  mstore\n    /* \"#utility.yul\":443:447   */\n  0x22\n    /* \"#utility.yul\":440:441   */\n  0x04\n    /* \"#utility.yul\":433:448   */\n  mstore\n    /* \"#utility.yul\":467:471   */\n  0x24\n    /* \"#utility.yul\":464:465   */\n  0x00\n    /* \"#utility.yul\":457:472   */\n  revert\n    /* \"#utility.yul\":484:804   */\ntag_13:\n    /* \"#utility.yul\":528:534   */\n  0x00\n    /* \"#utility.yul\":565:566   */\n  0x02\n    /* \"#utility.yul\":559:563   */\n  dup3\n    /* \"#utility.yul\":555:567   */\n  div\n    /* \"#utility.yul\":545:567   */\n  swap1\n  pop\n    /* \"#utility.yul\":612:613   */\n  0x01\n    /* \"#utility.yul\":606:610   */\n  dup3\n    /* \"#utility.yul\":602:614   */\n  and\n    /* \"#utility.yul\":633:651   */\n  dup1\n    /* \"#utility.yul\":623:704   */\n  tag_35\n  jumpi\n    /* \"#utility.yul\":689:693   */\n  0x7f\n    /* \"#utility.yul\":681:687   */\n  dup3\n    /* \"#utility.yul\":677:694   */\n  and\n    /* \"#utility.yul\":667:694   */\n  swap2\n  pop\n    /* \"#utility.yul\":623:704   */\ntag_35:\n    /* \"#utility.yul\":751:753   */\n  0x20\n    /* \"#utility.yul\":743:749   */\n  dup3\n    /* \"#utility.yul\":740:754   */\n  lt\n    /* \"#utility.yul\":720:738   */\n  dup2\n    /* \"#utility.yul\":717:755   */\n  sub\n    /* \"#utility.yul\":714:798   */\n  tag_36\n  jumpi\n    /* \"#utility.yul\":770:788   */\n  tag_37\n  tag_12\n  jump\t// in\ntag_37:\n    /* \"#utility.yul\":714:798   */\ntag_36:\n    /* \"#utility.yul\":535:804   */\n  pop\n    /* \"#utility.yul\":484:804   */\n  swap2\n  swap1\n  pop\n  jump\t// out\n    /* \"#utility.yul\":810:951   */\ntag_14:\n    /* \"#utility.yul\":859:863   */\n  0x00\n    /* \"#utility.yul\":882:885   */\n  dup2\n    /* \"#utility.yul\":874:885   */\n  swap1\n  pop\n    /* \"#utility.yul\":905:908   */\n  dup2\n    /* \"#utility.yul\":902:903   */\n  0x00\n    /* \"#utility.yul\":895:909   */\n  mstore\n    /* \"#utility.yul\":939:943   */\n  0x20\n    /* \"#utility.yul\":936:937   */\n  0x00\n    /* \"#utility.yul\":926:944   */\n  keccak256\n    /* \"#utility.yul\":918:944   */\n  swap1\n  pop\n    /* \"#utility.yul\":810:951   */\n  swap2\n  swap1\n  pop\n  jump\t// out\n    /* \"#utility.yul\":957:1050   */\ntag_15:\n    /* \"#utility.yul\":994:1000   */\n  0x00\n    /* \"#utility.yul\":1041:1043   */\n  0x20\n    /* \"#utility.yul\":1036:1038   */\n  0x1f\n    /* \"#utility.yul\":1029:1034   */\n  dup4\n    /* \"#utility.yul\":1025:1039   */\n  add\n    /* \"#utility.yul\":1021:1044   */\n  div\n    /* \"#utility.yul\":1011:1044   */\n  swap1\n  pop\n    /* \"#utility.yul\":957:1050   */\n  swap2\n  swap1\n  pop\n  jump\t// out\n    /* \"#utility.yul\":1056:1163   */\ntag_16:\n    /* \"#utility.yul\":1100:1108   */\n  0x00\n    /* \"#utility.yul\":1150:1155   */\n  dup3\n    /* \"#utility.yul\":1144:1148   */\n  dup3\n    /* \"#utility.yul\":1140:1156   */\n  shl\n    /* \"#utility.yul\":1119:1156   */\n  swap1\n  pop\n    /* \"#utility.yul\":1056:1163   */\n  swap3\n  swap2\n  pop\n  pop\n  jump\t// out\n    /* \"#utility.yul\":1169:1562   */\ntag_17:\n    /* \"#utility.yul\":1238:1244   */\n  0x00\n    /* \"#utility.yul\":1288:1289   */\n  0x08\n    /* \"#utility.yul\":1276:1286   */\n  dup4\n    /* \"#utility.yul\":1272:1290   */\n  mul\n    /* \"#utility.yul\":1311:1408   */\n  tag_42\n    /* \"#utility.yul\":1341:1407   */\n  0xffffffffffffffffffffffffffffffffffffffffffffffffffffffffffffffff\n    /* \"#utility.yul\":1330:1339   */\n  dup3\n    /* \"#utility.yul\":1311:1408   */\n  tag_16\n  jump\t// in\ntag_42:\n    /* \"#utility.yul\":1429:1468   */\n  tag_43\n    /* \"#utility.yul\":1459:1467   */\n  dup7\n    /* \"#utility.yul\":1448:1457   */\n  dup4\n    /* \"#utility.yul\":1429:1468   */\n  tag_16\n  jump\t// in\ntag_43:\n    /* \"#utility.yul\":1417:1468   */\n  swap6\n  pop\n    /* \"#utility.yul\":1501:1505   */\n  dup1\n    /* \"#utility.yul\":1497:1506   */\n  not\n    /* \"#utility.yul\":1490:1495   */\n  dup5\n    /* \"#utility.yul\":1486:1507   */\n  and\n    /* \"#utility.yul\":1477:1507   */\n  swap4\n  pop\n    /* \"#utility.yul\":1550:1554   */\n  dup1\n    /* \"#utility.yul\":1540:1548   */\n  dup7\n    /* \"#utility.yul\":1536:1555   */\n  and\n    /* \"#utility.yul\":1529:1534   */\n  dup5\n    /* \"#utility.yul\":1526:1556   */\n  or\n    /* \"#utility.yul\":1516:1556   */\n  swap3\n  pop\n    /* \"#utility.yul\":1245:1562   */\n  pop\n  pop\n    /* \"#utility.yul\":1169:1562   */\n  swap4\n  swap3\n  pop\n  pop\n  pop\n  jump\t// out\n    /* \"#utility.yul\":1568:1645   */\ntag_18:\n    /* \"#utility.yul\":1605:1612   */\n  0x00\n    /* \"#utility.yul\":1634:1639   */\n  dup2\n    /* \"#utility.yul\":1623:1639   */\n  swap1\n  pop\n    /* \"#utility.yul\":1568:1645   */\n  swap2\n  swap1\n  pop\n  jump\t// out\n    /* \"#utility.yul\":1651:1711   */\ntag_19:\n    /* \"#utility.yul\":1679:1682   */\n  0x00\n    /* \"#utility.yul\":1700:1705   */\n  dup2\n    /* \"#utility.yul\":1693:1705   */\n  swap1\n  pop\n    /* \"#utility.yul\":1651:1711   */\n  swap2\n  swap1\n  pop\n  jump\t// out\n    /* \"#utility.yul\":1717:1859   */\ntag_20:\n    /* \"#utility.yul\":1767:1776   */\n  0x00\n    /* \"#utility.yul\":1800:1853   */\n  tag_47\n    /* \"#utility.yul\":1818:1852   */\n  tag_48\n    /* \"#utility.yul\":1827:1851   */\n  tag_49\n    /* \"#utility.yul\":1845:1850   */\n  dup5\n    /* \"#utility.yul\":1827:1851   */\n  tag_18\n  jump\t// in\ntag_49:\n    /* \"#utility.yul\":1818:1852   */\n  tag_19\n  jump\t// in\ntag_48:\n    /* \"#utility.yul\":1800:1853   */\n  tag_18\n  jump\t// in\ntag_47:\n    /* \"#utility.yul\":1787:1853   */\n  swap1\n  pop\n    /* \"#utility.yul\":1717:1859   */\n  swap2\n  swap1\n  pop\n  jump\t// out\n    /* \"#utility.yul\":1865:1940   */\ntag_21:\n    /* \"#utility.yul\":1908:1911   */\n  0x00\n    /* \"#utility.yul\":1929:1934   */\n  dup2\n    /* \"#utility.yul\":1922:1934   */\n  swap1\n  pop\n    /* \"#utility.yul\":1865:1940   */\n  swap2\n  swap1\n  pop\n  jump\t// out\n    /* \"#utility.yul\":1946:2215   */\ntag_22:\n    /* \"#utility.yul\":2056:2095   */\n  tag_52\n    /* \"#utility.yul\":2087:2094   */\n  dup4\n    /* \"#utility.yul\":2056:2095   */\n  tag_20\n  jump\t// in\ntag_52:\n    /* \"#utility.yul\":2117:2208   */\n  tag_53\n    /* \"#utility.yul\":2166:2207   */\n  tag_54\n    /* \"#utility.yul\":2190:2206   */\n  dup3\n    /* \"#utility.yul\":2166:2207   */\n  tag_21\n  jump\t// in\ntag_54:\n    /* \"#utility.yul\":2158:2164   */\n  dup5\n    /* \"#utility.yul\":2151:2155   */\n  dup5\n    /* \"#utility.yul\":2145:2156   */\n  sload\n    /* \"#utility.yul\":2117:2208   */\n  tag_17\n  jump\t// in\ntag_53:\n    /* \"#utility.yul\":2111:2115   */\n  dup3\n    /* \"#utility.yul\":2104:2209   */\n  sstore\n    /* \"#utility.yul\":2022:2215   */\n  pop\n    /* \"#utility.yul\":1946:2215   */\n  pop\n  pop\n  pop\n  jump\t// out\n    /* \"#utility.yul\":2221:2294   */\ntag_23:\n    /* \"#utility.yul\":2266:2269   */\n  0x00\n    /* \"#utility.yul\":2221:2294   */\n  swap1\n  jump\t// out\n    /* \"#utility.yul\":2300:2489   */\ntag_24:\n    /* \"#utility.yul\":2377:2409   */\n  tag_57\n  tag_23\n  jump\t// in\ntag_57:\n    /* \"#utility.yul\":2418:2483   */\n  tag_58\n    /* \"#utility.yul\":2476:2482   */\n  dup2\n    /* \"#utility.yul\":2468:2474   */\n  dup5\n    /* \"#utility.yul\":2462:2466   */\n  dup5\n    /* \"#utility.yul\":2418:2483   */\n  tag_22\n  jump\t// in\ntag_58:\n    /* \"#utility.yul\":2353:2489   */\n  pop\n    /* \"#utility.yul\":2300:2489   */\n  pop\n  pop\n  jump\t// out\n    /* \"#utility.yul\":2495:2681   */\ntag_25:\n    /* \"#utility.yul\":2555:2675   */\ntag_60:\n    /* \"#utility.yul\":2572:2575   */\n  dup2\n    /* \"#utility.yul\":2565:2570   */\n  dup2\n    /* \"#utility.yul\":2562:2576   */\n  lt\n    /* \"#utility.yul\":2555:2675   */\n  iszero\n  tag_62\n  jumpi\n    /* \"#utility.yul\":2626:2665   */\n  tag_63\n    /* \"#utility.yul\":2663:2664   */\n  0x00\n    /* \"#utility.yul\":2656:2661   */\n  dup3\n    /* \"#utility.yul\":2626:2665   */\n  tag_24\n  jump\t// in\ntag_63:\n    /* \"#utility.yul\":2599:2600   */\n  0x01\n    /* \"#utility.yul\":2592:2597   */\n  dup2\n    /* \"#utility.yul\":2588:2601   */\n  add\n    /* \"#utility.yul\":2579:2601   */\n  swap1\n  pop\n    /* \"#utility.yul\":2555:2675   */\n  jump(tag_60)\ntag_62:\n    /* \"#utility.yul\":2495:2681   */\n  pop\n  pop\n  jump\t// out\n    /* \"#utility.yul\":2687:3230   */\ntag_26:\n    /* \"#utility.yul\":2788:2790   */\n  0x1f\n    /* \"#utility.yul\":2783:2786   */\n  dup3\n    /* \"#utility.yul\":2780:2791   */\n  gt\n    /* \"#utility.yul\":2777:3223   */\n  iszero\n  tag_65\n  jumpi\n    /* \"#utility.yul\":2822:2860   */\n  tag_66\n    /* \"#utility.yul\":2854:2859   */\n  dup2\n    /* \"#utility.yul\":2822:2860   */\n  tag_14\n  jump\t// in\ntag_66:\n    /* \"#utility.yul\":2906:2935   */\n  tag_67\n    /* \"#utility.yul\":2924:2934   */\n  dup5\n    /* \"#utility.yul\":2906:2935   */\n  tag_15\n  jump\t// in\ntag_67:\n    /* \"#utility.yul\":2896:2904   */\n  dup2\n    /* \"#utility.yul\":2892:2936   */\n  add\n    /* \"#utility.yul\":3089:3091   */\n  0x20\n    /* \"#utility.yul\":3077:3087   */\n  dup6\n    /* \"#utility.yul\":3074:3092   */\n  lt\n    /* \"#utility.yul\":3071:3120   */\n  iszero\n  tag_68\n  jumpi\n    /* \"#utility.yul\":3110:3118   */\n  dup2\n    /* \"#utility.yul\":3095:3118   */\n  swap1\n  pop\n    /* \"#utility.yul\":3071:3120   */\ntag_68:\n    /* \"#utility.yul\":3133:3213   */\n  tag_69\n    /* \"#utility.yul\":3189:3211   */\n  tag_70\n    /* \"#utility.yul\":3207:3210   */\n  dup6\n    /* \"#utility.yul\":3189:3211   */\n  tag_15\n  jump\t// in\ntag_70:\n    /* \"#utility.yul\":3179:3187   */\n  dup4\n    /* \"#utility.yul\":3175:3212   */\n  add\n    /* \"#utility.yul\":3162:3173   */\n  dup3\n    /* \"#utility.yul\":3133:3213   */\n  tag_25\n  jump\t// in\ntag_69:\n    /* \"#utility.yul\":2792:3223   */\n  pop\n  pop\n    /* \"#utility.yul\":2777:3223   */\ntag_65:\n    /* \"#utility.yul\":2687:3230   */\n  pop\n  pop\n  pop\n  jump\t// out\n    /* \"#utility.yul\":3236:3353   */\ntag_27:\n    /* \"#utility.yul\":3290:3298   */\n  0x00\n    /* \"#utility.yul\":3340:3345   */\n  dup3\n    /* \"#utility.yul\":3334:3338   */\n  dup3\n    /* \"#utility.yul\":3330:3346   */\n  shr\n    /* \"#utility.yul\":3309:3346   */\n  swap1\n  pop\n    /* \"#utility.yul\":3236:3353   */\n  swap3\n  swap2\n  pop\n  pop\n  jump\t// out\n    /* \"#utility.yul\":3359:3528   */\ntag_28:\n    /* \"#utility.yul\":3403:3409   */\n  0x00\n    /* \"#utility.yul\":3436:3487   */\n  tag_73\n    /* \"#utility.yul\":3484:3485   */\n  0x00\n    /* \"#utility.yul\":3480:3486   */\n  not\n    /* \"#utility.yul\":3472:3477   */\n  dup5\n    /* \"#utility.yul\":3469:3470   */\n  0x08\n    /* \"#utility.yul\":3465:3478   */\n  mul\n    /* \"#utility.yul\":3436:3487   */\n  tag_27\n  jump\t// in\ntag_73:\n    /* \"#utility.yul\":3432:3488   */\n  not\n    /* \"#utility.yul\":3517:3521   */\n  dup1\n    /* \"#utility.yul\":3511:3515   */\n  dup4\n    /* \"#utility.yul\":3507:3522   */\n  and\n    /* \"#utility.yul\":3497:3522   */\n  swap2\n  pop\n    /* \"#utility.yul\":3410:3528   */\n  pop\n    /* \"#utility.yul\":3359:3528   */\n  swap3\n  swap2\n  pop\n  pop\n  jump\t// out\n    /* \"#utility.yul\":3533:3828   */\ntag_29:\n    /* \"#utility.yul\":3609:3613   */\n  0x00\n    /* \"#utility.yul\":3755:3784   */\n  tag_75\n    /* \"#utility.yul\":3780:3783   */\n  dup4\n    /* \"#utility.yul\":3774:3778   */\n  dup4\n    /* \"#utility.yul\":3755:3784   */\n  tag_28\n  jump\t// in\ntag_75:\n    /* \"#utility.yul\":3747:3784   */\n  swap2\n  pop\n    /* \"#utility.yul\":3817:3820   */\n  dup3\n    /* \"#utility.yul\":3814:3815   */\n  0x02\n    /* \"#utility.yul\":3810:3821   */\n  mul\n    /* \"#utility.yul\":3804:3808   */\n  dup3\n    /* \"#utility.yul\":3801:3822   */\n  or\n    /* \"#utility.yul\":3793:3822   */\n  swap1\n  pop\n    /* \"#utility.yul\":3533:3828   */\n  swap3\n  swap2\n  pop\n  pop\n  jump\t// out\n    /* \"#utility.yul\":3833:5228   */\ntag_6:\n    /* \"#utility.yul\":3950:3987   */\n  tag_77\n    /* \"#utility.yul\":3983:3986   */\n  dup3\n    /* \"#utility.yul\":3950:3987   */\n  tag_10\n  jump\t// in\ntag_77:\n    /* \"#utility.yul\":4052:4070   */\n  0xffffffffffffffff\n    /* \"#utility.yul\":4044:4050   */\n  dup2\n    /* \"#utility.yul\":4041:4071   */\n  gt\n    /* \"#utility.yul\":4038:4094   */\n  iszero\n  tag_78\n  jumpi\n    /* \"#utility.yul\":4074:4092   */\n  tag_79\n  tag_11\n  jump\t// in\ntag_79:\n    /* \"#utility.yul\":4038:4094   */\ntag_78:\n    /* \"#utility.yul\":4118:4156   */\n  tag_80\n    /* \"#utility.yul\":4150:4154   */\n  dup3\n    /* \"#utility.yul\":4144:4155   */\n  sload\n    /* \"#utility.yul\":4118:4156   */\n  tag_13\n  jump\t// in\ntag_80:\n    /* \"#utility.yul\":4203:4270   */\n  tag_81\n    /* \"#utility.yul\":4263:4269   */\n  dup3\n    /* \"#utility.yul\":4255:4261   */\n  dup3\n    /* \"#utility.yul\":4249:4253   */\n  dup6\n    /* \"#utility.yul\":4203:4270   */\n  tag_26\n  jump\t// in\ntag_81:\n    /* \"#utility.yul\":4297:4298   */\n  0x00\n    /* \"#utility.yul\":4321:4325   */\n  0x20\n    /* \"#utility.yul\":4308:4325   */\n  swap1\n  pop\n    /* \"#utility.yul\":4353:4355   */\n  0x1f\n    /* \"#utility.yul\":4345:4351   */\n  dup4\n    /* \"#utility.yul\":4342:4356   */\n  gt\n    /* \"#utility.yul\":4370:4371   */\n  0x01\n    /* \"#utility.yul\":4365:4983   */\n  dup2\n  eq\n  tag_83\n  jumpi\n    /* \"#utility.yul\":5027:5028   */\n  0x00\n    /* \"#utility.yul\":5044:5050   */\n  dup5\n    /* \"#utility.yul\":5041:5118   */\n  iszero\n  tag_84\n  jumpi\n    /* \"#utility.yul\":5093:5102   */\n  dup3\n    /* \"#utility.yul\":5088:5091   */\n  dup8\n    /* \"#utility.yul\":5084:5103   */\n  add\n    /* \"#utility.yul\":5078:5104   */\n  mload\n    /* \"#utility.yul\":5069:5104   */\n  swap1\n  pop\n    /* \"#utility.yul\":5041:5118   */\ntag_84:\n    /* \"#utility.yul\":5144:5211   */\n  tag_85\n    /* \"#utility.yul\":5204:5210   */\n  dup6\n    /* \"#utility.yul\":5197:5202   */\n  dup3\n    /* \"#utility.yul\":5144:5211   */\n  tag_29\n  jump\t// in\ntag_85:\n    /* \"#utility.yul\":5138:5142   */\n  dup7\n    /* \"#utility.yul\":5131:5212   */\n  sstore\n    /* \"#utility.yul\":5000:5222   */\n  pop\n    /* \"#utility.yul\":4335:5222   */\n  jump(tag_82)\n    /* \"#utility.yul\":4365:4983   */\ntag_83:\n    /* \"#utility.yul\":4417:4421   */\n  0x1f\n    /* \"#utility.yul\":4413:4422   */\n  not\n    /* \"#utility.yul\":4405:4411   */\n  dup5\n    /* \"#utility.yul\":4401:4423   */\n  and\n    /* \"#utility.yul\":4451:4488   */\n  tag_86\n    /* \"#utility.yul\":4483:4487   */\n  dup7\n    /* \"#utility.yul\":4451:4488   */\n  tag_14\n  jump\t// in\ntag_86:\n    /* \"#utility.yul\":4510:4511   */\n  0x00\n    /* \"#utility.yul\":4524:4732   */\ntag_87:\n    /* \"#utility.yul\":4538:4545   */\n  dup3\n    /* \"#utility.yul\":4535:4536   */\n  dup2\n    /* \"#utility.yul\":4532:4546   */\n  lt\n    /* \"#utility.yul\":4524:4732   */\n  iszero\n  tag_89\n  jumpi\n    /* \"#utility.yul\":4617:4626   */\n  dup5\n    /* \"#utility.yul\":4612:4615   */\n  dup10\n    /* \"#utility.yul\":4608:4627   */\n  add\n    /* \"#utility.yul\":4602:4628   */\n  mload\n    /* \"#utility.yul\":4594:4600   */\n  dup3\n    /* \"#utility.yul\":4587:4629   */\n  sstore\n    /* \"#utility.yul\":4668:4669   */\n  0x01\n    /* \"#utility.yul\":4660:4666   */\n  dup3\n    /* \"#utility.yul\":4656:4670   */\n  add\n    /* \"#utility.yul\":4646:4670   */\n  swap2\n  pop\n    /* \"#utility.yul\":4715:4717   */\n  0x20\n    /* \"#utility.yul\":4704:4713   */\n  dup6\n    /* \"#utility.yul\":4700:4718   */\n  add\n    /* \"#utility.yul\":4687:4718   */\n  swap5\n  pop\n    /* \"#utility.yul\":4561:4565   */\n  0x20\n    /* \"#utility.yul\":4558:4559   */\n  dup2\n    /* \"#utility.yul\":4554:4566   */\n  add\n    /* \"#utility.yul\":4549:4566   */\n  swap1\n  pop\n    /* \"#utility.yul\":4524:4732   */\n  jump(tag_87)\ntag_89:\n    /* \"#utility.yul\":4760:4766   */\n  dup7\n    /* \"#utility.yul\":4751:4758   */\n  dup4\n    /* \"#utility.yul\":4748:4767   */\n  lt\n    /* \"#utility.yul\":4745:4924   */\n  iszero\n  tag_90\n  jumpi\n    /* \"#utility.yul\":4818:4827   */\n  dup5\n    /* \"#utility.yul\":4813:4816   */\n  dup10\n    /* \"#utility.yul\":4809:4828   */\n  add\n    /* \"#utility.yul\":4803:4829   */\n  mload\n    /* \"#utility.yul\":4861:4909   */\n  tag_91\n    /* \"#utility.yul\":4903:4907   */\n  0x1f\n    /* \"#utility.yul\":4895:4901   */\n  dup10\n    /* \"#utility.yul\":4891:4908   */\n  and\n    /* \"#utility.yul\":4880:4889   */\n  dup3\n    /* \"#utility.yul\":4861:4909   */\n  tag_28\n  jump\t// in\ntag_91:\n    /* \"#utility.yul\":4853:4859   */\n  dup4\n    /* \"#utility.yul\":4846:4910   */\n  sstore\n    /* \"#utility.yul\":4768:4924   */\n  pop\n    /* \"#utility.yul\":4745:4924   */\ntag_90:\n    /* \"#utility.yul\":4970:4971   */\n  0x01\n    /* \"#utility.yul\":4966:4967   */\n  0x02\n    /* \"#utility.yul\":4958:4964   */\n  dup9\n    /* \"#utility.yul\":4954:4968   */\n  mul\n    /* \"#utility.yul\":4950:4972   */\n  add\n    /* \"#utility.yul\":4944:4948   */\n  dup9\n    /* \"#utility.yul\":4937:4973   */\n  sstore\n    /* \"#utility.yul\":4372:4983   */\n  pop\n  pop\n  pop\n    /* \"#utility.yul\":4335:5222   */\ntag_82:\n  pop\n    /* \"#utility.yul\":3925:5228   */\n  pop\n  pop\n  pop\n    /* \"#utility.yul\":3833:5228   */\n  pop\n  pop\n  jump\t// out\n    /* \"contracts/MechaWarNFT/MechaWar.sol\":117:3456  contract MechaWar is ERC721 {... */\ntag_9:\n  dataSize(sub_0)\n  dup1\n  dataOffset(sub_0)\n  0x00\n  codecopy\n  0x00\n  return\nstop\n\nsub_0: assembly {\n        /* \"contracts/MechaWarNFT/MechaWar.sol\":117:3456  contract MechaWar is ERC721 {... */\n      mstore(0x40, 0x80)\n      callvalue\n      dup1\n      iszero\n      tag_1\n      jumpi\n      0x00\n      dup1\n      revert\n    tag_1:\n      pop\n      jumpi(tag_2, lt(calldatasize, 0x04))\n      shr(0xe0, calldataload(0x00))\n      dup1\n      0x6352211e\n      gt\n      tag_21\n      jumpi\n      dup1\n      0xa22cb465\n      gt\n      tag_22\n      jumpi\n      dup1\n      0xa22cb465\n      eq\n      tag_16\n      jumpi\n      dup1\n      0xb88d4fde\n      eq\n      tag_17\n      jumpi\n      dup1\n      0xc87b56dd\n      eq\n      tag_18\n      jumpi\n      dup1\n      0xe985e9c5\n      eq\n      tag_19\n      jumpi\n      dup1\n      0xf6b12f28\n      eq\n      tag_20\n      jumpi\n      jump(tag_2)\n    tag_22:\n      dup1\n      0x6352211e\n      eq\n      tag_12\n      jumpi\n      dup1\n      0x669f8bcc\n      eq\n      tag_13\n      jumpi\n      dup1\n      0x70a08231\n      eq\n      tag_14\n      jumpi\n      dup1\n      0x95d89b41\n      eq\n      tag_15\n      jumpi\n      jump(tag_2)\n    tag_21:\n      dup1\n      0x23b872dd\n      gt\n      tag_23\n      jumpi\n      dup1\n      0x23b872dd\n      eq\n      tag_7\n      jumpi\n      dup1\n      0x2a0c5221\n      eq\n      tag_8\n      jumpi\n      dup1\n      0x42842e0e\n      eq\n      tag_9\n      jumpi\n      dup1\n      0x5ecf0202\n      eq\n      tag_10\n      jumpi\n      dup1\n      0x606d2e96\n      eq\n      tag_11\n      jumpi\n      jump(tag_2)\n    tag_23:\n      dup1\n      0x01ffc9a7\n      eq\n      tag_3\n      jumpi\n      dup1\n      0x06fdde03\n      eq\n      tag_4\n      jumpi\n      dup1\n      0x081812fc\n      eq\n      tag_5\n      jumpi\n      dup1\n      0x095ea7b3\n      eq\n      tag_6\n      jumpi\n    tag_2:\n      0x00\n      dup1\n      revert\n        /* \"@openzeppelin/contracts/token/ERC721/ERC721.sol\":1561:1861  function supportsInterface(bytes4 interfaceId) public view virtual override(ERC165, IERC165) returns (bool) {... */\n    tag_3:\n      tag_24\n      0x04\n      dup1\n      calldatasize\n      sub\n      dup2\n      add\n      swap1\n      tag_25\n      swap2\n      swap1\n      tag_26\n      jump\t// in\n    tag_25:\n      tag_27\n      jump\t// in\n    tag_24:\n      mload(0x40)\n      tag_28\n      swap2\n      swap1\n      tag_29\n      jump\t// in\n    tag_28:\n      mload(0x40)\n      dup1\n      swap2\n      sub\n      swap1\n      return\n        /* \"@openzeppelin/contracts/token/ERC721/ERC721.sol\":2365:2454  function name() public view virtual returns (string memory) {... */\n    tag_4:\n      tag_30\n      tag_31\n      jump\t// in\n    tag_30:\n      mload(0x40)\n      tag_32\n      swap2\n      swap1\n      tag_33\n      jump\t// in\n    tag_32:\n      mload(0x40)\n      dup1\n      swap2\n      sub\n      swap1\n      return\n        /* \"@openzeppelin/contracts/token/ERC721/ERC721.sol\":3497:3651  function getApproved(uint256 tokenId) public view virtual returns (address) {... */\n    tag_5:\n      tag_34\n      0x04\n      dup1\n      calldatasize\n      sub\n      dup2\n      add\n      swap1\n      tag_35\n      swap2\n      swap1\n      tag_36\n      jump\t// in\n    tag_35:\n      tag_37\n      jump\t// in\n    tag_34:\n      mload(0x40)\n      tag_38\n      swap2\n      swap1\n      tag_39\n      jump\t// in\n    tag_38:\n      mload(0x40)\n      dup1\n      swap2\n      sub\n      swap1\n      return\n        /* \"@openzeppelin/contracts/token/ERC721/ERC721.sol\":3323:3436  function approve(address to, uint256 tokenId) public virtual {... */\n    tag_6:\n      tag_40\n      0x04\n      dup1\n      calldatasize\n      sub\n      dup2\n      add\n      swap1\n      tag_41\n      swap2\n      swap1\n      tag_42\n      jump\t// in\n    tag_41:\n      tag_43\n      jump\t// in\n    tag_40:\n      stop\n        /* \"@openzeppelin/contracts/token/ERC721/ERC721.sol\":4143:4721  function transferFrom(address from, address to, uint256 tokenId) public virtual {... */\n    tag_7:\n      tag_44\n      0x04\n      dup1\n      calldatasize\n      sub\n      dup2\n      add\n      swap1\n      tag_45\n      swap2\n      swap1\n      tag_46\n      jump\t// in\n    tag_45:\n      tag_47\n      jump\t// in\n    tag_44:\n      stop\n        /* \"contracts/MechaWarNFT/MechaWar.sol\":1346:3453  function battle(uint256 _attackingMecha, uint256 _defendingMecha) public onlyOwnerOf(_attackingMecha) {... */\n    tag_8:\n      tag_48\n      0x04\n      dup1\n      calldatasize\n      sub\n      dup2\n      add\n      swap1\n      tag_49\n      swap2\n      swap1\n      tag_50\n      jump\t// in\n    tag_49:\n      tag_51\n      jump\t// in\n    tag_48:\n      stop\n        /* \"@openzeppelin/contracts/token/ERC721/ERC721.sol\":4787:4919  function safeTransferFrom(address from, address to, uint256 tokenId) public {... */\n    tag_9:\n      tag_52\n      0x04\n      dup1\n      calldatasize\n      sub\n      dup2\n      add\n      swap1\n      tag_53\n      swap2\n      swap1\n      tag_46\n      jump\t// in\n    tag_53:\n      tag_54\n      jump\t// in\n    tag_52:\n      stop\n        /* \"contracts/MechaWarNFT/MechaWar.sol\":473:494  Mecha[] public mechas */\n    tag_10:\n      tag_55\n      0x04\n      dup1\n      calldatasize\n      sub\n      dup2\n      add\n      swap1\n      tag_56\n      swap2\n      swap1\n      tag_36\n      jump\t// in\n    tag_56:\n      tag_57\n      jump\t// in\n    tag_55:\n      mload(0x40)\n      tag_58\n      swap6\n      swap5\n      swap4\n      swap3\n      swap2\n      swap1\n      tag_59\n      jump\t// in\n    tag_58:\n      mload(0x40)\n      dup1\n      swap2\n      sub\n      swap1\n      return\n        /* \"contracts/MechaWarNFT/MechaWar.sol\":500:529  BattleStruct[] public battles */\n    tag_11:\n      tag_60\n      0x04\n      dup1\n      calldatasize\n      sub\n      dup2\n      add\n      swap1\n      tag_61\n      swap2\n      swap1\n      tag_36\n      jump\t// in\n    tag_61:\n      tag_62\n      jump\t// in\n    tag_60:\n      mload(0x40)\n      tag_63\n      swap5\n      swap4\n      swap3\n      swap2\n      swap1\n      tag_64\n      jump\t// in\n    tag_63:\n      mload(0x40)\n      dup1\n      swap2\n      sub\n      swap1\n      return\n        /* \"@openzeppelin/contracts/token/ERC721/ERC721.sol\":2185:2303  function ownerOf(uint256 tokenId) public view virtual returns (address) {... */\n    tag_12:\n      tag_65\n      0x04\n      dup1\n      calldatasize\n      sub\n      dup2\n      add\n      swap1\n      tag_66\n      swap2\n      swap1\n      tag_36\n      jump\t// in\n    tag_66:\n      tag_67\n      jump\t// in\n    tag_65:\n      mload(0x40)\n      tag_68\n      swap2\n      swap1\n      tag_39\n      jump\t// in\n    tag_68:\n      mload(0x40)\n      dup1\n      swap2\n      sub\n      swap1\n      return\n        /* \"contracts/MechaWarNFT/MechaWar.sol\":811:1341  function createNewMecha(... */\n    tag_13:\n      tag_69\n      0x04\n      dup1\n      calldatasize\n      sub\n      dup2\n      add\n      swap1\n      tag_70\n      swap2\n      swap1\n      tag_71\n      jump\t// in\n    tag_70:\n      tag_72\n      jump\t// in\n    tag_69:\n      stop\n        /* \"@openzeppelin/contracts/token/ERC721/ERC721.sol\":1920:2128  function balanceOf(address owner) public view virtual returns (uint256) {... */\n    tag_14:\n      tag_73\n      0x04\n      dup1\n      calldatasize\n      sub\n      dup2\n      add\n      swap1\n      tag_74\n      swap2\n      swap1\n      tag_75\n      jump\t// in\n    tag_74:\n      tag_76\n      jump\t// in\n    tag_73:\n      mload(0x40)\n      tag_77\n      swap2\n      swap1\n      tag_78\n      jump\t// in\n    tag_77:\n      mload(0x40)\n      dup1\n      swap2\n      sub\n      swap1\n      return\n        /* \"@openzeppelin/contracts/token/ERC721/ERC721.sol\":2518:2611  function symbol() public view virtual returns (string memory) {... */\n    tag_15:\n      tag_79\n      tag_80\n      jump\t// in\n    tag_79:\n      mload(0x40)\n      tag_81\n      swap2\n      swap1\n      tag_33\n      jump\t// in\n    tag_81:\n      mload(0x40)\n      dup1\n      swap2\n      sub\n      swap1\n      return\n        /* \"@openzeppelin/contracts/token/ERC721/ERC721.sol\":3718:3862  function setApprovalForAll(address operator, bool approved) public virtual {... */\n    tag_16:\n      tag_82\n      0x04\n      dup1\n      calldatasize\n      sub\n      dup2\n      add\n      swap1\n      tag_83\n      swap2\n      swap1\n      tag_84\n      jump\t// in\n    tag_83:\n      tag_85\n      jump\t// in\n    tag_82:\n      stop\n        /* \"@openzeppelin/contracts/token/ERC721/ERC721.sol\":4985:5193  function safeTransferFrom(address from, address to, uint256 tokenId, bytes memory data) public virtual {... */\n    tag_17:\n      tag_86\n      0x04\n      dup1\n      calldatasize\n      sub\n      dup2\n      add\n      swap1\n      tag_87\n      swap2\n      swap1\n      tag_88\n      jump\t// in\n    tag_87:\n      tag_89\n      jump\t// in\n    tag_86:\n      stop\n        /* \"@openzeppelin/contracts/token/ERC721/ERC721.sol\":2677:2932  function tokenURI(uint256 tokenId) public view virtual returns (string memory) {... */\n    tag_18:\n      tag_90\n      0x04\n      dup1\n      calldatasize\n      sub\n      dup2\n      add\n      swap1\n      tag_91\n      swap2\n      swap1\n      tag_36\n      jump\t// in\n    tag_91:\n      tag_92\n      jump\t// in\n    tag_90:\n      mload(0x40)\n      tag_93\n      swap2\n      swap1\n      tag_33\n      jump\t// in\n    tag_93:\n      mload(0x40)\n      dup1\n      swap2\n      sub\n      swap1\n      return\n        /* \"@openzeppelin/contracts/token/ERC721/ERC721.sol\":3928:4081  function isApprovedForAll(address owner, address operator) public view virtual returns (bool) {... */\n    tag_19:\n      tag_94\n      0x04\n      dup1\n      calldatasize\n      sub\n      dup2\n      add\n      swap1\n      tag_95\n      swap2\n      swap1\n      tag_96\n      jump\t// in\n    tag_95:\n      tag_97\n      jump\t// in\n    tag_94:\n      mload(0x40)\n      tag_98\n      swap2\n      swap1\n      tag_29\n      jump\t// in\n    tag_98:\n      mload(0x40)\n      dup1\n      swap2\n      sub\n      swap1\n      return\n        /* \"contracts/MechaWarNFT/MechaWar.sol\":535:559  address public gameOwner */\n    tag_20:\n      tag_99\n      tag_100\n      jump\t// in\n    tag_99:\n      mload(0x40)\n      tag_101\n      swap2\n      swap1\n      tag_39\n      jump\t// in\n    tag_101:\n      mload(0x40)\n      dup1\n      swap2\n      sub\n      swap1\n      return\n        /* \"@openzeppelin/contracts/token/ERC721/ERC721.sol\":1561:1861  function supportsInterface(bytes4 interfaceId) public view virtual override(ERC165, IERC165) returns (bool) {... */\n    tag_27:\n        /* \"@openzeppelin/contracts/token/ERC721/ERC721.sol\":1663:1667  bool */\n      0x00\n        /* \"@openzeppelin/contracts/token/ERC721/ERC721.sol\":1713:1738  type(IERC721).interfaceId */\n      0x80ac58cd00000000000000000000000000000000000000000000000000000000\n        /* \"@openzeppelin/contracts/token/ERC721/ERC721.sol\":1698:1738  interfaceId == type(IERC721).interfaceId */\n      not(0xffffffffffffffffffffffffffffffffffffffffffffffffffffffff)\n      and\n        /* \"@openzeppelin/contracts/token/ERC721/ERC721.sol\":1698:1709  interfaceId */\n      dup3\n        /* \"@openzeppelin/contracts/token/ERC721/ERC721.sol\":1698:1738  interfaceId == type(IERC721).interfaceId */\n      not(0xffffffffffffffffffffffffffffffffffffffffffffffffffffffff)\n      and\n      eq\n        /* \"@openzeppelin/contracts/token/ERC721/ERC721.sol\":1698:1802  interfaceId == type(IERC721).interfaceId ||... */\n      dup1\n      tag_103\n      jumpi\n      pop\n        /* \"@openzeppelin/contracts/token/ERC721/ERC721.sol\":1769:1802  type(IERC721Metadata).interfaceId */\n      0x5b5e139f00000000000000000000000000000000000000000000000000000000\n        /* \"@openzeppelin/contracts/token/ERC721/ERC721.sol\":1754:1802  interfaceId == type(IERC721Metadata).interfaceId */\n      not(0xffffffffffffffffffffffffffffffffffffffffffffffffffffffff)\n      and\n        /* \"@openzeppelin/contracts/token/ERC721/ERC721.sol\":1754:1765  interfaceId */\n      dup3\n        /* \"@openzeppelin/contracts/token/ERC721/ERC721.sol\":1754:1802  interfaceId == type(IERC721Metadata).interfaceId */\n      not(0xffffffffffffffffffffffffffffffffffffffffffffffffffffffff)\n      and\n      eq\n        /* \"@openzeppelin/contracts/token/ERC721/ERC721.sol\":1698:1802  interfaceId == type(IERC721).interfaceId ||... */\n    tag_103:\n        /* \"@openzeppelin/contracts/token/ERC721/ERC721.sol\":1698:1854  interfaceId == type(IERC721).interfaceId ||... */\n      dup1\n      tag_104\n      jumpi\n      pop\n        /* \"@openzeppelin/contracts/token/ERC721/ERC721.sol\":1818:1854  super.supportsInterface(interfaceId) */\n      tag_105\n        /* \"@openzeppelin/contracts/token/ERC721/ERC721.sol\":1842:1853  interfaceId */\n      dup3\n        /* \"@openzeppelin/contracts/token/ERC721/ERC721.sol\":1818:1841  super.supportsInterface */\n      tag_106\n        /* \"@openzeppelin/contracts/token/ERC721/ERC721.sol\":1818:1854  super.supportsInterface(interfaceId) */\n      jump\t// in\n    tag_105:\n        /* \"@openzeppelin/contracts/token/ERC721/ERC721.sol\":1698:1854  interfaceId == type(IERC721).interfaceId ||... */\n    tag_104:\n        /* \"@openzeppelin/contracts/token/ERC721/ERC721.sol\":1679:1854  return... */\n      swap1\n      pop\n        /* \"@openzeppelin/contracts/token/ERC721/ERC721.sol\":1561:1861  function supportsInterface(bytes4 interfaceId) public view virtual override(ERC165, IERC165) returns (bool) {... */\n      swap2\n      swap1\n      pop\n      jump\t// out\n        /* \"@openzeppelin/contracts/token/ERC721/ERC721.sol\":2365:2454  function name() public view virtual returns (string memory) {... */\n    tag_31:\n        /* \"@openzeppelin/contracts/token/ERC721/ERC721.sol\":2410:2423  string memory */\n      0x60\n        /* \"@openzeppelin/contracts/token/ERC721/ERC721.sol\":2442:2447  _name */\n      0x00\n        /* \"@openzeppelin/contracts/token/ERC721/ERC721.sol\":2435:2447  return _name */\n      dup1\n      sload\n      tag_108\n      swap1\n      tag_109\n      jump\t// in\n    tag_108:\n      dup1\n      0x1f\n      add\n      0x20\n      dup1\n      swap2\n      div\n      mul\n      0x20\n      add\n      mload(0x40)\n      swap1\n      dup2\n      add\n      0x40\n      mstore\n      dup1\n      swap3\n      swap2\n      swap1\n      dup2\n      dup2\n      mstore\n      0x20\n      add\n      dup3\n      dup1\n      sload\n      tag_110\n      swap1\n      tag_109\n      jump\t// in\n    tag_110:\n      dup1\n      iszero\n      tag_111\n      jumpi\n      dup1\n      0x1f\n      lt\n      tag_112\n      jumpi\n      0x0100\n      dup1\n      dup4\n      sload\n      div\n      mul\n      dup4\n      mstore\n      swap2\n      0x20\n      add\n      swap2\n      jump(tag_111)\n    tag_112:\n      dup3\n      add\n      swap2\n      swap1\n      0x00\n      mstore\n      keccak256(0x00, 0x20)\n      swap1\n    tag_113:\n      dup2\n      sload\n      dup2\n      mstore\n      swap1\n      0x01\n      add\n      swap1\n      0x20\n      add\n      dup1\n      dup4\n      gt\n      tag_113\n      jumpi\n      dup3\n      swap1\n      sub\n      0x1f\n      and\n      dup3\n      add\n      swap2\n    tag_111:\n      pop\n      pop\n      pop\n      pop\n      pop\n      swap1\n      pop\n        /* \"@openzeppelin/contracts/token/ERC721/ERC721.sol\":2365:2454  function name() public view virtual returns (string memory) {... */\n      swap1\n      jump\t// out\n        /* \"@openzeppelin/contracts/token/ERC721/ERC721.sol\":3497:3651  function getApproved(uint256 tokenId) public view virtual returns (address) {... */\n    tag_37:\n        /* \"@openzeppelin/contracts/token/ERC721/ERC721.sol\":3564:3571  address */\n      0x00\n        /* \"@openzeppelin/contracts/token/ERC721/ERC721.sol\":3583:3605  _requireOwned(tokenId) */\n      tag_115\n        /* \"@openzeppelin/contracts/token/ERC721/ERC721.sol\":3597:3604  tokenId */\n      dup3\n        /* \"@openzeppelin/contracts/token/ERC721/ERC721.sol\":3583:3596  _requireOwned */\n      tag_116\n        /* \"@openzeppelin/contracts/token/ERC721/ERC721.sol\":3583:3605  _requireOwned(tokenId) */\n      jump\t// in\n    tag_115:\n      pop\n        /* \"@openzeppelin/contracts/token/ERC721/ERC721.sol\":3623:3644  _getApproved(tokenId) */\n      tag_117\n        /* \"@openzeppelin/contracts/token/ERC721/ERC721.sol\":3636:3643  tokenId */\n      dup3\n        /* \"@openzeppelin/contracts/token/ERC721/ERC721.sol\":3623:3635  _getApproved */\n      tag_118\n        /* \"@openzeppelin/contracts/token/ERC721/ERC721.sol\":3623:3644  _getApproved(tokenId) */\n      jump\t// in\n    tag_117:\n        /* \"@openzeppelin/contracts/token/ERC721/ERC721.sol\":3616:3644  return _getApproved(tokenId) */\n      swap1\n      pop\n        /* \"@openzeppelin/contracts/token/ERC721/ERC721.sol\":3497:3651  function getApproved(uint256 tokenId) public view virtual returns (address) {... */\n      swap2\n      swap1\n      pop\n      jump\t// out\n        /* \"@openzeppelin/contracts/token/ERC721/ERC721.sol\":3323:3436  function approve(address to, uint256 tokenId) public virtual {... */\n    tag_43:\n        /* \"@openzeppelin/contracts/token/ERC721/ERC721.sol\":3394:3429  _approve(to, tokenId, _msgSender()) */\n      tag_120\n        /* \"@openzeppelin/contracts/token/ERC721/ERC721.sol\":3403:3405  to */\n      dup3\n        /* \"@openzeppelin/contracts/token/ERC721/ERC721.sol\":3407:3414  tokenId */\n      dup3\n        /* \"@openzeppelin/contracts/token/ERC721/ERC721.sol\":3416:3428  _msgSender() */\n      tag_121\n        /* \"@openzeppelin/contracts/token/ERC721/ERC721.sol\":3416:3426  _msgSender */\n      tag_122\n        /* \"@openzeppelin/contracts/token/ERC721/ERC721.sol\":3416:3428  _msgSender() */\n      jump\t// in\n    tag_121:\n        /* \"@openzeppelin/contracts/token/ERC721/ERC721.sol\":3394:3402  _approve */\n      tag_123\n        /* \"@openzeppelin/contracts/token/ERC721/ERC721.sol\":3394:3429  _approve(to, tokenId, _msgSender()) */\n      jump\t// in\n    tag_120:\n        /* \"@openzeppelin/contracts/token/ERC721/ERC721.sol\":3323:3436  function approve(address to, uint256 tokenId) public virtual {... */\n      pop\n      pop\n      jump\t// out\n        /* \"@openzeppelin/contracts/token/ERC721/ERC721.sol\":4143:4721  function transferFrom(address from, address to, uint256 tokenId) public virtual {... */\n    tag_47:\n        /* \"@openzeppelin/contracts/token/ERC721/ERC721.sol\":4251:4252  0 */\n      0x00\n        /* \"@openzeppelin/contracts/token/ERC721/ERC721.sol\":4237:4253  to == address(0) */\n      0xffffffffffffffffffffffffffffffffffffffff\n      and\n        /* \"@openzeppelin/contracts/token/ERC721/ERC721.sol\":4237:4239  to */\n      dup3\n        /* \"@openzeppelin/contracts/token/ERC721/ERC721.sol\":4237:4253  to == address(0) */\n      0xffffffffffffffffffffffffffffffffffffffff\n      and\n      sub\n        /* \"@openzeppelin/contracts/token/ERC721/ERC721.sol\":4233:4320  if (to == address(0)) {... */\n      tag_125\n      jumpi\n        /* \"@openzeppelin/contracts/token/ERC721/ERC721.sol\":4306:4307  0 */\n      0x00\n        /* \"@openzeppelin/contracts/token/ERC721/ERC721.sol\":4276:4309  ERC721InvalidReceiver(address(0)) */\n      mload(0x40)\n      0x64a0ae9200000000000000000000000000000000000000000000000000000000\n      dup2\n      mstore\n      0x04\n      add\n      tag_126\n      swap2\n      swap1\n      tag_39\n      jump\t// in\n    tag_126:\n      mload(0x40)\n      dup1\n      swap2\n      sub\n      swap1\n      revert\n        /* \"@openzeppelin/contracts/token/ERC721/ERC721.sol\":4233:4320  if (to == address(0)) {... */\n    tag_125:\n        /* \"@openzeppelin/contracts/token/ERC721/ERC721.sol\":4538:4559  address previousOwner */\n      0x00\n        /* \"@openzeppelin/contracts/token/ERC721/ERC721.sol\":4562:4596  _update(to, tokenId, _msgSender()) */\n      tag_127\n        /* \"@openzeppelin/contracts/token/ERC721/ERC721.sol\":4570:4572  to */\n      dup4\n        /* \"@openzeppelin/contracts/token/ERC721/ERC721.sol\":4574:4581  tokenId */\n      dup4\n        /* \"@openzeppelin/contracts/token/ERC721/ERC721.sol\":4583:4595  _msgSender() */\n      tag_128\n        /* \"@openzeppelin/contracts/token/ERC721/ERC721.sol\":4583:4593  _msgSender */\n      tag_122\n        /* \"@openzeppelin/contracts/token/ERC721/ERC721.sol\":4583:4595  _msgSender() */\n      jump\t// in\n    tag_128:\n        /* \"@openzeppelin/contracts/token/ERC721/ERC721.sol\":4562:4569  _update */\n      tag_129\n        /* \"@openzeppelin/contracts/token/ERC721/ERC721.sol\":4562:4596  _update(to, tokenId, _msgSender()) */\n      jump\t// in\n    tag_127:\n        /* \"@openzeppelin/contracts/token/ERC721/ERC721.sol\":4538:4596  address previousOwner = _update(to, tokenId, _msgSender()) */\n      swap1\n      pop\n        /* \"@openzeppelin/contracts/token/ERC721/ERC721.sol\":4627:4631  from */\n      dup4\n        /* \"@openzeppelin/contracts/token/ERC721/ERC721.sol\":4610:4631  previousOwner != from */\n      0xffffffffffffffffffffffffffffffffffffffff\n      and\n        /* \"@openzeppelin/contracts/token/ERC721/ERC721.sol\":4610:4623  previousOwner */\n      dup2\n        /* \"@openzeppelin/contracts/token/ERC721/ERC721.sol\":4610:4631  previousOwner != from */\n      0xffffffffffffffffffffffffffffffffffffffff\n      and\n      eq\n        /* \"@openzeppelin/contracts/token/ERC721/ERC721.sol\":4606:4715  if (previousOwner != from) {... */\n      tag_130\n      jumpi\n        /* \"@openzeppelin/contracts/token/ERC721/ERC721.sol\":4675:4679  from */\n      dup4\n        /* \"@openzeppelin/contracts/token/ERC721/ERC721.sol\":4681:4688  tokenId */\n      dup3\n        /* \"@openzeppelin/contracts/token/ERC721/ERC721.sol\":4690:4703  previousOwner */\n      dup3\n        /* \"@openzeppelin/contracts/token/ERC721/ERC721.sol\":4654:4704  ERC721IncorrectOwner(from, tokenId, previousOwner) */\n      mload(0x40)\n      0x64283d7b00000000000000000000000000000000000000000000000000000000\n      dup2\n      mstore\n      0x04\n      add\n      tag_131\n      swap4\n      swap3\n      swap2\n      swap1\n      tag_132\n      jump\t// in\n    tag_131:\n      mload(0x40)\n      dup1\n      swap2\n      sub\n      swap1\n      revert\n        /* \"@openzeppelin/contracts/token/ERC721/ERC721.sol\":4606:4715  if (previousOwner != from) {... */\n    tag_130:\n        /* \"@openzeppelin/contracts/token/ERC721/ERC721.sol\":4223:4721  {... */\n      pop\n        /* \"@openzeppelin/contracts/token/ERC721/ERC721.sol\":4143:4721  function transferFrom(address from, address to, uint256 tokenId) public virtual {... */\n      pop\n      pop\n      pop\n      jump\t// out\n        /* \"contracts/MechaWarNFT/MechaWar.sol\":1346:3453  function battle(uint256 _attackingMecha, uint256 _defendingMecha) public onlyOwnerOf(_attackingMecha) {... */\n    tag_51:\n        /* \"contracts/MechaWarNFT/MechaWar.sol\":1431:1446  _attackingMecha */\n      dup2\n        /* \"contracts/MechaWarNFT/MechaWar.sol\":729:739  msg.sender */\n      caller\n        /* \"contracts/MechaWarNFT/MechaWar.sol\":708:739  ownerOf(_mechaID) == msg.sender */\n      0xffffffffffffffffffffffffffffffffffffffff\n      and\n        /* \"contracts/MechaWarNFT/MechaWar.sol\":708:725  ownerOf(_mechaID) */\n      tag_134\n        /* \"contracts/MechaWarNFT/MechaWar.sol\":716:724  _mechaID */\n      dup3\n        /* \"contracts/MechaWarNFT/MechaWar.sol\":708:715  ownerOf */\n      tag_67\n        /* \"contracts/MechaWarNFT/MechaWar.sol\":708:725  ownerOf(_mechaID) */\n      jump\t// in\n    tag_134:\n        /* \"contracts/MechaWarNFT/MechaWar.sol\":708:739  ownerOf(_mechaID) == msg.sender */\n      0xffffffffffffffffffffffffffffffffffffffff\n      and\n      eq\n        /* \"contracts/MechaWarNFT/MechaWar.sol\":700:787  require(ownerOf(_mechaID) == msg.sender, \"Apenas o dono pode batalhar com este Mecha!\") */\n      tag_135\n      jumpi\n      mload(0x40)\n      0x08c379a000000000000000000000000000000000000000000000000000000000\n      dup2\n      mstore\n      0x04\n      add\n      tag_136\n      swap1\n      tag_137\n      jump\t// in\n    tag_136:\n      mload(0x40)\n      dup1\n      swap2\n      sub\n      swap1\n      revert\n    tag_135:\n        /* \"contracts/MechaWarNFT/MechaWar.sol\":1481:1496  _defendingMecha */\n      dup2\n        /* \"contracts/MechaWarNFT/MechaWar.sol\":1462:1477  _attackingMecha */\n      dup4\n        /* \"contracts/MechaWarNFT/MechaWar.sol\":1462:1496  _attackingMecha != _defendingMecha */\n      sub\n        /* \"contracts/MechaWarNFT/MechaWar.sol\":1454:1541  require(_attackingMecha != _defendingMecha, \"Um Mecha nao pode lutar contra si mesmo!\") */\n      tag_139\n      jumpi\n      mload(0x40)\n      0x08c379a000000000000000000000000000000000000000000000000000000000\n      dup2\n      mstore\n      0x04\n      add\n      tag_140\n      swap1\n      tag_141\n      jump\t// in\n    tag_140:\n      mload(0x40)\n      dup1\n      swap2\n      sub\n      swap1\n      revert\n    tag_139:\n        /* \"contracts/MechaWarNFT/MechaWar.sol\":1548:1570  Mecha storage attacker */\n      0x00\n        /* \"contracts/MechaWarNFT/MechaWar.sol\":1573:1579  mechas */\n      0x06\n        /* \"contracts/MechaWarNFT/MechaWar.sol\":1580:1595  _attackingMecha */\n      dup5\n        /* \"contracts/MechaWarNFT/MechaWar.sol\":1573:1596  mechas[_attackingMecha] */\n      dup2\n      sload\n      dup2\n      lt\n      tag_142\n      jumpi\n      tag_143\n      tag_144\n      jump\t// in\n    tag_143:\n    tag_142:\n      swap1\n      0x00\n      mstore\n      keccak256(0x00, 0x20)\n      swap1\n      0x05\n      mul\n      add\n        /* \"contracts/MechaWarNFT/MechaWar.sol\":1548:1596  Mecha storage attacker = mechas[_attackingMecha] */\n      swap1\n      pop\n        /* \"contracts/MechaWarNFT/MechaWar.sol\":1602:1624  Mecha storage defender */\n      0x00\n        /* \"contracts/MechaWarNFT/MechaWar.sol\":1627:1633  mechas */\n      0x06\n        /* \"contracts/MechaWarNFT/MechaWar.sol\":1634:1649  _defendingMecha */\n      dup5\n        /* \"contracts/MechaWarNFT/MechaWar.sol\":1627:1650  mechas[_defendingMecha] */\n      dup2\n      sload\n      dup2\n      lt\n      tag_146\n      jumpi\n      tag_147\n      tag_144\n      jump\t// in\n    tag_147:\n    tag_146:\n      swap1\n      0x00\n      mstore\n      keccak256(0x00, 0x20)\n      swap1\n      0x05\n      mul\n      add\n        /* \"contracts/MechaWarNFT/MechaWar.sol\":1602:1650  Mecha storage defender = mechas[_defendingMecha] */\n      swap1\n      pop\n        /* \"contracts/MechaWarNFT/MechaWar.sol\":1657:1677  uint8 attackerRounds */\n      0x00\n        /* \"contracts/MechaWarNFT/MechaWar.sol\":1687:1707  uint8 defenderRounds */\n      dup1\n        /* \"contracts/MechaWarNFT/MechaWar.sol\":1785:1793  defender */\n      dup3\n        /* \"contracts/MechaWarNFT/MechaWar.sol\":1785:1802  defender.strength */\n      0x02\n      add\n      sload\n        /* \"contracts/MechaWarNFT/MechaWar.sol\":1765:1773  attacker */\n      dup5\n        /* \"contracts/MechaWarNFT/MechaWar.sol\":1765:1782  attacker.strength */\n      0x02\n      add\n      sload\n        /* \"contracts/MechaWarNFT/MechaWar.sol\":1765:1802  attacker.strength > defender.strength */\n      gt\n        /* \"contracts/MechaWarNFT/MechaWar.sol\":1761:1925  if (attacker.strength > defender.strength) {... */\n      iszero\n      tag_149\n      jumpi\n        /* \"contracts/MechaWarNFT/MechaWar.sol\":1832:1833  1 */\n      0x01\n        /* \"contracts/MechaWarNFT/MechaWar.sol\":1814:1833  attackerRounds += 1 */\n      dup3\n      tag_150\n      swap2\n      swap1\n      tag_151\n      jump\t// in\n    tag_150:\n      swap2\n      pop\n        /* \"contracts/MechaWarNFT/MechaWar.sol\":1761:1925  if (attacker.strength > defender.strength) {... */\n      jump(tag_152)\n    tag_149:\n        /* \"contracts/MechaWarNFT/MechaWar.sol\":1870:1878  defender */\n      dup3\n        /* \"contracts/MechaWarNFT/MechaWar.sol\":1870:1887  defender.strength */\n      0x02\n      add\n      sload\n        /* \"contracts/MechaWarNFT/MechaWar.sol\":1850:1858  attacker */\n      dup5\n        /* \"contracts/MechaWarNFT/MechaWar.sol\":1850:1867  attacker.strength */\n      0x02\n      add\n      sload\n        /* \"contracts/MechaWarNFT/MechaWar.sol\":1850:1887  attacker.strength < defender.strength */\n      lt\n        /* \"contracts/MechaWarNFT/MechaWar.sol\":1846:1925  if (attacker.strength < defender.strength) {... */\n      iszero\n      tag_153\n      jumpi\n        /* \"contracts/MechaWarNFT/MechaWar.sol\":1917:1918  1 */\n      0x01\n        /* \"contracts/MechaWarNFT/MechaWar.sol\":1899:1918  defenderRounds += 1 */\n      dup2\n      tag_154\n      swap2\n      swap1\n      tag_151\n      jump\t// in\n    tag_154:\n      swap1\n      pop\n        /* \"contracts/MechaWarNFT/MechaWar.sol\":1846:1925  if (attacker.strength < defender.strength) {... */\n    tag_153:\n        /* \"contracts/MechaWarNFT/MechaWar.sol\":1761:1925  if (attacker.strength > defender.strength) {... */\n    tag_152:\n        /* \"contracts/MechaWarNFT/MechaWar.sol\":1954:1962  defender */\n      dup3\n        /* \"contracts/MechaWarNFT/MechaWar.sol\":1954:1970  defender.defense */\n      0x03\n      add\n      sload\n        /* \"contracts/MechaWarNFT/MechaWar.sol\":1935:1943  attacker */\n      dup5\n        /* \"contracts/MechaWarNFT/MechaWar.sol\":1935:1951  attacker.defense */\n      0x03\n      add\n      sload\n        /* \"contracts/MechaWarNFT/MechaWar.sol\":1935:1970  attacker.defense > defender.defense */\n      gt\n        /* \"contracts/MechaWarNFT/MechaWar.sol\":1931:2091  if (attacker.defense > defender.defense) {... */\n      iszero\n      tag_155\n      jumpi\n        /* \"contracts/MechaWarNFT/MechaWar.sol\":2000:2001  1 */\n      0x01\n        /* \"contracts/MechaWarNFT/MechaWar.sol\":1982:2001  attackerRounds += 1 */\n      dup3\n      tag_156\n      swap2\n      swap1\n      tag_151\n      jump\t// in\n    tag_156:\n      swap2\n      pop\n        /* \"contracts/MechaWarNFT/MechaWar.sol\":1931:2091  if (attacker.defense > defender.defense) {... */\n      jump(tag_157)\n    tag_155:\n        /* \"contracts/MechaWarNFT/MechaWar.sol\":2037:2045  defender */\n      dup3\n        /* \"contracts/MechaWarNFT/MechaWar.sol\":2037:2053  defender.defense */\n      0x03\n      add\n      sload\n        /* \"contracts/MechaWarNFT/MechaWar.sol\":2018:2026  attacker */\n      dup5\n        /* \"contracts/MechaWarNFT/MechaWar.sol\":2018:2034  attacker.defense */\n      0x03\n      add\n      sload\n        /* \"contracts/MechaWarNFT/MechaWar.sol\":2018:2053  attacker.defense < defender.defense */\n      lt\n        /* \"contracts/MechaWarNFT/MechaWar.sol\":2014:2091  if (attacker.defense < defender.defense) {... */\n      iszero\n      tag_158\n      jumpi\n        /* \"contracts/MechaWarNFT/MechaWar.sol\":2083:2084  1 */\n      0x01\n        /* \"contracts/MechaWarNFT/MechaWar.sol\":2065:2084  defenderRounds += 1 */\n      dup2\n      tag_159\n      swap2\n      swap1\n      tag_151\n      jump\t// in\n    tag_159:\n      swap1\n      pop\n        /* \"contracts/MechaWarNFT/MechaWar.sol\":2014:2091  if (attacker.defense < defender.defense) {... */\n    tag_158:\n        /* \"contracts/MechaWarNFT/MechaWar.sol\":1931:2091  if (attacker.defense > defender.defense) {... */\n    tag_157:\n        /* \"contracts/MechaWarNFT/MechaWar.sol\":2120:2128  defender */\n      dup3\n        /* \"contracts/MechaWarNFT/MechaWar.sol\":2120:2136  defender.agility */\n      0x04\n      add\n      sload\n        /* \"contracts/MechaWarNFT/MechaWar.sol\":2101:2109  attacker */\n      dup5\n        /* \"contracts/MechaWarNFT/MechaWar.sol\":2101:2117  attacker.agility */\n      0x04\n      add\n      sload\n        /* \"contracts/MechaWarNFT/MechaWar.sol\":2101:2136  attacker.agility > defender.agility */\n      gt\n        /* \"contracts/MechaWarNFT/MechaWar.sol\":2097:2257  if (attacker.agility > defender.agility) {... */\n      iszero\n      tag_160\n      jumpi\n        /* \"contracts/MechaWarNFT/MechaWar.sol\":2166:2167  1 */\n      0x01\n        /* \"contracts/MechaWarNFT/MechaWar.sol\":2148:2167  attackerRounds += 1 */\n      dup3\n      tag_161\n      swap2\n      swap1\n      tag_151\n      jump\t// in\n    tag_161:\n      swap2\n      pop\n        /* \"contracts/MechaWarNFT/MechaWar.sol\":2097:2257  if (attacker.agility > defender.agility) {... */\n      jump(tag_162)\n    tag_160:\n        /* \"contracts/MechaWarNFT/MechaWar.sol\":2203:2211  defender */\n      dup3\n        /* \"contracts/MechaWarNFT/MechaWar.sol\":2203:2219  defender.agility */\n      0x04\n      add\n      sload\n        /* \"contracts/MechaWarNFT/MechaWar.sol\":2184:2192  attacker */\n      dup5\n        /* \"contracts/MechaWarNFT/MechaWar.sol\":2184:2200  attacker.agility */\n      0x04\n      add\n      sload\n        /* \"contracts/MechaWarNFT/MechaWar.sol\":2184:2219  attacker.agility < defender.agility */\n      lt\n        /* \"contracts/MechaWarNFT/MechaWar.sol\":2180:2257  if (attacker.agility < defender.agility) {... */\n      iszero\n      tag_163\n      jumpi\n        /* \"contracts/MechaWarNFT/MechaWar.sol\":2249:2250  1 */\n      0x01\n        /* \"contracts/MechaWarNFT/MechaWar.sol\":2231:2250  defenderRounds += 1 */\n      dup2\n      tag_164\n      swap2\n      swap1\n      tag_151\n      jump\t// in\n    tag_164:\n      swap1\n      pop\n        /* \"contracts/MechaWarNFT/MechaWar.sol\":2180:2257  if (attacker.agility < defender.agility) {... */\n    tag_163:\n        /* \"contracts/MechaWarNFT/MechaWar.sol\":2097:2257  if (attacker.agility > defender.agility) {... */\n    tag_162:\n        /* \"contracts/MechaWarNFT/MechaWar.sol\":2336:2337  0 */\n      0x00\n        /* \"contracts/MechaWarNFT/MechaWar.sol\":2318:2332  attackerRounds */\n      dup3\n        /* \"contracts/MechaWarNFT/MechaWar.sol\":2318:2337  attackerRounds == 0 */\n      0xff\n      and\n      sub\n        /* \"contracts/MechaWarNFT/MechaWar.sol\":2314:2857  if (attackerRounds == 0 ){... */\n      tag_165\n      jumpi\n        /* \"contracts/MechaWarNFT/MechaWar.sol\":2405:2406  1 */\n      0x01\n        /* \"contracts/MechaWarNFT/MechaWar.sol\":2384:2392  attacker */\n      dup5\n        /* \"contracts/MechaWarNFT/MechaWar.sol\":2384:2401  attacker.strength */\n      0x02\n      add\n      0x00\n        /* \"contracts/MechaWarNFT/MechaWar.sol\":2384:2406  attacker.strength -= 1 */\n      dup3\n      dup3\n      sload\n      tag_166\n      swap2\n      swap1\n      tag_167\n      jump\t// in\n    tag_166:\n      swap3\n      pop\n      pop\n      dup2\n      swap1\n      sstore\n      pop\n        /* \"contracts/MechaWarNFT/MechaWar.sol\":2441:2442  0 */\n      0x00\n        /* \"contracts/MechaWarNFT/MechaWar.sol\":2421:2429  attacker */\n      dup5\n        /* \"contracts/MechaWarNFT/MechaWar.sol\":2421:2438  attacker.strength */\n      0x02\n      add\n      sload\n        /* \"contracts/MechaWarNFT/MechaWar.sol\":2421:2442  attacker.strength < 0 */\n      lt\n        /* \"contracts/MechaWarNFT/MechaWar.sol\":2417:2465  if (attacker.strength < 0) attacker.strength = 0 */\n      iszero\n      tag_168\n      jumpi\n        /* \"contracts/MechaWarNFT/MechaWar.sol\":2464:2465  0 */\n      0x00\n        /* \"contracts/MechaWarNFT/MechaWar.sol\":2444:2452  attacker */\n      dup5\n        /* \"contracts/MechaWarNFT/MechaWar.sol\":2444:2461  attacker.strength */\n      0x02\n      add\n        /* \"contracts/MechaWarNFT/MechaWar.sol\":2444:2465  attacker.strength = 0 */\n      dup2\n      swap1\n      sstore\n      pop\n        /* \"contracts/MechaWarNFT/MechaWar.sol\":2417:2465  if (attacker.strength < 0) attacker.strength = 0 */\n    tag_168:\n        /* \"contracts/MechaWarNFT/MechaWar.sol\":2495:2496  1 */\n      0x01\n        /* \"contracts/MechaWarNFT/MechaWar.sol\":2475:2483  attacker */\n      dup5\n        /* \"contracts/MechaWarNFT/MechaWar.sol\":2475:2491  attacker.defense */\n      0x03\n      add\n      0x00\n        /* \"contracts/MechaWarNFT/MechaWar.sol\":2475:2496  attacker.defense -= 1 */\n      dup3\n      dup3\n      sload\n      tag_169\n      swap2\n      swap1\n      tag_167\n      jump\t// in\n    tag_169:\n      swap3\n      pop\n      pop\n      dup2\n      swap1\n      sstore\n      pop\n        /* \"contracts/MechaWarNFT/MechaWar.sol\":2530:2531  0 */\n      0x00\n        /* \"contracts/MechaWarNFT/MechaWar.sol\":2511:2519  attacker */\n      dup5\n        /* \"contracts/MechaWarNFT/MechaWar.sol\":2511:2527  attacker.defense */\n      0x03\n      add\n      sload\n        /* \"contracts/MechaWarNFT/MechaWar.sol\":2511:2531  attacker.defense < 0 */\n      lt\n        /* \"contracts/MechaWarNFT/MechaWar.sol\":2507:2553  if (attacker.defense < 0) attacker.defense = 0 */\n      iszero\n      tag_170\n      jumpi\n        /* \"contracts/MechaWarNFT/MechaWar.sol\":2552:2553  0 */\n      0x00\n        /* \"contracts/MechaWarNFT/MechaWar.sol\":2533:2541  attacker */\n      dup5\n        /* \"contracts/MechaWarNFT/MechaWar.sol\":2533:2549  attacker.defense */\n      0x03\n      add\n        /* \"contracts/MechaWarNFT/MechaWar.sol\":2533:2553  attacker.defense = 0 */\n      dup2\n      swap1\n      sstore\n      pop\n        /* \"contracts/MechaWarNFT/MechaWar.sol\":2507:2553  if (attacker.defense < 0) attacker.defense = 0 */\n    tag_170:\n        /* \"contracts/MechaWarNFT/MechaWar.sol\":2582:2583  1 */\n      0x01\n        /* \"contracts/MechaWarNFT/MechaWar.sol\":2563:2571  defender */\n      dup4\n        /* \"contracts/MechaWarNFT/MechaWar.sol\":2563:2579  defender.defense */\n      0x03\n      add\n      0x00\n        /* \"contracts/MechaWarNFT/MechaWar.sol\":2563:2583  defender.defense +=1 */\n      dup3\n      dup3\n      sload\n      tag_171\n      swap2\n      swap1\n      tag_172\n      jump\t// in\n    tag_171:\n      swap3\n      pop\n      pop\n      dup2\n      swap1\n      sstore\n      pop\n        /* \"contracts/MechaWarNFT/MechaWar.sol\":2314:2857  if (attackerRounds == 0 ){... */\n      jump(tag_173)\n    tag_165:\n        /* \"contracts/MechaWarNFT/MechaWar.sol\":2617:2631  defenderRounds */\n      dup1\n        /* \"contracts/MechaWarNFT/MechaWar.sol\":2600:2631  attackerRounds < defenderRounds */\n      0xff\n      and\n        /* \"contracts/MechaWarNFT/MechaWar.sol\":2600:2614  attackerRounds */\n      dup3\n        /* \"contracts/MechaWarNFT/MechaWar.sol\":2600:2631  attackerRounds < defenderRounds */\n      0xff\n      and\n      lt\n        /* \"contracts/MechaWarNFT/MechaWar.sol\":2596:2857  if (attackerRounds < defenderRounds ) {... */\n      iszero\n      tag_174\n      jumpi\n        /* \"contracts/MechaWarNFT/MechaWar.sol\":2691:2692  1 */\n      0x01\n        /* \"contracts/MechaWarNFT/MechaWar.sol\":2670:2678  defender */\n      dup4\n        /* \"contracts/MechaWarNFT/MechaWar.sol\":2670:2687  defender.strength */\n      0x02\n      add\n      0x00\n        /* \"contracts/MechaWarNFT/MechaWar.sol\":2670:2692  defender.strength += 1 */\n      dup3\n      dup3\n      sload\n      tag_175\n      swap2\n      swap1\n      tag_172\n      jump\t// in\n    tag_175:\n      swap3\n      pop\n      pop\n      dup2\n      swap1\n      sstore\n      pop\n        /* \"contracts/MechaWarNFT/MechaWar.sol\":2721:2722  1 */\n      0x01\n        /* \"contracts/MechaWarNFT/MechaWar.sol\":2702:2710  attacker */\n      dup5\n        /* \"contracts/MechaWarNFT/MechaWar.sol\":2702:2718  attacker.agility */\n      0x04\n      add\n      0x00\n        /* \"contracts/MechaWarNFT/MechaWar.sol\":2702:2722  attacker.agility -=1 */\n      dup3\n      dup3\n      sload\n      tag_176\n      swap2\n      swap1\n      tag_167\n      jump\t// in\n    tag_176:\n      swap3\n      pop\n      pop\n      dup2\n      swap1\n      sstore\n      pop\n        /* \"contracts/MechaWarNFT/MechaWar.sol\":2756:2757  0 */\n      0x00\n        /* \"contracts/MechaWarNFT/MechaWar.sol\":2737:2745  attacker */\n      dup5\n        /* \"contracts/MechaWarNFT/MechaWar.sol\":2737:2753  attacker.agility */\n      0x04\n      add\n      sload\n        /* \"contracts/MechaWarNFT/MechaWar.sol\":2737:2757  attacker.agility < 0 */\n      lt\n        /* \"contracts/MechaWarNFT/MechaWar.sol\":2733:2779  if (attacker.agility < 0) attacker.agility = 0 */\n      iszero\n      tag_177\n      jumpi\n        /* \"contracts/MechaWarNFT/MechaWar.sol\":2778:2779  0 */\n      0x00\n        /* \"contracts/MechaWarNFT/MechaWar.sol\":2759:2767  attacker */\n      dup5\n        /* \"contracts/MechaWarNFT/MechaWar.sol\":2759:2775  attacker.agility */\n      0x04\n      add\n        /* \"contracts/MechaWarNFT/MechaWar.sol\":2759:2779  attacker.agility = 0 */\n      dup2\n      swap1\n      sstore\n      pop\n        /* \"contracts/MechaWarNFT/MechaWar.sol\":2733:2779  if (attacker.agility < 0) attacker.agility = 0 */\n    tag_177:\n        /* \"contracts/MechaWarNFT/MechaWar.sol\":2596:2857  if (attackerRounds < defenderRounds ) {... */\n      jump(tag_178)\n    tag_174:\n        /* \"contracts/MechaWarNFT/MechaWar.sol\":2849:2850  0 */\n      0x00\n        /* \"contracts/MechaWarNFT/MechaWar.sol\":2828:2836  attacker */\n      dup5\n        /* \"contracts/MechaWarNFT/MechaWar.sol\":2828:2845  attacker.strength */\n      0x02\n      add\n      0x00\n        /* \"contracts/MechaWarNFT/MechaWar.sol\":2828:2850  attacker.strength += 0 */\n      dup3\n      dup3\n      sload\n      tag_179\n      swap2\n      swap1\n      tag_172\n      jump\t// in\n    tag_179:\n      swap3\n      pop\n      pop\n      dup2\n      swap1\n      sstore\n      pop\n        /* \"contracts/MechaWarNFT/MechaWar.sol\":2596:2857  if (attackerRounds < defenderRounds ) {... */\n    tag_178:\n        /* \"contracts/MechaWarNFT/MechaWar.sol\":2314:2857  if (attackerRounds == 0 ){... */\n    tag_173:\n        /* \"contracts/MechaWarNFT/MechaWar.sol\":2903:2917  address winner */\n      0x00\n        /* \"contracts/MechaWarNFT/MechaWar.sol\":2944:2958  defenderRounds */\n      dup2\n        /* \"contracts/MechaWarNFT/MechaWar.sol\":2927:2958  attackerRounds > defenderRounds */\n      0xff\n      and\n        /* \"contracts/MechaWarNFT/MechaWar.sol\":2927:2941  attackerRounds */\n      dup4\n        /* \"contracts/MechaWarNFT/MechaWar.sol\":2927:2958  attackerRounds > defenderRounds */\n      0xff\n      and\n      gt\n        /* \"contracts/MechaWarNFT/MechaWar.sol\":2923:3155  if (attackerRounds > defenderRounds) {... */\n      iszero\n      tag_180\n      jumpi\n        /* \"contracts/MechaWarNFT/MechaWar.sol\":2979:3003  ownerOf(_attackingMecha) */\n      tag_181\n        /* \"contracts/MechaWarNFT/MechaWar.sol\":2987:3002  _attackingMecha */\n      dup9\n        /* \"contracts/MechaWarNFT/MechaWar.sol\":2979:2986  ownerOf */\n      tag_67\n        /* \"contracts/MechaWarNFT/MechaWar.sol\":2979:3003  ownerOf(_attackingMecha) */\n      jump\t// in\n    tag_181:\n        /* \"contracts/MechaWarNFT/MechaWar.sol\":2970:3003  winner = ownerOf(_attackingMecha) */\n      swap1\n      pop\n        /* \"contracts/MechaWarNFT/MechaWar.sol\":2923:3155  if (attackerRounds > defenderRounds) {... */\n      jump(tag_182)\n    tag_180:\n        /* \"contracts/MechaWarNFT/MechaWar.sol\":3037:3051  attackerRounds */\n      dup3\n        /* \"contracts/MechaWarNFT/MechaWar.sol\":3020:3051  defenderRounds > attackerRounds */\n      0xff\n      and\n        /* \"contracts/MechaWarNFT/MechaWar.sol\":3020:3034  defenderRounds */\n      dup3\n        /* \"contracts/MechaWarNFT/MechaWar.sol\":3020:3051  defenderRounds > attackerRounds */\n      0xff\n      and\n      gt\n        /* \"contracts/MechaWarNFT/MechaWar.sol\":3016:3155  if (defenderRounds > attackerRounds) {... */\n      iszero\n      tag_183\n      jumpi\n        /* \"contracts/MechaWarNFT/MechaWar.sol\":3072:3096  ownerOf(_defendingMecha) */\n      tag_184\n        /* \"contracts/MechaWarNFT/MechaWar.sol\":3080:3095  _defendingMecha */\n      dup8\n        /* \"contracts/MechaWarNFT/MechaWar.sol\":3072:3079  ownerOf */\n      tag_67\n        /* \"contracts/MechaWarNFT/MechaWar.sol\":3072:3096  ownerOf(_defendingMecha) */\n      jump\t// in\n    tag_184:\n        /* \"contracts/MechaWarNFT/MechaWar.sol\":3063:3096  winner = ownerOf(_defendingMecha) */\n      swap1\n      pop\n        /* \"contracts/MechaWarNFT/MechaWar.sol\":3016:3155  if (defenderRounds > attackerRounds) {... */\n      jump(tag_185)\n    tag_183:\n        /* \"contracts/MechaWarNFT/MechaWar.sol\":3136:3137  0 */\n      0x00\n        /* \"contracts/MechaWarNFT/MechaWar.sol\":3119:3138  winner = address(0) */\n      swap1\n      pop\n        /* \"contracts/MechaWarNFT/MechaWar.sol\":3016:3155  if (defenderRounds > attackerRounds) {... */\n    tag_185:\n        /* \"contracts/MechaWarNFT/MechaWar.sol\":2923:3155  if (attackerRounds > defenderRounds) {... */\n    tag_182:\n        /* \"contracts/MechaWarNFT/MechaWar.sol\":3201:3208  battles */\n      0x07\n        /* \"contracts/MechaWarNFT/MechaWar.sol\":3214:3449  BattleStruct({... */\n      mload(0x40)\n      dup1\n      0x80\n      add\n      0x40\n      mstore\n      dup1\n        /* \"contracts/MechaWarNFT/MechaWar.sol\":3253:3268  _attackingMecha */\n      dup11\n        /* \"contracts/MechaWarNFT/MechaWar.sol\":3214:3449  BattleStruct({... */\n      dup2\n      mstore\n      0x20\n      add\n        /* \"contracts/MechaWarNFT/MechaWar.sol\":3294:3309  _defendingMecha */\n      dup10\n        /* \"contracts/MechaWarNFT/MechaWar.sol\":3214:3449  BattleStruct({... */\n      dup2\n      mstore\n      0x20\n      add\n        /* \"contracts/MechaWarNFT/MechaWar.sol\":3344:3358  defenderRounds */\n      dup5\n        /* \"contracts/MechaWarNFT/MechaWar.sol\":3327:3358  attackerRounds > defenderRounds */\n      0xff\n      and\n        /* \"contracts/MechaWarNFT/MechaWar.sol\":3327:3341  attackerRounds */\n      dup7\n        /* \"contracts/MechaWarNFT/MechaWar.sol\":3327:3358  attackerRounds > defenderRounds */\n      0xff\n      and\n      gt\n        /* \"contracts/MechaWarNFT/MechaWar.sol\":3327:3418  attackerRounds > defenderRounds ... */\n      tag_186\n      jumpi\n        /* \"contracts/MechaWarNFT/MechaWar.sol\":3404:3418  defenderRounds */\n      dup5\n        /* \"contracts/MechaWarNFT/MechaWar.sol\":3327:3418  attackerRounds > defenderRounds ... */\n      jump(tag_187)\n    tag_186:\n        /* \"contracts/MechaWarNFT/MechaWar.sol\":3374:3388  attackerRounds */\n      dup6\n        /* \"contracts/MechaWarNFT/MechaWar.sol\":3327:3418  attackerRounds > defenderRounds ... */\n    tag_187:\n        /* \"contracts/MechaWarNFT/MechaWar.sol\":3214:3449  BattleStruct({... */\n      0xff\n      and\n      dup2\n      mstore\n      0x20\n      add\n        /* \"contracts/MechaWarNFT/MechaWar.sol\":3436:3442  winner */\n      dup4\n        /* \"contracts/MechaWarNFT/MechaWar.sol\":3214:3449  BattleStruct({... */\n      0xffffffffffffffffffffffffffffffffffffffff\n      and\n      dup2\n      mstore\n      pop\n        /* \"contracts/MechaWarNFT/MechaWar.sol\":3201:3450  battles.push(BattleStruct({... */\n      swap1\n      dup1\n      0x01\n      dup2\n      sload\n      add\n      dup1\n      dup3\n      sstore\n      dup1\n      swap2\n      pop\n      pop\n      0x01\n      swap1\n      sub\n      swap1\n      0x00\n      mstore\n      keccak256(0x00, 0x20)\n      swap1\n      0x03\n      mul\n      add\n      0x00\n      swap1\n      swap2\n      swap1\n      swap2\n      swap1\n      swap2\n      pop\n      0x00\n      dup3\n      add\n      mload\n      dup2\n      0x00\n      add\n      sstore\n      0x20\n      dup3\n      add\n      mload\n      dup2\n      0x01\n      add\n      sstore\n      0x40\n      dup3\n      add\n      mload\n      dup2\n      0x02\n      add\n      exp(0x0100, 0x00)\n      dup2\n      sload\n      dup2\n      0xff\n      mul\n      not\n      and\n      swap1\n      dup4\n      0xff\n      and\n      mul\n      or\n      swap1\n      sstore\n      pop\n      0x60\n      dup3\n      add\n      mload\n      dup2\n      0x02\n      add\n      exp(0x0100, 0x01)\n      dup2\n      sload\n      dup2\n      0xffffffffffffffffffffffffffffffffffffffff\n      mul\n      not\n      and\n      swap1\n      dup4\n      0xffffffffffffffffffffffffffffffffffffffff\n      and\n      mul\n      or\n      swap1\n      sstore\n      pop\n      pop\n      pop\n        /* \"contracts/MechaWarNFT/MechaWar.sol\":1448:3453  {... */\n      pop\n      pop\n      pop\n      pop\n      pop\n        /* \"contracts/MechaWarNFT/MechaWar.sol\":1346:3453  function battle(uint256 _attackingMecha, uint256 _defendingMecha) public onlyOwnerOf(_attackingMecha) {... */\n      pop\n      pop\n      pop\n      jump\t// out\n        /* \"@openzeppelin/contracts/token/ERC721/ERC721.sol\":4787:4919  function safeTransferFrom(address from, address to, uint256 tokenId) public {... */\n    tag_54:\n        /* \"@openzeppelin/contracts/token/ERC721/ERC721.sol\":4873:4912  safeTransferFrom(from, to, tokenId, \"\") */\n      tag_190\n        /* \"@openzeppelin/contracts/token/ERC721/ERC721.sol\":4890:4894  from */\n      dup4\n        /* \"@openzeppelin/contracts/token/ERC721/ERC721.sol\":4896:4898  to */\n      dup4\n        /* \"@openzeppelin/contracts/token/ERC721/ERC721.sol\":4900:4907  tokenId */\n      dup4\n        /* \"@openzeppelin/contracts/token/ERC721/ERC721.sol\":4873:4912  safeTransferFrom(from, to, tokenId, \"\") */\n      mload(0x40)\n      dup1\n      0x20\n      add\n      0x40\n      mstore\n      dup1\n      0x00\n      dup2\n      mstore\n      pop\n        /* \"@openzeppelin/contracts/token/ERC721/ERC721.sol\":4873:4889  safeTransferFrom */\n      tag_89\n        /* \"@openzeppelin/contracts/token/ERC721/ERC721.sol\":4873:4912  safeTransferFrom(from, to, tokenId, \"\") */\n      jump\t// in\n    tag_190:\n        /* \"@openzeppelin/contracts/token/ERC721/ERC721.sol\":4787:4919  function safeTransferFrom(address from, address to, uint256 tokenId) public {... */\n      pop\n      pop\n      pop\n      jump\t// out\n        /* \"contracts/MechaWarNFT/MechaWar.sol\":473:494  Mecha[] public mechas */\n    tag_57:\n      0x06\n      dup2\n      dup2\n      sload\n      dup2\n      lt\n      tag_191\n      jumpi\n      0x00\n      dup1\n      revert\n    tag_191:\n      swap1\n      0x00\n      mstore\n      keccak256(0x00, 0x20)\n      swap1\n      0x05\n      mul\n      add\n      0x00\n      swap2\n      pop\n      swap1\n      pop\n      dup1\n      0x00\n      add\n      dup1\n      sload\n      tag_193\n      swap1\n      tag_109\n      jump\t// in\n    tag_193:\n      dup1\n      0x1f\n      add\n      0x20\n      dup1\n      swap2\n      div\n      mul\n      0x20\n      add\n      mload(0x40)\n      swap1\n      dup2\n      add\n      0x40\n      mstore\n      dup1\n      swap3\n      swap2\n      swap1\n      dup2\n      dup2\n      mstore\n      0x20\n      add\n      dup3\n      dup1\n      sload\n      tag_194\n      swap1\n      tag_109\n      jump\t// in\n    tag_194:\n      dup1\n      iszero\n      tag_195\n      jumpi\n      dup1\n      0x1f\n      lt\n      tag_196\n      jumpi\n      0x0100\n      dup1\n      dup4\n      sload\n      div\n      mul\n      dup4\n      mstore\n      swap2\n      0x20\n      add\n      swap2\n      jump(tag_195)\n    tag_196:\n      dup3\n      add\n      swap2\n      swap1\n      0x00\n      mstore\n      keccak256(0x00, 0x20)\n      swap1\n    tag_197:\n      dup2\n      sload\n      dup2\n      mstore\n      swap1\n      0x01\n      add\n      swap1\n      0x20\n      add\n      dup1\n      dup4\n      gt\n      tag_197\n      jumpi\n      dup3\n      swap1\n      sub\n      0x1f\n      and\n      dup3\n      add\n      swap2\n    tag_195:\n      pop\n      pop\n      pop\n      pop\n      pop\n      swap1\n      dup1\n      0x01\n      add\n      dup1\n      sload\n      tag_198\n      swap1\n      tag_109\n      jump\t// in\n    tag_198:\n      dup1\n      0x1f\n      add\n      0x20\n      dup1\n      swap2\n      div\n      mul\n      0x20\n      add\n      mload(0x40)\n      swap1\n      dup2\n      add\n      0x40\n      mstore\n      dup1\n      swap3\n      swap2\n      swap1\n      dup2\n      dup2\n      mstore\n      0x20\n      add\n      dup3\n      dup1\n      sload\n      tag_199\n      swap1\n      tag_109\n      jump\t// in\n    tag_199:\n      dup1\n      iszero\n      tag_200\n      jumpi\n      dup1\n      0x1f\n      lt\n      tag_201\n      jumpi\n      0x0100\n      dup1\n      dup4\n      sload\n      div\n      mul\n      dup4\n      mstore\n      swap2\n      0x20\n      add\n      swap2\n      jump(tag_200)\n    tag_201:\n      dup3\n      add\n      swap2\n      swap1\n      0x00\n      mstore\n      keccak256(0x00, 0x20)\n      swap1\n    tag_202:\n      dup2\n      sload\n      dup2\n      mstore\n      swap1\n      0x01\n      add\n      swap1\n      0x20\n      add\n      dup1\n      dup4\n      gt\n      tag_202\n      jumpi\n      dup3\n      swap1\n      sub\n      0x1f\n      and\n      dup3\n      add\n      swap2\n    tag_200:\n      pop\n      pop\n      pop\n      pop\n      pop\n      swap1\n      dup1\n      0x02\n      add\n      sload\n      swap1\n      dup1\n      0x03\n      add\n      sload\n      swap1\n      dup1\n      0x04\n      add\n      sload\n      swap1\n      pop\n      dup6\n      jump\t// out\n        /* \"contracts/MechaWarNFT/MechaWar.sol\":500:529  BattleStruct[] public battles */\n    tag_62:\n      0x07\n      dup2\n      dup2\n      sload\n      dup2\n      lt\n      tag_203\n      jumpi\n      0x00\n      dup1\n      revert\n    tag_203:\n      swap1\n      0x00\n      mstore\n      keccak256(0x00, 0x20)\n      swap1\n      0x03\n      mul\n      add\n      0x00\n      swap2\n      pop\n      swap1\n      pop\n      dup1\n      0x00\n      add\n      sload\n      swap1\n      dup1\n      0x01\n      add\n      sload\n      swap1\n      dup1\n      0x02\n      add\n      0x00\n      swap1\n      sload\n      swap1\n      0x0100\n      exp\n      swap1\n      div\n      0xff\n      and\n      swap1\n      dup1\n      0x02\n      add\n      0x01\n      swap1\n      sload\n      swap1\n      0x0100\n      exp\n      swap1\n      div\n      0xffffffffffffffffffffffffffffffffffffffff\n      and\n      swap1\n      pop\n      dup5\n      jump\t// out\n        /* \"@openzeppelin/contracts/token/ERC721/ERC721.sol\":2185:2303  function ownerOf(uint256 tokenId) public view virtual returns (address) {... */\n    tag_67:\n        /* \"@openzeppelin/contracts/token/ERC721/ERC721.sol\":2248:2255  address */\n      0x00\n        /* \"@openzeppelin/contracts/token/ERC721/ERC721.sol\":2274:2296  _requireOwned(tokenId) */\n      tag_206\n        /* \"@openzeppelin/contracts/token/ERC721/ERC721.sol\":2288:2295  tokenId */\n      dup3\n        /* \"@openzeppelin/contracts/token/ERC721/ERC721.sol\":2274:2287  _requireOwned */\n      tag_116\n        /* \"@openzeppelin/contracts/token/ERC721/ERC721.sol\":2274:2296  _requireOwned(tokenId) */\n      jump\t// in\n    tag_206:\n        /* \"@openzeppelin/contracts/token/ERC721/ERC721.sol\":2267:2296  return _requireOwned(tokenId) */\n      swap1\n      pop\n        /* \"@openzeppelin/contracts/token/ERC721/ERC721.sol\":2185:2303  function ownerOf(uint256 tokenId) public view virtual returns (address) {... */\n      swap2\n      swap1\n      pop\n      jump\t// out\n        /* \"contracts/MechaWarNFT/MechaWar.sol\":811:1341  function createNewMecha(... */\n    tag_72:\n        /* \"contracts/MechaWarNFT/MechaWar.sol\":1031:1040  gameOwner */\n      0x08\n      0x00\n      swap1\n      sload\n      swap1\n      0x0100\n      exp\n      swap1\n      div\n      0xffffffffffffffffffffffffffffffffffffffff\n      and\n        /* \"contracts/MechaWarNFT/MechaWar.sol\":1017:1040  msg.sender == gameOwner */\n      0xffffffffffffffffffffffffffffffffffffffff\n      and\n        /* \"contracts/MechaWarNFT/MechaWar.sol\":1017:1027  msg.sender */\n      caller\n        /* \"contracts/MechaWarNFT/MechaWar.sol\":1017:1040  msg.sender == gameOwner */\n      0xffffffffffffffffffffffffffffffffffffffff\n      and\n      eq\n        /* \"contracts/MechaWarNFT/MechaWar.sol\":1009:1091  require(msg.sender == gameOwner, \"Apenas o dono do jogo pode criar novos Mechas!\") */\n      tag_208\n      jumpi\n      mload(0x40)\n      0x08c379a000000000000000000000000000000000000000000000000000000000\n      dup2\n      mstore\n      0x04\n      add\n      tag_209\n      swap1\n      tag_210\n      jump\t// in\n    tag_209:\n      mload(0x40)\n      dup1\n      swap2\n      sub\n      swap1\n      revert\n    tag_208:\n        /* \"contracts/MechaWarNFT/MechaWar.sol\":1144:1146  20 */\n      0x14\n        /* \"contracts/MechaWarNFT/MechaWar.sol\":1132:1140  _agility */\n      dup3\n        /* \"contracts/MechaWarNFT/MechaWar.sol\":1121:1129  _defense */\n      dup5\n        /* \"contracts/MechaWarNFT/MechaWar.sol\":1109:1118  _strength */\n      dup7\n        /* \"contracts/MechaWarNFT/MechaWar.sol\":1109:1129  _strength + _defense */\n      tag_211\n      swap2\n      swap1\n      tag_151\n      jump\t// in\n    tag_211:\n        /* \"contracts/MechaWarNFT/MechaWar.sol\":1109:1140  _strength + _defense + _agility */\n      tag_212\n      swap2\n      swap1\n      tag_151\n      jump\t// in\n    tag_212:\n        /* \"contracts/MechaWarNFT/MechaWar.sol\":1109:1146  _strength + _defense + _agility == 20 */\n      0xff\n      and\n      eq\n        /* \"contracts/MechaWarNFT/MechaWar.sol\":1101:1180  require(_strength + _defense + _agility == 20, \"A soma dos pontos deve ser 20\") */\n      tag_213\n      jumpi\n      mload(0x40)\n      0x08c379a000000000000000000000000000000000000000000000000000000000\n      dup2\n      mstore\n      0x04\n      add\n      tag_214\n      swap1\n      tag_215\n      jump\t// in\n    tag_214:\n      mload(0x40)\n      dup1\n      swap2\n      sub\n      swap1\n      revert\n    tag_213:\n        /* \"contracts/MechaWarNFT/MechaWar.sol\":1198:1213  uint256 tokenId */\n      0x00\n        /* \"contracts/MechaWarNFT/MechaWar.sol\":1216:1222  mechas */\n      0x06\n        /* \"contracts/MechaWarNFT/MechaWar.sol\":1216:1229  mechas.length */\n      dup1\n      sload\n      swap1\n      pop\n        /* \"contracts/MechaWarNFT/MechaWar.sol\":1198:1229  uint256 tokenId = mechas.length */\n      swap1\n      pop\n        /* \"contracts/MechaWarNFT/MechaWar.sol\":1239:1245  mechas */\n      0x06\n        /* \"contracts/MechaWarNFT/MechaWar.sol\":1251:1300  Mecha(_name, _img, _strength, _defense, _agility) */\n      mload(0x40)\n      dup1\n      0xa0\n      add\n      0x40\n      mstore\n      dup1\n        /* \"contracts/MechaWarNFT/MechaWar.sol\":1257:1262  _name */\n      dup10\n        /* \"contracts/MechaWarNFT/MechaWar.sol\":1251:1300  Mecha(_name, _img, _strength, _defense, _agility) */\n      dup2\n      mstore\n      0x20\n      add\n        /* \"contracts/MechaWarNFT/MechaWar.sol\":1264:1268  _img */\n      dup5\n        /* \"contracts/MechaWarNFT/MechaWar.sol\":1251:1300  Mecha(_name, _img, _strength, _defense, _agility) */\n      dup2\n      mstore\n      0x20\n      add\n        /* \"contracts/MechaWarNFT/MechaWar.sol\":1270:1279  _strength */\n      dup8\n        /* \"contracts/MechaWarNFT/MechaWar.sol\":1251:1300  Mecha(_name, _img, _strength, _defense, _agility) */\n      0xff\n      and\n      dup2\n      mstore\n      0x20\n      add\n        /* \"contracts/MechaWarNFT/MechaWar.sol\":1281:1289  _defense */\n      dup7\n        /* \"contracts/MechaWarNFT/MechaWar.sol\":1251:1300  Mecha(_name, _img, _strength, _defense, _agility) */\n      0xff\n      and\n      dup2\n      mstore\n      0x20\n      add\n        /* \"contracts/MechaWarNFT/MechaWar.sol\":1291:1299  _agility */\n      dup6\n        /* \"contracts/MechaWarNFT/MechaWar.sol\":1251:1300  Mecha(_name, _img, _strength, _defense, _agility) */\n      0xff\n      and\n      dup2\n      mstore\n      pop\n        /* \"contracts/MechaWarNFT/MechaWar.sol\":1239:1301  mechas.push(Mecha(_name, _img, _strength, _defense, _agility)) */\n      swap1\n      dup1\n      0x01\n      dup2\n      sload\n      add\n      dup1\n      dup3\n      sstore\n      dup1\n      swap2\n      pop\n      pop\n      0x01\n      swap1\n      sub\n      swap1\n      0x00\n      mstore\n      keccak256(0x00, 0x20)\n      swap1\n      0x05\n      mul\n      add\n      0x00\n      swap1\n      swap2\n      swap1\n      swap2\n      swap1\n      swap2\n      pop\n      0x00\n      dup3\n      add\n      mload\n      dup2\n      0x00\n      add\n      swap1\n      dup2\n      tag_217\n      swap2\n      swap1\n      tag_218\n      jump\t// in\n    tag_217:\n      pop\n      0x20\n      dup3\n      add\n      mload\n      dup2\n      0x01\n      add\n      swap1\n      dup2\n      tag_219\n      swap2\n      swap1\n      tag_218\n      jump\t// in\n    tag_219:\n      pop\n      0x40\n      dup3\n      add\n      mload\n      dup2\n      0x02\n      add\n      sstore\n      0x60\n      dup3\n      add\n      mload\n      dup2\n      0x03\n      add\n      sstore\n      0x80\n      dup3\n      add\n      mload\n      dup2\n      0x04\n      add\n      sstore\n      pop\n      pop\n        /* \"contracts/MechaWarNFT/MechaWar.sol\":1311:1334  _safeMint(_to, tokenId) */\n      tag_220\n        /* \"contracts/MechaWarNFT/MechaWar.sol\":1321:1324  _to */\n      dup7\n        /* \"contracts/MechaWarNFT/MechaWar.sol\":1326:1333  tokenId */\n      dup3\n        /* \"contracts/MechaWarNFT/MechaWar.sol\":1311:1320  _safeMint */\n      tag_221\n        /* \"contracts/MechaWarNFT/MechaWar.sol\":1311:1334  _safeMint(_to, tokenId) */\n      jump\t// in\n    tag_220:\n        /* \"contracts/MechaWarNFT/MechaWar.sol\":999:1341  {... */\n      pop\n        /* \"contracts/MechaWarNFT/MechaWar.sol\":811:1341  function createNewMecha(... */\n      pop\n      pop\n      pop\n      pop\n      pop\n      pop\n      jump\t// out\n        /* \"@openzeppelin/contracts/token/ERC721/ERC721.sol\":1920:2128  function balanceOf(address owner) public view virtual returns (uint256) {... */\n    tag_76:\n        /* \"@openzeppelin/contracts/token/ERC721/ERC721.sol\":1983:1990  uint256 */\n      0x00\n        /* \"@openzeppelin/contracts/token/ERC721/ERC721.sol\":2023:2024  0 */\n      dup1\n        /* \"@openzeppelin/contracts/token/ERC721/ERC721.sol\":2006:2025  owner == address(0) */\n      0xffffffffffffffffffffffffffffffffffffffff\n      and\n        /* \"@openzeppelin/contracts/token/ERC721/ERC721.sol\":2006:2011  owner */\n      dup3\n        /* \"@openzeppelin/contracts/token/ERC721/ERC721.sol\":2006:2025  owner == address(0) */\n      0xffffffffffffffffffffffffffffffffffffffff\n      and\n      sub\n        /* \"@openzeppelin/contracts/token/ERC721/ERC721.sol\":2002:2089  if (owner == address(0)) {... */\n      tag_223\n      jumpi\n        /* \"@openzeppelin/contracts/token/ERC721/ERC721.sol\":2075:2076  0 */\n      0x00\n        /* \"@openzeppelin/contracts/token/ERC721/ERC721.sol\":2048:2078  ERC721InvalidOwner(address(0)) */\n      mload(0x40)\n      0x89c62b6400000000000000000000000000000000000000000000000000000000\n      dup2\n      mstore\n      0x04\n      add\n      tag_224\n      swap2\n      swap1\n      tag_39\n      jump\t// in\n    tag_224:\n      mload(0x40)\n      dup1\n      swap2\n      sub\n      swap1\n      revert\n        /* \"@openzeppelin/contracts/token/ERC721/ERC721.sol\":2002:2089  if (owner == address(0)) {... */\n    tag_223:\n        /* \"@openzeppelin/contracts/token/ERC721/ERC721.sol\":2105:2114  _balances */\n      0x03\n        /* \"@openzeppelin/contracts/token/ERC721/ERC721.sol\":2105:2121  _balances[owner] */\n      0x00\n        /* \"@openzeppelin/contracts/token/ERC721/ERC721.sol\":2115:2120  owner */\n      dup4\n        /* \"@openzeppelin/contracts/token/ERC721/ERC721.sol\":2105:2121  _balances[owner] */\n      0xffffffffffffffffffffffffffffffffffffffff\n      and\n      0xffffffffffffffffffffffffffffffffffffffff\n      and\n      dup2\n      mstore\n      0x20\n      add\n      swap1\n      dup2\n      mstore\n      0x20\n      add\n      0x00\n      keccak256\n      sload\n        /* \"@openzeppelin/contracts/token/ERC721/ERC721.sol\":2098:2121  return _balances[owner] */\n      swap1\n      pop\n        /* \"@openzeppelin/contracts/token/ERC721/ERC721.sol\":1920:2128  function balanceOf(address owner) public view virtual returns (uint256) {... */\n      swap2\n      swap1\n      pop\n      jump\t// out\n        /* \"@openzeppelin/contracts/token/ERC721/ERC721.sol\":2518:2611  function symbol() public view virtual returns (string memory) {... */\n    tag_80:\n        /* \"@openzeppelin/contracts/token/ERC721/ERC721.sol\":2565:2578  string memory */\n      0x60\n        /* \"@openzeppelin/contracts/token/ERC721/ERC721.sol\":2597:2604  _symbol */\n      0x01\n        /* \"@openzeppelin/contracts/token/ERC721/ERC721.sol\":2590:2604  return _symbol */\n      dup1\n      sload\n      tag_226\n      swap1\n      tag_109\n      jump\t// in\n    tag_226:\n      dup1\n      0x1f\n      add\n      0x20\n      dup1\n      swap2\n      div\n      mul\n      0x20\n      add\n      mload(0x40)\n      swap1\n      dup2\n      add\n      0x40\n      mstore\n      dup1\n      swap3\n      swap2\n      swap1\n      dup2\n      dup2\n      mstore\n      0x20\n      add\n      dup3\n      dup1\n      sload\n      tag_227\n      swap1\n      tag_109\n      jump\t// in\n    tag_227:\n      dup1\n      iszero\n      tag_228\n      jumpi\n      dup1\n      0x1f\n      lt\n      tag_229\n      jumpi\n      0x0100\n      dup1\n      dup4\n      sload\n      div\n      mul\n      dup4\n      mstore\n      swap2\n      0x20\n      add\n      swap2\n      jump(tag_228)\n    tag_229:\n      dup3\n      add\n      swap2\n      swap1\n      0x00\n      mstore\n      keccak256(0x00, 0x20)\n      swap1\n    tag_230:\n      dup2\n      sload\n      dup2\n      mstore\n      swap1\n      0x01\n      add\n      swap1\n      0x20\n      add\n      dup1\n      dup4\n      gt\n      tag_230\n      jumpi\n      dup3\n      swap1\n      sub\n      0x1f\n      and\n      dup3\n      add\n      swap2\n    tag_228:\n      pop\n      pop\n      pop\n      pop\n      pop\n      swap1\n      pop\n        /* \"@openzeppelin/contracts/token/ERC721/ERC721.sol\":2518:2611  function symbol() public view virtual returns (string memory) {... */\n      swap1\n      jump\t// out\n        /* \"@openzeppelin/contracts/token/ERC721/ERC721.sol\":3718:3862  function setApprovalForAll(address operator, bool approved) public virtual {... */\n    tag_85:\n        /* \"@openzeppelin/contracts/token/ERC721/ERC721.sol\":3803:3855  _setApprovalForAll(_msgSender(), operator, approved) */\n      tag_232\n        /* \"@openzeppelin/contracts/token/ERC721/ERC721.sol\":3822:3834  _msgSender() */\n      tag_233\n        /* \"@openzeppelin/contracts/token/ERC721/ERC721.sol\":3822:3832  _msgSender */\n      tag_122\n        /* \"@openzeppelin/contracts/token/ERC721/ERC721.sol\":3822:3834  _msgSender() */\n      jump\t// in\n    tag_233:\n        /* \"@openzeppelin/contracts/token/ERC721/ERC721.sol\":3836:3844  operator */\n      dup4\n        /* \"@openzeppelin/contracts/token/ERC721/ERC721.sol\":3846:3854  approved */\n      dup4\n        /* \"@openzeppelin/contracts/token/ERC721/ERC721.sol\":3803:3821  _setApprovalForAll */\n      tag_234\n        /* \"@openzeppelin/contracts/token/ERC721/ERC721.sol\":3803:3855  _setApprovalForAll(_msgSender(), operator, approved) */\n      jump\t// in\n    tag_232:\n        /* \"@openzeppelin/contracts/token/ERC721/ERC721.sol\":3718:3862  function setApprovalForAll(address operator, bool approved) public virtual {... */\n      pop\n      pop\n      jump\t// out\n        /* \"@openzeppelin/contracts/token/ERC721/ERC721.sol\":4985:5193  function safeTransferFrom(address from, address to, uint256 tokenId, bytes memory data) public virtual {... */\n    tag_89:\n        /* \"@openzeppelin/contracts/token/ERC721/ERC721.sol\":5098:5129  transferFrom(from, to, tokenId) */\n      tag_236\n        /* \"@openzeppelin/contracts/token/ERC721/ERC721.sol\":5111:5115  from */\n      dup5\n        /* \"@openzeppelin/contracts/token/ERC721/ERC721.sol\":5117:5119  to */\n      dup5\n        /* \"@openzeppelin/contracts/token/ERC721/ERC721.sol\":5121:5128  tokenId */\n      dup5\n        /* \"@openzeppelin/contracts/token/ERC721/ERC721.sol\":5098:5110  transferFrom */\n      tag_47\n        /* \"@openzeppelin/contracts/token/ERC721/ERC721.sol\":5098:5129  transferFrom(from, to, tokenId) */\n      jump\t// in\n    tag_236:\n        /* \"@openzeppelin/contracts/token/ERC721/ERC721.sol\":5139:5186  _checkOnERC721Received(from, to, tokenId, data) */\n      tag_237\n        /* \"@openzeppelin/contracts/token/ERC721/ERC721.sol\":5162:5166  from */\n      dup5\n        /* \"@openzeppelin/contracts/token/ERC721/ERC721.sol\":5168:5170  to */\n      dup5\n        /* \"@openzeppelin/contracts/token/ERC721/ERC721.sol\":5172:5179  tokenId */\n      dup5\n        /* \"@openzeppelin/contracts/token/ERC721/ERC721.sol\":5181:5185  data */\n      dup5\n        /* \"@openzeppelin/contracts/token/ERC721/ERC721.sol\":5139:5161  _checkOnERC721Received */\n      tag_238\n        /* \"@openzeppelin/contracts/token/ERC721/ERC721.sol\":5139:5186  _checkOnERC721Received(from, to, tokenId, data) */\n      jump\t// in\n    tag_237:\n        /* \"@openzeppelin/contracts/token/ERC721/ERC721.sol\":4985:5193  function safeTransferFrom(address from, address to, uint256 tokenId, bytes memory data) public virtual {... */\n      pop\n      pop\n      pop\n      pop\n      jump\t// out\n        /* \"@openzeppelin/contracts/token/ERC721/ERC721.sol\":2677:2932  function tokenURI(uint256 tokenId) public view virtual returns (string memory) {... */\n    tag_92:\n        /* \"@openzeppelin/contracts/token/ERC721/ERC721.sol\":2741:2754  string memory */\n      0x60\n        /* \"@openzeppelin/contracts/token/ERC721/ERC721.sol\":2766:2788  _requireOwned(tokenId) */\n      tag_240\n        /* \"@openzeppelin/contracts/token/ERC721/ERC721.sol\":2780:2787  tokenId */\n      dup3\n        /* \"@openzeppelin/contracts/token/ERC721/ERC721.sol\":2766:2779  _requireOwned */\n      tag_116\n        /* \"@openzeppelin/contracts/token/ERC721/ERC721.sol\":2766:2788  _requireOwned(tokenId) */\n      jump\t// in\n    tag_240:\n      pop\n        /* \"@openzeppelin/contracts/token/ERC721/ERC721.sol\":2799:2820  string memory baseURI */\n      0x00\n        /* \"@openzeppelin/contracts/token/ERC721/ERC721.sol\":2823:2833  _baseURI() */\n      tag_241\n        /* \"@openzeppelin/contracts/token/ERC721/ERC721.sol\":2823:2831  _baseURI */\n      tag_242\n        /* \"@openzeppelin/contracts/token/ERC721/ERC721.sol\":2823:2833  _baseURI() */\n      jump\t// in\n    tag_241:\n        /* \"@openzeppelin/contracts/token/ERC721/ERC721.sol\":2799:2833  string memory baseURI = _baseURI() */\n      swap1\n      pop\n        /* \"@openzeppelin/contracts/token/ERC721/ERC721.sol\":2874:2875  0 */\n      0x00\n        /* \"@openzeppelin/contracts/token/ERC721/ERC721.sol\":2856:2863  baseURI */\n      dup2\n        /* \"@openzeppelin/contracts/token/ERC721/ERC721.sol\":2850:2871  bytes(baseURI).length */\n      mload\n        /* \"@openzeppelin/contracts/token/ERC721/ERC721.sol\":2850:2875  bytes(baseURI).length > 0 */\n      gt\n        /* \"@openzeppelin/contracts/token/ERC721/ERC721.sol\":2850:2925  bytes(baseURI).length > 0 ? string.concat(baseURI, tokenId.toString()) : \"\" */\n      tag_243\n      jumpi\n      mload(0x40)\n      dup1\n      0x20\n      add\n      0x40\n      mstore\n      dup1\n      0x00\n      dup2\n      mstore\n      pop\n      jump(tag_244)\n    tag_243:\n        /* \"@openzeppelin/contracts/token/ERC721/ERC721.sol\":2892:2899  baseURI */\n      dup1\n        /* \"@openzeppelin/contracts/token/ERC721/ERC721.sol\":2901:2919  tokenId.toString() */\n      tag_245\n        /* \"@openzeppelin/contracts/token/ERC721/ERC721.sol\":2901:2908  tokenId */\n      dup5\n        /* \"@openzeppelin/contracts/token/ERC721/ERC721.sol\":2901:2917  tokenId.toString */\n      tag_246\n        /* \"@openzeppelin/contracts/token/ERC721/ERC721.sol\":2901:2919  tokenId.toString() */\n      jump\t// in\n    tag_245:\n        /* \"@openzeppelin/contracts/token/ERC721/ERC721.sol\":2878:2920  string.concat(baseURI, tokenId.toString()) */\n      add(0x20, mload(0x40))\n      tag_247\n      swap3\n      swap2\n      swap1\n      tag_248\n      jump\t// in\n    tag_247:\n      mload(0x40)\n      0x20\n      dup2\n      dup4\n      sub\n      sub\n      dup2\n      mstore\n      swap1\n      0x40\n      mstore\n        /* \"@openzeppelin/contracts/token/ERC721/ERC721.sol\":2850:2925  bytes(baseURI).length > 0 ? string.concat(baseURI, tokenId.toString()) : \"\" */\n    tag_244:\n        /* \"@openzeppelin/contracts/token/ERC721/ERC721.sol\":2843:2925  return bytes(baseURI).length > 0 ? string.concat(baseURI, tokenId.toString()) : \"\" */\n      swap2\n      pop\n      pop\n        /* \"@openzeppelin/contracts/token/ERC721/ERC721.sol\":2677:2932  function tokenURI(uint256 tokenId) public view virtual returns (string memory) {... */\n      swap2\n      swap1\n      pop\n      jump\t// out\n        /* \"@openzeppelin/contracts/token/ERC721/ERC721.sol\":3928:4081  function isApprovedForAll(address owner, address operator) public view virtual returns (bool) {... */\n    tag_97:\n        /* \"@openzeppelin/contracts/token/ERC721/ERC721.sol\":4016:4020  bool */\n      0x00\n        /* \"@openzeppelin/contracts/token/ERC721/ERC721.sol\":4039:4057  _operatorApprovals */\n      0x05\n        /* \"@openzeppelin/contracts/token/ERC721/ERC721.sol\":4039:4064  _operatorApprovals[owner] */\n      0x00\n        /* \"@openzeppelin/contracts/token/ERC721/ERC721.sol\":4058:4063  owner */\n      dup5\n        /* \"@openzeppelin/contracts/token/ERC721/ERC721.sol\":4039:4064  _operatorApprovals[owner] */\n      0xffffffffffffffffffffffffffffffffffffffff\n      and\n      0xffffffffffffffffffffffffffffffffffffffff\n      and\n      dup2\n      mstore\n      0x20\n      add\n      swap1\n      dup2\n      mstore\n      0x20\n      add\n      0x00\n      keccak256\n        /* \"@openzeppelin/contracts/token/ERC721/ERC721.sol\":4039:4074  _operatorApprovals[owner][operator] */\n      0x00\n        /* \"@openzeppelin/contracts/token/ERC721/ERC721.sol\":4065:4073  operator */\n      dup4\n        /* \"@openzeppelin/contracts/token/ERC721/ERC721.sol\":4039:4074  _operatorApprovals[owner][operator] */\n      0xffffffffffffffffffffffffffffffffffffffff\n      and\n      0xffffffffffffffffffffffffffffffffffffffff\n      and\n      dup2\n      mstore\n      0x20\n      add\n      swap1\n      dup2\n      mstore\n      0x20\n      add\n      0x00\n      keccak256\n      0x00\n      swap1\n      sload\n      swap1\n      0x0100\n      exp\n      swap1\n      div\n      0xff\n      and\n        /* \"@openzeppelin/contracts/token/ERC721/ERC721.sol\":4032:4074  return _operatorApprovals[owner][operator] */\n      swap1\n      pop\n        /* \"@openzeppelin/contracts/token/ERC721/ERC721.sol\":3928:4081  function isApprovedForAll(address owner, address operator) public view virtual returns (bool) {... */\n      swap3\n      swap2\n      pop\n      pop\n      jump\t// out\n        /* \"contracts/MechaWarNFT/MechaWar.sol\":535:559  address public gameOwner */\n    tag_100:\n      0x08\n      0x00\n      swap1\n      sload\n      swap1\n      0x0100\n      exp\n      swap1\n      div\n      0xffffffffffffffffffffffffffffffffffffffff\n      and\n      dup2\n      jump\t// out\n        /* \"@openzeppelin/contracts/utils/introspection/ERC165.sol\":762:908  function supportsInterface(bytes4 interfaceId) public view virtual returns (bool) {... */\n    tag_106:\n        /* \"@openzeppelin/contracts/utils/introspection/ERC165.sol\":838:842  bool */\n      0x00\n        /* \"@openzeppelin/contracts/utils/introspection/ERC165.sol\":876:901  type(IERC165).interfaceId */\n      0x01ffc9a700000000000000000000000000000000000000000000000000000000\n        /* \"@openzeppelin/contracts/utils/introspection/ERC165.sol\":861:901  interfaceId == type(IERC165).interfaceId */\n      not(0xffffffffffffffffffffffffffffffffffffffffffffffffffffffff)\n      and\n        /* \"@openzeppelin/contracts/utils/introspection/ERC165.sol\":861:872  interfaceId */\n      dup3\n        /* \"@openzeppelin/contracts/utils/introspection/ERC165.sol\":861:901  interfaceId == type(IERC165).interfaceId */\n      not(0xffffffffffffffffffffffffffffffffffffffffffffffffffffffff)\n      and\n      eq\n        /* \"@openzeppelin/contracts/utils/introspection/ERC165.sol\":854:901  return interfaceId == type(IERC165).interfaceId */\n      swap1\n      pop\n        /* \"@openzeppelin/contracts/utils/introspection/ERC165.sol\":762:908  function supportsInterface(bytes4 interfaceId) public view virtual returns (bool) {... */\n      swap2\n      swap1\n      pop\n      jump\t// out\n        /* \"@openzeppelin/contracts/token/ERC721/ERC721.sol\":16138:16379  function _requireOwned(uint256 tokenId) internal view returns (address) {... */\n    tag_116:\n        /* \"@openzeppelin/contracts/token/ERC721/ERC721.sol\":16201:16208  address */\n      0x00\n        /* \"@openzeppelin/contracts/token/ERC721/ERC721.sol\":16220:16233  address owner */\n      dup1\n        /* \"@openzeppelin/contracts/token/ERC721/ERC721.sol\":16236:16253  _ownerOf(tokenId) */\n      tag_252\n        /* \"@openzeppelin/contracts/token/ERC721/ERC721.sol\":16245:16252  tokenId */\n      dup4\n        /* \"@openzeppelin/contracts/token/ERC721/ERC721.sol\":16236:16244  _ownerOf */\n      tag_253\n        /* \"@openzeppelin/contracts/token/ERC721/ERC721.sol\":16236:16253  _ownerOf(tokenId) */\n      jump\t// in\n    tag_252:\n        /* \"@openzeppelin/contracts/token/ERC721/ERC721.sol\":16220:16253  address owner = _ownerOf(tokenId) */\n      swap1\n      pop\n        /* \"@openzeppelin/contracts/token/ERC721/ERC721.sol\":16284:16285  0 */\n      0x00\n        /* \"@openzeppelin/contracts/token/ERC721/ERC721.sol\":16267:16286  owner == address(0) */\n      0xffffffffffffffffffffffffffffffffffffffff\n      and\n        /* \"@openzeppelin/contracts/token/ERC721/ERC721.sol\":16267:16272  owner */\n      dup2\n        /* \"@openzeppelin/contracts/token/ERC721/ERC721.sol\":16267:16286  owner == address(0) */\n      0xffffffffffffffffffffffffffffffffffffffff\n      and\n      sub\n        /* \"@openzeppelin/contracts/token/ERC721/ERC721.sol\":16263:16351  if (owner == address(0)) {... */\n      tag_254\n      jumpi\n        /* \"@openzeppelin/contracts/token/ERC721/ERC721.sol\":16332:16339  tokenId */\n      dup3\n        /* \"@openzeppelin/contracts/token/ERC721/ERC721.sol\":16309:16340  ERC721NonexistentToken(tokenId) */\n      mload(0x40)\n      0x7e27328900000000000000000000000000000000000000000000000000000000\n      dup2\n      mstore\n      0x04\n      add\n      tag_255\n      swap2\n      swap1\n      tag_78\n      jump\t// in\n    tag_255:\n      mload(0x40)\n      dup1\n      swap2\n      sub\n      swap1\n      revert\n        /* \"@openzeppelin/contracts/token/ERC721/ERC721.sol\":16263:16351  if (owner == address(0)) {... */\n    tag_254:\n        /* \"@openzeppelin/contracts/token/ERC721/ERC721.sol\":16367:16372  owner */\n      dup1\n        /* \"@openzeppelin/contracts/token/ERC721/ERC721.sol\":16360:16372  return owner */\n      swap2\n      pop\n      pop\n        /* \"@openzeppelin/contracts/token/ERC721/ERC721.sol\":16138:16379  function _requireOwned(uint256 tokenId) internal view returns (address) {... */\n      swap2\n      swap1\n      pop\n      jump\t// out\n        /* \"@openzeppelin/contracts/token/ERC721/ERC721.sol\":5938:6065  function _getApproved(uint256 tokenId) internal view virtual returns (address) {... */\n    tag_118:\n        /* \"@openzeppelin/contracts/token/ERC721/ERC721.sol\":6008:6015  address */\n      0x00\n        /* \"@openzeppelin/contracts/token/ERC721/ERC721.sol\":6034:6049  _tokenApprovals */\n      0x04\n        /* \"@openzeppelin/contracts/token/ERC721/ERC721.sol\":6034:6058  _tokenApprovals[tokenId] */\n      0x00\n        /* \"@openzeppelin/contracts/token/ERC721/ERC721.sol\":6050:6057  tokenId */\n      dup4\n        /* \"@openzeppelin/contracts/token/ERC721/ERC721.sol\":6034:6058  _tokenApprovals[tokenId] */\n      dup2\n      mstore\n      0x20\n      add\n      swap1\n      dup2\n      mstore\n      0x20\n      add\n      0x00\n      keccak256\n      0x00\n      swap1\n      sload\n      swap1\n      0x0100\n      exp\n      swap1\n      div\n      0xffffffffffffffffffffffffffffffffffffffff\n      and\n        /* \"@openzeppelin/contracts/token/ERC721/ERC721.sol\":6027:6058  return _tokenApprovals[tokenId] */\n      swap1\n      pop\n        /* \"@openzeppelin/contracts/token/ERC721/ERC721.sol\":5938:6065  function _getApproved(uint256 tokenId) internal view virtual returns (address) {... */\n      swap2\n      swap1\n      pop\n      jump\t// out\n        /* \"@openzeppelin/contracts/utils/Context.sol\":656:752  function _msgSender() internal view virtual returns (address) {... */\n    tag_122:\n        /* \"@openzeppelin/contracts/utils/Context.sol\":709:716  address */\n      0x00\n        /* \"@openzeppelin/contracts/utils/Context.sol\":735:745  msg.sender */\n      caller\n        /* \"@openzeppelin/contracts/utils/Context.sol\":728:745  return msg.sender */\n      swap1\n      pop\n        /* \"@openzeppelin/contracts/utils/Context.sol\":656:752  function _msgSender() internal view virtual returns (address) {... */\n      swap1\n      jump\t// out\n        /* \"@openzeppelin/contracts/token/ERC721/ERC721.sol\":14418:14538  function _approve(address to, uint256 tokenId, address auth) internal {... */\n    tag_123:\n        /* \"@openzeppelin/contracts/token/ERC721/ERC721.sol\":14498:14531  _approve(to, tokenId, auth, true) */\n      tag_259\n        /* \"@openzeppelin/contracts/token/ERC721/ERC721.sol\":14507:14509  to */\n      dup4\n        /* \"@openzeppelin/contracts/token/ERC721/ERC721.sol\":14511:14518  tokenId */\n      dup4\n        /* \"@openzeppelin/contracts/token/ERC721/ERC721.sol\":14520:14524  auth */\n      dup4\n        /* \"@openzeppelin/contracts/token/ERC721/ERC721.sol\":14526:14530  true */\n      0x01\n        /* \"@openzeppelin/contracts/token/ERC721/ERC721.sol\":14498:14506  _approve */\n      tag_260\n        /* \"@openzeppelin/contracts/token/ERC721/ERC721.sol\":14498:14531  _approve(to, tokenId, auth, true) */\n      jump\t// in\n    tag_259:\n        /* \"@openzeppelin/contracts/token/ERC721/ERC721.sol\":14418:14538  function _approve(address to, uint256 tokenId, address auth) internal {... */\n      pop\n      pop\n      pop\n      jump\t// out\n        /* \"@openzeppelin/contracts/token/ERC721/ERC721.sol\":8838:9633  function _update(address to, uint256 tokenId, address auth) internal virtual returns (address) {... */\n    tag_129:\n        /* \"@openzeppelin/contracts/token/ERC721/ERC721.sol\":8924:8931  address */\n      0x00\n        /* \"@openzeppelin/contracts/token/ERC721/ERC721.sol\":8943:8955  address from */\n      dup1\n        /* \"@openzeppelin/contracts/token/ERC721/ERC721.sol\":8958:8975  _ownerOf(tokenId) */\n      tag_262\n        /* \"@openzeppelin/contracts/token/ERC721/ERC721.sol\":8967:8974  tokenId */\n      dup5\n        /* \"@openzeppelin/contracts/token/ERC721/ERC721.sol\":8958:8966  _ownerOf */\n      tag_253\n        /* \"@openzeppelin/contracts/token/ERC721/ERC721.sol\":8958:8975  _ownerOf(tokenId) */\n      jump\t// in\n    tag_262:\n        /* \"@openzeppelin/contracts/token/ERC721/ERC721.sol\":8943:8975  address from = _ownerOf(tokenId) */\n      swap1\n      pop\n        /* \"@openzeppelin/contracts/token/ERC721/ERC721.sol\":9051:9052  0 */\n      0x00\n        /* \"@openzeppelin/contracts/token/ERC721/ERC721.sol\":9035:9053  auth != address(0) */\n      0xffffffffffffffffffffffffffffffffffffffff\n      and\n        /* \"@openzeppelin/contracts/token/ERC721/ERC721.sol\":9035:9039  auth */\n      dup4\n        /* \"@openzeppelin/contracts/token/ERC721/ERC721.sol\":9035:9053  auth != address(0) */\n      0xffffffffffffffffffffffffffffffffffffffff\n      and\n      eq\n        /* \"@openzeppelin/contracts/token/ERC721/ERC721.sol\":9031:9117  if (auth != address(0)) {... */\n      tag_263\n      jumpi\n        /* \"@openzeppelin/contracts/token/ERC721/ERC721.sol\":9069:9106  _checkAuthorized(from, auth, tokenId) */\n      tag_264\n        /* \"@openzeppelin/contracts/token/ERC721/ERC721.sol\":9086:9090  from */\n      dup2\n        /* \"@openzeppelin/contracts/token/ERC721/ERC721.sol\":9092:9096  auth */\n      dup5\n        /* \"@openzeppelin/contracts/token/ERC721/ERC721.sol\":9098:9105  tokenId */\n      dup7\n        /* \"@openzeppelin/contracts/token/ERC721/ERC721.sol\":9069:9085  _checkAuthorized */\n      tag_265\n        /* \"@openzeppelin/contracts/token/ERC721/ERC721.sol\":9069:9106  _checkAuthorized(from, auth, tokenId) */\n      jump\t// in\n    tag_264:\n        /* \"@openzeppelin/contracts/token/ERC721/ERC721.sol\":9031:9117  if (auth != address(0)) {... */\n    tag_263:\n        /* \"@openzeppelin/contracts/token/ERC721/ERC721.sol\":9177:9178  0 */\n      0x00\n        /* \"@openzeppelin/contracts/token/ERC721/ERC721.sol\":9161:9179  from != address(0) */\n      0xffffffffffffffffffffffffffffffffffffffff\n      and\n        /* \"@openzeppelin/contracts/token/ERC721/ERC721.sol\":9161:9165  from */\n      dup2\n        /* \"@openzeppelin/contracts/token/ERC721/ERC721.sol\":9161:9179  from != address(0) */\n      0xffffffffffffffffffffffffffffffffffffffff\n      and\n      eq\n        /* \"@openzeppelin/contracts/token/ERC721/ERC721.sol\":9157:9413  if (from != address(0)) {... */\n      tag_266\n      jumpi\n        /* \"@openzeppelin/contracts/token/ERC721/ERC721.sol\":9277:9325  _approve(address(0), tokenId, address(0), false) */\n      tag_267\n        /* \"@openzeppelin/contracts/token/ERC721/ERC721.sol\":9294:9295  0 */\n      0x00\n        /* \"@openzeppelin/contracts/token/ERC721/ERC721.sol\":9298:9305  tokenId */\n      dup6\n        /* \"@openzeppelin/contracts/token/ERC721/ERC721.sol\":9315:9316  0 */\n      0x00\n        /* \"@openzeppelin/contracts/token/ERC721/ERC721.sol\":9319:9324  false */\n      dup1\n        /* \"@openzeppelin/contracts/token/ERC721/ERC721.sol\":9277:9285  _approve */\n      tag_260\n        /* \"@openzeppelin/contracts/token/ERC721/ERC721.sol\":9277:9325  _approve(address(0), tokenId, address(0), false) */\n      jump\t// in\n    tag_267:\n        /* \"@openzeppelin/contracts/token/ERC721/ERC721.sol\":9387:9388  1 */\n      0x01\n        /* \"@openzeppelin/contracts/token/ERC721/ERC721.sol\":9368:9377  _balances */\n      0x03\n        /* \"@openzeppelin/contracts/token/ERC721/ERC721.sol\":9368:9383  _balances[from] */\n      0x00\n        /* \"@openzeppelin/contracts/token/ERC721/ERC721.sol\":9378:9382  from */\n      dup4\n        /* \"@openzeppelin/contracts/token/ERC721/ERC721.sol\":9368:9383  _balances[from] */\n      0xffffffffffffffffffffffffffffffffffffffff\n      and\n      0xffffffffffffffffffffffffffffffffffffffff\n      and\n      dup2\n      mstore\n      0x20\n      add\n      swap1\n      dup2\n      mstore\n      0x20\n      add\n      0x00\n      keccak256\n      0x00\n        /* \"@openzeppelin/contracts/token/ERC721/ERC721.sol\":9368:9388  _balances[from] -= 1 */\n      dup3\n      dup3\n      sload\n      sub\n      swap3\n      pop\n      pop\n      dup2\n      swap1\n      sstore\n      pop\n        /* \"@openzeppelin/contracts/token/ERC721/ERC721.sol\":9157:9413  if (from != address(0)) {... */\n    tag_266:\n        /* \"@openzeppelin/contracts/token/ERC721/ERC721.sol\":9441:9442  0 */\n      0x00\n        /* \"@openzeppelin/contracts/token/ERC721/ERC721.sol\":9427:9443  to != address(0) */\n      0xffffffffffffffffffffffffffffffffffffffff\n      and\n        /* \"@openzeppelin/contracts/token/ERC721/ERC721.sol\":9427:9429  to */\n      dup6\n        /* \"@openzeppelin/contracts/token/ERC721/ERC721.sol\":9427:9443  to != address(0) */\n      0xffffffffffffffffffffffffffffffffffffffff\n      and\n      eq\n        /* \"@openzeppelin/contracts/token/ERC721/ERC721.sol\":9423:9530  if (to != address(0)) {... */\n      tag_268\n      jumpi\n        /* \"@openzeppelin/contracts/token/ERC721/ERC721.sol\":9504:9505  1 */\n      0x01\n        /* \"@openzeppelin/contracts/token/ERC721/ERC721.sol\":9487:9496  _balances */\n      0x03\n        /* \"@openzeppelin/contracts/token/ERC721/ERC721.sol\":9487:9500  _balances[to] */\n      0x00\n        /* \"@openzeppelin/contracts/token/ERC721/ERC721.sol\":9497:9499  to */\n      dup8\n        /* \"@openzeppelin/contracts/token/ERC721/ERC721.sol\":9487:9500  _balances[to] */\n      0xffffffffffffffffffffffffffffffffffffffff\n      and\n      0xffffffffffffffffffffffffffffffffffffffff\n      and\n      dup2\n      mstore\n      0x20\n      add\n      swap1\n      dup2\n      mstore\n      0x20\n      add\n      0x00\n      keccak256\n      0x00\n        /* \"@openzeppelin/contracts/token/ERC721/ERC721.sol\":9487:9505  _balances[to] += 1 */\n      dup3\n      dup3\n      sload\n      add\n      swap3\n      pop\n      pop\n      dup2\n      swap1\n      sstore\n      pop\n        /* \"@openzeppelin/contracts/token/ERC721/ERC721.sol\":9423:9530  if (to != address(0)) {... */\n    tag_268:\n        /* \"@openzeppelin/contracts/token/ERC721/ERC721.sol\":9559:9561  to */\n      dup5\n        /* \"@openzeppelin/contracts/token/ERC721/ERC721.sol\":9540:9547  _owners */\n      0x02\n        /* \"@openzeppelin/contracts/token/ERC721/ERC721.sol\":9540:9556  _owners[tokenId] */\n      0x00\n        /* \"@openzeppelin/contracts/token/ERC721/ERC721.sol\":9548:9555  tokenId */\n      dup7\n        /* \"@openzeppelin/contracts/token/ERC721/ERC721.sol\":9540:9556  _owners[tokenId] */\n      dup2\n      mstore\n      0x20\n      add\n      swap1\n      dup2\n      mstore\n      0x20\n      add\n      0x00\n      keccak256\n      0x00\n        /* \"@openzeppelin/contracts/token/ERC721/ERC721.sol\":9540:9561  _owners[tokenId] = to */\n      0x0100\n      exp\n      dup2\n      sload\n      dup2\n      0xffffffffffffffffffffffffffffffffffffffff\n      mul\n      not\n      and\n      swap1\n      dup4\n      0xffffffffffffffffffffffffffffffffffffffff\n      and\n      mul\n      or\n      swap1\n      sstore\n      pop\n        /* \"@openzeppelin/contracts/token/ERC721/ERC721.sol\":9596:9603  tokenId */\n      dup4\n        /* \"@openzeppelin/contracts/token/ERC721/ERC721.sol\":9592:9594  to */\n      dup6\n        /* \"@openzeppelin/contracts/token/ERC721/ERC721.sol\":9577:9604  Transfer(from, to, tokenId) */\n      0xffffffffffffffffffffffffffffffffffffffff\n      and\n        /* \"@openzeppelin/contracts/token/ERC721/ERC721.sol\":9586:9590  from */\n      dup3\n        /* \"@openzeppelin/contracts/token/ERC721/ERC721.sol\":9577:9604  Transfer(from, to, tokenId) */\n      0xffffffffffffffffffffffffffffffffffffffff\n      and\n      0xddf252ad1be2c89b69c2b068fc378daa952ba7f163c4a11628f55a4df523b3ef\n      mload(0x40)\n      mload(0x40)\n      dup1\n      swap2\n      sub\n      swap1\n      log4\n        /* \"@openzeppelin/contracts/token/ERC721/ERC721.sol\":9622:9626  from */\n      dup1\n        /* \"@openzeppelin/contracts/token/ERC721/ERC721.sol\":9615:9626  return from */\n      swap2\n      pop\n      pop\n        /* \"@openzeppelin/contracts/token/ERC721/ERC721.sol\":8838:9633  function _update(address to, uint256 tokenId, address auth) internal virtual returns (address) {... */\n      swap4\n      swap3\n      pop\n      pop\n      pop\n      jump\t// out\n        /* \"@openzeppelin/contracts/token/ERC721/ERC721.sol\":10633:10733  function _safeMint(address to, uint256 tokenId) internal {... */\n    tag_221:\n        /* \"@openzeppelin/contracts/token/ERC721/ERC721.sol\":10700:10726  _safeMint(to, tokenId, \"\") */\n      tag_270\n        /* \"@openzeppelin/contracts/token/ERC721/ERC721.sol\":10710:10712  to */\n      dup3\n        /* \"@openzeppelin/contracts/token/ERC721/ERC721.sol\":10714:10721  tokenId */\n      dup3\n        /* \"@openzeppelin/contracts/token/ERC721/ERC721.sol\":10700:10726  _safeMint(to, tokenId, \"\") */\n      mload(0x40)\n      dup1\n      0x20\n      add\n      0x40\n      mstore\n      dup1\n      0x00\n      dup2\n      mstore\n      pop\n        /* \"@openzeppelin/contracts/token/ERC721/ERC721.sol\":10700:10709  _safeMint */\n      tag_271\n        /* \"@openzeppelin/contracts/token/ERC721/ERC721.sol\":10700:10726  _safeMint(to, tokenId, \"\") */\n      jump\t// in\n    tag_270:\n        /* \"@openzeppelin/contracts/token/ERC721/ERC721.sol\":10633:10733  function _safeMint(address to, uint256 tokenId) internal {... */\n      pop\n      pop\n      jump\t// out\n        /* \"@openzeppelin/contracts/token/ERC721/ERC721.sol\":15591:15903  function _setApprovalForAll(address owner, address operator, bool approved) internal virtual {... */\n    tag_234:\n        /* \"@openzeppelin/contracts/token/ERC721/ERC721.sol\":15718:15719  0 */\n      0x00\n        /* \"@openzeppelin/contracts/token/ERC721/ERC721.sol\":15698:15720  operator == address(0) */\n      0xffffffffffffffffffffffffffffffffffffffff\n      and\n        /* \"@openzeppelin/contracts/token/ERC721/ERC721.sol\":15698:15706  operator */\n      dup3\n        /* \"@openzeppelin/contracts/token/ERC721/ERC721.sol\":15698:15720  operator == address(0) */\n      0xffffffffffffffffffffffffffffffffffffffff\n      and\n      sub\n        /* \"@openzeppelin/contracts/token/ERC721/ERC721.sol\":15694:15785  if (operator == address(0)) {... */\n      tag_273\n      jumpi\n        /* \"@openzeppelin/contracts/token/ERC721/ERC721.sol\":15765:15773  operator */\n      dup2\n        /* \"@openzeppelin/contracts/token/ERC721/ERC721.sol\":15743:15774  ERC721InvalidOperator(operator) */\n      mload(0x40)\n      0x5b08ba1800000000000000000000000000000000000000000000000000000000\n      dup2\n      mstore\n      0x04\n      add\n      tag_274\n      swap2\n      swap1\n      tag_39\n      jump\t// in\n    tag_274:\n      mload(0x40)\n      dup1\n      swap2\n      sub\n      swap1\n      revert\n        /* \"@openzeppelin/contracts/token/ERC721/ERC721.sol\":15694:15785  if (operator == address(0)) {... */\n    tag_273:\n        /* \"@openzeppelin/contracts/token/ERC721/ERC721.sol\":15832:15840  approved */\n      dup1\n        /* \"@openzeppelin/contracts/token/ERC721/ERC721.sol\":15794:15812  _operatorApprovals */\n      0x05\n        /* \"@openzeppelin/contracts/token/ERC721/ERC721.sol\":15794:15819  _operatorApprovals[owner] */\n      0x00\n        /* \"@openzeppelin/contracts/token/ERC721/ERC721.sol\":15813:15818  owner */\n      dup6\n        /* \"@openzeppelin/contracts/token/ERC721/ERC721.sol\":15794:15819  _operatorApprovals[owner] */\n      0xffffffffffffffffffffffffffffffffffffffff\n      and\n      0xffffffffffffffffffffffffffffffffffffffff\n      and\n      dup2\n      mstore\n      0x20\n      add\n      swap1\n      dup2\n      mstore\n      0x20\n      add\n      0x00\n      keccak256\n        /* \"@openzeppelin/contracts/token/ERC721/ERC721.sol\":15794:15829  _operatorApprovals[owner][operator] */\n      0x00\n        /* \"@openzeppelin/contracts/token/ERC721/ERC721.sol\":15820:15828  operator */\n      dup5\n        /* \"@openzeppelin/contracts/token/ERC721/ERC721.sol\":15794:15829  _operatorApprovals[owner][operator] */\n      0xffffffffffffffffffffffffffffffffffffffff\n      and\n      0xffffffffffffffffffffffffffffffffffffffff\n      and\n      dup2\n      mstore\n      0x20\n      add\n      swap1\n      dup2\n      mstore\n      0x20\n      add\n      0x00\n      keccak256\n      0x00\n        /* \"@openzeppelin/contracts/token/ERC721/ERC721.sol\":15794:15840  _operatorApprovals[owner][operator] = approved */\n      0x0100\n      exp\n      dup2\n      sload\n      dup2\n      0xff\n      mul\n      not\n      and\n      swap1\n      dup4\n      iszero\n      iszero\n      mul\n      or\n      swap1\n      sstore\n      pop\n        /* \"@openzeppelin/contracts/token/ERC721/ERC721.sol\":15877:15885  operator */\n      dup2\n        /* \"@openzeppelin/contracts/token/ERC721/ERC721.sol\":15855:15896  ApprovalForAll(owner, operator, approved) */\n      0xffffffffffffffffffffffffffffffffffffffff\n      and\n        /* \"@openzeppelin/contracts/token/ERC721/ERC721.sol\":15870:15875  owner */\n      dup4\n        /* \"@openzeppelin/contracts/token/ERC721/ERC721.sol\":15855:15896  ApprovalForAll(owner, operator, approved) */\n      0xffffffffffffffffffffffffffffffffffffffff\n      and\n      0x17307eab39ab6107e8899845ad3d59bd9653f200f220920489ca2b5937696c31\n        /* \"@openzeppelin/contracts/token/ERC721/ERC721.sol\":15887:15895  approved */\n      dup4\n        /* \"@openzeppelin/contracts/token/ERC721/ERC721.sol\":15855:15896  ApprovalForAll(owner, operator, approved) */\n      mload(0x40)\n      tag_275\n      swap2\n      swap1\n      tag_29\n      jump\t// in\n    tag_275:\n      mload(0x40)\n      dup1\n      swap2\n      sub\n      swap1\n      log3\n        /* \"@openzeppelin/contracts/token/ERC721/ERC721.sol\":15591:15903  function _setApprovalForAll(address owner, address operator, bool approved) internal virtual {... */\n      pop\n      pop\n      pop\n      jump\t// out\n        /* \"@openzeppelin/contracts/token/ERC721/ERC721.sol\":16918:17700  function _checkOnERC721Received(address from, address to, uint256 tokenId, bytes memory data) private {... */\n    tag_238:\n        /* \"@openzeppelin/contracts/token/ERC721/ERC721.sol\":17051:17052  0 */\n      0x00\n        /* \"@openzeppelin/contracts/token/ERC721/ERC721.sol\":17034:17036  to */\n      dup4\n        /* \"@openzeppelin/contracts/token/ERC721/ERC721.sol\":17034:17048  to.code.length */\n      0xffffffffffffffffffffffffffffffffffffffff\n      and\n      extcodesize\n        /* \"@openzeppelin/contracts/token/ERC721/ERC721.sol\":17034:17052  to.code.length > 0 */\n      gt\n        /* \"@openzeppelin/contracts/token/ERC721/ERC721.sol\":17030:17694  if (to.code.length > 0) {... */\n      iszero\n      tag_277\n      jumpi\n        /* \"@openzeppelin/contracts/token/ERC721/ERC721.sol\":17088:17090  to */\n      dup3\n        /* \"@openzeppelin/contracts/token/ERC721/ERC721.sol\":17072:17108  IERC721Receiver(to).onERC721Received */\n      0xffffffffffffffffffffffffffffffffffffffff\n      and\n      0x150b7a02\n        /* \"@openzeppelin/contracts/token/ERC721/ERC721.sol\":17109:17121  _msgSender() */\n      tag_278\n        /* \"@openzeppelin/contracts/token/ERC721/ERC721.sol\":17109:17119  _msgSender */\n      tag_122\n        /* \"@openzeppelin/contracts/token/ERC721/ERC721.sol\":17109:17121  _msgSender() */\n      jump\t// in\n    tag_278:\n        /* \"@openzeppelin/contracts/token/ERC721/ERC721.sol\":17123:17127  from */\n      dup7\n        /* \"@openzeppelin/contracts/token/ERC721/ERC721.sol\":17129:17136  tokenId */\n      dup6\n        /* \"@openzeppelin/contracts/token/ERC721/ERC721.sol\":17138:17142  data */\n      dup6\n        /* \"@openzeppelin/contracts/token/ERC721/ERC721.sol\":17072:17143  IERC721Receiver(to).onERC721Received(_msgSender(), from, tokenId, data) */\n      mload(0x40)\n      dup6\n      0xffffffff\n      and\n      0xe0\n      shl\n      dup2\n      mstore\n      0x04\n      add\n      tag_279\n      swap5\n      swap4\n      swap3\n      swap2\n      swap1\n      tag_280\n      jump\t// in\n    tag_279:\n      0x20\n      mload(0x40)\n      dup1\n      dup4\n      sub\n      dup2\n      0x00\n      dup8\n      gas\n      call\n      swap3\n      pop\n      pop\n      pop\n      dup1\n      iszero\n      tag_281\n      jumpi\n      pop\n      mload(0x40)\n      returndatasize\n      not(0x1f)\n      0x1f\n      dup3\n      add\n      and\n      dup3\n      add\n      dup1\n      0x40\n      mstore\n      pop\n      dup2\n      add\n      swap1\n      tag_282\n      swap2\n      swap1\n      tag_283\n      jump\t// in\n    tag_282:\n      0x01\n    tag_281:\n        /* \"@openzeppelin/contracts/token/ERC721/ERC721.sol\":17068:17684  try IERC721Receiver(to).onERC721Received(_msgSender(), from, tokenId, data) returns (bytes4 retval) {... */\n      tag_284\n      jumpi\n      returndatasize\n      dup1\n      0x00\n      dup2\n      eq\n      tag_289\n      jumpi\n      mload(0x40)\n      swap2\n      pop\n      and(add(returndatasize, 0x3f), not(0x1f))\n      dup3\n      add\n      0x40\n      mstore\n      returndatasize\n      dup3\n      mstore\n      returndatasize\n      0x00\n      0x20\n      dup5\n      add\n      returndatacopy\n      jump(tag_288)\n    tag_289:\n      0x60\n      swap2\n      pop\n    tag_288:\n      pop\n        /* \"@openzeppelin/contracts/token/ERC721/ERC721.sol\":17398:17399  0 */\n      0x00\n        /* \"@openzeppelin/contracts/token/ERC721/ERC721.sol\":17381:17387  reason */\n      dup2\n        /* \"@openzeppelin/contracts/token/ERC721/ERC721.sol\":17381:17394  reason.length */\n      mload\n        /* \"@openzeppelin/contracts/token/ERC721/ERC721.sol\":17381:17399  reason.length == 0 */\n      sub\n        /* \"@openzeppelin/contracts/token/ERC721/ERC721.sol\":17377:17670  if (reason.length == 0) {... */\n      tag_290\n      jumpi\n        /* \"@openzeppelin/contracts/token/ERC721/ERC721.sol\":17452:17454  to */\n      dup4\n        /* \"@openzeppelin/contracts/token/ERC721/ERC721.sol\":17430:17455  ERC721InvalidReceiver(to) */\n      mload(0x40)\n      0x64a0ae9200000000000000000000000000000000000000000000000000000000\n      dup2\n      mstore\n      0x04\n      add\n      tag_291\n      swap2\n      swap1\n      tag_39\n      jump\t// in\n    tag_291:\n      mload(0x40)\n      dup1\n      swap2\n      sub\n      swap1\n      revert\n        /* \"@openzeppelin/contracts/token/ERC721/ERC721.sol\":17377:17670  if (reason.length == 0) {... */\n    tag_290:\n        /* \"@openzeppelin/contracts/token/ERC721/ERC721.sol\":17622:17628  reason */\n      dup1\n        /* \"@openzeppelin/contracts/token/ERC721/ERC721.sol\":17616:17629  mload(reason) */\n      mload\n        /* \"@openzeppelin/contracts/token/ERC721/ERC721.sol\":17607:17613  reason */\n      dup2\n        /* \"@openzeppelin/contracts/token/ERC721/ERC721.sol\":17603:17605  32 */\n      0x20\n        /* \"@openzeppelin/contracts/token/ERC721/ERC721.sol\":17599:17614  add(32, reason) */\n      add\n        /* \"@openzeppelin/contracts/token/ERC721/ERC721.sol\":17592:17630  revert(add(32, reason), mload(reason)) */\n      revert\n        /* \"@openzeppelin/contracts/token/ERC721/ERC721.sol\":17068:17684  try IERC721Receiver(to).onERC721Received(_msgSender(), from, tokenId, data) returns (bytes4 retval) {... */\n    tag_284:\n        /* \"@openzeppelin/contracts/token/ERC721/ERC721.sol\":17200:17241  IERC721Receiver.onERC721Received.selector */\n      shl(0xe0, 0x150b7a02)\n        /* \"@openzeppelin/contracts/token/ERC721/ERC721.sol\":17190:17241  retval != IERC721Receiver.onERC721Received.selector */\n      not(0xffffffffffffffffffffffffffffffffffffffffffffffffffffffff)\n      and\n        /* \"@openzeppelin/contracts/token/ERC721/ERC721.sol\":17190:17196  retval */\n      dup2\n        /* \"@openzeppelin/contracts/token/ERC721/ERC721.sol\":17190:17241  retval != IERC721Receiver.onERC721Received.selector */\n      not(0xffffffffffffffffffffffffffffffffffffffffffffffffffffffff)\n      and\n      eq\n        /* \"@openzeppelin/contracts/token/ERC721/ERC721.sol\":17186:17316  if (retval != IERC721Receiver.onERC721Received.selector) {... */\n      tag_294\n      jumpi\n        /* \"@openzeppelin/contracts/token/ERC721/ERC721.sol\":17294:17296  to */\n      dup4\n        /* \"@openzeppelin/contracts/token/ERC721/ERC721.sol\":17272:17297  ERC721InvalidReceiver(to) */\n      mload(0x40)\n      0x64a0ae9200000000000000000000000000000000000000000000000000000000\n      dup2\n      mstore\n      0x04\n      add\n      tag_295\n      swap2\n      swap1\n      tag_39\n      jump\t// in\n    tag_295:\n      mload(0x40)\n      dup1\n      swap2\n      sub\n      swap1\n      revert\n        /* \"@openzeppelin/contracts/token/ERC721/ERC721.sol\":17186:17316  if (retval != IERC721Receiver.onERC721Received.selector) {... */\n    tag_294:\n        /* \"@openzeppelin/contracts/token/ERC721/ERC721.sol\":17144:17330  returns (bytes4 retval) {... */\n      pop\n        /* \"@openzeppelin/contracts/token/ERC721/ERC721.sol\":17030:17694  if (to.code.length > 0) {... */\n    tag_277:\n        /* \"@openzeppelin/contracts/token/ERC721/ERC721.sol\":16918:17700  function _checkOnERC721Received(address from, address to, uint256 tokenId, bytes memory data) private {... */\n      pop\n      pop\n      pop\n      pop\n      jump\t// out\n        /* \"@openzeppelin/contracts/token/ERC721/ERC721.sol\":3174:3266  function _baseURI() internal view virtual returns (string memory) {... */\n    tag_242:\n        /* \"@openzeppelin/contracts/token/ERC721/ERC721.sol\":3225:3238  string memory */\n      0x60\n        /* \"@openzeppelin/contracts/token/ERC721/ERC721.sol\":3250:3259  return \"\" */\n      mload(0x40)\n      dup1\n      0x20\n      add\n      0x40\n      mstore\n      dup1\n      0x00\n      dup2\n      mstore\n      pop\n      swap1\n      pop\n        /* \"@openzeppelin/contracts/token/ERC721/ERC721.sol\":3174:3266  function _baseURI() internal view virtual returns (string memory) {... */\n      swap1\n      jump\t// out\n        /* \"@openzeppelin/contracts/utils/Strings.sol\":637:1335  function toString(uint256 value) internal pure returns (string memory) {... */\n    tag_246:\n        /* \"@openzeppelin/contracts/utils/Strings.sol\":693:706  string memory */\n      0x60\n        /* \"@openzeppelin/contracts/utils/Strings.sol\":742:756  uint256 length */\n      0x00\n        /* \"@openzeppelin/contracts/utils/Strings.sol\":779:780  1 */\n      0x01\n        /* \"@openzeppelin/contracts/utils/Strings.sol\":759:776  Math.log10(value) */\n      tag_298\n        /* \"@openzeppelin/contracts/utils/Strings.sol\":770:775  value */\n      dup5\n        /* \"@openzeppelin/contracts/utils/Strings.sol\":759:769  Math.log10 */\n      tag_299\n        /* \"@openzeppelin/contracts/utils/Strings.sol\":759:776  Math.log10(value) */\n      jump\t// in\n    tag_298:\n        /* \"@openzeppelin/contracts/utils/Strings.sol\":759:780  Math.log10(value) + 1 */\n      add\n        /* \"@openzeppelin/contracts/utils/Strings.sol\":742:780  uint256 length = Math.log10(value) + 1 */\n      swap1\n      pop\n        /* \"@openzeppelin/contracts/utils/Strings.sol\":794:814  string memory buffer */\n      0x00\n        /* \"@openzeppelin/contracts/utils/Strings.sol\":828:834  length */\n      dup2\n        /* \"@openzeppelin/contracts/utils/Strings.sol\":817:835  new string(length) */\n      0xffffffffffffffff\n      dup2\n      gt\n      iszero\n      tag_300\n      jumpi\n      tag_301\n      tag_302\n      jump\t// in\n    tag_301:\n    tag_300:\n      mload(0x40)\n      swap1\n      dup1\n      dup3\n      mstore\n      dup1\n      0x1f\n      add\n      not(0x1f)\n      and\n      0x20\n      add\n      dup3\n      add\n      0x40\n      mstore\n      dup1\n      iszero\n      tag_303\n      jumpi\n      dup2\n      0x20\n      add\n      0x01\n      dup3\n      mul\n      dup1\n      calldatasize\n      dup4\n      calldatacopy\n      dup1\n      dup3\n      add\n      swap2\n      pop\n      pop\n      swap1\n      pop\n    tag_303:\n      pop\n        /* \"@openzeppelin/contracts/utils/Strings.sol\":794:835  string memory buffer = new string(length) */\n      swap1\n      pop\n        /* \"@openzeppelin/contracts/utils/Strings.sol\":849:860  uint256 ptr */\n      0x00\n        /* \"@openzeppelin/contracts/utils/Strings.sol\":975:981  length */\n      dup3\n        /* \"@openzeppelin/contracts/utils/Strings.sol\":971:973  32 */\n      0x20\n        /* \"@openzeppelin/contracts/utils/Strings.sol\":967:982  add(32, length) */\n      add\n        /* \"@openzeppelin/contracts/utils/Strings.sol\":959:965  buffer */\n      dup3\n        /* \"@openzeppelin/contracts/utils/Strings.sol\":955:983  add(buffer, add(32, length)) */\n      add\n        /* \"@openzeppelin/contracts/utils/Strings.sol\":948:983  ptr := add(buffer, add(32, length)) */\n      swap1\n      pop\n        /* \"@openzeppelin/contracts/utils/Strings.sol\":1010:1292  while (true) {... */\n    tag_304:\n        /* \"@openzeppelin/contracts/utils/Strings.sol\":1017:1021  true */\n      0x01\n        /* \"@openzeppelin/contracts/utils/Strings.sol\":1010:1292  while (true) {... */\n      iszero\n      tag_305\n      jumpi\n        /* \"@openzeppelin/contracts/utils/Strings.sol\":1041:1046  ptr-- */\n      dup1\n      dup1\n      0x01\n      swap1\n      sub\n      swap2\n      pop\n      pop\n        /* \"@openzeppelin/contracts/utils/Strings.sol\":1180:1190  HEX_DIGITS */\n      0x3031323334353637383961626364656600000000000000000000000000000000\n        /* \"@openzeppelin/contracts/utils/Strings.sol\":1175:1177  10 */\n      0x0a\n        /* \"@openzeppelin/contracts/utils/Strings.sol\":1168:1173  value */\n      dup7\n        /* \"@openzeppelin/contracts/utils/Strings.sol\":1164:1178  mod(value, 10) */\n      mod\n        /* \"@openzeppelin/contracts/utils/Strings.sol\":1159:1191  byte(mod(value, 10), HEX_DIGITS) */\n      byte\n        /* \"@openzeppelin/contracts/utils/Strings.sol\":1154:1157  ptr */\n      dup2\n        /* \"@openzeppelin/contracts/utils/Strings.sol\":1146:1192  mstore8(ptr, byte(mod(value, 10), HEX_DIGITS)) */\n      mstore8\n        /* \"@openzeppelin/contracts/utils/Strings.sol\":1236:1238  10 */\n      0x0a\n        /* \"@openzeppelin/contracts/utils/Strings.sol\":1227:1238  value /= 10 */\n      dup6\n      dup2\n      tag_306\n      jumpi\n      tag_307\n      tag_308\n      jump\t// in\n    tag_307:\n    tag_306:\n      div\n      swap5\n      pop\n        /* \"@openzeppelin/contracts/utils/Strings.sol\":1269:1270  0 */\n      0x00\n        /* \"@openzeppelin/contracts/utils/Strings.sol\":1260:1265  value */\n      dup6\n        /* \"@openzeppelin/contracts/utils/Strings.sol\":1260:1270  value == 0 */\n      sub\n        /* \"@openzeppelin/contracts/utils/Strings.sol\":1010:1292  while (true) {... */\n      tag_304\n        /* \"@openzeppelin/contracts/utils/Strings.sol\":1256:1277  if (value == 0) break */\n      jumpi\n        /* \"@openzeppelin/contracts/utils/Strings.sol\":1010:1292  while (true) {... */\n    tag_305:\n        /* \"@openzeppelin/contracts/utils/Strings.sol\":1312:1318  buffer */\n      dup2\n        /* \"@openzeppelin/contracts/utils/Strings.sol\":1305:1318  return buffer */\n      swap4\n      pop\n      pop\n      pop\n      pop\n        /* \"@openzeppelin/contracts/utils/Strings.sol\":637:1335  function toString(uint256 value) internal pure returns (string memory) {... */\n      swap2\n      swap1\n      pop\n      jump\t// out\n        /* \"@openzeppelin/contracts/token/ERC721/ERC721.sol\":5707:5822  function _ownerOf(uint256 tokenId) internal view virtual returns (address) {... */\n    tag_253:\n        /* \"@openzeppelin/contracts/token/ERC721/ERC721.sol\":5773:5780  address */\n      0x00\n        /* \"@openzeppelin/contracts/token/ERC721/ERC721.sol\":5799:5806  _owners */\n      0x02\n        /* \"@openzeppelin/contracts/token/ERC721/ERC721.sol\":5799:5815  _owners[tokenId] */\n      0x00\n        /* \"@openzeppelin/contracts/token/ERC721/ERC721.sol\":5807:5814  tokenId */\n      dup4\n        /* \"@openzeppelin/contracts/token/ERC721/ERC721.sol\":5799:5815  _owners[tokenId] */\n      dup2\n      mstore\n      0x20\n      add\n      swap1\n      dup2\n      mstore\n      0x20\n      add\n      0x00\n      keccak256\n      0x00\n      swap1\n      sload\n      swap1\n      0x0100\n      exp\n      swap1\n      div\n      0xffffffffffffffffffffffffffffffffffffffff\n      and\n        /* \"@openzeppelin/contracts/token/ERC721/ERC721.sol\":5792:5815  return _owners[tokenId] */\n      swap1\n      pop\n        /* \"@openzeppelin/contracts/token/ERC721/ERC721.sol\":5707:5822  function _ownerOf(uint256 tokenId) internal view virtual returns (address) {... */\n      swap2\n      swap1\n      pop\n      jump\t// out\n        /* \"@openzeppelin/contracts/token/ERC721/ERC721.sol\":14720:15382  function _approve(address to, uint256 tokenId, address auth, bool emitEvent) internal virtual {... */\n    tag_260:\n        /* \"@openzeppelin/contracts/token/ERC721/ERC721.sol\":14880:14889  emitEvent */\n      dup1\n        /* \"@openzeppelin/contracts/token/ERC721/ERC721.sol\":14880:14911  emitEvent || auth != address(0) */\n      dup1\n      tag_312\n      jumpi\n      pop\n        /* \"@openzeppelin/contracts/token/ERC721/ERC721.sol\":14909:14910  0 */\n      0x00\n        /* \"@openzeppelin/contracts/token/ERC721/ERC721.sol\":14893:14911  auth != address(0) */\n      0xffffffffffffffffffffffffffffffffffffffff\n      and\n        /* \"@openzeppelin/contracts/token/ERC721/ERC721.sol\":14893:14897  auth */\n      dup3\n        /* \"@openzeppelin/contracts/token/ERC721/ERC721.sol\":14893:14911  auth != address(0) */\n      0xffffffffffffffffffffffffffffffffffffffff\n      and\n      eq\n      iszero\n        /* \"@openzeppelin/contracts/token/ERC721/ERC721.sol\":14880:14911  emitEvent || auth != address(0) */\n    tag_312:\n        /* \"@openzeppelin/contracts/token/ERC721/ERC721.sol\":14876:15336  if (emitEvent || auth != address(0)) {... */\n      iszero\n      tag_313\n      jumpi\n        /* \"@openzeppelin/contracts/token/ERC721/ERC721.sol\":14927:14940  address owner */\n      0x00\n        /* \"@openzeppelin/contracts/token/ERC721/ERC721.sol\":14943:14965  _requireOwned(tokenId) */\n      tag_314\n        /* \"@openzeppelin/contracts/token/ERC721/ERC721.sol\":14957:14964  tokenId */\n      dup5\n        /* \"@openzeppelin/contracts/token/ERC721/ERC721.sol\":14943:14956  _requireOwned */\n      tag_116\n        /* \"@openzeppelin/contracts/token/ERC721/ERC721.sol\":14943:14965  _requireOwned(tokenId) */\n      jump\t// in\n    tag_314:\n        /* \"@openzeppelin/contracts/token/ERC721/ERC721.sol\":14927:14965  address owner = _requireOwned(tokenId) */\n      swap1\n      pop\n        /* \"@openzeppelin/contracts/token/ERC721/ERC721.sol\":15109:15110  0 */\n      0x00\n        /* \"@openzeppelin/contracts/token/ERC721/ERC721.sol\":15093:15111  auth != address(0) */\n      0xffffffffffffffffffffffffffffffffffffffff\n      and\n        /* \"@openzeppelin/contracts/token/ERC721/ERC721.sol\":15093:15097  auth */\n      dup4\n        /* \"@openzeppelin/contracts/token/ERC721/ERC721.sol\":15093:15111  auth != address(0) */\n      0xffffffffffffffffffffffffffffffffffffffff\n      and\n      eq\n      iszero\n        /* \"@openzeppelin/contracts/token/ERC721/ERC721.sol\":15093:15128  auth != address(0) && owner != auth */\n      dup1\n      iszero\n      tag_315\n      jumpi\n      pop\n        /* \"@openzeppelin/contracts/token/ERC721/ERC721.sol\":15124:15128  auth */\n      dup3\n        /* \"@openzeppelin/contracts/token/ERC721/ERC721.sol\":15115:15128  owner != auth */\n      0xffffffffffffffffffffffffffffffffffffffff\n      and\n        /* \"@openzeppelin/contracts/token/ERC721/ERC721.sol\":15115:15120  owner */\n      dup2\n        /* \"@openzeppelin/contracts/token/ERC721/ERC721.sol\":15115:15128  owner != auth */\n      0xffffffffffffffffffffffffffffffffffffffff\n      and\n      eq\n      iszero\n        /* \"@openzeppelin/contracts/token/ERC721/ERC721.sol\":15093:15128  auth != address(0) && owner != auth */\n    tag_315:\n        /* \"@openzeppelin/contracts/token/ERC721/ERC721.sol\":15093:15162  auth != address(0) && owner != auth && !isApprovedForAll(owner, auth) */\n      dup1\n      iszero\n      tag_316\n      jumpi\n      pop\n        /* \"@openzeppelin/contracts/token/ERC721/ERC721.sol\":15133:15162  isApprovedForAll(owner, auth) */\n      tag_317\n        /* \"@openzeppelin/contracts/token/ERC721/ERC721.sol\":15150:15155  owner */\n      dup2\n        /* \"@openzeppelin/contracts/token/ERC721/ERC721.sol\":15157:15161  auth */\n      dup5\n        /* \"@openzeppelin/contracts/token/ERC721/ERC721.sol\":15133:15149  isApprovedForAll */\n      tag_97\n        /* \"@openzeppelin/contracts/token/ERC721/ERC721.sol\":15133:15162  isApprovedForAll(owner, auth) */\n      jump\t// in\n    tag_317:\n        /* \"@openzeppelin/contracts/token/ERC721/ERC721.sol\":15132:15162  !isApprovedForAll(owner, auth) */\n      iszero\n        /* \"@openzeppelin/contracts/token/ERC721/ERC721.sol\":15093:15162  auth != address(0) && owner != auth && !isApprovedForAll(owner, auth) */\n    tag_316:\n        /* \"@openzeppelin/contracts/token/ERC721/ERC721.sol\":15089:15231  if (auth != address(0) && owner != auth && !isApprovedForAll(owner, auth)) {... */\n      iszero\n      tag_318\n      jumpi\n        /* \"@openzeppelin/contracts/token/ERC721/ERC721.sol\":15211:15215  auth */\n      dup3\n        /* \"@openzeppelin/contracts/token/ERC721/ERC721.sol\":15189:15216  ERC721InvalidApprover(auth) */\n      mload(0x40)\n      0xa9fbf51f00000000000000000000000000000000000000000000000000000000\n      dup2\n      mstore\n      0x04\n      add\n      tag_319\n      swap2\n      swap1\n      tag_39\n      jump\t// in\n    tag_319:\n      mload(0x40)\n      dup1\n      swap2\n      sub\n      swap1\n      revert\n        /* \"@openzeppelin/contracts/token/ERC721/ERC721.sol\":15089:15231  if (auth != address(0) && owner != auth && !isApprovedForAll(owner, auth)) {... */\n    tag_318:\n        /* \"@openzeppelin/contracts/token/ERC721/ERC721.sol\":15249:15258  emitEvent */\n      dup2\n        /* \"@openzeppelin/contracts/token/ERC721/ERC721.sol\":15245:15326  if (emitEvent) {... */\n      iszero\n      tag_320\n      jumpi\n        /* \"@openzeppelin/contracts/token/ERC721/ERC721.sol\":15303:15310  tokenId */\n      dup4\n        /* \"@openzeppelin/contracts/token/ERC721/ERC721.sol\":15299:15301  to */\n      dup6\n        /* \"@openzeppelin/contracts/token/ERC721/ERC721.sol\":15283:15311  Approval(owner, to, tokenId) */\n      0xffffffffffffffffffffffffffffffffffffffff\n      and\n        /* \"@openzeppelin/contracts/token/ERC721/ERC721.sol\":15292:15297  owner */\n      dup3\n        /* \"@openzeppelin/contracts/token/ERC721/ERC721.sol\":15283:15311  Approval(owner, to, tokenId) */\n      0xffffffffffffffffffffffffffffffffffffffff\n      and\n      0x8c5be1e5ebec7d5bd14f71427d1e84f3dd0314c0f7b2291e5b200ac8c7c3b925\n      mload(0x40)\n      mload(0x40)\n      dup1\n      swap2\n      sub\n      swap1\n      log4\n        /* \"@openzeppelin/contracts/token/ERC721/ERC721.sol\":15245:15326  if (emitEvent) {... */\n    tag_320:\n        /* \"@openzeppelin/contracts/token/ERC721/ERC721.sol\":14913:15336  {... */\n      pop\n        /* \"@openzeppelin/contracts/token/ERC721/ERC721.sol\":14876:15336  if (emitEvent || auth != address(0)) {... */\n    tag_313:\n        /* \"@openzeppelin/contracts/token/ERC721/ERC721.sol\":15373:15375  to */\n      dup4\n        /* \"@openzeppelin/contracts/token/ERC721/ERC721.sol\":15346:15361  _tokenApprovals */\n      0x04\n        /* \"@openzeppelin/contracts/token/ERC721/ERC721.sol\":15346:15370  _tokenApprovals[tokenId] */\n      0x00\n        /* \"@openzeppelin/contracts/token/ERC721/ERC721.sol\":15362:15369  tokenId */\n      dup6\n        /* \"@openzeppelin/contracts/token/ERC721/ERC721.sol\":15346:15370  _tokenApprovals[tokenId] */\n      dup2\n      mstore\n      0x20\n      add\n      swap1\n      dup2\n      mstore\n      0x20\n      add\n      0x00\n      keccak256\n      0x00\n        /* \"@openzeppelin/contracts/token/ERC721/ERC721.sol\":15346:15375  _tokenApprovals[tokenId] = to */\n      0x0100\n      exp\n      dup2\n      sload\n      dup2\n      0xffffffffffffffffffffffffffffffffffffffff\n      mul\n      not\n      and\n      swap1\n      dup4\n      0xffffffffffffffffffffffffffffffffffffffff\n      and\n      mul\n      or\n      swap1\n      sstore\n      pop\n        /* \"@openzeppelin/contracts/token/ERC721/ERC721.sol\":14720:15382  function _approve(address to, uint256 tokenId, address auth, bool emitEvent) internal virtual {... */\n      pop\n      pop\n      pop\n      pop\n      jump\t// out\n        /* \"@openzeppelin/contracts/token/ERC721/ERC721.sol\":7082:7450  function _checkAuthorized(address owner, address spender, uint256 tokenId) internal view virtual {... */\n    tag_265:\n        /* \"@openzeppelin/contracts/token/ERC721/ERC721.sol\":7194:7232  _isAuthorized(owner, spender, tokenId) */\n      tag_322\n        /* \"@openzeppelin/contracts/token/ERC721/ERC721.sol\":7208:7213  owner */\n      dup4\n        /* \"@openzeppelin/contracts/token/ERC721/ERC721.sol\":7215:7222  spender */\n      dup4\n        /* \"@openzeppelin/contracts/token/ERC721/ERC721.sol\":7224:7231  tokenId */\n      dup4\n        /* \"@openzeppelin/contracts/token/ERC721/ERC721.sol\":7194:7207  _isAuthorized */\n      tag_323\n        /* \"@openzeppelin/contracts/token/ERC721/ERC721.sol\":7194:7232  _isAuthorized(owner, spender, tokenId) */\n      jump\t// in\n    tag_322:\n        /* \"@openzeppelin/contracts/token/ERC721/ERC721.sol\":7189:7444  if (!_isAuthorized(owner, spender, tokenId)) {... */\n      tag_324\n      jumpi\n        /* \"@openzeppelin/contracts/token/ERC721/ERC721.sol\":7269:7270  0 */\n      0x00\n        /* \"@openzeppelin/contracts/token/ERC721/ERC721.sol\":7252:7271  owner == address(0) */\n      0xffffffffffffffffffffffffffffffffffffffff\n      and\n        /* \"@openzeppelin/contracts/token/ERC721/ERC721.sol\":7252:7257  owner */\n      dup4\n        /* \"@openzeppelin/contracts/token/ERC721/ERC721.sol\":7252:7271  owner == address(0) */\n      0xffffffffffffffffffffffffffffffffffffffff\n      and\n      sub\n        /* \"@openzeppelin/contracts/token/ERC721/ERC721.sol\":7248:7434  if (owner == address(0)) {... */\n      tag_325\n      jumpi\n        /* \"@openzeppelin/contracts/token/ERC721/ERC721.sol\":7321:7328  tokenId */\n      dup1\n        /* \"@openzeppelin/contracts/token/ERC721/ERC721.sol\":7298:7329  ERC721NonexistentToken(tokenId) */\n      mload(0x40)\n      0x7e27328900000000000000000000000000000000000000000000000000000000\n      dup2\n      mstore\n      0x04\n      add\n      tag_326\n      swap2\n      swap1\n      tag_78\n      jump\t// in\n    tag_326:\n      mload(0x40)\n      dup1\n      swap2\n      sub\n      swap1\n      revert\n        /* \"@openzeppelin/contracts/token/ERC721/ERC721.sol\":7248:7434  if (owner == address(0)) {... */\n    tag_325:\n        /* \"@openzeppelin/contracts/token/ERC721/ERC721.sol\":7402:7409  spender */\n      dup2\n        /* \"@openzeppelin/contracts/token/ERC721/ERC721.sol\":7411:7418  tokenId */\n      dup2\n        /* \"@openzeppelin/contracts/token/ERC721/ERC721.sol\":7375:7419  ERC721InsufficientApproval(spender, tokenId) */\n      mload(0x40)\n      0x177e802f00000000000000000000000000000000000000000000000000000000\n      dup2\n      mstore\n      0x04\n      add\n      tag_328\n      swap3\n      swap2\n      swap1\n      tag_329\n      jump\t// in\n    tag_328:\n      mload(0x40)\n      dup1\n      swap2\n      sub\n      swap1\n      revert\n        /* \"@openzeppelin/contracts/token/ERC721/ERC721.sol\":7189:7444  if (!_isAuthorized(owner, spender, tokenId)) {... */\n    tag_324:\n        /* \"@openzeppelin/contracts/token/ERC721/ERC721.sol\":7082:7450  function _checkAuthorized(address owner, address spender, uint256 tokenId) internal view virtual {... */\n      pop\n      pop\n      pop\n      jump\t// out\n        /* \"@openzeppelin/contracts/token/ERC721/ERC721.sol\":10954:11136  function _safeMint(address to, uint256 tokenId, bytes memory data) internal virtual {... */\n    tag_271:\n        /* \"@openzeppelin/contracts/token/ERC721/ERC721.sol\":11048:11066  _mint(to, tokenId) */\n      tag_331\n        /* \"@openzeppelin/contracts/token/ERC721/ERC721.sol\":11054:11056  to */\n      dup4\n        /* \"@openzeppelin/contracts/token/ERC721/ERC721.sol\":11058:11065  tokenId */\n      dup4\n        /* \"@openzeppelin/contracts/token/ERC721/ERC721.sol\":11048:11053  _mint */\n      tag_332\n        /* \"@openzeppelin/contracts/token/ERC721/ERC721.sol\":11048:11066  _mint(to, tokenId) */\n      jump\t// in\n    tag_331:\n        /* \"@openzeppelin/contracts/token/ERC721/ERC721.sol\":11076:11129  _checkOnERC721Received(address(0), to, tokenId, data) */\n      tag_333\n        /* \"@openzeppelin/contracts/token/ERC721/ERC721.sol\":11107:11108  0 */\n      0x00\n        /* \"@openzeppelin/contracts/token/ERC721/ERC721.sol\":11111:11113  to */\n      dup5\n        /* \"@openzeppelin/contracts/token/ERC721/ERC721.sol\":11115:11122  tokenId */\n      dup5\n        /* \"@openzeppelin/contracts/token/ERC721/ERC721.sol\":11124:11128  data */\n      dup5\n        /* \"@openzeppelin/contracts/token/ERC721/ERC721.sol\":11076:11098  _checkOnERC721Received */\n      tag_238\n        /* \"@openzeppelin/contracts/token/ERC721/ERC721.sol\":11076:11129  _checkOnERC721Received(address(0), to, tokenId, data) */\n      jump\t// in\n    tag_333:\n        /* \"@openzeppelin/contracts/token/ERC721/ERC721.sol\":10954:11136  function _safeMint(address to, uint256 tokenId, bytes memory data) internal virtual {... */\n      pop\n      pop\n      pop\n      jump\t// out\n        /* \"@openzeppelin/contracts/utils/math/Math.sol\":12214:13130  function log10(uint256 value) internal pure returns (uint256) {... */\n    tag_299:\n        /* \"@openzeppelin/contracts/utils/math/Math.sol\":12267:12274  uint256 */\n      0x00\n        /* \"@openzeppelin/contracts/utils/math/Math.sol\":12286:12300  uint256 result */\n      dup1\n        /* \"@openzeppelin/contracts/utils/math/Math.sol\":12303:12304  0 */\n      0x00\n        /* \"@openzeppelin/contracts/utils/math/Math.sol\":12286:12304  uint256 result = 0 */\n      swap1\n      pop\n        /* \"@openzeppelin/contracts/utils/math/Math.sol\":12351:12359  10 ** 64 */\n      0x184f03e93ff9f4daa797ed6e38ed64bf6a1f010000000000000000\n        /* \"@openzeppelin/contracts/utils/math/Math.sol\":12342:12347  value */\n      dup4\n        /* \"@openzeppelin/contracts/utils/math/Math.sol\":12342:12359  value >= 10 ** 64 */\n      lt\n        /* \"@openzeppelin/contracts/utils/math/Math.sol\":12338:12441  if (value >= 10 ** 64) {... */\n      tag_335\n      jumpi\n        /* \"@openzeppelin/contracts/utils/math/Math.sol\":12388:12396  10 ** 64 */\n      0x184f03e93ff9f4daa797ed6e38ed64bf6a1f010000000000000000\n        /* \"@openzeppelin/contracts/utils/math/Math.sol\":12379:12396  value /= 10 ** 64 */\n      dup4\n      dup2\n      tag_336\n      jumpi\n      tag_337\n      tag_308\n      jump\t// in\n    tag_337:\n    tag_336:\n      div\n      swap3\n      pop\n        /* \"@openzeppelin/contracts/utils/math/Math.sol\":12424:12426  64 */\n      0x40\n        /* \"@openzeppelin/contracts/utils/math/Math.sol\":12414:12426  result += 64 */\n      dup2\n      add\n      swap1\n      pop\n        /* \"@openzeppelin/contracts/utils/math/Math.sol\":12338:12441  if (value >= 10 ** 64) {... */\n    tag_335:\n        /* \"@openzeppelin/contracts/utils/math/Math.sol\":12467:12475  10 ** 32 */\n      0x04ee2d6d415b85acef8100000000\n        /* \"@openzeppelin/contracts/utils/math/Math.sol\":12458:12463  value */\n      dup4\n        /* \"@openzeppelin/contracts/utils/math/Math.sol\":12458:12475  value >= 10 ** 32 */\n      lt\n        /* \"@openzeppelin/contracts/utils/math/Math.sol\":12454:12557  if (value >= 10 ** 32) {... */\n      tag_338\n      jumpi\n        /* \"@openzeppelin/contracts/utils/math/Math.sol\":12504:12512  10 ** 32 */\n      0x04ee2d6d415b85acef8100000000\n        /* \"@openzeppelin/contracts/utils/math/Math.sol\":12495:12512  value /= 10 ** 32 */\n      dup4\n      dup2\n      tag_339\n      jumpi\n      tag_340\n      tag_308\n      jump\t// in\n    tag_340:\n    tag_339:\n      div\n      swap3\n      pop\n        /* \"@openzeppelin/contracts/utils/math/Math.sol\":12540:12542  32 */\n      0x20\n        /* \"@openzeppelin/contracts/utils/math/Math.sol\":12530:12542  result += 32 */\n      dup2\n      add\n      swap1\n      pop\n        /* \"@openzeppelin/contracts/utils/math/Math.sol\":12454:12557  if (value >= 10 ** 32) {... */\n    tag_338:\n        /* \"@openzeppelin/contracts/utils/math/Math.sol\":12583:12591  10 ** 16 */\n      0x2386f26fc10000\n        /* \"@openzeppelin/contracts/utils/math/Math.sol\":12574:12579  value */\n      dup4\n        /* \"@openzeppelin/contracts/utils/math/Math.sol\":12574:12591  value >= 10 ** 16 */\n      lt\n        /* \"@openzeppelin/contracts/utils/math/Math.sol\":12570:12673  if (value >= 10 ** 16) {... */\n      tag_341\n      jumpi\n        /* \"@openzeppelin/contracts/utils/math/Math.sol\":12620:12628  10 ** 16 */\n      0x2386f26fc10000\n        /* \"@openzeppelin/contracts/utils/math/Math.sol\":12611:12628  value /= 10 ** 16 */\n      dup4\n      dup2\n      tag_342\n      jumpi\n      tag_343\n      tag_308\n      jump\t// in\n    tag_343:\n    tag_342:\n      div\n      swap3\n      pop\n        /* \"@openzeppelin/contracts/utils/math/Math.sol\":12656:12658  16 */\n      0x10\n        /* \"@openzeppelin/contracts/utils/math/Math.sol\":12646:12658  result += 16 */\n      dup2\n      add\n      swap1\n      pop\n        /* \"@openzeppelin/contracts/utils/math/Math.sol\":12570:12673  if (value >= 10 ** 16) {... */\n    tag_341:\n        /* \"@openzeppelin/contracts/utils/math/Math.sol\":12699:12706  10 ** 8 */\n      0x05f5e100\n        /* \"@openzeppelin/contracts/utils/math/Math.sol\":12690:12695  value */\n      dup4\n        /* \"@openzeppelin/contracts/utils/math/Math.sol\":12690:12706  value >= 10 ** 8 */\n      lt\n        /* \"@openzeppelin/contracts/utils/math/Math.sol\":12686:12786  if (value >= 10 ** 8) {... */\n      tag_344\n      jumpi\n        /* \"@openzeppelin/contracts/utils/math/Math.sol\":12735:12742  10 ** 8 */\n      0x05f5e100\n        /* \"@openzeppelin/contracts/utils/math/Math.sol\":12726:12742  value /= 10 ** 8 */\n      dup4\n      dup2\n      tag_345\n      jumpi\n      tag_346\n      tag_308\n      jump\t// in\n    tag_346:\n    tag_345:\n      div\n      swap3\n      pop\n        /* \"@openzeppelin/contracts/utils/math/Math.sol\":12770:12771  8 */\n      0x08\n        /* \"@openzeppelin/contracts/utils/math/Math.sol\":12760:12771  result += 8 */\n      dup2\n      add\n      swap1\n      pop\n        /* \"@openzeppelin/contracts/utils/math/Math.sol\":12686:12786  if (value >= 10 ** 8) {... */\n    tag_344:\n        /* \"@openzeppelin/contracts/utils/math/Math.sol\":12812:12819  10 ** 4 */\n      0x2710\n        /* \"@openzeppelin/contracts/utils/math/Math.sol\":12803:12808  value */\n      dup4\n        /* \"@openzeppelin/contracts/utils/math/Math.sol\":12803:12819  value >= 10 ** 4 */\n      lt\n        /* \"@openzeppelin/contracts/utils/math/Math.sol\":12799:12899  if (value >= 10 ** 4) {... */\n      tag_347\n      jumpi\n        /* \"@openzeppelin/contracts/utils/math/Math.sol\":12848:12855  10 ** 4 */\n      0x2710\n        /* \"@openzeppelin/contracts/utils/math/Math.sol\":12839:12855  value /= 10 ** 4 */\n      dup4\n      dup2\n      tag_348\n      jumpi\n      tag_349\n      tag_308\n      jump\t// in\n    tag_349:\n    tag_348:\n      div\n      swap3\n      pop\n        /* \"@openzeppelin/contracts/utils/math/Math.sol\":12883:12884  4 */\n      0x04\n        /* \"@openzeppelin/contracts/utils/math/Math.sol\":12873:12884  result += 4 */\n      dup2\n      add\n      swap1\n      pop\n        /* \"@openzeppelin/contracts/utils/math/Math.sol\":12799:12899  if (value >= 10 ** 4) {... */\n    tag_347:\n        /* \"@openzeppelin/contracts/utils/math/Math.sol\":12925:12932  10 ** 2 */\n      0x64\n        /* \"@openzeppelin/contracts/utils/math/Math.sol\":12916:12921  value */\n      dup4\n        /* \"@openzeppelin/contracts/utils/math/Math.sol\":12916:12932  value >= 10 ** 2 */\n      lt\n        /* \"@openzeppelin/contracts/utils/math/Math.sol\":12912:13012  if (value >= 10 ** 2) {... */\n      tag_350\n      jumpi\n        /* \"@openzeppelin/contracts/utils/math/Math.sol\":12961:12968  10 ** 2 */\n      0x64\n        /* \"@openzeppelin/contracts/utils/math/Math.sol\":12952:12968  value /= 10 ** 2 */\n      dup4\n      dup2\n      tag_351\n      jumpi\n      tag_352\n      tag_308\n      jump\t// in\n    tag_352:\n    tag_351:\n      div\n      swap3\n      pop\n        /* \"@openzeppelin/contracts/utils/math/Math.sol\":12996:12997  2 */\n      0x02\n        /* \"@openzeppelin/contracts/utils/math/Math.sol\":12986:12997  result += 2 */\n      dup2\n      add\n      swap1\n      pop\n        /* \"@openzeppelin/contracts/utils/math/Math.sol\":12912:13012  if (value >= 10 ** 2) {... */\n    tag_350:\n        /* \"@openzeppelin/contracts/utils/math/Math.sol\":13038:13045  10 ** 1 */\n      0x0a\n        /* \"@openzeppelin/contracts/utils/math/Math.sol\":13029:13034  value */\n      dup4\n        /* \"@openzeppelin/contracts/utils/math/Math.sol\":13029:13045  value >= 10 ** 1 */\n      lt\n        /* \"@openzeppelin/contracts/utils/math/Math.sol\":13025:13091  if (value >= 10 ** 1) {... */\n      tag_353\n      jumpi\n        /* \"@openzeppelin/contracts/utils/math/Math.sol\":13075:13076  1 */\n      0x01\n        /* \"@openzeppelin/contracts/utils/math/Math.sol\":13065:13076  result += 1 */\n      dup2\n      add\n      swap1\n      pop\n        /* \"@openzeppelin/contracts/utils/math/Math.sol\":13025:13091  if (value >= 10 ** 1) {... */\n    tag_353:\n        /* \"@openzeppelin/contracts/utils/math/Math.sol\":13117:13123  result */\n      dup1\n        /* \"@openzeppelin/contracts/utils/math/Math.sol\":13110:13123  return result */\n      swap2\n      pop\n      pop\n        /* \"@openzeppelin/contracts/utils/math/Math.sol\":12214:13130  function log10(uint256 value) internal pure returns (uint256) {... */\n      swap2\n      swap1\n      pop\n      jump\t// out\n        /* \"@openzeppelin/contracts/token/ERC721/ERC721.sol\":6376:6648  function _isAuthorized(address owner, address spender, uint256 tokenId) internal view virtual returns (bool) {... */\n    tag_323:\n        /* \"@openzeppelin/contracts/token/ERC721/ERC721.sol\":6479:6483  bool */\n      0x00\n        /* \"@openzeppelin/contracts/token/ERC721/ERC721.sol\":6533:6534  0 */\n      dup1\n        /* \"@openzeppelin/contracts/token/ERC721/ERC721.sol\":6514:6535  spender != address(0) */\n      0xffffffffffffffffffffffffffffffffffffffff\n      and\n        /* \"@openzeppelin/contracts/token/ERC721/ERC721.sol\":6514:6521  spender */\n      dup4\n        /* \"@openzeppelin/contracts/token/ERC721/ERC721.sol\":6514:6535  spender != address(0) */\n      0xffffffffffffffffffffffffffffffffffffffff\n      and\n      eq\n      iszero\n        /* \"@openzeppelin/contracts/token/ERC721/ERC721.sol\":6514:6641  spender != address(0) &&... */\n      dup1\n      iszero\n      tag_355\n      jumpi\n      pop\n        /* \"@openzeppelin/contracts/token/ERC721/ERC721.sol\":6561:6568  spender */\n      dup3\n        /* \"@openzeppelin/contracts/token/ERC721/ERC721.sol\":6552:6568  owner == spender */\n      0xffffffffffffffffffffffffffffffffffffffff\n      and\n        /* \"@openzeppelin/contracts/token/ERC721/ERC721.sol\":6552:6557  owner */\n      dup5\n        /* \"@openzeppelin/contracts/token/ERC721/ERC721.sol\":6552:6568  owner == spender */\n      0xffffffffffffffffffffffffffffffffffffffff\n      and\n      eq\n        /* \"@openzeppelin/contracts/token/ERC721/ERC721.sol\":6552:6604  owner == spender || isApprovedForAll(owner, spender) */\n      dup1\n      tag_356\n      jumpi\n      pop\n        /* \"@openzeppelin/contracts/token/ERC721/ERC721.sol\":6572:6604  isApprovedForAll(owner, spender) */\n      tag_357\n        /* \"@openzeppelin/contracts/token/ERC721/ERC721.sol\":6589:6594  owner */\n      dup5\n        /* \"@openzeppelin/contracts/token/ERC721/ERC721.sol\":6596:6603  spender */\n      dup5\n        /* \"@openzeppelin/contracts/token/ERC721/ERC721.sol\":6572:6588  isApprovedForAll */\n      tag_97\n        /* \"@openzeppelin/contracts/token/ERC721/ERC721.sol\":6572:6604  isApprovedForAll(owner, spender) */\n      jump\t// in\n    tag_357:\n        /* \"@openzeppelin/contracts/token/ERC721/ERC721.sol\":6552:6604  owner == spender || isApprovedForAll(owner, spender) */\n    tag_356:\n        /* \"@openzeppelin/contracts/token/ERC721/ERC721.sol\":6552:6640  owner == spender || isApprovedForAll(owner, spender) || _getApproved(tokenId) == spender */\n      dup1\n      tag_358\n      jumpi\n      pop\n        /* \"@openzeppelin/contracts/token/ERC721/ERC721.sol\":6633:6640  spender */\n      dup3\n        /* \"@openzeppelin/contracts/token/ERC721/ERC721.sol\":6608:6640  _getApproved(tokenId) == spender */\n      0xffffffffffffffffffffffffffffffffffffffff\n      and\n        /* \"@openzeppelin/contracts/token/ERC721/ERC721.sol\":6608:6629  _getApproved(tokenId) */\n      tag_359\n        /* \"@openzeppelin/contracts/token/ERC721/ERC721.sol\":6621:6628  tokenId */\n      dup4\n        /* \"@openzeppelin/contracts/token/ERC721/ERC721.sol\":6608:6620  _getApproved */\n      tag_118\n        /* \"@openzeppelin/contracts/token/ERC721/ERC721.sol\":6608:6629  _getApproved(tokenId) */\n      jump\t// in\n    tag_359:\n        /* \"@openzeppelin/contracts/token/ERC721/ERC721.sol\":6608:6640  _getApproved(tokenId) == spender */\n      0xffffffffffffffffffffffffffffffffffffffff\n      and\n      eq\n        /* \"@openzeppelin/contracts/token/ERC721/ERC721.sol\":6552:6640  owner == spender || isApprovedForAll(owner, spender) || _getApproved(tokenId) == spender */\n    tag_358:\n        /* \"@openzeppelin/contracts/token/ERC721/ERC721.sol\":6514:6641  spender != address(0) &&... */\n    tag_355:\n        /* \"@openzeppelin/contracts/token/ERC721/ERC721.sol\":6495:6641  return... */\n      swap1\n      pop\n        /* \"@openzeppelin/contracts/token/ERC721/ERC721.sol\":6376:6648  function _isAuthorized(address owner, address spender, uint256 tokenId) internal view virtual returns (bool) {... */\n      swap4\n      swap3\n      pop\n      pop\n      pop\n      jump\t// out\n        /* \"@openzeppelin/contracts/token/ERC721/ERC721.sol\":9955:10282  function _mint(address to, uint256 tokenId) internal {... */\n    tag_332:\n        /* \"@openzeppelin/contracts/token/ERC721/ERC721.sol\":10036:10037  0 */\n      0x00\n        /* \"@openzeppelin/contracts/token/ERC721/ERC721.sol\":10022:10038  to == address(0) */\n      0xffffffffffffffffffffffffffffffffffffffff\n      and\n        /* \"@openzeppelin/contracts/token/ERC721/ERC721.sol\":10022:10024  to */\n      dup3\n        /* \"@openzeppelin/contracts/token/ERC721/ERC721.sol\":10022:10038  to == address(0) */\n      0xffffffffffffffffffffffffffffffffffffffff\n      and\n      sub\n        /* \"@openzeppelin/contracts/token/ERC721/ERC721.sol\":10018:10105  if (to == address(0)) {... */\n      tag_361\n      jumpi\n        /* \"@openzeppelin/contracts/token/ERC721/ERC721.sol\":10091:10092  0 */\n      0x00\n        /* \"@openzeppelin/contracts/token/ERC721/ERC721.sol\":10061:10094  ERC721InvalidReceiver(address(0)) */\n      mload(0x40)\n      0x64a0ae9200000000000000000000000000000000000000000000000000000000\n      dup2\n      mstore\n      0x04\n      add\n      tag_362\n      swap2\n      swap1\n      tag_39\n      jump\t// in\n    tag_362:\n      mload(0x40)\n      dup1\n      swap2\n      sub\n      swap1\n      revert\n        /* \"@openzeppelin/contracts/token/ERC721/ERC721.sol\":10018:10105  if (to == address(0)) {... */\n    tag_361:\n        /* \"@openzeppelin/contracts/token/ERC721/ERC721.sol\":10114:10135  address previousOwner */\n      0x00\n        /* \"@openzeppelin/contracts/token/ERC721/ERC721.sol\":10138:10170  _update(to, tokenId, address(0)) */\n      tag_363\n        /* \"@openzeppelin/contracts/token/ERC721/ERC721.sol\":10146:10148  to */\n      dup4\n        /* \"@openzeppelin/contracts/token/ERC721/ERC721.sol\":10150:10157  tokenId */\n      dup4\n        /* \"@openzeppelin/contracts/token/ERC721/ERC721.sol\":10167:10168  0 */\n      0x00\n        /* \"@openzeppelin/contracts/token/ERC721/ERC721.sol\":10138:10145  _update */\n      tag_129\n        /* \"@openzeppelin/contracts/token/ERC721/ERC721.sol\":10138:10170  _update(to, tokenId, address(0)) */\n      jump\t// in\n    tag_363:\n        /* \"@openzeppelin/contracts/token/ERC721/ERC721.sol\":10114:10170  address previousOwner = _update(to, tokenId, address(0)) */\n      swap1\n      pop\n        /* \"@openzeppelin/contracts/token/ERC721/ERC721.sol\":10209:10210  0 */\n      0x00\n        /* \"@openzeppelin/contracts/token/ERC721/ERC721.sol\":10184:10211  previousOwner != address(0) */\n      0xffffffffffffffffffffffffffffffffffffffff\n      and\n        /* \"@openzeppelin/contracts/token/ERC721/ERC721.sol\":10184:10197  previousOwner */\n      dup2\n        /* \"@openzeppelin/contracts/token/ERC721/ERC721.sol\":10184:10211  previousOwner != address(0) */\n      0xffffffffffffffffffffffffffffffffffffffff\n      and\n      eq\n        /* \"@openzeppelin/contracts/token/ERC721/ERC721.sol\":10180:10276  if (previousOwner != address(0)) {... */\n      tag_364\n      jumpi\n        /* \"@openzeppelin/contracts/token/ERC721/ERC721.sol\":10262:10263  0 */\n      0x00\n        /* \"@openzeppelin/contracts/token/ERC721/ERC721.sol\":10234:10265  ERC721InvalidSender(address(0)) */\n      mload(0x40)\n      0x73c6ac6e00000000000000000000000000000000000000000000000000000000\n      dup2\n      mstore\n      0x04\n      add\n      tag_365\n      swap2\n      swap1\n      tag_39\n      jump\t// in\n    tag_365:\n      mload(0x40)\n      dup1\n      swap2\n      sub\n      swap1\n      revert\n        /* \"@openzeppelin/contracts/token/ERC721/ERC721.sol\":10180:10276  if (previousOwner != address(0)) {... */\n    tag_364:\n        /* \"@openzeppelin/contracts/token/ERC721/ERC721.sol\":10008:10282  {... */\n      pop\n        /* \"@openzeppelin/contracts/token/ERC721/ERC721.sol\":9955:10282  function _mint(address to, uint256 tokenId) internal {... */\n      pop\n      pop\n      jump\t// out\n        /* \"#utility.yul\":7:82   */\n    tag_366:\n        /* \"#utility.yul\":40:46   */\n      0x00\n        /* \"#utility.yul\":73:75   */\n      0x40\n        /* \"#utility.yul\":67:76   */\n      mload\n        /* \"#utility.yul\":57:76   */\n      swap1\n      pop\n        /* \"#utility.yul\":7:82   */\n      swap1\n      jump\t// out\n        /* \"#utility.yul\":88:205   */\n    tag_367:\n        /* \"#utility.yul\":197:198   */\n      0x00\n        /* \"#utility.yul\":194:195   */\n      dup1\n        /* \"#utility.yul\":187:199   */\n      revert\n        /* \"#utility.yul\":211:328   */\n    tag_368:\n        /* \"#utility.yul\":320:321   */\n      0x00\n        /* \"#utility.yul\":317:318   */\n      dup1\n        /* \"#utility.yul\":310:322   */\n      revert\n        /* \"#utility.yul\":334:483   */\n    tag_369:\n        /* \"#utility.yul\":370:377   */\n      0x00\n        /* \"#utility.yul\":410:476   */\n      0xffffffff00000000000000000000000000000000000000000000000000000000\n        /* \"#utility.yul\":403:408   */\n      dup3\n        /* \"#utility.yul\":399:477   */\n      and\n        /* \"#utility.yul\":388:477   */\n      swap1\n      pop\n        /* \"#utility.yul\":334:483   */\n      swap2\n      swap1\n      pop\n      jump\t// out\n        /* \"#utility.yul\":489:609   */\n    tag_370:\n        /* \"#utility.yul\":561:584   */\n      tag_442\n        /* \"#utility.yul\":578:583   */\n      dup2\n        /* \"#utility.yul\":561:584   */\n      tag_369\n      jump\t// in\n    tag_442:\n        /* \"#utility.yul\":554:559   */\n      dup2\n        /* \"#utility.yul\":551:585   */\n      eq\n        /* \"#utility.yul\":541:603   */\n      tag_443\n      jumpi\n        /* \"#utility.yul\":599:600   */\n      0x00\n        /* \"#utility.yul\":596:597   */\n      dup1\n        /* \"#utility.yul\":589:601   */\n      revert\n        /* \"#utility.yul\":541:603   */\n    tag_443:\n        /* \"#utility.yul\":489:609   */\n      pop\n      jump\t// out\n        /* \"#utility.yul\":615:752   */\n    tag_371:\n        /* \"#utility.yul\":660:665   */\n      0x00\n        /* \"#utility.yul\":698:704   */\n      dup2\n        /* \"#utility.yul\":685:705   */\n      calldataload\n        /* \"#utility.yul\":676:705   */\n      swap1\n      pop\n        /* \"#utility.yul\":714:746   */\n      tag_445\n        /* \"#utility.yul\":740:745   */\n      dup2\n        /* \"#utility.yul\":714:746   */\n      tag_370\n      jump\t// in\n    tag_445:\n        /* \"#utility.yul\":615:752   */\n      swap3\n      swap2\n      pop\n      pop\n      jump\t// out\n        /* \"#utility.yul\":758:1085   */\n    tag_26:\n        /* \"#utility.yul\":816:822   */\n      0x00\n        /* \"#utility.yul\":865:867   */\n      0x20\n        /* \"#utility.yul\":853:862   */\n      dup3\n        /* \"#utility.yul\":844:851   */\n      dup5\n        /* \"#utility.yul\":840:863   */\n      sub\n        /* \"#utility.yul\":836:868   */\n      slt\n        /* \"#utility.yul\":833:952   */\n      iszero\n      tag_447\n      jumpi\n        /* \"#utility.yul\":871:950   */\n      tag_448\n      tag_367\n      jump\t// in\n    tag_448:\n        /* \"#utility.yul\":833:952   */\n    tag_447:\n        /* \"#utility.yul\":991:992   */\n      0x00\n        /* \"#utility.yul\":1016:1068   */\n      tag_449\n        /* \"#utility.yul\":1060:1067   */\n      dup5\n        /* \"#utility.yul\":1051:1057   */\n      dup3\n        /* \"#utility.yul\":1040:1049   */\n      dup6\n        /* \"#utility.yul\":1036:1058   */\n      add\n        /* \"#utility.yul\":1016:1068   */\n      tag_371\n      jump\t// in\n    tag_449:\n        /* \"#utility.yul\":1006:1068   */\n      swap2\n      pop\n        /* \"#utility.yul\":962:1078   */\n      pop\n        /* \"#utility.yul\":758:1085   */\n      swap3\n      swap2\n      pop\n      pop\n      jump\t// out\n        /* \"#utility.yul\":1091:1181   */\n    tag_372:\n        /* \"#utility.yul\":1125:1132   */\n      0x00\n        /* \"#utility.yul\":1168:1173   */\n      dup2\n        /* \"#utility.yul\":1161:1174   */\n      iszero\n        /* \"#utility.yul\":1154:1175   */\n      iszero\n        /* \"#utility.yul\":1143:1175   */\n      swap1\n      pop\n        /* \"#utility.yul\":1091:1181   */\n      swap2\n      swap1\n      pop\n      jump\t// out\n        /* \"#utility.yul\":1187:1296   */\n    tag_373:\n        /* \"#utility.yul\":1268:1289   */\n      tag_452\n        /* \"#utility.yul\":1283:1288   */\n      dup2\n        /* \"#utility.yul\":1268:1289   */\n      tag_372\n      jump\t// in\n    tag_452:\n        /* \"#utility.yul\":1263:1266   */\n      dup3\n        /* \"#utility.yul\":1256:1290   */\n      mstore\n        /* \"#utility.yul\":1187:1296   */\n      pop\n      pop\n      jump\t// out\n        /* \"#utility.yul\":1302:1512   */\n    tag_29:\n        /* \"#utility.yul\":1389:1393   */\n      0x00\n        /* \"#utility.yul\":1427:1429   */\n      0x20\n        /* \"#utility.yul\":1416:1425   */\n      dup3\n        /* \"#utility.yul\":1412:1430   */\n      add\n        /* \"#utility.yul\":1404:1430   */\n      swap1\n      pop\n        /* \"#utility.yul\":1440:1505   */\n      tag_454\n        /* \"#utility.yul\":1502:1503   */\n      0x00\n        /* \"#utility.yul\":1491:1500   */\n      dup4\n        /* \"#utility.yul\":1487:1504   */\n      add\n        /* \"#utility.yul\":1478:1484   */\n      dup5\n        /* \"#utility.yul\":1440:1505   */\n      tag_373\n      jump\t// in\n    tag_454:\n        /* \"#utility.yul\":1302:1512   */\n      swap3\n      swap2\n      pop\n      pop\n      jump\t// out\n        /* \"#utility.yul\":1518:1617   */\n    tag_374:\n        /* \"#utility.yul\":1570:1576   */\n      0x00\n        /* \"#utility.yul\":1604:1609   */\n      dup2\n        /* \"#utility.yul\":1598:1610   */\n      mload\n        /* \"#utility.yul\":1588:1610   */\n      swap1\n      pop\n        /* \"#utility.yul\":1518:1617   */\n      swap2\n      swap1\n      pop\n      jump\t// out\n        /* \"#utility.yul\":1623:1792   */\n    tag_375:\n        /* \"#utility.yul\":1707:1718   */\n      0x00\n        /* \"#utility.yul\":1741:1747   */\n      dup3\n        /* \"#utility.yul\":1736:1739   */\n      dup3\n        /* \"#utility.yul\":1729:1748   */\n      mstore\n        /* \"#utility.yul\":1781:1785   */\n      0x20\n        /* \"#utility.yul\":1776:1779   */\n      dup3\n        /* \"#utility.yul\":1772:1786   */\n      add\n        /* \"#utility.yul\":1757:1786   */\n      swap1\n      pop\n        /* \"#utility.yul\":1623:1792   */\n      swap3\n      swap2\n      pop\n      pop\n      jump\t// out\n        /* \"#utility.yul\":1798:1937   */\n    tag_376:\n        /* \"#utility.yul\":1887:1893   */\n      dup3\n        /* \"#utility.yul\":1882:1885   */\n      dup2\n        /* \"#utility.yul\":1877:1880   */\n      dup4\n        /* \"#utility.yul\":1871:1894   */\n      mcopy\n        /* \"#utility.yul\":1928:1929   */\n      0x00\n        /* \"#utility.yul\":1919:1925   */\n      dup4\n        /* \"#utility.yul\":1914:1917   */\n      dup4\n        /* \"#utility.yul\":1910:1926   */\n      add\n        /* \"#utility.yul\":1903:1930   */\n      mstore\n        /* \"#utility.yul\":1798:1937   */\n      pop\n      pop\n      pop\n      jump\t// out\n        /* \"#utility.yul\":1943:2045   */\n    tag_377:\n        /* \"#utility.yul\":1984:1990   */\n      0x00\n        /* \"#utility.yul\":2035:2037   */\n      0x1f\n        /* \"#utility.yul\":2031:2038   */\n      not\n        /* \"#utility.yul\":2026:2028   */\n      0x1f\n        /* \"#utility.yul\":2019:2024   */\n      dup4\n        /* \"#utility.yul\":2015:2029   */\n      add\n        /* \"#utility.yul\":2011:2039   */\n      and\n        /* \"#utility.yul\":2001:2039   */\n      swap1\n      pop\n        /* \"#utility.yul\":1943:2045   */\n      swap2\n      swap1\n      pop\n      jump\t// out\n        /* \"#utility.yul\":2051:2428   */\n    tag_378:\n        /* \"#utility.yul\":2139:2142   */\n      0x00\n        /* \"#utility.yul\":2167:2206   */\n      tag_460\n        /* \"#utility.yul\":2200:2205   */\n      dup3\n        /* \"#utility.yul\":2167:2206   */\n      tag_374\n      jump\t// in\n    tag_460:\n        /* \"#utility.yul\":2222:2293   */\n      tag_461\n        /* \"#utility.yul\":2286:2292   */\n      dup2\n        /* \"#utility.yul\":2281:2284   */\n      dup6\n        /* \"#utility.yul\":2222:2293   */\n      tag_375\n      jump\t// in\n    tag_461:\n        /* \"#utility.yul\":2215:2293   */\n      swap4\n      pop\n        /* \"#utility.yul\":2302:2367   */\n      tag_462\n        /* \"#utility.yul\":2360:2366   */\n      dup2\n        /* \"#utility.yul\":2355:2358   */\n      dup6\n        /* \"#utility.yul\":2348:2352   */\n      0x20\n        /* \"#utility.yul\":2341:2346   */\n      dup7\n        /* \"#utility.yul\":2337:2353   */\n      add\n        /* \"#utility.yul\":2302:2367   */\n      tag_376\n      jump\t// in\n    tag_462:\n        /* \"#utility.yul\":2392:2421   */\n      tag_463\n        /* \"#utility.yul\":2414:2420   */\n      dup2\n        /* \"#utility.yul\":2392:2421   */\n      tag_377\n      jump\t// in\n    tag_463:\n        /* \"#utility.yul\":2387:2390   */\n      dup5\n        /* \"#utility.yul\":2383:2422   */\n      add\n        /* \"#utility.yul\":2376:2422   */\n      swap2\n      pop\n        /* \"#utility.yul\":2143:2428   */\n      pop\n        /* \"#utility.yul\":2051:2428   */\n      swap3\n      swap2\n      pop\n      pop\n      jump\t// out\n        /* \"#utility.yul\":2434:2747   */\n    tag_33:\n        /* \"#utility.yul\":2547:2551   */\n      0x00\n        /* \"#utility.yul\":2585:2587   */\n      0x20\n        /* \"#utility.yul\":2574:2583   */\n      dup3\n        /* \"#utility.yul\":2570:2588   */\n      add\n        /* \"#utility.yul\":2562:2588   */\n      swap1\n      pop\n        /* \"#utility.yul\":2634:2643   */\n      dup2\n        /* \"#utility.yul\":2628:2632   */\n      dup2\n        /* \"#utility.yul\":2624:2644   */\n      sub\n        /* \"#utility.yul\":2620:2621   */\n      0x00\n        /* \"#utility.yul\":2609:2618   */\n      dup4\n        /* \"#utility.yul\":2605:2622   */\n      add\n        /* \"#utility.yul\":2598:2645   */\n      mstore\n        /* \"#utility.yul\":2662:2740   */\n      tag_465\n        /* \"#utility.yul\":2735:2739   */\n      dup2\n        /* \"#utility.yul\":2726:2732   */\n      dup5\n        /* \"#utility.yul\":2662:2740   */\n      tag_378\n      jump\t// in\n    tag_465:\n        /* \"#utility.yul\":2654:2740   */\n      swap1\n      pop\n        /* \"#utility.yul\":2434:2747   */\n      swap3\n      swap2\n      pop\n      pop\n      jump\t// out\n        /* \"#utility.yul\":2753:2830   */\n    tag_379:\n        /* \"#utility.yul\":2790:2797   */\n      0x00\n        /* \"#utility.yul\":2819:2824   */\n      dup2\n        /* \"#utility.yul\":2808:2824   */\n      swap1\n      pop\n        /* \"#utility.yul\":2753:2830   */\n      swap2\n      swap1\n      pop\n      jump\t// out\n        /* \"#utility.yul\":2836:2958   */\n    tag_380:\n        /* \"#utility.yul\":2909:2933   */\n      tag_468\n        /* \"#utility.yul\":2927:2932   */\n      dup2\n        /* \"#utility.yul\":2909:2933   */\n      tag_379\n      jump\t// in\n    tag_468:\n        /* \"#utility.yul\":2902:2907   */\n      dup2\n        /* \"#utility.yul\":2899:2934   */\n      eq\n        /* \"#utility.yul\":2889:2952   */\n      tag_469\n      jumpi\n        /* \"#utility.yul\":2948:2949   */\n      0x00\n        /* \"#utility.yul\":2945:2946   */\n      dup1\n        /* \"#utility.yul\":2938:2950   */\n      revert\n        /* \"#utility.yul\":2889:2952   */\n    tag_469:\n        /* \"#utility.yul\":2836:2958   */\n      pop\n      jump\t// out\n        /* \"#utility.yul\":2964:3103   */\n    tag_381:\n        /* \"#utility.yul\":3010:3015   */\n      0x00\n        /* \"#utility.yul\":3048:3054   */\n      dup2\n        /* \"#utility.yul\":3035:3055   */\n      calldataload\n        /* \"#utility.yul\":3026:3055   */\n      swap1\n      pop\n        /* \"#utility.yul\":3064:3097   */\n      tag_471\n        /* \"#utility.yul\":3091:3096   */\n      dup2\n        /* \"#utility.yul\":3064:3097   */\n      tag_380\n      jump\t// in\n    tag_471:\n        /* \"#utility.yul\":2964:3103   */\n      swap3\n      swap2\n      pop\n      pop\n      jump\t// out\n        /* \"#utility.yul\":3109:3438   */\n    tag_36:\n        /* \"#utility.yul\":3168:3174   */\n      0x00\n        /* \"#utility.yul\":3217:3219   */\n      0x20\n        /* \"#utility.yul\":3205:3214   */\n      dup3\n        /* \"#utility.yul\":3196:3203   */\n      dup5\n        /* \"#utility.yul\":3192:3215   */\n      sub\n        /* \"#utility.yul\":3188:3220   */\n      slt\n        /* \"#utility.yul\":3185:3304   */\n      iszero\n      tag_473\n      jumpi\n        /* \"#utility.yul\":3223:3302   */\n      tag_474\n      tag_367\n      jump\t// in\n    tag_474:\n        /* \"#utility.yul\":3185:3304   */\n    tag_473:\n        /* \"#utility.yul\":3343:3344   */\n      0x00\n        /* \"#utility.yul\":3368:3421   */\n      tag_475\n        /* \"#utility.yul\":3413:3420   */\n      dup5\n        /* \"#utility.yul\":3404:3410   */\n      dup3\n        /* \"#utility.yul\":3393:3402   */\n      dup6\n        /* \"#utility.yul\":3389:3411   */\n      add\n        /* \"#utility.yul\":3368:3421   */\n      tag_381\n      jump\t// in\n    tag_475:\n        /* \"#utility.yul\":3358:3421   */\n      swap2\n      pop\n        /* \"#utility.yul\":3314:3431   */\n      pop\n        /* \"#utility.yul\":3109:3438   */\n      swap3\n      swap2\n      pop\n      pop\n      jump\t// out\n        /* \"#utility.yul\":3444:3570   */\n    tag_382:\n        /* \"#utility.yul\":3481:3488   */\n      0x00\n        /* \"#utility.yul\":3521:3563   */\n      0xffffffffffffffffffffffffffffffffffffffff\n        /* \"#utility.yul\":3514:3519   */\n      dup3\n        /* \"#utility.yul\":3510:3564   */\n      and\n        /* \"#utility.yul\":3499:3564   */\n      swap1\n      pop\n        /* \"#utility.yul\":3444:3570   */\n      swap2\n      swap1\n      pop\n      jump\t// out\n        /* \"#utility.yul\":3576:3672   */\n    tag_383:\n        /* \"#utility.yul\":3613:3620   */\n      0x00\n        /* \"#utility.yul\":3642:3666   */\n      tag_478\n        /* \"#utility.yul\":3660:3665   */\n      dup3\n        /* \"#utility.yul\":3642:3666   */\n      tag_382\n      jump\t// in\n    tag_478:\n        /* \"#utility.yul\":3631:3666   */\n      swap1\n      pop\n        /* \"#utility.yul\":3576:3672   */\n      swap2\n      swap1\n      pop\n      jump\t// out\n        /* \"#utility.yul\":3678:3796   */\n    tag_384:\n        /* \"#utility.yul\":3765:3789   */\n      tag_480\n        /* \"#utility.yul\":3783:3788   */\n      dup2\n        /* \"#utility.yul\":3765:3789   */\n      tag_383\n      jump\t// in\n    tag_480:\n        /* \"#utility.yul\":3760:3763   */\n      dup3\n        /* \"#utility.yul\":3753:3790   */\n      mstore\n        /* \"#utility.yul\":3678:3796   */\n      pop\n      pop\n      jump\t// out\n        /* \"#utility.yul\":3802:4024   */\n    tag_39:\n        /* \"#utility.yul\":3895:3899   */\n      0x00\n        /* \"#utility.yul\":3933:3935   */\n      0x20\n        /* \"#utility.yul\":3922:3931   */\n      dup3\n        /* \"#utility.yul\":3918:3936   */\n      add\n        /* \"#utility.yul\":3910:3936   */\n      swap1\n      pop\n        /* \"#utility.yul\":3946:4017   */\n      tag_482\n        /* \"#utility.yul\":4014:4015   */\n      0x00\n        /* \"#utility.yul\":4003:4012   */\n      dup4\n        /* \"#utility.yul\":3999:4016   */\n      add\n        /* \"#utility.yul\":3990:3996   */\n      dup5\n        /* \"#utility.yul\":3946:4017   */\n      tag_384\n      jump\t// in\n    tag_482:\n        /* \"#utility.yul\":3802:4024   */\n      swap3\n      swap2\n      pop\n      pop\n      jump\t// out\n        /* \"#utility.yul\":4030:4152   */\n    tag_385:\n        /* \"#utility.yul\":4103:4127   */\n      tag_484\n        /* \"#utility.yul\":4121:4126   */\n      dup2\n        /* \"#utility.yul\":4103:4127   */\n      tag_383\n      jump\t// in\n    tag_484:\n        /* \"#utility.yul\":4096:4101   */\n      dup2\n        /* \"#utility.yul\":4093:4128   */\n      eq\n        /* \"#utility.yul\":4083:4146   */\n      tag_485\n      jumpi\n        /* \"#utility.yul\":4142:4143   */\n      0x00\n        /* \"#utility.yul\":4139:4140   */\n      dup1\n        /* \"#utility.yul\":4132:4144   */\n      revert\n        /* \"#utility.yul\":4083:4146   */\n    tag_485:\n        /* \"#utility.yul\":4030:4152   */\n      pop\n      jump\t// out\n        /* \"#utility.yul\":4158:4297   */\n    tag_386:\n        /* \"#utility.yul\":4204:4209   */\n      0x00\n        /* \"#utility.yul\":4242:4248   */\n      dup2\n        /* \"#utility.yul\":4229:4249   */\n      calldataload\n        /* \"#utility.yul\":4220:4249   */\n      swap1\n      pop\n        /* \"#utility.yul\":4258:4291   */\n      tag_487\n        /* \"#utility.yul\":4285:4290   */\n      dup2\n        /* \"#utility.yul\":4258:4291   */\n      tag_385\n      jump\t// in\n    tag_487:\n        /* \"#utility.yul\":4158:4297   */\n      swap3\n      swap2\n      pop\n      pop\n      jump\t// out\n        /* \"#utility.yul\":4303:4777   */\n    tag_42:\n        /* \"#utility.yul\":4371:4377   */\n      0x00\n        /* \"#utility.yul\":4379:4385   */\n      dup1\n        /* \"#utility.yul\":4428:4430   */\n      0x40\n        /* \"#utility.yul\":4416:4425   */\n      dup4\n        /* \"#utility.yul\":4407:4414   */\n      dup6\n        /* \"#utility.yul\":4403:4426   */\n      sub\n        /* \"#utility.yul\":4399:4431   */\n      slt\n        /* \"#utility.yul\":4396:4515   */\n      iszero\n      tag_489\n      jumpi\n        /* \"#utility.yul\":4434:4513   */\n      tag_490\n      tag_367\n      jump\t// in\n    tag_490:\n        /* \"#utility.yul\":4396:4515   */\n    tag_489:\n        /* \"#utility.yul\":4554:4555   */\n      0x00\n        /* \"#utility.yul\":4579:4632   */\n      tag_491\n        /* \"#utility.yul\":4624:4631   */\n      dup6\n        /* \"#utility.yul\":4615:4621   */\n      dup3\n        /* \"#utility.yul\":4604:4613   */\n      dup7\n        /* \"#utility.yul\":4600:4622   */\n      add\n        /* \"#utility.yul\":4579:4632   */\n      tag_386\n      jump\t// in\n    tag_491:\n        /* \"#utility.yul\":4569:4632   */\n      swap3\n      pop\n        /* \"#utility.yul\":4525:4642   */\n      pop\n        /* \"#utility.yul\":4681:4683   */\n      0x20\n        /* \"#utility.yul\":4707:4760   */\n      tag_492\n        /* \"#utility.yul\":4752:4759   */\n      dup6\n        /* \"#utility.yul\":4743:4749   */\n      dup3\n        /* \"#utility.yul\":4732:4741   */\n      dup7\n        /* \"#utility.yul\":4728:4750   */\n      add\n        /* \"#utility.yul\":4707:4760   */\n      tag_381\n      jump\t// in\n    tag_492:\n        /* \"#utility.yul\":4697:4760   */\n      swap2\n      pop\n        /* \"#utility.yul\":4652:4770   */\n      pop\n        /* \"#utility.yul\":4303:4777   */\n      swap3\n      pop\n      swap3\n      swap1\n      pop\n      jump\t// out\n        /* \"#utility.yul\":4783:5402   */\n    tag_46:\n        /* \"#utility.yul\":4860:4866   */\n      0x00\n        /* \"#utility.yul\":4868:4874   */\n      dup1\n        /* \"#utility.yul\":4876:4882   */\n      0x00\n        /* \"#utility.yul\":4925:4927   */\n      0x60\n        /* \"#utility.yul\":4913:4922   */\n      dup5\n        /* \"#utility.yul\":4904:4911   */\n      dup7\n        /* \"#utility.yul\":4900:4923   */\n      sub\n        /* \"#utility.yul\":4896:4928   */\n      slt\n        /* \"#utility.yul\":4893:5012   */\n      iszero\n      tag_494\n      jumpi\n        /* \"#utility.yul\":4931:5010   */\n      tag_495\n      tag_367\n      jump\t// in\n    tag_495:\n        /* \"#utility.yul\":4893:5012   */\n    tag_494:\n        /* \"#utility.yul\":5051:5052   */\n      0x00\n        /* \"#utility.yul\":5076:5129   */\n      tag_496\n        /* \"#utility.yul\":5121:5128   */\n      dup7\n        /* \"#utility.yul\":5112:5118   */\n      dup3\n        /* \"#utility.yul\":5101:5110   */\n      dup8\n        /* \"#utility.yul\":5097:5119   */\n      add\n        /* \"#utility.yul\":5076:5129   */\n      tag_386\n      jump\t// in\n    tag_496:\n        /* \"#utility.yul\":5066:5129   */\n      swap4\n      pop\n        /* \"#utility.yul\":5022:5139   */\n      pop\n        /* \"#utility.yul\":5178:5180   */\n      0x20\n        /* \"#utility.yul\":5204:5257   */\n      tag_497\n        /* \"#utility.yul\":5249:5256   */\n      dup7\n        /* \"#utility.yul\":5240:5246   */\n      dup3\n        /* \"#utility.yul\":5229:5238   */\n      dup8\n        /* \"#utility.yul\":5225:5247   */\n      add\n        /* \"#utility.yul\":5204:5257   */\n      tag_386\n      jump\t// in\n    tag_497:\n        /* \"#utility.yul\":5194:5257   */\n      swap3\n      pop\n        /* \"#utility.yul\":5149:5267   */\n      pop\n        /* \"#utility.yul\":5306:5308   */\n      0x40\n        /* \"#utility.yul\":5332:5385   */\n      tag_498\n        /* \"#utility.yul\":5377:5384   */\n      dup7\n        /* \"#utility.yul\":5368:5374   */\n      dup3\n        /* \"#utility.yul\":5357:5366   */\n      dup8\n        /* \"#utility.yul\":5353:5375   */\n      add\n        /* \"#utility.yul\":5332:5385   */\n      tag_381\n      jump\t// in\n    tag_498:\n        /* \"#utility.yul\":5322:5385   */\n      swap2\n      pop\n        /* \"#utility.yul\":5277:5395   */\n      pop\n        /* \"#utility.yul\":4783:5402   */\n      swap3\n      pop\n      swap3\n      pop\n      swap3\n      jump\t// out\n        /* \"#utility.yul\":5408:5882   */\n    tag_50:\n        /* \"#utility.yul\":5476:5482   */\n      0x00\n        /* \"#utility.yul\":5484:5490   */\n      dup1\n        /* \"#utility.yul\":5533:5535   */\n      0x40\n        /* \"#utility.yul\":5521:5530   */\n      dup4\n        /* \"#utility.yul\":5512:5519   */\n      dup6\n        /* \"#utility.yul\":5508:5531   */\n      sub\n        /* \"#utility.yul\":5504:5536   */\n      slt\n        /* \"#utility.yul\":5501:5620   */\n      iszero\n      tag_500\n      jumpi\n        /* \"#utility.yul\":5539:5618   */\n      tag_501\n      tag_367\n      jump\t// in\n    tag_501:\n        /* \"#utility.yul\":5501:5620   */\n    tag_500:\n        /* \"#utility.yul\":5659:5660   */\n      0x00\n        /* \"#utility.yul\":5684:5737   */\n      tag_502\n        /* \"#utility.yul\":5729:5736   */\n      dup6\n        /* \"#utility.yul\":5720:5726   */\n      dup3\n        /* \"#utility.yul\":5709:5718   */\n      dup7\n        /* \"#utility.yul\":5705:5727   */\n      add\n        /* \"#utility.yul\":5684:5737   */\n      tag_381\n      jump\t// in\n    tag_502:\n        /* \"#utility.yul\":5674:5737   */\n      swap3\n      pop\n        /* \"#utility.yul\":5630:5747   */\n      pop\n        /* \"#utility.yul\":5786:5788   */\n      0x20\n        /* \"#utility.yul\":5812:5865   */\n      tag_503\n        /* \"#utility.yul\":5857:5864   */\n      dup6\n        /* \"#utility.yul\":5848:5854   */\n      dup3\n        /* \"#utility.yul\":5837:5846   */\n      dup7\n        /* \"#utility.yul\":5833:5855   */\n      add\n        /* \"#utility.yul\":5812:5865   */\n      tag_381\n      jump\t// in\n    tag_503:\n        /* \"#utility.yul\":5802:5865   */\n      swap2\n      pop\n        /* \"#utility.yul\":5757:5875   */\n      pop\n        /* \"#utility.yul\":5408:5882   */\n      swap3\n      pop\n      swap3\n      swap1\n      pop\n      jump\t// out\n        /* \"#utility.yul\":5888:6006   */\n    tag_387:\n        /* \"#utility.yul\":5975:5999   */\n      tag_505\n        /* \"#utility.yul\":5993:5998   */\n      dup2\n        /* \"#utility.yul\":5975:5999   */\n      tag_379\n      jump\t// in\n    tag_505:\n        /* \"#utility.yul\":5970:5973   */\n      dup3\n        /* \"#utility.yul\":5963:6000   */\n      mstore\n        /* \"#utility.yul\":5888:6006   */\n      pop\n      pop\n      jump\t// out\n        /* \"#utility.yul\":6012:6858   */\n    tag_59:\n        /* \"#utility.yul\":6257:6261   */\n      0x00\n        /* \"#utility.yul\":6295:6298   */\n      0xa0\n        /* \"#utility.yul\":6284:6293   */\n      dup3\n        /* \"#utility.yul\":6280:6299   */\n      add\n        /* \"#utility.yul\":6272:6299   */\n      swap1\n      pop\n        /* \"#utility.yul\":6345:6354   */\n      dup2\n        /* \"#utility.yul\":6339:6343   */\n      dup2\n        /* \"#utility.yul\":6335:6355   */\n      sub\n        /* \"#utility.yul\":6331:6332   */\n      0x00\n        /* \"#utility.yul\":6320:6329   */\n      dup4\n        /* \"#utility.yul\":6316:6333   */\n      add\n        /* \"#utility.yul\":6309:6356   */\n      mstore\n        /* \"#utility.yul\":6373:6451   */\n      tag_507\n        /* \"#utility.yul\":6446:6450   */\n      dup2\n        /* \"#utility.yul\":6437:6443   */\n      dup9\n        /* \"#utility.yul\":6373:6451   */\n      tag_378\n      jump\t// in\n    tag_507:\n        /* \"#utility.yul\":6365:6451   */\n      swap1\n      pop\n        /* \"#utility.yul\":6498:6507   */\n      dup2\n        /* \"#utility.yul\":6492:6496   */\n      dup2\n        /* \"#utility.yul\":6488:6508   */\n      sub\n        /* \"#utility.yul\":6483:6485   */\n      0x20\n        /* \"#utility.yul\":6472:6481   */\n      dup4\n        /* \"#utility.yul\":6468:6486   */\n      add\n        /* \"#utility.yul\":6461:6509   */\n      mstore\n        /* \"#utility.yul\":6526:6604   */\n      tag_508\n        /* \"#utility.yul\":6599:6603   */\n      dup2\n        /* \"#utility.yul\":6590:6596   */\n      dup8\n        /* \"#utility.yul\":6526:6604   */\n      tag_378\n      jump\t// in\n    tag_508:\n        /* \"#utility.yul\":6518:6604   */\n      swap1\n      pop\n        /* \"#utility.yul\":6614:6686   */\n      tag_509\n        /* \"#utility.yul\":6682:6684   */\n      0x40\n        /* \"#utility.yul\":6671:6680   */\n      dup4\n        /* \"#utility.yul\":6667:6685   */\n      add\n        /* \"#utility.yul\":6658:6664   */\n      dup7\n        /* \"#utility.yul\":6614:6686   */\n      tag_387\n      jump\t// in\n    tag_509:\n        /* \"#utility.yul\":6696:6768   */\n      tag_510\n        /* \"#utility.yul\":6764:6766   */\n      0x60\n        /* \"#utility.yul\":6753:6762   */\n      dup4\n        /* \"#utility.yul\":6749:6767   */\n      add\n        /* \"#utility.yul\":6740:6746   */\n      dup6\n        /* \"#utility.yul\":6696:6768   */\n      tag_387\n      jump\t// in\n    tag_510:\n        /* \"#utility.yul\":6778:6851   */\n      tag_511\n        /* \"#utility.yul\":6846:6849   */\n      0x80\n        /* \"#utility.yul\":6835:6844   */\n      dup4\n        /* \"#utility.yul\":6831:6850   */\n      add\n        /* \"#utility.yul\":6822:6828   */\n      dup5\n        /* \"#utility.yul\":6778:6851   */\n      tag_387\n      jump\t// in\n    tag_511:\n        /* \"#utility.yul\":6012:6858   */\n      swap7\n      swap6\n      pop\n      pop\n      pop\n      pop\n      pop\n      pop\n      jump\t// out\n        /* \"#utility.yul\":6864:6950   */\n    tag_388:\n        /* \"#utility.yul\":6899:6906   */\n      0x00\n        /* \"#utility.yul\":6939:6943   */\n      0xff\n        /* \"#utility.yul\":6932:6937   */\n      dup3\n        /* \"#utility.yul\":6928:6944   */\n      and\n        /* \"#utility.yul\":6917:6944   */\n      swap1\n      pop\n        /* \"#utility.yul\":6864:6950   */\n      swap2\n      swap1\n      pop\n      jump\t// out\n        /* \"#utility.yul\":6956:7068   */\n    tag_389:\n        /* \"#utility.yul\":7039:7061   */\n      tag_514\n        /* \"#utility.yul\":7055:7060   */\n      dup2\n        /* \"#utility.yul\":7039:7061   */\n      tag_388\n      jump\t// in\n    tag_514:\n        /* \"#utility.yul\":7034:7037   */\n      dup3\n        /* \"#utility.yul\":7027:7062   */\n      mstore\n        /* \"#utility.yul\":6956:7068   */\n      pop\n      pop\n      jump\t// out\n        /* \"#utility.yul\":7074:7619   */\n    tag_64:\n        /* \"#utility.yul\":7247:7251   */\n      0x00\n        /* \"#utility.yul\":7285:7288   */\n      0x80\n        /* \"#utility.yul\":7274:7283   */\n      dup3\n        /* \"#utility.yul\":7270:7289   */\n      add\n        /* \"#utility.yul\":7262:7289   */\n      swap1\n      pop\n        /* \"#utility.yul\":7299:7370   */\n      tag_516\n        /* \"#utility.yul\":7367:7368   */\n      0x00\n        /* \"#utility.yul\":7356:7365   */\n      dup4\n        /* \"#utility.yul\":7352:7369   */\n      add\n        /* \"#utility.yul\":7343:7349   */\n      dup8\n        /* \"#utility.yul\":7299:7370   */\n      tag_387\n      jump\t// in\n    tag_516:\n        /* \"#utility.yul\":7380:7452   */\n      tag_517\n        /* \"#utility.yul\":7448:7450   */\n      0x20\n        /* \"#utility.yul\":7437:7446   */\n      dup4\n        /* \"#utility.yul\":7433:7451   */\n      add\n        /* \"#utility.yul\":7424:7430   */\n      dup7\n        /* \"#utility.yul\":7380:7452   */\n      tag_387\n      jump\t// in\n    tag_517:\n        /* \"#utility.yul\":7462:7530   */\n      tag_518\n        /* \"#utility.yul\":7526:7528   */\n      0x40\n        /* \"#utility.yul\":7515:7524   */\n      dup4\n        /* \"#utility.yul\":7511:7529   */\n      add\n        /* \"#utility.yul\":7502:7508   */\n      dup6\n        /* \"#utility.yul\":7462:7530   */\n      tag_389\n      jump\t// in\n    tag_518:\n        /* \"#utility.yul\":7540:7612   */\n      tag_519\n        /* \"#utility.yul\":7608:7610   */\n      0x60\n        /* \"#utility.yul\":7597:7606   */\n      dup4\n        /* \"#utility.yul\":7593:7611   */\n      add\n        /* \"#utility.yul\":7584:7590   */\n      dup5\n        /* \"#utility.yul\":7540:7612   */\n      tag_384\n      jump\t// in\n    tag_519:\n        /* \"#utility.yul\":7074:7619   */\n      swap6\n      swap5\n      pop\n      pop\n      pop\n      pop\n      pop\n      jump\t// out\n        /* \"#utility.yul\":7625:7742   */\n    tag_390:\n        /* \"#utility.yul\":7734:7735   */\n      0x00\n        /* \"#utility.yul\":7731:7732   */\n      dup1\n        /* \"#utility.yul\":7724:7736   */\n      revert\n        /* \"#utility.yul\":7748:7865   */\n    tag_391:\n        /* \"#utility.yul\":7857:7858   */\n      0x00\n        /* \"#utility.yul\":7854:7855   */\n      dup1\n        /* \"#utility.yul\":7847:7859   */\n      revert\n        /* \"#utility.yul\":7871:8051   */\n    tag_302:\n        /* \"#utility.yul\":7919:7996   */\n      0x4e487b7100000000000000000000000000000000000000000000000000000000\n        /* \"#utility.yul\":7916:7917   */\n      0x00\n        /* \"#utility.yul\":7909:7997   */\n      mstore\n        /* \"#utility.yul\":8016:8020   */\n      0x41\n        /* \"#utility.yul\":8013:8014   */\n      0x04\n        /* \"#utility.yul\":8006:8021   */\n      mstore\n        /* \"#utility.yul\":8040:8044   */\n      0x24\n        /* \"#utility.yul\":8037:8038   */\n      0x00\n        /* \"#utility.yul\":8030:8045   */\n      revert\n        /* \"#utility.yul\":8057:8338   */\n    tag_392:\n        /* \"#utility.yul\":8140:8167   */\n      tag_524\n        /* \"#utility.yul\":8162:8166   */\n      dup3\n        /* \"#utility.yul\":8140:8167   */\n      tag_377\n      jump\t// in\n    tag_524:\n        /* \"#utility.yul\":8132:8138   */\n      dup2\n        /* \"#utility.yul\":8128:8168   */\n      add\n        /* \"#utility.yul\":8270:8276   */\n      dup2\n        /* \"#utility.yul\":8258:8268   */\n      dup2\n        /* \"#utility.yul\":8255:8277   */\n      lt\n        /* \"#utility.yul\":8234:8252   */\n      0xffffffffffffffff\n        /* \"#utility.yul\":8222:8232   */\n      dup3\n        /* \"#utility.yul\":8219:8253   */\n      gt\n        /* \"#utility.yul\":8216:8278   */\n      or\n        /* \"#utility.yul\":8213:8301   */\n      iszero\n      tag_525\n      jumpi\n        /* \"#utility.yul\":8281:8299   */\n      tag_526\n      tag_302\n      jump\t// in\n    tag_526:\n        /* \"#utility.yul\":8213:8301   */\n    tag_525:\n        /* \"#utility.yul\":8321:8331   */\n      dup1\n        /* \"#utility.yul\":8317:8319   */\n      0x40\n        /* \"#utility.yul\":8310:8332   */\n      mstore\n        /* \"#utility.yul\":8100:8338   */\n      pop\n        /* \"#utility.yul\":8057:8338   */\n      pop\n      pop\n      jump\t// out\n        /* \"#utility.yul\":8344:8473   */\n    tag_393:\n        /* \"#utility.yul\":8378:8384   */\n      0x00\n        /* \"#utility.yul\":8405:8425   */\n      tag_528\n      tag_366\n      jump\t// in\n    tag_528:\n        /* \"#utility.yul\":8395:8425   */\n      swap1\n      pop\n        /* \"#utility.yul\":8434:8467   */\n      tag_529\n        /* \"#utility.yul\":8462:8466   */\n      dup3\n        /* \"#utility.yul\":8454:8460   */\n      dup3\n        /* \"#utility.yul\":8434:8467   */\n      tag_392\n      jump\t// in\n    tag_529:\n        /* \"#utility.yul\":8344:8473   */\n      swap2\n      swap1\n      pop\n      jump\t// out\n        /* \"#utility.yul\":8479:8787   */\n    tag_394:\n        /* \"#utility.yul\":8541:8545   */\n      0x00\n        /* \"#utility.yul\":8631:8649   */\n      0xffffffffffffffff\n        /* \"#utility.yul\":8623:8629   */\n      dup3\n        /* \"#utility.yul\":8620:8650   */\n      gt\n        /* \"#utility.yul\":8617:8673   */\n      iszero\n      tag_531\n      jumpi\n        /* \"#utility.yul\":8653:8671   */\n      tag_532\n      tag_302\n      jump\t// in\n    tag_532:\n        /* \"#utility.yul\":8617:8673   */\n    tag_531:\n        /* \"#utility.yul\":8691:8720   */\n      tag_533\n        /* \"#utility.yul\":8713:8719   */\n      dup3\n        /* \"#utility.yul\":8691:8720   */\n      tag_377\n      jump\t// in\n    tag_533:\n        /* \"#utility.yul\":8683:8720   */\n      swap1\n      pop\n        /* \"#utility.yul\":8775:8779   */\n      0x20\n        /* \"#utility.yul\":8769:8773   */\n      dup2\n        /* \"#utility.yul\":8765:8780   */\n      add\n        /* \"#utility.yul\":8757:8780   */\n      swap1\n      pop\n        /* \"#utility.yul\":8479:8787   */\n      swap2\n      swap1\n      pop\n      jump\t// out\n        /* \"#utility.yul\":8793:8941   */\n    tag_395:\n        /* \"#utility.yul\":8891:8897   */\n      dup3\n        /* \"#utility.yul\":8886:8889   */\n      dup2\n        /* \"#utility.yul\":8881:8884   */\n      dup4\n        /* \"#utility.yul\":8868:8898   */\n      calldatacopy\n        /* \"#utility.yul\":8932:8933   */\n      0x00\n        /* \"#utility.yul\":8923:8929   */\n      dup4\n        /* \"#utility.yul\":8918:8921   */\n      dup4\n        /* \"#utility.yul\":8914:8930   */\n      add\n        /* \"#utility.yul\":8907:8934   */\n      mstore\n        /* \"#utility.yul\":8793:8941   */\n      pop\n      pop\n      pop\n      jump\t// out\n        /* \"#utility.yul\":8947:9372   */\n    tag_396:\n        /* \"#utility.yul\":9025:9030   */\n      0x00\n        /* \"#utility.yul\":9050:9116   */\n      tag_536\n        /* \"#utility.yul\":9066:9115   */\n      tag_537\n        /* \"#utility.yul\":9108:9114   */\n      dup5\n        /* \"#utility.yul\":9066:9115   */\n      tag_394\n      jump\t// in\n    tag_537:\n        /* \"#utility.yul\":9050:9116   */\n      tag_393\n      jump\t// in\n    tag_536:\n        /* \"#utility.yul\":9041:9116   */\n      swap1\n      pop\n        /* \"#utility.yul\":9139:9145   */\n      dup3\n        /* \"#utility.yul\":9132:9137   */\n      dup2\n        /* \"#utility.yul\":9125:9146   */\n      mstore\n        /* \"#utility.yul\":9177:9181   */\n      0x20\n        /* \"#utility.yul\":9170:9175   */\n      dup2\n        /* \"#utility.yul\":9166:9182   */\n      add\n        /* \"#utility.yul\":9215:9218   */\n      dup5\n        /* \"#utility.yul\":9206:9212   */\n      dup5\n        /* \"#utility.yul\":9201:9204   */\n      dup5\n        /* \"#utility.yul\":9197:9213   */\n      add\n        /* \"#utility.yul\":9194:9219   */\n      gt\n        /* \"#utility.yul\":9191:9303   */\n      iszero\n      tag_538\n      jumpi\n        /* \"#utility.yul\":9222:9301   */\n      tag_539\n      tag_391\n      jump\t// in\n    tag_539:\n        /* \"#utility.yul\":9191:9303   */\n    tag_538:\n        /* \"#utility.yul\":9312:9366   */\n      tag_540\n        /* \"#utility.yul\":9359:9365   */\n      dup5\n        /* \"#utility.yul\":9354:9357   */\n      dup3\n        /* \"#utility.yul\":9349:9352   */\n      dup6\n        /* \"#utility.yul\":9312:9366   */\n      tag_395\n      jump\t// in\n    tag_540:\n        /* \"#utility.yul\":9031:9372   */\n      pop\n        /* \"#utility.yul\":8947:9372   */\n      swap4\n      swap3\n      pop\n      pop\n      pop\n      jump\t// out\n        /* \"#utility.yul\":9392:9732   */\n    tag_397:\n        /* \"#utility.yul\":9448:9453   */\n      0x00\n        /* \"#utility.yul\":9497:9500   */\n      dup3\n        /* \"#utility.yul\":9490:9494   */\n      0x1f\n        /* \"#utility.yul\":9482:9488   */\n      dup4\n        /* \"#utility.yul\":9478:9495   */\n      add\n        /* \"#utility.yul\":9474:9501   */\n      slt\n        /* \"#utility.yul\":9464:9586   */\n      tag_542\n      jumpi\n        /* \"#utility.yul\":9505:9584   */\n      tag_543\n      tag_390\n      jump\t// in\n    tag_543:\n        /* \"#utility.yul\":9464:9586   */\n    tag_542:\n        /* \"#utility.yul\":9622:9628   */\n      dup2\n        /* \"#utility.yul\":9609:9629   */\n      calldataload\n        /* \"#utility.yul\":9647:9726   */\n      tag_544\n        /* \"#utility.yul\":9722:9725   */\n      dup5\n        /* \"#utility.yul\":9714:9720   */\n      dup3\n        /* \"#utility.yul\":9707:9711   */\n      0x20\n        /* \"#utility.yul\":9699:9705   */\n      dup7\n        /* \"#utility.yul\":9695:9712   */\n      add\n        /* \"#utility.yul\":9647:9726   */\n      tag_396\n      jump\t// in\n    tag_544:\n        /* \"#utility.yul\":9638:9726   */\n      swap2\n      pop\n        /* \"#utility.yul\":9454:9732   */\n      pop\n        /* \"#utility.yul\":9392:9732   */\n      swap3\n      swap2\n      pop\n      pop\n      jump\t// out\n        /* \"#utility.yul\":9738:9856   */\n    tag_398:\n        /* \"#utility.yul\":9809:9831   */\n      tag_546\n        /* \"#utility.yul\":9825:9830   */\n      dup2\n        /* \"#utility.yul\":9809:9831   */\n      tag_388\n      jump\t// in\n    tag_546:\n        /* \"#utility.yul\":9802:9807   */\n      dup2\n        /* \"#utility.yul\":9799:9832   */\n      eq\n        /* \"#utility.yul\":9789:9850   */\n      tag_547\n      jumpi\n        /* \"#utility.yul\":9846:9847   */\n      0x00\n        /* \"#utility.yul\":9843:9844   */\n      dup1\n        /* \"#utility.yul\":9836:9848   */\n      revert\n        /* \"#utility.yul\":9789:9850   */\n    tag_547:\n        /* \"#utility.yul\":9738:9856   */\n      pop\n      jump\t// out\n        /* \"#utility.yul\":9862:9997   */\n    tag_399:\n        /* \"#utility.yul\":9906:9911   */\n      0x00\n        /* \"#utility.yul\":9944:9950   */\n      dup2\n        /* \"#utility.yul\":9931:9951   */\n      calldataload\n        /* \"#utility.yul\":9922:9951   */\n      swap1\n      pop\n        /* \"#utility.yul\":9960:9991   */\n      tag_549\n        /* \"#utility.yul\":9985:9990   */\n      dup2\n        /* \"#utility.yul\":9960:9991   */\n      tag_398\n      jump\t// in\n    tag_549:\n        /* \"#utility.yul\":9862:9997   */\n      swap3\n      swap2\n      pop\n      pop\n      jump\t// out\n        /* \"#utility.yul\":10003:11408   */\n    tag_71:\n        /* \"#utility.yul\":10121:10127   */\n      0x00\n        /* \"#utility.yul\":10129:10135   */\n      dup1\n        /* \"#utility.yul\":10137:10143   */\n      0x00\n        /* \"#utility.yul\":10145:10151   */\n      dup1\n        /* \"#utility.yul\":10153:10159   */\n      0x00\n        /* \"#utility.yul\":10161:10167   */\n      dup1\n        /* \"#utility.yul\":10210:10213   */\n      0xc0\n        /* \"#utility.yul\":10198:10207   */\n      dup8\n        /* \"#utility.yul\":10189:10196   */\n      dup10\n        /* \"#utility.yul\":10185:10208   */\n      sub\n        /* \"#utility.yul\":10181:10214   */\n      slt\n        /* \"#utility.yul\":10178:10298   */\n      iszero\n      tag_551\n      jumpi\n        /* \"#utility.yul\":10217:10296   */\n      tag_552\n      tag_367\n      jump\t// in\n    tag_552:\n        /* \"#utility.yul\":10178:10298   */\n    tag_551:\n        /* \"#utility.yul\":10365:10366   */\n      0x00\n        /* \"#utility.yul\":10354:10363   */\n      dup8\n        /* \"#utility.yul\":10350:10367   */\n      add\n        /* \"#utility.yul\":10337:10368   */\n      calldataload\n        /* \"#utility.yul\":10395:10413   */\n      0xffffffffffffffff\n        /* \"#utility.yul\":10387:10393   */\n      dup2\n        /* \"#utility.yul\":10384:10414   */\n      gt\n        /* \"#utility.yul\":10381:10498   */\n      iszero\n      tag_553\n      jumpi\n        /* \"#utility.yul\":10417:10496   */\n      tag_554\n      tag_368\n      jump\t// in\n    tag_554:\n        /* \"#utility.yul\":10381:10498   */\n    tag_553:\n        /* \"#utility.yul\":10522:10585   */\n      tag_555\n        /* \"#utility.yul\":10577:10584   */\n      dup10\n        /* \"#utility.yul\":10568:10574   */\n      dup3\n        /* \"#utility.yul\":10557:10566   */\n      dup11\n        /* \"#utility.yul\":10553:10575   */\n      add\n        /* \"#utility.yul\":10522:10585   */\n      tag_397\n      jump\t// in\n    tag_555:\n        /* \"#utility.yul\":10512:10585   */\n      swap7\n      pop\n        /* \"#utility.yul\":10308:10595   */\n      pop\n        /* \"#utility.yul\":10634:10636   */\n      0x20\n        /* \"#utility.yul\":10660:10713   */\n      tag_556\n        /* \"#utility.yul\":10705:10712   */\n      dup10\n        /* \"#utility.yul\":10696:10702   */\n      dup3\n        /* \"#utility.yul\":10685:10694   */\n      dup11\n        /* \"#utility.yul\":10681:10703   */\n      add\n        /* \"#utility.yul\":10660:10713   */\n      tag_386\n      jump\t// in\n    tag_556:\n        /* \"#utility.yul\":10650:10713   */\n      swap6\n      pop\n        /* \"#utility.yul\":10605:10723   */\n      pop\n        /* \"#utility.yul\":10762:10764   */\n      0x40\n        /* \"#utility.yul\":10788:10839   */\n      tag_557\n        /* \"#utility.yul\":10831:10838   */\n      dup10\n        /* \"#utility.yul\":10822:10828   */\n      dup3\n        /* \"#utility.yul\":10811:10820   */\n      dup11\n        /* \"#utility.yul\":10807:10829   */\n      add\n        /* \"#utility.yul\":10788:10839   */\n      tag_399\n      jump\t// in\n    tag_557:\n        /* \"#utility.yul\":10778:10839   */\n      swap5\n      pop\n        /* \"#utility.yul\":10733:10849   */\n      pop\n        /* \"#utility.yul\":10888:10890   */\n      0x60\n        /* \"#utility.yul\":10914:10965   */\n      tag_558\n        /* \"#utility.yul\":10957:10964   */\n      dup10\n        /* \"#utility.yul\":10948:10954   */\n      dup3\n        /* \"#utility.yul\":10937:10946   */\n      dup11\n        /* \"#utility.yul\":10933:10955   */\n      add\n        /* \"#utility.yul\":10914:10965   */\n      tag_399\n      jump\t// in\n    tag_558:\n        /* \"#utility.yul\":10904:10965   */\n      swap4\n      pop\n        /* \"#utility.yul\":10859:10975   */\n      pop\n        /* \"#utility.yul\":11014:11017   */\n      0x80\n        /* \"#utility.yul\":11041:11092   */\n      tag_559\n        /* \"#utility.yul\":11084:11091   */\n      dup10\n        /* \"#utility.yul\":11075:11081   */\n      dup3\n        /* \"#utility.yul\":11064:11073   */\n      dup11\n        /* \"#utility.yul\":11060:11082   */\n      add\n        /* \"#utility.yul\":11041:11092   */\n      tag_399\n      jump\t// in\n    tag_559:\n        /* \"#utility.yul\":11031:11092   */\n      swap3\n      pop\n        /* \"#utility.yul\":10985:11102   */\n      pop\n        /* \"#utility.yul\":11169:11172   */\n      0xa0\n        /* \"#utility.yul\":11158:11167   */\n      dup8\n        /* \"#utility.yul\":11154:11173   */\n      add\n        /* \"#utility.yul\":11141:11174   */\n      calldataload\n        /* \"#utility.yul\":11201:11219   */\n      0xffffffffffffffff\n        /* \"#utility.yul\":11193:11199   */\n      dup2\n        /* \"#utility.yul\":11190:11220   */\n      gt\n        /* \"#utility.yul\":11187:11304   */\n      iszero\n      tag_560\n      jumpi\n        /* \"#utility.yul\":11223:11302   */\n      tag_561\n      tag_368\n      jump\t// in\n    tag_561:\n        /* \"#utility.yul\":11187:11304   */\n    tag_560:\n        /* \"#utility.yul\":11328:11391   */\n      tag_562\n        /* \"#utility.yul\":11383:11390   */\n      dup10\n        /* \"#utility.yul\":11374:11380   */\n      dup3\n        /* \"#utility.yul\":11363:11372   */\n      dup11\n        /* \"#utility.yul\":11359:11381   */\n      add\n        /* \"#utility.yul\":11328:11391   */\n      tag_397\n      jump\t// in\n    tag_562:\n        /* \"#utility.yul\":11318:11391   */\n      swap2\n      pop\n        /* \"#utility.yul\":11112:11401   */\n      pop\n        /* \"#utility.yul\":10003:11408   */\n      swap3\n      swap6\n      pop\n      swap3\n      swap6\n      pop\n      swap3\n      swap6\n      jump\t// out\n        /* \"#utility.yul\":11414:11743   */\n    tag_75:\n        /* \"#utility.yul\":11473:11479   */\n      0x00\n        /* \"#utility.yul\":11522:11524   */\n      0x20\n        /* \"#utility.yul\":11510:11519   */\n      dup3\n        /* \"#utility.yul\":11501:11508   */\n      dup5\n        /* \"#utility.yul\":11497:11520   */\n      sub\n        /* \"#utility.yul\":11493:11525   */\n      slt\n        /* \"#utility.yul\":11490:11609   */\n      iszero\n      tag_564\n      jumpi\n        /* \"#utility.yul\":11528:11607   */\n      tag_565\n      tag_367\n      jump\t// in\n    tag_565:\n        /* \"#utility.yul\":11490:11609   */\n    tag_564:\n        /* \"#utility.yul\":11648:11649   */\n      0x00\n        /* \"#utility.yul\":11673:11726   */\n      tag_566\n        /* \"#utility.yul\":11718:11725   */\n      dup5\n        /* \"#utility.yul\":11709:11715   */\n      dup3\n        /* \"#utility.yul\":11698:11707   */\n      dup6\n        /* \"#utility.yul\":11694:11716   */\n      add\n        /* \"#utility.yul\":11673:11726   */\n      tag_386\n      jump\t// in\n    tag_566:\n        /* \"#utility.yul\":11663:11726   */\n      swap2\n      pop\n        /* \"#utility.yul\":11619:11736   */\n      pop\n        /* \"#utility.yul\":11414:11743   */\n      swap3\n      swap2\n      pop\n      pop\n      jump\t// out\n        /* \"#utility.yul\":11749:11971   */\n    tag_78:\n        /* \"#utility.yul\":11842:11846   */\n      0x00\n        /* \"#utility.yul\":11880:11882   */\n      0x20\n        /* \"#utility.yul\":11869:11878   */\n      dup3\n        /* \"#utility.yul\":11865:11883   */\n      add\n        /* \"#utility.yul\":11857:11883   */\n      swap1\n      pop\n        /* \"#utility.yul\":11893:11964   */\n      tag_568\n        /* \"#utility.yul\":11961:11962   */\n      0x00\n        /* \"#utility.yul\":11950:11959   */\n      dup4\n        /* \"#utility.yul\":11946:11963   */\n      add\n        /* \"#utility.yul\":11937:11943   */\n      dup5\n        /* \"#utility.yul\":11893:11964   */\n      tag_387\n      jump\t// in\n    tag_568:\n        /* \"#utility.yul\":11749:11971   */\n      swap3\n      swap2\n      pop\n      pop\n      jump\t// out\n        /* \"#utility.yul\":11977:12093   */\n    tag_400:\n        /* \"#utility.yul\":12047:12068   */\n      tag_570\n        /* \"#utility.yul\":12062:12067   */\n      dup2\n        /* \"#utility.yul\":12047:12068   */\n      tag_372\n      jump\t// in\n    tag_570:\n        /* \"#utility.yul\":12040:12045   */\n      dup2\n        /* \"#utility.yul\":12037:12069   */\n      eq\n        /* \"#utility.yul\":12027:12087   */\n      tag_571\n      jumpi\n        /* \"#utility.yul\":12083:12084   */\n      0x00\n        /* \"#utility.yul\":12080:12081   */\n      dup1\n        /* \"#utility.yul\":12073:12085   */\n      revert\n        /* \"#utility.yul\":12027:12087   */\n    tag_571:\n        /* \"#utility.yul\":11977:12093   */\n      pop\n      jump\t// out\n        /* \"#utility.yul\":12099:12232   */\n    tag_401:\n        /* \"#utility.yul\":12142:12147   */\n      0x00\n        /* \"#utility.yul\":12180:12186   */\n      dup2\n        /* \"#utility.yul\":12167:12187   */\n      calldataload\n        /* \"#utility.yul\":12158:12187   */\n      swap1\n      pop\n        /* \"#utility.yul\":12196:12226   */\n      tag_573\n        /* \"#utility.yul\":12220:12225   */\n      dup2\n        /* \"#utility.yul\":12196:12226   */\n      tag_400\n      jump\t// in\n    tag_573:\n        /* \"#utility.yul\":12099:12232   */\n      swap3\n      swap2\n      pop\n      pop\n      jump\t// out\n        /* \"#utility.yul\":12238:12706   */\n    tag_84:\n        /* \"#utility.yul\":12303:12309   */\n      0x00\n        /* \"#utility.yul\":12311:12317   */\n      dup1\n        /* \"#utility.yul\":12360:12362   */\n      0x40\n        /* \"#utility.yul\":12348:12357   */\n      dup4\n        /* \"#utility.yul\":12339:12346   */\n      dup6\n        /* \"#utility.yul\":12335:12358   */\n      sub\n        /* \"#utility.yul\":12331:12363   */\n      slt\n        /* \"#utility.yul\":12328:12447   */\n      iszero\n      tag_575\n      jumpi\n        /* \"#utility.yul\":12366:12445   */\n      tag_576\n      tag_367\n      jump\t// in\n    tag_576:\n        /* \"#utility.yul\":12328:12447   */\n    tag_575:\n        /* \"#utility.yul\":12486:12487   */\n      0x00\n        /* \"#utility.yul\":12511:12564   */\n      tag_577\n        /* \"#utility.yul\":12556:12563   */\n      dup6\n        /* \"#utility.yul\":12547:12553   */\n      dup3\n        /* \"#utility.yul\":12536:12545   */\n      dup7\n        /* \"#utility.yul\":12532:12554   */\n      add\n        /* \"#utility.yul\":12511:12564   */\n      tag_386\n      jump\t// in\n    tag_577:\n        /* \"#utility.yul\":12501:12564   */\n      swap3\n      pop\n        /* \"#utility.yul\":12457:12574   */\n      pop\n        /* \"#utility.yul\":12613:12615   */\n      0x20\n        /* \"#utility.yul\":12639:12689   */\n      tag_578\n        /* \"#utility.yul\":12681:12688   */\n      dup6\n        /* \"#utility.yul\":12672:12678   */\n      dup3\n        /* \"#utility.yul\":12661:12670   */\n      dup7\n        /* \"#utility.yul\":12657:12679   */\n      add\n        /* \"#utility.yul\":12639:12689   */\n      tag_401\n      jump\t// in\n    tag_578:\n        /* \"#utility.yul\":12629:12689   */\n      swap2\n      pop\n        /* \"#utility.yul\":12584:12699   */\n      pop\n        /* \"#utility.yul\":12238:12706   */\n      swap3\n      pop\n      swap3\n      swap1\n      pop\n      jump\t// out\n        /* \"#utility.yul\":12712:13019   */\n    tag_402:\n        /* \"#utility.yul\":12773:12777   */\n      0x00\n        /* \"#utility.yul\":12863:12881   */\n      0xffffffffffffffff\n        /* \"#utility.yul\":12855:12861   */\n      dup3\n        /* \"#utility.yul\":12852:12882   */\n      gt\n        /* \"#utility.yul\":12849:12905   */\n      iszero\n      tag_580\n      jumpi\n        /* \"#utility.yul\":12885:12903   */\n      tag_581\n      tag_302\n      jump\t// in\n    tag_581:\n        /* \"#utility.yul\":12849:12905   */\n    tag_580:\n        /* \"#utility.yul\":12923:12952   */\n      tag_582\n        /* \"#utility.yul\":12945:12951   */\n      dup3\n        /* \"#utility.yul\":12923:12952   */\n      tag_377\n      jump\t// in\n    tag_582:\n        /* \"#utility.yul\":12915:12952   */\n      swap1\n      pop\n        /* \"#utility.yul\":13007:13011   */\n      0x20\n        /* \"#utility.yul\":13001:13005   */\n      dup2\n        /* \"#utility.yul\":12997:13012   */\n      add\n        /* \"#utility.yul\":12989:13012   */\n      swap1\n      pop\n        /* \"#utility.yul\":12712:13019   */\n      swap2\n      swap1\n      pop\n      jump\t// out\n        /* \"#utility.yul\":13025:13448   */\n    tag_403:\n        /* \"#utility.yul\":13102:13107   */\n      0x00\n        /* \"#utility.yul\":13127:13192   */\n      tag_584\n        /* \"#utility.yul\":13143:13191   */\n      tag_585\n        /* \"#utility.yul\":13184:13190   */\n      dup5\n        /* \"#utility.yul\":13143:13191   */\n      tag_402\n      jump\t// in\n    tag_585:\n        /* \"#utility.yul\":13127:13192   */\n      tag_393\n      jump\t// in\n    tag_584:\n        /* \"#utility.yul\":13118:13192   */\n      swap1\n      pop\n        /* \"#utility.yul\":13215:13221   */\n      dup3\n        /* \"#utility.yul\":13208:13213   */\n      dup2\n        /* \"#utility.yul\":13201:13222   */\n      mstore\n        /* \"#utility.yul\":13253:13257   */\n      0x20\n        /* \"#utility.yul\":13246:13251   */\n      dup2\n        /* \"#utility.yul\":13242:13258   */\n      add\n        /* \"#utility.yul\":13291:13294   */\n      dup5\n        /* \"#utility.yul\":13282:13288   */\n      dup5\n        /* \"#utility.yul\":13277:13280   */\n      dup5\n        /* \"#utility.yul\":13273:13289   */\n      add\n        /* \"#utility.yul\":13270:13295   */\n      gt\n        /* \"#utility.yul\":13267:13379   */\n      iszero\n      tag_586\n      jumpi\n        /* \"#utility.yul\":13298:13377   */\n      tag_587\n      tag_391\n      jump\t// in\n    tag_587:\n        /* \"#utility.yul\":13267:13379   */\n    tag_586:\n        /* \"#utility.yul\":13388:13442   */\n      tag_588\n        /* \"#utility.yul\":13435:13441   */\n      dup5\n        /* \"#utility.yul\":13430:13433   */\n      dup3\n        /* \"#utility.yul\":13425:13428   */\n      dup6\n        /* \"#utility.yul\":13388:13442   */\n      tag_395\n      jump\t// in\n    tag_588:\n        /* \"#utility.yul\":13108:13448   */\n      pop\n        /* \"#utility.yul\":13025:13448   */\n      swap4\n      swap3\n      pop\n      pop\n      pop\n      jump\t// out\n        /* \"#utility.yul\":13467:13805   */\n    tag_404:\n        /* \"#utility.yul\":13522:13527   */\n      0x00\n        /* \"#utility.yul\":13571:13574   */\n      dup3\n        /* \"#utility.yul\":13564:13568   */\n      0x1f\n        /* \"#utility.yul\":13556:13562   */\n      dup4\n        /* \"#utility.yul\":13552:13569   */\n      add\n        /* \"#utility.yul\":13548:13575   */\n      slt\n        /* \"#utility.yul\":13538:13660   */\n      tag_590\n      jumpi\n        /* \"#utility.yul\":13579:13658   */\n      tag_591\n      tag_390\n      jump\t// in\n    tag_591:\n        /* \"#utility.yul\":13538:13660   */\n    tag_590:\n        /* \"#utility.yul\":13696:13702   */\n      dup2\n        /* \"#utility.yul\":13683:13703   */\n      calldataload\n        /* \"#utility.yul\":13721:13799   */\n      tag_592\n        /* \"#utility.yul\":13795:13798   */\n      dup5\n        /* \"#utility.yul\":13787:13793   */\n      dup3\n        /* \"#utility.yul\":13780:13784   */\n      0x20\n        /* \"#utility.yul\":13772:13778   */\n      dup7\n        /* \"#utility.yul\":13768:13785   */\n      add\n        /* \"#utility.yul\":13721:13799   */\n      tag_403\n      jump\t// in\n    tag_592:\n        /* \"#utility.yul\":13712:13799   */\n      swap2\n      pop\n        /* \"#utility.yul\":13528:13805   */\n      pop\n        /* \"#utility.yul\":13467:13805   */\n      swap3\n      swap2\n      pop\n      pop\n      jump\t// out\n        /* \"#utility.yul\":13811:14754   */\n    tag_88:\n        /* \"#utility.yul\":13906:13912   */\n      0x00\n        /* \"#utility.yul\":13914:13920   */\n      dup1\n        /* \"#utility.yul\":13922:13928   */\n      0x00\n        /* \"#utility.yul\":13930:13936   */\n      dup1\n        /* \"#utility.yul\":13979:13982   */\n      0x80\n        /* \"#utility.yul\":13967:13976   */\n      dup6\n        /* \"#utility.yul\":13958:13965   */\n      dup8\n        /* \"#utility.yul\":13954:13977   */\n      sub\n        /* \"#utility.yul\":13950:13983   */\n      slt\n        /* \"#utility.yul\":13947:14067   */\n      iszero\n      tag_594\n      jumpi\n        /* \"#utility.yul\":13986:14065   */\n      tag_595\n      tag_367\n      jump\t// in\n    tag_595:\n        /* \"#utility.yul\":13947:14067   */\n    tag_594:\n        /* \"#utility.yul\":14106:14107   */\n      0x00\n        /* \"#utility.yul\":14131:14184   */\n      tag_596\n        /* \"#utility.yul\":14176:14183   */\n      dup8\n        /* \"#utility.yul\":14167:14173   */\n      dup3\n        /* \"#utility.yul\":14156:14165   */\n      dup9\n        /* \"#utility.yul\":14152:14174   */\n      add\n        /* \"#utility.yul\":14131:14184   */\n      tag_386\n      jump\t// in\n    tag_596:\n        /* \"#utility.yul\":14121:14184   */\n      swap5\n      pop\n        /* \"#utility.yul\":14077:14194   */\n      pop\n        /* \"#utility.yul\":14233:14235   */\n      0x20\n        /* \"#utility.yul\":14259:14312   */\n      tag_597\n        /* \"#utility.yul\":14304:14311   */\n      dup8\n        /* \"#utility.yul\":14295:14301   */\n      dup3\n        /* \"#utility.yul\":14284:14293   */\n      dup9\n        /* \"#utility.yul\":14280:14302   */\n      add\n        /* \"#utility.yul\":14259:14312   */\n      tag_386\n      jump\t// in\n    tag_597:\n        /* \"#utility.yul\":14249:14312   */\n      swap4\n      pop\n        /* \"#utility.yul\":14204:14322   */\n      pop\n        /* \"#utility.yul\":14361:14363   */\n      0x40\n        /* \"#utility.yul\":14387:14440   */\n      tag_598\n        /* \"#utility.yul\":14432:14439   */\n      dup8\n        /* \"#utility.yul\":14423:14429   */\n      dup3\n        /* \"#utility.yul\":14412:14421   */\n      dup9\n        /* \"#utility.yul\":14408:14430   */\n      add\n        /* \"#utility.yul\":14387:14440   */\n      tag_381\n      jump\t// in\n    tag_598:\n        /* \"#utility.yul\":14377:14440   */\n      swap3\n      pop\n        /* \"#utility.yul\":14332:14450   */\n      pop\n        /* \"#utility.yul\":14517:14519   */\n      0x60\n        /* \"#utility.yul\":14506:14515   */\n      dup6\n        /* \"#utility.yul\":14502:14520   */\n      add\n        /* \"#utility.yul\":14489:14521   */\n      calldataload\n        /* \"#utility.yul\":14548:14566   */\n      0xffffffffffffffff\n        /* \"#utility.yul\":14540:14546   */\n      dup2\n        /* \"#utility.yul\":14537:14567   */\n      gt\n        /* \"#utility.yul\":14534:14651   */\n      iszero\n      tag_599\n      jumpi\n        /* \"#utility.yul\":14570:14649   */\n      tag_600\n      tag_368\n      jump\t// in\n    tag_600:\n        /* \"#utility.yul\":14534:14651   */\n    tag_599:\n        /* \"#utility.yul\":14675:14737   */\n      tag_601\n        /* \"#utility.yul\":14729:14736   */\n      dup8\n        /* \"#utility.yul\":14720:14726   */\n      dup3\n        /* \"#utility.yul\":14709:14718   */\n      dup9\n        /* \"#utility.yul\":14705:14727   */\n      add\n        /* \"#utility.yul\":14675:14737   */\n      tag_404\n      jump\t// in\n    tag_601:\n        /* \"#utility.yul\":14665:14737   */\n      swap2\n      pop\n        /* \"#utility.yul\":14460:14747   */\n      pop\n        /* \"#utility.yul\":13811:14754   */\n      swap3\n      swap6\n      swap2\n      swap5\n      pop\n      swap3\n      pop\n      jump\t// out\n        /* \"#utility.yul\":14760:15234   */\n    tag_96:\n        /* \"#utility.yul\":14828:14834   */\n      0x00\n        /* \"#utility.yul\":14836:14842   */\n      dup1\n        /* \"#utility.yul\":14885:14887   */\n      0x40\n        /* \"#utility.yul\":14873:14882   */\n      dup4\n        /* \"#utility.yul\":14864:14871   */\n      dup6\n        /* \"#utility.yul\":14860:14883   */\n      sub\n        /* \"#utility.yul\":14856:14888   */\n      slt\n        /* \"#utility.yul\":14853:14972   */\n      iszero\n      tag_603\n      jumpi\n        /* \"#utility.yul\":14891:14970   */\n      tag_604\n      tag_367\n      jump\t// in\n    tag_604:\n        /* \"#utility.yul\":14853:14972   */\n    tag_603:\n        /* \"#utility.yul\":15011:15012   */\n      0x00\n        /* \"#utility.yul\":15036:15089   */\n      tag_605\n        /* \"#utility.yul\":15081:15088   */\n      dup6\n        /* \"#utility.yul\":15072:15078   */\n      dup3\n        /* \"#utility.yul\":15061:15070   */\n      dup7\n        /* \"#utility.yul\":15057:15079   */\n      add\n        /* \"#utility.yul\":15036:15089   */\n      tag_386\n      jump\t// in\n    tag_605:\n        /* \"#utility.yul\":15026:15089   */\n      swap3\n      pop\n        /* \"#utility.yul\":14982:15099   */\n      pop\n        /* \"#utility.yul\":15138:15140   */\n      0x20\n        /* \"#utility.yul\":15164:15217   */\n      tag_606\n        /* \"#utility.yul\":15209:15216   */\n      dup6\n        /* \"#utility.yul\":15200:15206   */\n      dup3\n        /* \"#utility.yul\":15189:15198   */\n      dup7\n        /* \"#utility.yul\":15185:15207   */\n      add\n        /* \"#utility.yul\":15164:15217   */\n      tag_386\n      jump\t// in\n    tag_606:\n        /* \"#utility.yul\":15154:15217   */\n      swap2\n      pop\n        /* \"#utility.yul\":15109:15227   */\n      pop\n        /* \"#utility.yul\":14760:15234   */\n      swap3\n      pop\n      swap3\n      swap1\n      pop\n      jump\t// out\n        /* \"#utility.yul\":15240:15420   */\n    tag_405:\n        /* \"#utility.yul\":15288:15365   */\n      0x4e487b7100000000000000000000000000000000000000000000000000000000\n        /* \"#utility.yul\":15285:15286   */\n      0x00\n        /* \"#utility.yul\":15278:15366   */\n      mstore\n        /* \"#utility.yul\":15385:15389   */\n      0x22\n        /* \"#utility.yul\":15382:15383   */\n      0x04\n        /* \"#utility.yul\":15375:15390   */\n      mstore\n        /* \"#utility.yul\":15409:15413   */\n      0x24\n        /* \"#utility.yul\":15406:15407   */\n      0x00\n        /* \"#utility.yul\":15399:15414   */\n      revert\n        /* \"#utility.yul\":15426:15746   */\n    tag_109:\n        /* \"#utility.yul\":15470:15476   */\n      0x00\n        /* \"#utility.yul\":15507:15508   */\n      0x02\n        /* \"#utility.yul\":15501:15505   */\n      dup3\n        /* \"#utility.yul\":15497:15509   */\n      div\n        /* \"#utility.yul\":15487:15509   */\n      swap1\n      pop\n        /* \"#utility.yul\":15554:15555   */\n      0x01\n        /* \"#utility.yul\":15548:15552   */\n      dup3\n        /* \"#utility.yul\":15544:15556   */\n      and\n        /* \"#utility.yul\":15575:15593   */\n      dup1\n        /* \"#utility.yul\":15565:15646   */\n      tag_609\n      jumpi\n        /* \"#utility.yul\":15631:15635   */\n      0x7f\n        /* \"#utility.yul\":15623:15629   */\n      dup3\n        /* \"#utility.yul\":15619:15636   */\n      and\n        /* \"#utility.yul\":15609:15636   */\n      swap2\n      pop\n        /* \"#utility.yul\":15565:15646   */\n    tag_609:\n        /* \"#utility.yul\":15693:15695   */\n      0x20\n        /* \"#utility.yul\":15685:15691   */\n      dup3\n        /* \"#utility.yul\":15682:15696   */\n      lt\n        /* \"#utility.yul\":15662:15680   */\n      dup2\n        /* \"#utility.yul\":15659:15697   */\n      sub\n        /* \"#utility.yul\":15656:15740   */\n      tag_610\n      jumpi\n        /* \"#utility.yul\":15712:15730   */\n      tag_611\n      tag_405\n      jump\t// in\n    tag_611:\n        /* \"#utility.yul\":15656:15740   */\n    tag_610:\n        /* \"#utility.yul\":15477:15746   */\n      pop\n        /* \"#utility.yul\":15426:15746   */\n      swap2\n      swap1\n      pop\n      jump\t// out\n        /* \"#utility.yul\":15752:16194   */\n    tag_132:\n        /* \"#utility.yul\":15901:15905   */\n      0x00\n        /* \"#utility.yul\":15939:15941   */\n      0x60\n        /* \"#utility.yul\":15928:15937   */\n      dup3\n        /* \"#utility.yul\":15924:15942   */\n      add\n        /* \"#utility.yul\":15916:15942   */\n      swap1\n      pop\n        /* \"#utility.yul\":15952:16023   */\n      tag_613\n        /* \"#utility.yul\":16020:16021   */\n      0x00\n        /* \"#utility.yul\":16009:16018   */\n      dup4\n        /* \"#utility.yul\":16005:16022   */\n      add\n        /* \"#utility.yul\":15996:16002   */\n      dup7\n        /* \"#utility.yul\":15952:16023   */\n      tag_384\n      jump\t// in\n    tag_613:\n        /* \"#utility.yul\":16033:16105   */\n      tag_614\n        /* \"#utility.yul\":16101:16103   */\n      0x20\n        /* \"#utility.yul\":16090:16099   */\n      dup4\n        /* \"#utility.yul\":16086:16104   */\n      add\n        /* \"#utility.yul\":16077:16083   */\n      dup6\n        /* \"#utility.yul\":16033:16105   */\n      tag_387\n      jump\t// in\n    tag_614:\n        /* \"#utility.yul\":16115:16187   */\n      tag_615\n        /* \"#utility.yul\":16183:16185   */\n      0x40\n        /* \"#utility.yul\":16172:16181   */\n      dup4\n        /* \"#utility.yul\":16168:16186   */\n      add\n        /* \"#utility.yul\":16159:16165   */\n      dup5\n        /* \"#utility.yul\":16115:16187   */\n      tag_384\n      jump\t// in\n    tag_615:\n        /* \"#utility.yul\":15752:16194   */\n      swap5\n      swap4\n      pop\n      pop\n      pop\n      pop\n      jump\t// out\n        /* \"#utility.yul\":16200:16430   */\n    tag_406:\n        /* \"#utility.yul\":16340:16374   */\n      0x4170656e6173206f20646f6e6f20706f646520626174616c68617220636f6d20\n        /* \"#utility.yul\":16336:16337   */\n      0x00\n        /* \"#utility.yul\":16328:16334   */\n      dup3\n        /* \"#utility.yul\":16324:16338   */\n      add\n        /* \"#utility.yul\":16317:16375   */\n      mstore\n        /* \"#utility.yul\":16409:16422   */\n      0x65737465204d6563686121000000000000000000000000000000000000000000\n        /* \"#utility.yul\":16404:16406   */\n      0x20\n        /* \"#utility.yul\":16396:16402   */\n      dup3\n        /* \"#utility.yul\":16392:16407   */\n      add\n        /* \"#utility.yul\":16385:16423   */\n      mstore\n        /* \"#utility.yul\":16200:16430   */\n      pop\n      jump\t// out\n        /* \"#utility.yul\":16436:16802   */\n    tag_407:\n        /* \"#utility.yul\":16578:16581   */\n      0x00\n        /* \"#utility.yul\":16599:16666   */\n      tag_618\n        /* \"#utility.yul\":16663:16665   */\n      0x2b\n        /* \"#utility.yul\":16658:16661   */\n      dup4\n        /* \"#utility.yul\":16599:16666   */\n      tag_375\n      jump\t// in\n    tag_618:\n        /* \"#utility.yul\":16592:16666   */\n      swap2\n      pop\n        /* \"#utility.yul\":16675:16768   */\n      tag_619\n        /* \"#utility.yul\":16764:16767   */\n      dup3\n        /* \"#utility.yul\":16675:16768   */\n      tag_406\n      jump\t// in\n    tag_619:\n        /* \"#utility.yul\":16793:16795   */\n      0x40\n        /* \"#utility.yul\":16788:16791   */\n      dup3\n        /* \"#utility.yul\":16784:16796   */\n      add\n        /* \"#utility.yul\":16777:16796   */\n      swap1\n      pop\n        /* \"#utility.yul\":16436:16802   */\n      swap2\n      swap1\n      pop\n      jump\t// out\n        /* \"#utility.yul\":16808:17227   */\n    tag_137:\n        /* \"#utility.yul\":16974:16978   */\n      0x00\n        /* \"#utility.yul\":17012:17014   */\n      0x20\n        /* \"#utility.yul\":17001:17010   */\n      dup3\n        /* \"#utility.yul\":16997:17015   */\n      add\n        /* \"#utility.yul\":16989:17015   */\n      swap1\n      pop\n        /* \"#utility.yul\":17061:17070   */\n      dup2\n        /* \"#utility.yul\":17055:17059   */\n      dup2\n        /* \"#utility.yul\":17051:17071   */\n      sub\n        /* \"#utility.yul\":17047:17048   */\n      0x00\n        /* \"#utility.yul\":17036:17045   */\n      dup4\n        /* \"#utility.yul\":17032:17049   */\n      add\n        /* \"#utility.yul\":17025:17072   */\n      mstore\n        /* \"#utility.yul\":17089:17220   */\n      tag_621\n        /* \"#utility.yul\":17215:17219   */\n      dup2\n        /* \"#utility.yul\":17089:17220   */\n      tag_407\n      jump\t// in\n    tag_621:\n        /* \"#utility.yul\":17081:17220   */\n      swap1\n      pop\n        /* \"#utility.yul\":16808:17227   */\n      swap2\n      swap1\n      pop\n      jump\t// out\n        /* \"#utility.yul\":17233:17460   */\n    tag_408:\n        /* \"#utility.yul\":17373:17407   */\n      0x556d204d65636861206e616f20706f6465206c7574617220636f6e7472612073\n        /* \"#utility.yul\":17369:17370   */\n      0x00\n        /* \"#utility.yul\":17361:17367   */\n      dup3\n        /* \"#utility.yul\":17357:17371   */\n      add\n        /* \"#utility.yul\":17350:17408   */\n      mstore\n        /* \"#utility.yul\":17442:17452   */\n      0x69206d65736d6f21000000000000000000000000000000000000000000000000\n        /* \"#utility.yul\":17437:17439   */\n      0x20\n        /* \"#utility.yul\":17429:17435   */\n      dup3\n        /* \"#utility.yul\":17425:17440   */\n      add\n        /* \"#utility.yul\":17418:17453   */\n      mstore\n        /* \"#utility.yul\":17233:17460   */\n      pop\n      jump\t// out\n        /* \"#utility.yul\":17466:17832   */\n    tag_409:\n        /* \"#utility.yul\":17608:17611   */\n      0x00\n        /* \"#utility.yul\":17629:17696   */\n      tag_624\n        /* \"#utility.yul\":17693:17695   */\n      0x28\n        /* \"#utility.yul\":17688:17691   */\n      dup4\n        /* \"#utility.yul\":17629:17696   */\n      tag_375\n      jump\t// in\n    tag_624:\n        /* \"#utility.yul\":17622:17696   */\n      swap2\n      pop\n        /* \"#utility.yul\":17705:17798   */\n      tag_625\n        /* \"#utility.yul\":17794:17797   */\n      dup3\n        /* \"#utility.yul\":17705:17798   */\n      tag_408\n      jump\t// in\n    tag_625:\n        /* \"#utility.yul\":17823:17825   */\n      0x40\n        /* \"#utility.yul\":17818:17821   */\n      dup3\n        /* \"#utility.yul\":17814:17826   */\n      add\n        /* \"#utility.yul\":17807:17826   */\n      swap1\n      pop\n        /* \"#utility.yul\":17466:17832   */\n      swap2\n      swap1\n      pop\n      jump\t// out\n        /* \"#utility.yul\":17838:18257   */\n    tag_141:\n        /* \"#utility.yul\":18004:18008   */\n      0x00\n        /* \"#utility.yul\":18042:18044   */\n      0x20\n        /* \"#utility.yul\":18031:18040   */\n      dup3\n        /* \"#utility.yul\":18027:18045   */\n      add\n        /* \"#utility.yul\":18019:18045   */\n      swap1\n      pop\n        /* \"#utility.yul\":18091:18100   */\n      dup2\n        /* \"#utility.yul\":18085:18089   */\n      dup2\n        /* \"#utility.yul\":18081:18101   */\n      sub\n        /* \"#utility.yul\":18077:18078   */\n      0x00\n        /* \"#utility.yul\":18066:18075   */\n      dup4\n        /* \"#utility.yul\":18062:18079   */\n      add\n        /* \"#utility.yul\":18055:18102   */\n      mstore\n        /* \"#utility.yul\":18119:18250   */\n      tag_627\n        /* \"#utility.yul\":18245:18249   */\n      dup2\n        /* \"#utility.yul\":18119:18250   */\n      tag_409\n      jump\t// in\n    tag_627:\n        /* \"#utility.yul\":18111:18250   */\n      swap1\n      pop\n        /* \"#utility.yul\":17838:18257   */\n      swap2\n      swap1\n      pop\n      jump\t// out\n        /* \"#utility.yul\":18263:18443   */\n    tag_144:\n        /* \"#utility.yul\":18311:18388   */\n      0x4e487b7100000000000000000000000000000000000000000000000000000000\n        /* \"#utility.yul\":18308:18309   */\n      0x00\n        /* \"#utility.yul\":18301:18389   */\n      mstore\n        /* \"#utility.yul\":18408:18412   */\n      0x32\n        /* \"#utility.yul\":18405:18406   */\n      0x04\n        /* \"#utility.yul\":18398:18413   */\n      mstore\n        /* \"#utility.yul\":18432:18436   */\n      0x24\n        /* \"#utility.yul\":18429:18430   */\n      0x00\n        /* \"#utility.yul\":18422:18437   */\n      revert\n        /* \"#utility.yul\":18449:18629   */\n    tag_410:\n        /* \"#utility.yul\":18497:18574   */\n      0x4e487b7100000000000000000000000000000000000000000000000000000000\n        /* \"#utility.yul\":18494:18495   */\n      0x00\n        /* \"#utility.yul\":18487:18575   */\n      mstore\n        /* \"#utility.yul\":18594:18598   */\n      0x11\n        /* \"#utility.yul\":18591:18592   */\n      0x04\n        /* \"#utility.yul\":18584:18599   */\n      mstore\n        /* \"#utility.yul\":18618:18622   */\n      0x24\n        /* \"#utility.yul\":18615:18616   */\n      0x00\n        /* \"#utility.yul\":18608:18623   */\n      revert\n        /* \"#utility.yul\":18635:18823   */\n    tag_151:\n        /* \"#utility.yul\":18673:18676   */\n      0x00\n        /* \"#utility.yul\":18692:18710   */\n      tag_631\n        /* \"#utility.yul\":18708:18709   */\n      dup3\n        /* \"#utility.yul\":18692:18710   */\n      tag_388\n      jump\t// in\n    tag_631:\n        /* \"#utility.yul\":18687:18710   */\n      swap2\n      pop\n        /* \"#utility.yul\":18724:18742   */\n      tag_632\n        /* \"#utility.yul\":18740:18741   */\n      dup4\n        /* \"#utility.yul\":18724:18742   */\n      tag_388\n      jump\t// in\n    tag_632:\n        /* \"#utility.yul\":18719:18742   */\n      swap3\n      pop\n        /* \"#utility.yul\":18765:18766   */\n      dup3\n        /* \"#utility.yul\":18762:18763   */\n      dup3\n        /* \"#utility.yul\":18758:18767   */\n      add\n        /* \"#utility.yul\":18751:18767   */\n      swap1\n      pop\n        /* \"#utility.yul\":18788:18792   */\n      0xff\n        /* \"#utility.yul\":18783:18786   */\n      dup2\n        /* \"#utility.yul\":18780:18793   */\n      gt\n        /* \"#utility.yul\":18777:18816   */\n      iszero\n      tag_633\n      jumpi\n        /* \"#utility.yul\":18796:18814   */\n      tag_634\n      tag_410\n      jump\t// in\n    tag_634:\n        /* \"#utility.yul\":18777:18816   */\n    tag_633:\n        /* \"#utility.yul\":18635:18823   */\n      swap3\n      swap2\n      pop\n      pop\n      jump\t// out\n        /* \"#utility.yul\":18829:19023   */\n    tag_167:\n        /* \"#utility.yul\":18869:18873   */\n      0x00\n        /* \"#utility.yul\":18889:18909   */\n      tag_636\n        /* \"#utility.yul\":18907:18908   */\n      dup3\n        /* \"#utility.yul\":18889:18909   */\n      tag_379\n      jump\t// in\n    tag_636:\n        /* \"#utility.yul\":18884:18909   */\n      swap2\n      pop\n        /* \"#utility.yul\":18923:18943   */\n      tag_637\n        /* \"#utility.yul\":18941:18942   */\n      dup4\n        /* \"#utility.yul\":18923:18943   */\n      tag_379\n      jump\t// in\n    tag_637:\n        /* \"#utility.yul\":18918:18943   */\n      swap3\n      pop\n        /* \"#utility.yul\":18967:18968   */\n      dup3\n        /* \"#utility.yul\":18964:18965   */\n      dup3\n        /* \"#utility.yul\":18960:18969   */\n      sub\n        /* \"#utility.yul\":18952:18969   */\n      swap1\n      pop\n        /* \"#utility.yul\":18991:18992   */\n      dup2\n        /* \"#utility.yul\":18985:18989   */\n      dup2\n        /* \"#utility.yul\":18982:18993   */\n      gt\n        /* \"#utility.yul\":18979:19016   */\n      iszero\n      tag_638\n      jumpi\n        /* \"#utility.yul\":18996:19014   */\n      tag_639\n      tag_410\n      jump\t// in\n    tag_639:\n        /* \"#utility.yul\":18979:19016   */\n    tag_638:\n        /* \"#utility.yul\":18829:19023   */\n      swap3\n      swap2\n      pop\n      pop\n      jump\t// out\n        /* \"#utility.yul\":19029:19220   */\n    tag_172:\n        /* \"#utility.yul\":19069:19072   */\n      0x00\n        /* \"#utility.yul\":19088:19108   */\n      tag_641\n        /* \"#utility.yul\":19106:19107   */\n      dup3\n        /* \"#utility.yul\":19088:19108   */\n      tag_379\n      jump\t// in\n    tag_641:\n        /* \"#utility.yul\":19083:19108   */\n      swap2\n      pop\n        /* \"#utility.yul\":19122:19142   */\n      tag_642\n        /* \"#utility.yul\":19140:19141   */\n      dup4\n        /* \"#utility.yul\":19122:19142   */\n      tag_379\n      jump\t// in\n    tag_642:\n        /* \"#utility.yul\":19117:19142   */\n      swap3\n      pop\n        /* \"#utility.yul\":19165:19166   */\n      dup3\n        /* \"#utility.yul\":19162:19163   */\n      dup3\n        /* \"#utility.yul\":19158:19167   */\n      add\n        /* \"#utility.yul\":19151:19167   */\n      swap1\n      pop\n        /* \"#utility.yul\":19186:19189   */\n      dup1\n        /* \"#utility.yul\":19183:19184   */\n      dup3\n        /* \"#utility.yul\":19180:19190   */\n      gt\n        /* \"#utility.yul\":19177:19213   */\n      iszero\n      tag_643\n      jumpi\n        /* \"#utility.yul\":19193:19211   */\n      tag_644\n      tag_410\n      jump\t// in\n    tag_644:\n        /* \"#utility.yul\":19177:19213   */\n    tag_643:\n        /* \"#utility.yul\":19029:19220   */\n      swap3\n      swap2\n      pop\n      pop\n      jump\t// out\n        /* \"#utility.yul\":19226:19459   */\n    tag_411:\n        /* \"#utility.yul\":19366:19400   */\n      0x4170656e6173206f20646f6e6f20646f206a6f676f20706f6465206372696172\n        /* \"#utility.yul\":19362:19363   */\n      0x00\n        /* \"#utility.yul\":19354:19360   */\n      dup3\n        /* \"#utility.yul\":19350:19364   */\n      add\n        /* \"#utility.yul\":19343:19401   */\n      mstore\n        /* \"#utility.yul\":19435:19451   */\n      0x206e6f766f73204d656368617321000000000000000000000000000000000000\n        /* \"#utility.yul\":19430:19432   */\n      0x20\n        /* \"#utility.yul\":19422:19428   */\n      dup3\n        /* \"#utility.yul\":19418:19433   */\n      add\n        /* \"#utility.yul\":19411:19452   */\n      mstore\n        /* \"#utility.yul\":19226:19459   */\n      pop\n      jump\t// out\n        /* \"#utility.yul\":19465:19831   */\n    tag_412:\n        /* \"#utility.yul\":19607:19610   */\n      0x00\n        /* \"#utility.yul\":19628:19695   */\n      tag_647\n        /* \"#utility.yul\":19692:19694   */\n      0x2e\n        /* \"#utility.yul\":19687:19690   */\n      dup4\n        /* \"#utility.yul\":19628:19695   */\n      tag_375\n      jump\t// in\n    tag_647:\n        /* \"#utility.yul\":19621:19695   */\n      swap2\n      pop\n        /* \"#utility.yul\":19704:19797   */\n      tag_648\n        /* \"#utility.yul\":19793:19796   */\n      dup3\n        /* \"#utility.yul\":19704:19797   */\n      tag_411\n      jump\t// in\n    tag_648:\n        /* \"#utility.yul\":19822:19824   */\n      0x40\n        /* \"#utility.yul\":19817:19820   */\n      dup3\n        /* \"#utility.yul\":19813:19825   */\n      add\n        /* \"#utility.yul\":19806:19825   */\n      swap1\n      pop\n        /* \"#utility.yul\":19465:19831   */\n      swap2\n      swap1\n      pop\n      jump\t// out\n        /* \"#utility.yul\":19837:20256   */\n    tag_210:\n        /* \"#utility.yul\":20003:20007   */\n      0x00\n        /* \"#utility.yul\":20041:20043   */\n      0x20\n        /* \"#utility.yul\":20030:20039   */\n      dup3\n        /* \"#utility.yul\":20026:20044   */\n      add\n        /* \"#utility.yul\":20018:20044   */\n      swap1\n      pop\n        /* \"#utility.yul\":20090:20099   */\n      dup2\n        /* \"#utility.yul\":20084:20088   */\n      dup2\n        /* \"#utility.yul\":20080:20100   */\n      sub\n        /* \"#utility.yul\":20076:20077   */\n      0x00\n        /* \"#utility.yul\":20065:20074   */\n      dup4\n        /* \"#utility.yul\":20061:20078   */\n      add\n        /* \"#utility.yul\":20054:20101   */\n      mstore\n        /* \"#utility.yul\":20118:20249   */\n      tag_650\n        /* \"#utility.yul\":20244:20248   */\n      dup2\n        /* \"#utility.yul\":20118:20249   */\n      tag_412\n      jump\t// in\n    tag_650:\n        /* \"#utility.yul\":20110:20249   */\n      swap1\n      pop\n        /* \"#utility.yul\":19837:20256   */\n      swap2\n      swap1\n      pop\n      jump\t// out\n        /* \"#utility.yul\":20262:20441   */\n    tag_413:\n        /* \"#utility.yul\":20402:20433   */\n      0x4120736f6d6120646f7320706f6e746f73206465766520736572203230000000\n        /* \"#utility.yul\":20398:20399   */\n      0x00\n        /* \"#utility.yul\":20390:20396   */\n      dup3\n        /* \"#utility.yul\":20386:20400   */\n      add\n        /* \"#utility.yul\":20379:20434   */\n      mstore\n        /* \"#utility.yul\":20262:20441   */\n      pop\n      jump\t// out\n        /* \"#utility.yul\":20447:20813   */\n    tag_414:\n        /* \"#utility.yul\":20589:20592   */\n      0x00\n        /* \"#utility.yul\":20610:20677   */\n      tag_653\n        /* \"#utility.yul\":20674:20676   */\n      0x1d\n        /* \"#utility.yul\":20669:20672   */\n      dup4\n        /* \"#utility.yul\":20610:20677   */\n      tag_375\n      jump\t// in\n    tag_653:\n        /* \"#utility.yul\":20603:20677   */\n      swap2\n      pop\n        /* \"#utility.yul\":20686:20779   */\n      tag_654\n        /* \"#utility.yul\":20775:20778   */\n      dup3\n        /* \"#utility.yul\":20686:20779   */\n      tag_413\n      jump\t// in\n    tag_654:\n        /* \"#utility.yul\":20804:20806   */\n      0x20\n        /* \"#utility.yul\":20799:20802   */\n      dup3\n        /* \"#utility.yul\":20795:20807   */\n      add\n        /* \"#utility.yul\":20788:20807   */\n      swap1\n      pop\n        /* \"#utility.yul\":20447:20813   */\n      swap2\n      swap1\n      pop\n      jump\t// out\n        /* \"#utility.yul\":20819:21238   */\n    tag_215:\n        /* \"#utility.yul\":20985:20989   */\n      0x00\n        /* \"#utility.yul\":21023:21025   */\n      0x20\n        /* \"#utility.yul\":21012:21021   */\n      dup3\n        /* \"#utility.yul\":21008:21026   */\n      add\n        /* \"#utility.yul\":21000:21026   */\n      swap1\n      pop\n        /* \"#utility.yul\":21072:21081   */\n      dup2\n        /* \"#utility.yul\":21066:21070   */\n      dup2\n        /* \"#utility.yul\":21062:21082   */\n      sub\n        /* \"#utility.yul\":21058:21059   */\n      0x00\n        /* \"#utility.yul\":21047:21056   */\n      dup4\n        /* \"#utility.yul\":21043:21060   */\n      add\n        /* \"#utility.yul\":21036:21083   */\n      mstore\n        /* \"#utility.yul\":21100:21231   */\n      tag_656\n        /* \"#utility.yul\":21226:21230   */\n      dup2\n        /* \"#utility.yul\":21100:21231   */\n      tag_414\n      jump\t// in\n    tag_656:\n        /* \"#utility.yul\":21092:21231   */\n      swap1\n      pop\n        /* \"#utility.yul\":20819:21238   */\n      swap2\n      swap1\n      pop\n      jump\t// out\n        /* \"#utility.yul\":21244:21385   */\n    tag_415:\n        /* \"#utility.yul\":21293:21297   */\n      0x00\n        /* \"#utility.yul\":21316:21319   */\n      dup2\n        /* \"#utility.yul\":21308:21319   */\n      swap1\n      pop\n        /* \"#utility.yul\":21339:21342   */\n      dup2\n        /* \"#utility.yul\":21336:21337   */\n      0x00\n        /* \"#utility.yul\":21329:21343   */\n      mstore\n        /* \"#utility.yul\":21373:21377   */\n      0x20\n        /* \"#utility.yul\":21370:21371   */\n      0x00\n        /* \"#utility.yul\":21360:21378   */\n      keccak256\n        /* \"#utility.yul\":21352:21378   */\n      swap1\n      pop\n        /* \"#utility.yul\":21244:21385   */\n      swap2\n      swap1\n      pop\n      jump\t// out\n        /* \"#utility.yul\":21391:21484   */\n    tag_416:\n        /* \"#utility.yul\":21428:21434   */\n      0x00\n        /* \"#utility.yul\":21475:21477   */\n      0x20\n        /* \"#utility.yul\":21470:21472   */\n      0x1f\n        /* \"#utility.yul\":21463:21468   */\n      dup4\n        /* \"#utility.yul\":21459:21473   */\n      add\n        /* \"#utility.yul\":21455:21478   */\n      div\n        /* \"#utility.yul\":21445:21478   */\n      swap1\n      pop\n        /* \"#utility.yul\":21391:21484   */\n      swap2\n      swap1\n      pop\n      jump\t// out\n        /* \"#utility.yul\":21490:21597   */\n    tag_417:\n        /* \"#utility.yul\":21534:21542   */\n      0x00\n        /* \"#utility.yul\":21584:21589   */\n      dup3\n        /* \"#utility.yul\":21578:21582   */\n      dup3\n        /* \"#utility.yul\":21574:21590   */\n      shl\n        /* \"#utility.yul\":21553:21590   */\n      swap1\n      pop\n        /* \"#utility.yul\":21490:21597   */\n      swap3\n      swap2\n      pop\n      pop\n      jump\t// out\n        /* \"#utility.yul\":21603:21996   */\n    tag_418:\n        /* \"#utility.yul\":21672:21678   */\n      0x00\n        /* \"#utility.yul\":21722:21723   */\n      0x08\n        /* \"#utility.yul\":21710:21720   */\n      dup4\n        /* \"#utility.yul\":21706:21724   */\n      mul\n        /* \"#utility.yul\":21745:21842   */\n      tag_661\n        /* \"#utility.yul\":21775:21841   */\n      0xffffffffffffffffffffffffffffffffffffffffffffffffffffffffffffffff\n        /* \"#utility.yul\":21764:21773   */\n      dup3\n        /* \"#utility.yul\":21745:21842   */\n      tag_417\n      jump\t// in\n    tag_661:\n        /* \"#utility.yul\":21863:21902   */\n      tag_662\n        /* \"#utility.yul\":21893:21901   */\n      dup7\n        /* \"#utility.yul\":21882:21891   */\n      dup4\n        /* \"#utility.yul\":21863:21902   */\n      tag_417\n      jump\t// in\n    tag_662:\n        /* \"#utility.yul\":21851:21902   */\n      swap6\n      pop\n        /* \"#utility.yul\":21935:21939   */\n      dup1\n        /* \"#utility.yul\":21931:21940   */\n      not\n        /* \"#utility.yul\":21924:21929   */\n      dup5\n        /* \"#utility.yul\":21920:21941   */\n      and\n        /* \"#utility.yul\":21911:21941   */\n      swap4\n      pop\n        /* \"#utility.yul\":21984:21988   */\n      dup1\n        /* \"#utility.yul\":21974:21982   */\n      dup7\n        /* \"#utility.yul\":21970:21989   */\n      and\n        /* \"#utility.yul\":21963:21968   */\n      dup5\n        /* \"#utility.yul\":21960:21990   */\n      or\n        /* \"#utility.yul\":21950:21990   */\n      swap3\n      pop\n        /* \"#utility.yul\":21679:21996   */\n      pop\n      pop\n        /* \"#utility.yul\":21603:21996   */\n      swap4\n      swap3\n      pop\n      pop\n      pop\n      jump\t// out\n        /* \"#utility.yul\":22002:22062   */\n    tag_419:\n        /* \"#utility.yul\":22030:22033   */\n      0x00\n        /* \"#utility.yul\":22051:22056   */\n      dup2\n        /* \"#utility.yul\":22044:22056   */\n      swap1\n      pop\n        /* \"#utility.yul\":22002:22062   */\n      swap2\n      swap1\n      pop\n      jump\t// out\n        /* \"#utility.yul\":22068:22210   */\n    tag_420:\n        /* \"#utility.yul\":22118:22127   */\n      0x00\n        /* \"#utility.yul\":22151:22204   */\n      tag_665\n        /* \"#utility.yul\":22169:22203   */\n      tag_666\n        /* \"#utility.yul\":22178:22202   */\n      tag_667\n        /* \"#utility.yul\":22196:22201   */\n      dup5\n        /* \"#utility.yul\":22178:22202   */\n      tag_379\n      jump\t// in\n    tag_667:\n        /* \"#utility.yul\":22169:22203   */\n      tag_419\n      jump\t// in\n    tag_666:\n        /* \"#utility.yul\":22151:22204   */\n      tag_379\n      jump\t// in\n    tag_665:\n        /* \"#utility.yul\":22138:22204   */\n      swap1\n      pop\n        /* \"#utility.yul\":22068:22210   */\n      swap2\n      swap1\n      pop\n      jump\t// out\n        /* \"#utility.yul\":22216:22291   */\n    tag_421:\n        /* \"#utility.yul\":22259:22262   */\n      0x00\n        /* \"#utility.yul\":22280:22285   */\n      dup2\n        /* \"#utility.yul\":22273:22285   */\n      swap1\n      pop\n        /* \"#utility.yul\":22216:22291   */\n      swap2\n      swap1\n      pop\n      jump\t// out\n        /* \"#utility.yul\":22297:22566   */\n    tag_422:\n        /* \"#utility.yul\":22407:22446   */\n      tag_670\n        /* \"#utility.yul\":22438:22445   */\n      dup4\n        /* \"#utility.yul\":22407:22446   */\n      tag_420\n      jump\t// in\n    tag_670:\n        /* \"#utility.yul\":22468:22559   */\n      tag_671\n        /* \"#utility.yul\":22517:22558   */\n      tag_672\n        /* \"#utility.yul\":22541:22557   */\n      dup3\n        /* \"#utility.yul\":22517:22558   */\n      tag_421\n      jump\t// in\n    tag_672:\n        /* \"#utility.yul\":22509:22515   */\n      dup5\n        /* \"#utility.yul\":22502:22506   */\n      dup5\n        /* \"#utility.yul\":22496:22507   */\n      sload\n        /* \"#utility.yul\":22468:22559   */\n      tag_418\n      jump\t// in\n    tag_671:\n        /* \"#utility.yul\":22462:22466   */\n      dup3\n        /* \"#utility.yul\":22455:22560   */\n      sstore\n        /* \"#utility.yul\":22373:22566   */\n      pop\n        /* \"#utility.yul\":22297:22566   */\n      pop\n      pop\n      pop\n      jump\t// out\n        /* \"#utility.yul\":22572:22645   */\n    tag_423:\n        /* \"#utility.yul\":22617:22620   */\n      0x00\n        /* \"#utility.yul\":22572:22645   */\n      swap1\n      jump\t// out\n        /* \"#utility.yul\":22651:22840   */\n    tag_424:\n        /* \"#utility.yul\":22728:22760   */\n      tag_675\n      tag_423\n      jump\t// in\n    tag_675:\n        /* \"#utility.yul\":22769:22834   */\n      tag_676\n        /* \"#utility.yul\":22827:22833   */\n      dup2\n        /* \"#utility.yul\":22819:22825   */\n      dup5\n        /* \"#utility.yul\":22813:22817   */\n      dup5\n        /* \"#utility.yul\":22769:22834   */\n      tag_422\n      jump\t// in\n    tag_676:\n        /* \"#utility.yul\":22704:22840   */\n      pop\n        /* \"#utility.yul\":22651:22840   */\n      pop\n      pop\n      jump\t// out\n        /* \"#utility.yul\":22846:23032   */\n    tag_425:\n        /* \"#utility.yul\":22906:23026   */\n    tag_678:\n        /* \"#utility.yul\":22923:22926   */\n      dup2\n        /* \"#utility.yul\":22916:22921   */\n      dup2\n        /* \"#utility.yul\":22913:22927   */\n      lt\n        /* \"#utility.yul\":22906:23026   */\n      iszero\n      tag_680\n      jumpi\n        /* \"#utility.yul\":22977:23016   */\n      tag_681\n        /* \"#utility.yul\":23014:23015   */\n      0x00\n        /* \"#utility.yul\":23007:23012   */\n      dup3\n        /* \"#utility.yul\":22977:23016   */\n      tag_424\n      jump\t// in\n    tag_681:\n        /* \"#utility.yul\":22950:22951   */\n      0x01\n        /* \"#utility.yul\":22943:22948   */\n      dup2\n        /* \"#utility.yul\":22939:22952   */\n      add\n        /* \"#utility.yul\":22930:22952   */\n      swap1\n      pop\n        /* \"#utility.yul\":22906:23026   */\n      jump(tag_678)\n    tag_680:\n        /* \"#utility.yul\":22846:23032   */\n      pop\n      pop\n      jump\t// out\n        /* \"#utility.yul\":23038:23581   */\n    tag_426:\n        /* \"#utility.yul\":23139:23141   */\n      0x1f\n        /* \"#utility.yul\":23134:23137   */\n      dup3\n        /* \"#utility.yul\":23131:23142   */\n      gt\n        /* \"#utility.yul\":23128:23574   */\n      iszero\n      tag_683\n      jumpi\n        /* \"#utility.yul\":23173:23211   */\n      tag_684\n        /* \"#utility.yul\":23205:23210   */\n      dup2\n        /* \"#utility.yul\":23173:23211   */\n      tag_415\n      jump\t// in\n    tag_684:\n        /* \"#utility.yul\":23257:23286   */\n      tag_685\n        /* \"#utility.yul\":23275:23285   */\n      dup5\n        /* \"#utility.yul\":23257:23286   */\n      tag_416\n      jump\t// in\n    tag_685:\n        /* \"#utility.yul\":23247:23255   */\n      dup2\n        /* \"#utility.yul\":23243:23287   */\n      add\n        /* \"#utility.yul\":23440:23442   */\n      0x20\n        /* \"#utility.yul\":23428:23438   */\n      dup6\n        /* \"#utility.yul\":23425:23443   */\n      lt\n        /* \"#utility.yul\":23422:23471   */\n      iszero\n      tag_686\n      jumpi\n        /* \"#utility.yul\":23461:23469   */\n      dup2\n        /* \"#utility.yul\":23446:23469   */\n      swap1\n      pop\n        /* \"#utility.yul\":23422:23471   */\n    tag_686:\n        /* \"#utility.yul\":23484:23564   */\n      tag_687\n        /* \"#utility.yul\":23540:23562   */\n      tag_688\n        /* \"#utility.yul\":23558:23561   */\n      dup6\n        /* \"#utility.yul\":23540:23562   */\n      tag_416\n      jump\t// in\n    tag_688:\n        /* \"#utility.yul\":23530:23538   */\n      dup4\n        /* \"#utility.yul\":23526:23563   */\n      add\n        /* \"#utility.yul\":23513:23524   */\n      dup3\n        /* \"#utility.yul\":23484:23564   */\n      tag_425\n      jump\t// in\n    tag_687:\n        /* \"#utility.yul\":23143:23574   */\n      pop\n      pop\n        /* \"#utility.yul\":23128:23574   */\n    tag_683:\n        /* \"#utility.yul\":23038:23581   */\n      pop\n      pop\n      pop\n      jump\t// out\n        /* \"#utility.yul\":23587:23704   */\n    tag_427:\n        /* \"#utility.yul\":23641:23649   */\n      0x00\n        /* \"#utility.yul\":23691:23696   */\n      dup3\n        /* \"#utility.yul\":23685:23689   */\n      dup3\n        /* \"#utility.yul\":23681:23697   */\n      shr\n        /* \"#utility.yul\":23660:23697   */\n      swap1\n      pop\n        /* \"#utility.yul\":23587:23704   */\n      swap3\n      swap2\n      pop\n      pop\n      jump\t// out\n        /* \"#utility.yul\":23710:23879   */\n    tag_428:\n        /* \"#utility.yul\":23754:23760   */\n      0x00\n        /* \"#utility.yul\":23787:23838   */\n      tag_691\n        /* \"#utility.yul\":23835:23836   */\n      0x00\n        /* \"#utility.yul\":23831:23837   */\n      not\n        /* \"#utility.yul\":23823:23828   */\n      dup5\n        /* \"#utility.yul\":23820:23821   */\n      0x08\n        /* \"#utility.yul\":23816:23829   */\n      mul\n        /* \"#utility.yul\":23787:23838   */\n      tag_427\n      jump\t// in\n    tag_691:\n        /* \"#utility.yul\":23783:23839   */\n      not\n        /* \"#utility.yul\":23868:23872   */\n      dup1\n        /* \"#utility.yul\":23862:23866   */\n      dup4\n        /* \"#utility.yul\":23858:23873   */\n      and\n        /* \"#utility.yul\":23848:23873   */\n      swap2\n      pop\n        /* \"#utility.yul\":23761:23879   */\n      pop\n        /* \"#utility.yul\":23710:23879   */\n      swap3\n      swap2\n      pop\n      pop\n      jump\t// out\n        /* \"#utility.yul\":23884:24179   */\n    tag_429:\n        /* \"#utility.yul\":23960:23964   */\n      0x00\n        /* \"#utility.yul\":24106:24135   */\n      tag_693\n        /* \"#utility.yul\":24131:24134   */\n      dup4\n        /* \"#utility.yul\":24125:24129   */\n      dup4\n        /* \"#utility.yul\":24106:24135   */\n      tag_428\n      jump\t// in\n    tag_693:\n        /* \"#utility.yul\":24098:24135   */\n      swap2\n      pop\n        /* \"#utility.yul\":24168:24171   */\n      dup3\n        /* \"#utility.yul\":24165:24166   */\n      0x02\n        /* \"#utility.yul\":24161:24172   */\n      mul\n        /* \"#utility.yul\":24155:24159   */\n      dup3\n        /* \"#utility.yul\":24152:24173   */\n      or\n        /* \"#utility.yul\":24144:24173   */\n      swap1\n      pop\n        /* \"#utility.yul\":23884:24179   */\n      swap3\n      swap2\n      pop\n      pop\n      jump\t// out\n        /* \"#utility.yul\":24184:25579   */\n    tag_218:\n        /* \"#utility.yul\":24301:24338   */\n      tag_695\n        /* \"#utility.yul\":24334:24337   */\n      dup3\n        /* \"#utility.yul\":24301:24338   */\n      tag_374\n      jump\t// in\n    tag_695:\n        /* \"#utility.yul\":24403:24421   */\n      0xffffffffffffffff\n        /* \"#utility.yul\":24395:24401   */\n      dup2\n        /* \"#utility.yul\":24392:24422   */\n      gt\n        /* \"#utility.yul\":24389:24445   */\n      iszero\n      tag_696\n      jumpi\n        /* \"#utility.yul\":24425:24443   */\n      tag_697\n      tag_302\n      jump\t// in\n    tag_697:\n        /* \"#utility.yul\":24389:24445   */\n    tag_696:\n        /* \"#utility.yul\":24469:24507   */\n      tag_698\n        /* \"#utility.yul\":24501:24505   */\n      dup3\n        /* \"#utility.yul\":24495:24506   */\n      sload\n        /* \"#utility.yul\":24469:24507   */\n      tag_109\n      jump\t// in\n    tag_698:\n        /* \"#utility.yul\":24554:24621   */\n      tag_699\n        /* \"#utility.yul\":24614:24620   */\n      dup3\n        /* \"#utility.yul\":24606:24612   */\n      dup3\n        /* \"#utility.yul\":24600:24604   */\n      dup6\n        /* \"#utility.yul\":24554:24621   */\n      tag_426\n      jump\t// in\n    tag_699:\n        /* \"#utility.yul\":24648:24649   */\n      0x00\n        /* \"#utility.yul\":24672:24676   */\n      0x20\n        /* \"#utility.yul\":24659:24676   */\n      swap1\n      pop\n        /* \"#utility.yul\":24704:24706   */\n      0x1f\n        /* \"#utility.yul\":24696:24702   */\n      dup4\n        /* \"#utility.yul\":24693:24707   */\n      gt\n        /* \"#utility.yul\":24721:24722   */\n      0x01\n        /* \"#utility.yul\":24716:25334   */\n      dup2\n      eq\n      tag_701\n      jumpi\n        /* \"#utility.yul\":25378:25379   */\n      0x00\n        /* \"#utility.yul\":25395:25401   */\n      dup5\n        /* \"#utility.yul\":25392:25469   */\n      iszero\n      tag_702\n      jumpi\n        /* \"#utility.yul\":25444:25453   */\n      dup3\n        /* \"#utility.yul\":25439:25442   */\n      dup8\n        /* \"#utility.yul\":25435:25454   */\n      add\n        /* \"#utility.yul\":25429:25455   */\n      mload\n        /* \"#utility.yul\":25420:25455   */\n      swap1\n      pop\n        /* \"#utility.yul\":25392:25469   */\n    tag_702:\n        /* \"#utility.yul\":25495:25562   */\n      tag_703\n        /* \"#utility.yul\":25555:25561   */\n      dup6\n        /* \"#utility.yul\":25548:25553   */\n      dup3\n        /* \"#utility.yul\":25495:25562   */\n      tag_429\n      jump\t// in\n    tag_703:\n        /* \"#utility.yul\":25489:25493   */\n      dup7\n        /* \"#utility.yul\":25482:25563   */\n      sstore\n        /* \"#utility.yul\":25351:25573   */\n      pop\n        /* \"#utility.yul\":24686:25573   */\n      jump(tag_700)\n        /* \"#utility.yul\":24716:25334   */\n    tag_701:\n        /* \"#utility.yul\":24768:24772   */\n      0x1f\n        /* \"#utility.yul\":24764:24773   */\n      not\n        /* \"#utility.yul\":24756:24762   */\n      dup5\n        /* \"#utility.yul\":24752:24774   */\n      and\n        /* \"#utility.yul\":24802:24839   */\n      tag_704\n        /* \"#utility.yul\":24834:24838   */\n      dup7\n        /* \"#utility.yul\":24802:24839   */\n      tag_415\n      jump\t// in\n    tag_704:\n        /* \"#utility.yul\":24861:24862   */\n      0x00\n        /* \"#utility.yul\":24875:25083   */\n    tag_705:\n        /* \"#utility.yul\":24889:24896   */\n      dup3\n        /* \"#utility.yul\":24886:24887   */\n      dup2\n        /* \"#utility.yul\":24883:24897   */\n      lt\n        /* \"#utility.yul\":24875:25083   */\n      iszero\n      tag_707\n      jumpi\n        /* \"#utility.yul\":24968:24977   */\n      dup5\n        /* \"#utility.yul\":24963:24966   */\n      dup10\n        /* \"#utility.yul\":24959:24978   */\n      add\n        /* \"#utility.yul\":24953:24979   */\n      mload\n        /* \"#utility.yul\":24945:24951   */\n      dup3\n        /* \"#utility.yul\":24938:24980   */\n      sstore\n        /* \"#utility.yul\":25019:25020   */\n      0x01\n        /* \"#utility.yul\":25011:25017   */\n      dup3\n        /* \"#utility.yul\":25007:25021   */\n      add\n        /* \"#utility.yul\":24997:25021   */\n      swap2\n      pop\n        /* \"#utility.yul\":25066:25068   */\n      0x20\n        /* \"#utility.yul\":25055:25064   */\n      dup6\n        /* \"#utility.yul\":25051:25069   */\n      add\n        /* \"#utility.yul\":25038:25069   */\n      swap5\n      pop\n        /* \"#utility.yul\":24912:24916   */\n      0x20\n        /* \"#utility.yul\":24909:24910   */\n      dup2\n        /* \"#utility.yul\":24905:24917   */\n      add\n        /* \"#utility.yul\":24900:24917   */\n      swap1\n      pop\n        /* \"#utility.yul\":24875:25083   */\n      jump(tag_705)\n    tag_707:\n        /* \"#utility.yul\":25111:25117   */\n      dup7\n        /* \"#utility.yul\":25102:25109   */\n      dup4\n        /* \"#utility.yul\":25099:25118   */\n      lt\n        /* \"#utility.yul\":25096:25275   */\n      iszero\n      tag_708\n      jumpi\n        /* \"#utility.yul\":25169:25178   */\n      dup5\n        /* \"#utility.yul\":25164:25167   */\n      dup10\n        /* \"#utility.yul\":25160:25179   */\n      add\n        /* \"#utility.yul\":25154:25180   */\n      mload\n        /* \"#utility.yul\":25212:25260   */\n      tag_709\n        /* \"#utility.yul\":25254:25258   */\n      0x1f\n        /* \"#utility.yul\":25246:25252   */\n      dup10\n        /* \"#utility.yul\":25242:25259   */\n      and\n        /* \"#utility.yul\":25231:25240   */\n      dup3\n        /* \"#utility.yul\":25212:25260   */\n      tag_428\n      jump\t// in\n    tag_709:\n        /* \"#utility.yul\":25204:25210   */\n      dup4\n        /* \"#utility.yul\":25197:25261   */\n      sstore\n        /* \"#utility.yul\":25119:25275   */\n      pop\n        /* \"#utility.yul\":25096:25275   */\n    tag_708:\n        /* \"#utility.yul\":25321:25322   */\n      0x01\n        /* \"#utility.yul\":25317:25318   */\n      0x02\n        /* \"#utility.yul\":25309:25315   */\n      dup9\n        /* \"#utility.yul\":25305:25319   */\n      mul\n        /* \"#utility.yul\":25301:25323   */\n      add\n        /* \"#utility.yul\":25295:25299   */\n      dup9\n        /* \"#utility.yul\":25288:25324   */\n      sstore\n        /* \"#utility.yul\":24723:25334   */\n      pop\n      pop\n      pop\n        /* \"#utility.yul\":24686:25573   */\n    tag_700:\n      pop\n        /* \"#utility.yul\":24276:25579   */\n      pop\n      pop\n      pop\n        /* \"#utility.yul\":24184:25579   */\n      pop\n      pop\n      jump\t// out\n        /* \"#utility.yul\":25585:25733   */\n    tag_430:\n        /* \"#utility.yul\":25687:25698   */\n      0x00\n        /* \"#utility.yul\":25724:25727   */\n      dup2\n        /* \"#utility.yul\":25709:25727   */\n      swap1\n      pop\n        /* \"#utility.yul\":25585:25733   */\n      swap3\n      swap2\n      pop\n      pop\n      jump\t// out\n        /* \"#utility.yul\":25739:26129   */\n    tag_431:\n        /* \"#utility.yul\":25845:25848   */\n      0x00\n        /* \"#utility.yul\":25873:25912   */\n      tag_712\n        /* \"#utility.yul\":25906:25911   */\n      dup3\n        /* \"#utility.yul\":25873:25912   */\n      tag_374\n      jump\t// in\n    tag_712:\n        /* \"#utility.yul\":25928:26017   */\n      tag_713\n        /* \"#utility.yul\":26010:26016   */\n      dup2\n        /* \"#utility.yul\":26005:26008   */\n      dup6\n        /* \"#utility.yul\":25928:26017   */\n      tag_430\n      jump\t// in\n    tag_713:\n        /* \"#utility.yul\":25921:26017   */\n      swap4\n      pop\n        /* \"#utility.yul\":26026:26091   */\n      tag_714\n        /* \"#utility.yul\":26084:26090   */\n      dup2\n        /* \"#utility.yul\":26079:26082   */\n      dup6\n        /* \"#utility.yul\":26072:26076   */\n      0x20\n        /* \"#utility.yul\":26065:26070   */\n      dup7\n        /* \"#utility.yul\":26061:26077   */\n      add\n        /* \"#utility.yul\":26026:26091   */\n      tag_376\n      jump\t// in\n    tag_714:\n        /* \"#utility.yul\":26116:26122   */\n      dup1\n        /* \"#utility.yul\":26111:26114   */\n      dup5\n        /* \"#utility.yul\":26107:26123   */\n      add\n        /* \"#utility.yul\":26100:26123   */\n      swap2\n      pop\n        /* \"#utility.yul\":25849:26129   */\n      pop\n        /* \"#utility.yul\":25739:26129   */\n      swap3\n      swap2\n      pop\n      pop\n      jump\t// out\n        /* \"#utility.yul\":26135:26570   */\n    tag_248:\n        /* \"#utility.yul\":26315:26318   */\n      0x00\n        /* \"#utility.yul\":26337:26432   */\n      tag_716\n        /* \"#utility.yul\":26428:26431   */\n      dup3\n        /* \"#utility.yul\":26419:26425   */\n      dup6\n        /* \"#utility.yul\":26337:26432   */\n      tag_431\n      jump\t// in\n    tag_716:\n        /* \"#utility.yul\":26330:26432   */\n      swap2\n      pop\n        /* \"#utility.yul\":26449:26544   */\n      tag_717\n        /* \"#utility.yul\":26540:26543   */\n      dup3\n        /* \"#utility.yul\":26531:26537   */\n      dup5\n        /* \"#utility.yul\":26449:26544   */\n      tag_431\n      jump\t// in\n    tag_717:\n        /* \"#utility.yul\":26442:26544   */\n      swap2\n      pop\n        /* \"#utility.yul\":26561:26564   */\n      dup2\n        /* \"#utility.yul\":26554:26564   */\n      swap1\n      pop\n        /* \"#utility.yul\":26135:26570   */\n      swap4\n      swap3\n      pop\n      pop\n      pop\n      jump\t// out\n        /* \"#utility.yul\":26576:26674   */\n    tag_432:\n        /* \"#utility.yul\":26627:26633   */\n      0x00\n        /* \"#utility.yul\":26661:26666   */\n      dup2\n        /* \"#utility.yul\":26655:26667   */\n      mload\n        /* \"#utility.yul\":26645:26667   */\n      swap1\n      pop\n        /* \"#utility.yul\":26576:26674   */\n      swap2\n      swap1\n      pop\n      jump\t// out\n        /* \"#utility.yul\":26680:26848   */\n    tag_433:\n        /* \"#utility.yul\":26763:26774   */\n      0x00\n        /* \"#utility.yul\":26797:26803   */\n      dup3\n        /* \"#utility.yul\":26792:26795   */\n      dup3\n        /* \"#utility.yul\":26785:26804   */\n      mstore\n        /* \"#utility.yul\":26837:26841   */\n      0x20\n        /* \"#utility.yul\":26832:26835   */\n      dup3\n        /* \"#utility.yul\":26828:26842   */\n      add\n        /* \"#utility.yul\":26813:26842   */\n      swap1\n      pop\n        /* \"#utility.yul\":26680:26848   */\n      swap3\n      swap2\n      pop\n      pop\n      jump\t// out\n        /* \"#utility.yul\":26854:27227   */\n    tag_434:\n        /* \"#utility.yul\":26940:26943   */\n      0x00\n        /* \"#utility.yul\":26968:27006   */\n      tag_721\n        /* \"#utility.yul\":27000:27005   */\n      dup3\n        /* \"#utility.yul\":26968:27006   */\n      tag_432\n      jump\t// in\n    tag_721:\n        /* \"#utility.yul\":27022:27092   */\n      tag_722\n        /* \"#utility.yul\":27085:27091   */\n      dup2\n        /* \"#utility.yul\":27080:27083   */\n      dup6\n        /* \"#utility.yul\":27022:27092   */\n      tag_433\n      jump\t// in\n    tag_722:\n        /* \"#utility.yul\":27015:27092   */\n      swap4\n      pop\n        /* \"#utility.yul\":27101:27166   */\n      tag_723\n        /* \"#utility.yul\":27159:27165   */\n      dup2\n        /* \"#utility.yul\":27154:27157   */\n      dup6\n        /* \"#utility.yul\":27147:27151   */\n      0x20\n        /* \"#utility.yul\":27140:27145   */\n      dup7\n        /* \"#utility.yul\":27136:27152   */\n      add\n        /* \"#utility.yul\":27101:27166   */\n      tag_376\n      jump\t// in\n    tag_723:\n        /* \"#utility.yul\":27191:27220   */\n      tag_724\n        /* \"#utility.yul\":27213:27219   */\n      dup2\n        /* \"#utility.yul\":27191:27220   */\n      tag_377\n      jump\t// in\n    tag_724:\n        /* \"#utility.yul\":27186:27189   */\n      dup5\n        /* \"#utility.yul\":27182:27221   */\n      add\n        /* \"#utility.yul\":27175:27221   */\n      swap2\n      pop\n        /* \"#utility.yul\":26944:27227   */\n      pop\n        /* \"#utility.yul\":26854:27227   */\n      swap3\n      swap2\n      pop\n      pop\n      jump\t// out\n        /* \"#utility.yul\":27233:27873   */\n    tag_280:\n        /* \"#utility.yul\":27428:27432   */\n      0x00\n        /* \"#utility.yul\":27466:27469   */\n      0x80\n        /* \"#utility.yul\":27455:27464   */\n      dup3\n        /* \"#utility.yul\":27451:27470   */\n      add\n        /* \"#utility.yul\":27443:27470   */\n      swap1\n      pop\n        /* \"#utility.yul\":27480:27551   */\n      tag_726\n        /* \"#utility.yul\":27548:27549   */\n      0x00\n        /* \"#utility.yul\":27537:27546   */\n      dup4\n        /* \"#utility.yul\":27533:27550   */\n      add\n        /* \"#utility.yul\":27524:27530   */\n      dup8\n        /* \"#utility.yul\":27480:27551   */\n      tag_384\n      jump\t// in\n    tag_726:\n        /* \"#utility.yul\":27561:27633   */\n      tag_727\n        /* \"#utility.yul\":27629:27631   */\n      0x20\n        /* \"#utility.yul\":27618:27627   */\n      dup4\n        /* \"#utility.yul\":27614:27632   */\n      add\n        /* \"#utility.yul\":27605:27611   */\n      dup7\n        /* \"#utility.yul\":27561:27633   */\n      tag_384\n      jump\t// in\n    tag_727:\n        /* \"#utility.yul\":27643:27715   */\n      tag_728\n        /* \"#utility.yul\":27711:27713   */\n      0x40\n        /* \"#utility.yul\":27700:27709   */\n      dup4\n        /* \"#utility.yul\":27696:27714   */\n      add\n        /* \"#utility.yul\":27687:27693   */\n      dup6\n        /* \"#utility.yul\":27643:27715   */\n      tag_387\n      jump\t// in\n    tag_728:\n        /* \"#utility.yul\":27762:27771   */\n      dup2\n        /* \"#utility.yul\":27756:27760   */\n      dup2\n        /* \"#utility.yul\":27752:27772   */\n      sub\n        /* \"#utility.yul\":27747:27749   */\n      0x60\n        /* \"#utility.yul\":27736:27745   */\n      dup4\n        /* \"#utility.yul\":27732:27750   */\n      add\n        /* \"#utility.yul\":27725:27773   */\n      mstore\n        /* \"#utility.yul\":27790:27866   */\n      tag_729\n        /* \"#utility.yul\":27861:27865   */\n      dup2\n        /* \"#utility.yul\":27852:27858   */\n      dup5\n        /* \"#utility.yul\":27790:27866   */\n      tag_434\n      jump\t// in\n    tag_729:\n        /* \"#utility.yul\":27782:27866   */\n      swap1\n      pop\n        /* \"#utility.yul\":27233:27873   */\n      swap6\n      swap5\n      pop\n      pop\n      pop\n      pop\n      pop\n      jump\t// out\n        /* \"#utility.yul\":27879:28020   */\n    tag_435:\n        /* \"#utility.yul\":27935:27940   */\n      0x00\n        /* \"#utility.yul\":27966:27972   */\n      dup2\n        /* \"#utility.yul\":27960:27973   */\n      mload\n        /* \"#utility.yul\":27951:27973   */\n      swap1\n      pop\n        /* \"#utility.yul\":27982:28014   */\n      tag_731\n        /* \"#utility.yul\":28008:28013   */\n      dup2\n        /* \"#utility.yul\":27982:28014   */\n      tag_370\n      jump\t// in\n    tag_731:\n        /* \"#utility.yul\":27879:28020   */\n      swap3\n      swap2\n      pop\n      pop\n      jump\t// out\n        /* \"#utility.yul\":28026:28375   */\n    tag_283:\n        /* \"#utility.yul\":28095:28101   */\n      0x00\n        /* \"#utility.yul\":28144:28146   */\n      0x20\n        /* \"#utility.yul\":28132:28141   */\n      dup3\n        /* \"#utility.yul\":28123:28130   */\n      dup5\n        /* \"#utility.yul\":28119:28142   */\n      sub\n        /* \"#utility.yul\":28115:28147   */\n      slt\n        /* \"#utility.yul\":28112:28231   */\n      iszero\n      tag_733\n      jumpi\n        /* \"#utility.yul\":28150:28229   */\n      tag_734\n      tag_367\n      jump\t// in\n    tag_734:\n        /* \"#utility.yul\":28112:28231   */\n    tag_733:\n        /* \"#utility.yul\":28270:28271   */\n      0x00\n        /* \"#utility.yul\":28295:28358   */\n      tag_735\n        /* \"#utility.yul\":28350:28357   */\n      dup5\n        /* \"#utility.yul\":28341:28347   */\n      dup3\n        /* \"#utility.yul\":28330:28339   */\n      dup6\n        /* \"#utility.yul\":28326:28348   */\n      add\n        /* \"#utility.yul\":28295:28358   */\n      tag_435\n      jump\t// in\n    tag_735:\n        /* \"#utility.yul\":28285:28358   */\n      swap2\n      pop\n        /* \"#utility.yul\":28241:28368   */\n      pop\n        /* \"#utility.yul\":28026:28375   */\n      swap3\n      swap2\n      pop\n      pop\n      jump\t// out\n        /* \"#utility.yul\":28381:28561   */\n    tag_308:\n        /* \"#utility.yul\":28429:28506   */\n      0x4e487b7100000000000000000000000000000000000000000000000000000000\n        /* \"#utility.yul\":28426:28427   */\n      0x00\n        /* \"#utility.yul\":28419:28507   */\n      mstore\n        /* \"#utility.yul\":28526:28530   */\n      0x12\n        /* \"#utility.yul\":28523:28524   */\n      0x04\n        /* \"#utility.yul\":28516:28531   */\n      mstore\n        /* \"#utility.yul\":28550:28554   */\n      0x24\n        /* \"#utility.yul\":28547:28548   */\n      0x00\n        /* \"#utility.yul\":28540:28555   */\n      revert\n        /* \"#utility.yul\":28567:28899   */\n    tag_329:\n        /* \"#utility.yul\":28688:28692   */\n      0x00\n        /* \"#utility.yul\":28726:28728   */\n      0x40\n        /* \"#utility.yul\":28715:28724   */\n      dup3\n        /* \"#utility.yul\":28711:28729   */\n      add\n        /* \"#utility.yul\":28703:28729   */\n      swap1\n      pop\n        /* \"#utility.yul\":28739:28810   */\n      tag_738\n        /* \"#utility.yul\":28807:28808   */\n      0x00\n        /* \"#utility.yul\":28796:28805   */\n      dup4\n        /* \"#utility.yul\":28792:28809   */\n      add\n        /* \"#utility.yul\":28783:28789   */\n      dup6\n        /* \"#utility.yul\":28739:28810   */\n      tag_384\n      jump\t// in\n    tag_738:\n        /* \"#utility.yul\":28820:28892   */\n      tag_739\n        /* \"#utility.yul\":28888:28890   */\n      0x20\n        /* \"#utility.yul\":28877:28886   */\n      dup4\n        /* \"#utility.yul\":28873:28891   */\n      add\n        /* \"#utility.yul\":28864:28870   */\n      dup5\n        /* \"#utility.yul\":28820:28892   */\n      tag_387\n      jump\t// in\n    tag_739:\n        /* \"#utility.yul\":28567:28899   */\n      swap4\n      swap3\n      pop\n      pop\n      pop\n      jump\t// out\n\n    auxdata: 0xa264697066735822122043a5601795396c1a5c9747cc8a39b90b3610ac4f188f5e32686b6861529712e564736f6c634300081a0033\n}\n",
				"bytecode": {
					"linkReferences": {},
					"object": "608060405234801561000f575f80fd5b506040518060400160405280600881526020017f4d656368615761720000000000000000000000000000000000000000000000008152506040518060400160405280600381526020017f4d57520000000000000000000000000000000000000000000000000000000000815250815f908161008a919061031c565b50806001908161009a919061031c565b5050503360085f6101000a81548173ffffffffffffffffffffffffffffffffffffffff021916908373ffffffffffffffffffffffffffffffffffffffff1602179055506103eb565b5f81519050919050565b7f4e487b71000000000000000000000000000000000000000000000000000000005f52604160045260245ffd5b7f4e487b71000000000000000000000000000000000000000000000000000000005f52602260045260245ffd5b5f600282049050600182168061015d57607f821691505b6020821081036101705761016f610119565b5b50919050565b5f819050815f5260205f209050919050565b5f6020601f8301049050919050565b5f82821b905092915050565b5f600883026101d27fffffffffffffffffffffffffffffffffffffffffffffffffffffffffffffffff82610197565b6101dc8683610197565b95508019841693508086168417925050509392505050565b5f819050919050565b5f819050919050565b5f61022061021b610216846101f4565b6101fd565b6101f4565b9050919050565b5f819050919050565b61023983610206565b61024d61024582610227565b8484546101a3565b825550505050565b5f90565b610261610255565b61026c818484610230565b505050565b5b8181101561028f576102845f82610259565b600181019050610272565b5050565b601f8211156102d4576102a581610176565b6102ae84610188565b810160208510156102bd578190505b6102d16102c985610188565b830182610271565b50505b505050565b5f82821c905092915050565b5f6102f45f19846008026102d9565b1980831691505092915050565b5f61030c83836102e5565b9150826002028217905092915050565b610325826100e2565b67ffffffffffffffff81111561033e5761033d6100ec565b5b6103488254610146565b610353828285610293565b5f60209050601f831160018114610384575f8415610372578287015190505b61037c8582610301565b8655506103e3565b601f19841661039286610176565b5f5b828110156103b957848901518255600182019150602085019450602081019050610394565b868310156103d657848901516103d2601f8916826102e5565b8355505b6001600288020188555050505b505050505050565b612d7f806103f85f395ff3fe608060405234801561000f575f80fd5b5060043610610114575f3560e01c80636352211e116100a0578063a22cb4651161006f578063a22cb46514610307578063b88d4fde14610323578063c87b56dd1461033f578063e985e9c51461036f578063f6b12f281461039f57610114565b80636352211e1461026d578063669f8bcc1461029d57806370a08231146102b957806395d89b41146102e957610114565b806323b872dd116100e757806323b872dd146101b25780632a0c5221146101ce57806342842e0e146101ea5780635ecf020214610206578063606d2e961461023a57610114565b806301ffc9a71461011857806306fdde0314610148578063081812fc14610166578063095ea7b314610196575b5f80fd5b610132600480360381019061012d9190611e34565b6103bd565b60405161013f9190611e79565b60405180910390f35b61015061049e565b60405161015d9190611f02565b60405180910390f35b610180600480360381019061017b9190611f55565b61052d565b60405161018d9190611fbf565b60405180910390f35b6101b060048036038101906101ab9190612002565b610548565b005b6101cc60048036038101906101c79190612040565b61055e565b005b6101e860048036038101906101e39190612090565b61065d565b005b61020460048036038101906101ff9190612040565b610a71565b005b610220600480360381019061021b9190611f55565b610a90565b6040516102319594939291906120dd565b60405180910390f35b610254600480360381019061024f9190611f55565b610bdd565b6040516102649493929190612157565b60405180910390f35b61028760048036038101906102829190611f55565b610c44565b6040516102949190611fbf565b60405180910390f35b6102b760048036038101906102b291906122f0565b610c55565b005b6102d360048036038101906102ce91906123b1565b610dfe565b6040516102e091906123dc565b60405180910390f35b6102f1610eb4565b6040516102fe9190611f02565b60405180910390f35b610321600480360381019061031c919061241f565b610f44565b005b61033d600480360381019061033891906124fb565b610f5a565b005b61035960048036038101906103549190611f55565b610f77565b6040516103669190611f02565b60405180910390f35b6103896004803603810190610384919061257b565b610fdd565b6040516103969190611e79565b60405180910390f35b6103a761106b565b6040516103b49190611fbf565b60405180910390f35b5f7f80ac58cd000000000000000000000000000000000000000000000000000000007bffffffffffffffffffffffffffffffffffffffffffffffffffffffff1916827bffffffffffffffffffffffffffffffffffffffffffffffffffffffff1916148061048757507f5b5e139f000000000000000000000000000000000000000000000000000000007bffffffffffffffffffffffffffffffffffffffffffffffffffffffff1916827bffffffffffffffffffffffffffffffffffffffffffffffffffffffff1916145b80610497575061049682611090565b5b9050919050565b60605f80546104ac906125e6565b80601f01602080910402602001604051908101604052809291908181526020018280546104d8906125e6565b80156105235780601f106104fa57610100808354040283529160200191610523565b820191905f5260205f20905b81548152906001019060200180831161050657829003601f168201915b5050505050905090565b5f610537826110f9565b506105418261117f565b9050919050565b61055a82826105556111b8565b6111bf565b5050565b5f73ffffffffffffffffffffffffffffffffffffffff168273ffffffffffffffffffffffffffffffffffffffff16036105ce575f6040517f64a0ae920000000000000000000000000000000000000000000000000000000081526004016105c59190611fbf565b60405180910390fd5b5f6105e183836105dc6111b8565b6111d1565b90508373ffffffffffffffffffffffffffffffffffffffff168173ffffffffffffffffffffffffffffffffffffffff1614610657578382826040517f64283d7b00000000000000000000000000000000000000000000000000000000815260040161064e93929190612616565b60405180910390fd5b50505050565b813373ffffffffffffffffffffffffffffffffffffffff1661067e82610c44565b73ffffffffffffffffffffffffffffffffffffffff16146106d4576040517f08c379a00000000000000000000000000000000000000000000000000000000081526004016106cb906126bb565b60405180910390fd5b818303610716576040517f08c379a000000000000000000000000000000000000000000000000000000000815260040161070d90612749565b60405180910390fd5b5f6006848154811061072b5761072a612767565b5b905f5260205f20906005020190505f6006848154811061074e5761074d612767565b5b905f5260205f20906005020190505f808260020154846002015411156107825760018261077b91906127c1565b91506107a3565b8260020154846002015410156107a25760018161079f91906127c1565b90505b5b8260030154846003015411156107c7576001826107c091906127c1565b91506107e8565b8260030154846003015410156107e7576001816107e491906127c1565b90505b5b82600401548460040154111561080c5760018261080591906127c1565b915061082d565b82600401548460040154101561082c5760018161082991906127c1565b90505b5b5f8260ff16036108b9576001846002015f82825461084b91906127f5565b925050819055505f84600201541015610868575f84600201819055505b6001846003015f82825461087c91906127f5565b925050819055505f84600301541015610899575f84600301819055505b6001836003015f8282546108ad9190612828565b92505081905550610934565b8060ff168260ff161015610918576001836002015f8282546108db9190612828565b925050819055506001846004015f8282546108f691906127f5565b925050819055505f84600401541015610913575f84600401819055505b610933565b5f846002015f82825461092b9190612828565b925050819055505b5b5f8160ff168360ff1611156109535761094c88610c44565b9050610976565b8260ff168260ff1611156109715761096a87610c44565b9050610975565b5f90505b5b600760405180608001604052808a81526020018981526020018460ff168660ff16116109a257846109a4565b855b60ff1681526020018373ffffffffffffffffffffffffffffffffffffffff16815250908060018154018082558091505060019003905f5260205f2090600302015f909190919091505f820151815f0155602082015181600101556040820151816002015f6101000a81548160ff021916908360ff16021790555060608201518160020160016101000a81548173ffffffffffffffffffffffffffffffffffffffff021916908373ffffffffffffffffffffffffffffffffffffffff16021790555050505050505050505050565b610a8b83838360405180602001604052805f815250610f5a565b505050565b60068181548110610a9f575f80fd5b905f5260205f2090600502015f91509050805f018054610abe906125e6565b80601f0160208091040260200160405190810160405280929190818152602001828054610aea906125e6565b8015610b355780601f10610b0c57610100808354040283529160200191610b35565b820191905f5260205f20905b815481529060010190602001808311610b1857829003601f168201915b505050505090806001018054610b4a906125e6565b80601f0160208091040260200160405190810160405280929190818152602001828054610b76906125e6565b8015610bc15780601f10610b9857610100808354040283529160200191610bc1565b820191905f5260205f20905b815481529060010190602001808311610ba457829003601f168201915b5050505050908060020154908060030154908060040154905085565b60078181548110610bec575f80fd5b905f5260205f2090600302015f91509050805f015490806001015490806002015f9054906101000a900460ff16908060020160019054906101000a900473ffffffffffffffffffffffffffffffffffffffff16905084565b5f610c4e826110f9565b9050919050565b60085f9054906101000a900473ffffffffffffffffffffffffffffffffffffffff1673ffffffffffffffffffffffffffffffffffffffff163373ffffffffffffffffffffffffffffffffffffffff1614610ce4576040517f08c379a0000000000000000000000000000000000000000000000000000000008152600401610cdb906128cb565b60405180910390fd5b6014828486610cf391906127c1565b610cfd91906127c1565b60ff1614610d40576040517f08c379a0000000000000000000000000000000000000000000000000000000008152600401610d3790612933565b60405180910390fd5b5f600680549050905060066040518060a001604052808981526020018481526020018760ff1681526020018660ff1681526020018560ff16815250908060018154018082558091505060019003905f5260205f2090600502015f909190919091505f820151815f019081610db49190612aee565b506020820151816001019081610dca9190612aee565b506040820151816002015560608201518160030155608082015181600401555050610df586826113dc565b50505050505050565b5f8073ffffffffffffffffffffffffffffffffffffffff168273ffffffffffffffffffffffffffffffffffffffff1603610e6f575f6040517f89c62b64000000000000000000000000000000000000000000000000000000008152600401610e669190611fbf565b60405180910390fd5b60035f8373ffffffffffffffffffffffffffffffffffffffff1673ffffffffffffffffffffffffffffffffffffffff1681526020019081526020015f20549050919050565b606060018054610ec3906125e6565b80601f0160208091040260200160405190810160405280929190818152602001828054610eef906125e6565b8015610f3a5780601f10610f1157610100808354040283529160200191610f3a565b820191905f5260205f20905b815481529060010190602001808311610f1d57829003601f168201915b5050505050905090565b610f56610f4f6111b8565b83836113f9565b5050565b610f6584848461055e565b610f7184848484611562565b50505050565b6060610f82826110f9565b505f610f8c611714565b90505f815111610faa5760405180602001604052805f815250610fd5565b80610fb48461172a565b604051602001610fc5929190612bf7565b6040516020818303038152906040525b915050919050565b5f60055f8473ffffffffffffffffffffffffffffffffffffffff1673ffffffffffffffffffffffffffffffffffffffff1681526020019081526020015f205f8373ffffffffffffffffffffffffffffffffffffffff1673ffffffffffffffffffffffffffffffffffffffff1681526020019081526020015f205f9054906101000a900460ff16905092915050565b60085f9054906101000a900473ffffffffffffffffffffffffffffffffffffffff1681565b5f7f01ffc9a7000000000000000000000000000000000000000000000000000000007bffffffffffffffffffffffffffffffffffffffffffffffffffffffff1916827bffffffffffffffffffffffffffffffffffffffffffffffffffffffff1916149050919050565b5f80611104836117f4565b90505f73ffffffffffffffffffffffffffffffffffffffff168173ffffffffffffffffffffffffffffffffffffffff160361117657826040517f7e27328900000000000000000000000000000000000000000000000000000000815260040161116d91906123dc565b60405180910390fd5b80915050919050565b5f60045f8381526020019081526020015f205f9054906101000a900473ffffffffffffffffffffffffffffffffffffffff169050919050565b5f33905090565b6111cc838383600161182d565b505050565b5f806111dc846117f4565b90505f73ffffffffffffffffffffffffffffffffffffffff168373ffffffffffffffffffffffffffffffffffffffff161461121d5761121c8184866119ec565b5b5f73ffffffffffffffffffffffffffffffffffffffff168173ffffffffffffffffffffffffffffffffffffffff16146112a85761125c5f855f8061182d565b600160035f8373ffffffffffffffffffffffffffffffffffffffff1673ffffffffffffffffffffffffffffffffffffffff1681526020019081526020015f205f82825403925050819055505b5f73ffffffffffffffffffffffffffffffffffffffff168573ffffffffffffffffffffffffffffffffffffffff161461132757600160035f8773ffffffffffffffffffffffffffffffffffffffff1673ffffffffffffffffffffffffffffffffffffffff1681526020019081526020015f205f82825401925050819055505b8460025f8681526020019081526020015f205f6101000a81548173ffffffffffffffffffffffffffffffffffffffff021916908373ffffffffffffffffffffffffffffffffffffffff160217905550838573ffffffffffffffffffffffffffffffffffffffff168273ffffffffffffffffffffffffffffffffffffffff167fddf252ad1be2c89b69c2b068fc378daa952ba7f163c4a11628f55a4df523b3ef60405160405180910390a4809150509392505050565b6113f5828260405180602001604052805f815250611aaf565b5050565b5f73ffffffffffffffffffffffffffffffffffffffff168273ffffffffffffffffffffffffffffffffffffffff160361146957816040517f5b08ba180000000000000000000000000000000000000000000000000000000081526004016114609190611fbf565b60405180910390fd5b8060055f8573ffffffffffffffffffffffffffffffffffffffff1673ffffffffffffffffffffffffffffffffffffffff1681526020019081526020015f205f8473ffffffffffffffffffffffffffffffffffffffff1673ffffffffffffffffffffffffffffffffffffffff1681526020019081526020015f205f6101000a81548160ff0219169083151502179055508173ffffffffffffffffffffffffffffffffffffffff168373ffffffffffffffffffffffffffffffffffffffff167f17307eab39ab6107e8899845ad3d59bd9653f200f220920489ca2b5937696c31836040516115559190611e79565b60405180910390a3505050565b5f8373ffffffffffffffffffffffffffffffffffffffff163b111561170e578273ffffffffffffffffffffffffffffffffffffffff1663150b7a026115a56111b8565b8685856040518563ffffffff1660e01b81526004016115c79493929190612c6c565b6020604051808303815f875af192505050801561160257506040513d601f19601f820116820180604052508101906115ff9190612cca565b60015b611683573d805f8114611630576040519150601f19603f3d011682016040523d82523d5f602084013e611635565b606091505b505f81510361167b57836040517f64a0ae920000000000000000000000000000000000000000000000000000000081526004016116729190611fbf565b60405180910390fd5b805181602001fd5b63150b7a0260e01b7bffffffffffffffffffffffffffffffffffffffffffffffffffffffff1916817bffffffffffffffffffffffffffffffffffffffffffffffffffffffff19161461170c57836040517f64a0ae920000000000000000000000000000000000000000000000000000000081526004016117039190611fbf565b60405180910390fd5b505b50505050565b606060405180602001604052805f815250905090565b60605f600161173884611aca565b0190505f8167ffffffffffffffff811115611756576117556121a2565b5b6040519080825280601f01601f1916602001820160405280156117885781602001600182028036833780820191505090505b5090505f82602001820190505b6001156117e9578080600190039150507f3031323334353637383961626364656600000000000000000000000000000000600a86061a8153600a85816117de576117dd612cf5565b5b0494505f8503611795575b819350505050919050565b5f60025f8381526020019081526020015f205f9054906101000a900473ffffffffffffffffffffffffffffffffffffffff169050919050565b808061186557505f73ffffffffffffffffffffffffffffffffffffffff168273ffffffffffffffffffffffffffffffffffffffff1614155b15611997575f611874846110f9565b90505f73ffffffffffffffffffffffffffffffffffffffff168373ffffffffffffffffffffffffffffffffffffffff16141580156118de57508273ffffffffffffffffffffffffffffffffffffffff168173ffffffffffffffffffffffffffffffffffffffff1614155b80156118f157506118ef8184610fdd565b155b1561193357826040517fa9fbf51f00000000000000000000000000000000000000000000000000000000815260040161192a9190611fbf565b60405180910390fd5b811561199557838573ffffffffffffffffffffffffffffffffffffffff168273ffffffffffffffffffffffffffffffffffffffff167f8c5be1e5ebec7d5bd14f71427d1e84f3dd0314c0f7b2291e5b200ac8c7c3b92560405160405180910390a45b505b8360045f8581526020019081526020015f205f6101000a81548173ffffffffffffffffffffffffffffffffffffffff021916908373ffffffffffffffffffffffffffffffffffffffff16021790555050505050565b6119f7838383611c1b565b611aaa575f73ffffffffffffffffffffffffffffffffffffffff168373ffffffffffffffffffffffffffffffffffffffff1603611a6b57806040517f7e273289000000000000000000000000000000000000000000000000000000008152600401611a6291906123dc565b60405180910390fd5b81816040517f177e802f000000000000000000000000000000000000000000000000000000008152600401611aa1929190612d22565b60405180910390fd5b505050565b611ab98383611cdb565b611ac55f848484611562565b505050565b5f805f90507a184f03e93ff9f4daa797ed6e38ed64bf6a1f0100000000000000008310611b26577a184f03e93ff9f4daa797ed6e38ed64bf6a1f0100000000000000008381611b1c57611b1b612cf5565b5b0492506040810190505b6d04ee2d6d415b85acef81000000008310611b63576d04ee2d6d415b85acef81000000008381611b5957611b58612cf5565b5b0492506020810190505b662386f26fc100008310611b9257662386f26fc100008381611b8857611b87612cf5565b5b0492506010810190505b6305f5e1008310611bbb576305f5e1008381611bb157611bb0612cf5565b5b0492506008810190505b6127108310611be0576127108381611bd657611bd5612cf5565b5b0492506004810190505b60648310611c035760648381611bf957611bf8612cf5565b5b0492506002810190505b600a8310611c12576001810190505b80915050919050565b5f8073ffffffffffffffffffffffffffffffffffffffff168373ffffffffffffffffffffffffffffffffffffffff1614158015611cd257508273ffffffffffffffffffffffffffffffffffffffff168473ffffffffffffffffffffffffffffffffffffffff161480611c935750611c928484610fdd565b5b80611cd157508273ffffffffffffffffffffffffffffffffffffffff16611cb98361117f565b73ffffffffffffffffffffffffffffffffffffffff16145b5b90509392505050565b5f73ffffffffffffffffffffffffffffffffffffffff168273ffffffffffffffffffffffffffffffffffffffff1603611d4b575f6040517f64a0ae92000000000000000000000000000000000000000000000000000000008152600401611d429190611fbf565b60405180910390fd5b5f611d5783835f6111d1565b90505f73ffffffffffffffffffffffffffffffffffffffff168173ffffffffffffffffffffffffffffffffffffffff1614611dc9575f6040517f73c6ac6e000000000000000000000000000000000000000000000000000000008152600401611dc09190611fbf565b60405180910390fd5b505050565b5f604051905090565b5f80fd5b5f80fd5b5f7fffffffff0000000000000000000000000000000000000000000000000000000082169050919050565b611e1381611ddf565b8114611e1d575f80fd5b50565b5f81359050611e2e81611e0a565b92915050565b5f60208284031215611e4957611e48611dd7565b5b5f611e5684828501611e20565b91505092915050565b5f8115159050919050565b611e7381611e5f565b82525050565b5f602082019050611e8c5f830184611e6a565b92915050565b5f81519050919050565b5f82825260208201905092915050565b8281835e5f83830152505050565b5f601f19601f8301169050919050565b5f611ed482611e92565b611ede8185611e9c565b9350611eee818560208601611eac565b611ef781611eba565b840191505092915050565b5f6020820190508181035f830152611f1a8184611eca565b905092915050565b5f819050919050565b611f3481611f22565b8114611f3e575f80fd5b50565b5f81359050611f4f81611f2b565b92915050565b5f60208284031215611f6a57611f69611dd7565b5b5f611f7784828501611f41565b91505092915050565b5f73ffffffffffffffffffffffffffffffffffffffff82169050919050565b5f611fa982611f80565b9050919050565b611fb981611f9f565b82525050565b5f602082019050611fd25f830184611fb0565b92915050565b611fe181611f9f565b8114611feb575f80fd5b50565b5f81359050611ffc81611fd8565b92915050565b5f806040838503121561201857612017611dd7565b5b5f61202585828601611fee565b925050602061203685828601611f41565b9150509250929050565b5f805f6060848603121561205757612056611dd7565b5b5f61206486828701611fee565b935050602061207586828701611fee565b925050604061208686828701611f41565b9150509250925092565b5f80604083850312156120a6576120a5611dd7565b5b5f6120b385828601611f41565b92505060206120c485828601611f41565b9150509250929050565b6120d781611f22565b82525050565b5f60a0820190508181035f8301526120f58188611eca565b905081810360208301526121098187611eca565b905061211860408301866120ce565b61212560608301856120ce565b61213260808301846120ce565b9695505050505050565b5f60ff82169050919050565b6121518161213c565b82525050565b5f60808201905061216a5f8301876120ce565b61217760208301866120ce565b6121846040830185612148565b6121916060830184611fb0565b95945050505050565b5f80fd5b5f80fd5b7f4e487b71000000000000000000000000000000000000000000000000000000005f52604160045260245ffd5b6121d882611eba565b810181811067ffffffffffffffff821117156121f7576121f66121a2565b5b80604052505050565b5f612209611dce565b905061221582826121cf565b919050565b5f67ffffffffffffffff821115612234576122336121a2565b5b61223d82611eba565b9050602081019050919050565b828183375f83830152505050565b5f61226a6122658461221a565b612200565b9050828152602081018484840111156122865761228561219e565b5b61229184828561224a565b509392505050565b5f82601f8301126122ad576122ac61219a565b5b81356122bd848260208601612258565b91505092915050565b6122cf8161213c565b81146122d9575f80fd5b50565b5f813590506122ea816122c6565b92915050565b5f805f805f8060c0878903121561230a57612309611dd7565b5b5f87013567ffffffffffffffff81111561232757612326611ddb565b5b61233389828a01612299565b965050602061234489828a01611fee565b955050604061235589828a016122dc565b945050606061236689828a016122dc565b935050608061237789828a016122dc565b92505060a087013567ffffffffffffffff81111561239857612397611ddb565b5b6123a489828a01612299565b9150509295509295509295565b5f602082840312156123c6576123c5611dd7565b5b5f6123d384828501611fee565b91505092915050565b5f6020820190506123ef5f8301846120ce565b92915050565b6123fe81611e5f565b8114612408575f80fd5b50565b5f81359050612419816123f5565b92915050565b5f806040838503121561243557612434611dd7565b5b5f61244285828601611fee565b92505060206124538582860161240b565b9150509250929050565b5f67ffffffffffffffff821115612477576124766121a2565b5b61248082611eba565b9050602081019050919050565b5f61249f61249a8461245d565b612200565b9050828152602081018484840111156124bb576124ba61219e565b5b6124c684828561224a565b509392505050565b5f82601f8301126124e2576124e161219a565b5b81356124f284826020860161248d565b91505092915050565b5f805f806080858703121561251357612512611dd7565b5b5f61252087828801611fee565b945050602061253187828801611fee565b935050604061254287828801611f41565b925050606085013567ffffffffffffffff81111561256357612562611ddb565b5b61256f878288016124ce565b91505092959194509250565b5f806040838503121561259157612590611dd7565b5b5f61259e85828601611fee565b92505060206125af85828601611fee565b9150509250929050565b7f4e487b71000000000000000000000000000000000000000000000000000000005f52602260045260245ffd5b5f60028204905060018216806125fd57607f821691505b6020821081036126105761260f6125b9565b5b50919050565b5f6060820190506126295f830186611fb0565b61263660208301856120ce565b6126436040830184611fb0565b949350505050565b7f4170656e6173206f20646f6e6f20706f646520626174616c68617220636f6d205f8201527f65737465204d6563686121000000000000000000000000000000000000000000602082015250565b5f6126a5602b83611e9c565b91506126b08261264b565b604082019050919050565b5f6020820190508181035f8301526126d281612699565b9050919050565b7f556d204d65636861206e616f20706f6465206c7574617220636f6e74726120735f8201527f69206d65736d6f21000000000000000000000000000000000000000000000000602082015250565b5f612733602883611e9c565b915061273e826126d9565b604082019050919050565b5f6020820190508181035f83015261276081612727565b9050919050565b7f4e487b71000000000000000000000000000000000000000000000000000000005f52603260045260245ffd5b7f4e487b71000000000000000000000000000000000000000000000000000000005f52601160045260245ffd5b5f6127cb8261213c565b91506127d68361213c565b9250828201905060ff8111156127ef576127ee612794565b5b92915050565b5f6127ff82611f22565b915061280a83611f22565b925082820390508181111561282257612821612794565b5b92915050565b5f61283282611f22565b915061283d83611f22565b925082820190508082111561285557612854612794565b5b92915050565b7f4170656e6173206f20646f6e6f20646f206a6f676f20706f64652063726961725f8201527f206e6f766f73204d656368617321000000000000000000000000000000000000602082015250565b5f6128b5602e83611e9c565b91506128c08261285b565b604082019050919050565b5f6020820190508181035f8301526128e2816128a9565b9050919050565b7f4120736f6d6120646f7320706f6e746f732064657665207365722032300000005f82015250565b5f61291d601d83611e9c565b9150612928826128e9565b602082019050919050565b5f6020820190508181035f83015261294a81612911565b9050919050565b5f819050815f5260205f209050919050565b5f6020601f8301049050919050565b5f82821b905092915050565b5f600883026129ad7fffffffffffffffffffffffffffffffffffffffffffffffffffffffffffffffff82612972565b6129b78683612972565b95508019841693508086168417925050509392505050565b5f819050919050565b5f6129f26129ed6129e884611f22565b6129cf565b611f22565b9050919050565b5f819050919050565b612a0b836129d8565b612a1f612a17826129f9565b84845461297e565b825550505050565b5f90565b612a33612a27565b612a3e818484612a02565b505050565b5b81811015612a6157612a565f82612a2b565b600181019050612a44565b5050565b601f821115612aa657612a7781612951565b612a8084612963565b81016020851015612a8f578190505b612aa3612a9b85612963565b830182612a43565b50505b505050565b5f82821c905092915050565b5f612ac65f1984600802612aab565b1980831691505092915050565b5f612ade8383612ab7565b9150826002028217905092915050565b612af782611e92565b67ffffffffffffffff811115612b1057612b0f6121a2565b5b612b1a82546125e6565b612b25828285612a65565b5f60209050601f831160018114612b56575f8415612b44578287015190505b612b4e8582612ad3565b865550612bb5565b601f198416612b6486612951565b5f5b82811015612b8b57848901518255600182019150602085019450602081019050612b66565b86831015612ba85784890151612ba4601f891682612ab7565b8355505b6001600288020188555050505b505050505050565b5f81905092915050565b5f612bd182611e92565b612bdb8185612bbd565b9350612beb818560208601611eac565b80840191505092915050565b5f612c028285612bc7565b9150612c0e8284612bc7565b91508190509392505050565b5f81519050919050565b5f82825260208201905092915050565b5f612c3e82612c1a565b612c488185612c24565b9350612c58818560208601611eac565b612c6181611eba565b840191505092915050565b5f608082019050612c7f5f830187611fb0565b612c8c6020830186611fb0565b612c9960408301856120ce565b8181036060830152612cab8184612c34565b905095945050505050565b5f81519050612cc481611e0a565b92915050565b5f60208284031215612cdf57612cde611dd7565b5b5f612cec84828501612cb6565b91505092915050565b7f4e487b71000000000000000000000000000000000000000000000000000000005f52601260045260245ffd5b5f604082019050612d355f830185611fb0565b612d4260208301846120ce565b939250505056fea264697066735822122043a5601795396c1a5c9747cc8a39b90b3610ac4f188f5e32686b6861529712e564736f6c634300081a0033",
					"opcodes": "PUSH1 0x80 PUSH1 0x40 MSTORE CALLVALUE DUP1 ISZERO PUSH2 0xF JUMPI PUSH0 DUP1 REVERT JUMPDEST POP PUSH1 0x40 MLOAD DUP1 PUSH1 0x40 ADD PUSH1 0x40 MSTORE DUP1 PUSH1 0x8 DUP2 MSTORE PUSH1 0x20 ADD PUSH32 0x4D65636861576172000000000000000000000000000000000000000000000000 DUP2 MSTORE POP PUSH1 0x40 MLOAD DUP1 PUSH1 0x40 ADD PUSH1 0x40 MSTORE DUP1 PUSH1 0x3 DUP2 MSTORE PUSH1 0x20 ADD PUSH32 0x4D57520000000000000000000000000000000000000000000000000000000000 DUP2 MSTORE POP DUP2 PUSH0 SWAP1 DUP2 PUSH2 0x8A SWAP2 SWAP1 PUSH2 0x31C JUMP JUMPDEST POP DUP1 PUSH1 0x1 SWAP1 DUP2 PUSH2 0x9A SWAP2 SWAP1 PUSH2 0x31C JUMP JUMPDEST POP POP POP CALLER PUSH1 0x8 PUSH0 PUSH2 0x100 EXP DUP2 SLOAD DUP2 PUSH20 0xFFFFFFFFFFFFFFFFFFFFFFFFFFFFFFFFFFFFFFFF MUL NOT AND SWAP1 DUP4 PUSH20 0xFFFFFFFFFFFFFFFFFFFFFFFFFFFFFFFFFFFFFFFF AND MUL OR SWAP1 SSTORE POP PUSH2 0x3EB JUMP JUMPDEST PUSH0 DUP2 MLOAD SWAP1 POP SWAP2 SWAP1 POP JUMP JUMPDEST PUSH32 0x4E487B7100000000000000000000000000000000000000000000000000000000 PUSH0 MSTORE PUSH1 0x41 PUSH1 0x4 MSTORE PUSH1 0x24 PUSH0 REVERT JUMPDEST PUSH32 0x4E487B7100000000000000000000000000000000000000000000000000000000 PUSH0 MSTORE PUSH1 0x22 PUSH1 0x4 MSTORE PUSH1 0x24 PUSH0 REVERT JUMPDEST PUSH0 PUSH1 0x2 DUP3 DIV SWAP1 POP PUSH1 0x1 DUP3 AND DUP1 PUSH2 0x15D JUMPI PUSH1 0x7F DUP3 AND SWAP2 POP JUMPDEST PUSH1 0x20 DUP3 LT DUP2 SUB PUSH2 0x170 JUMPI PUSH2 0x16F PUSH2 0x119 JUMP JUMPDEST JUMPDEST POP SWAP2 SWAP1 POP JUMP JUMPDEST PUSH0 DUP2 SWAP1 POP DUP2 PUSH0 MSTORE PUSH1 0x20 PUSH0 KECCAK256 SWAP1 POP SWAP2 SWAP1 POP JUMP JUMPDEST PUSH0 PUSH1 0x20 PUSH1 0x1F DUP4 ADD DIV SWAP1 POP SWAP2 SWAP1 POP JUMP JUMPDEST PUSH0 DUP3 DUP3 SHL SWAP1 POP SWAP3 SWAP2 POP POP JUMP JUMPDEST PUSH0 PUSH1 0x8 DUP4 MUL PUSH2 0x1D2 PUSH32 0xFFFFFFFFFFFFFFFFFFFFFFFFFFFFFFFFFFFFFFFFFFFFFFFFFFFFFFFFFFFFFFFF DUP3 PUSH2 0x197 JUMP JUMPDEST PUSH2 0x1DC DUP7 DUP4 PUSH2 0x197 JUMP JUMPDEST SWAP6 POP DUP1 NOT DUP5 AND SWAP4 POP DUP1 DUP7 AND DUP5 OR SWAP3 POP POP POP SWAP4 SWAP3 POP POP POP JUMP JUMPDEST PUSH0 DUP2 SWAP1 POP SWAP2 SWAP1 POP JUMP JUMPDEST PUSH0 DUP2 SWAP1 POP SWAP2 SWAP1 POP JUMP JUMPDEST PUSH0 PUSH2 0x220 PUSH2 0x21B PUSH2 0x216 DUP5 PUSH2 0x1F4 JUMP JUMPDEST PUSH2 0x1FD JUMP JUMPDEST PUSH2 0x1F4 JUMP JUMPDEST SWAP1 POP SWAP2 SWAP1 POP JUMP JUMPDEST PUSH0 DUP2 SWAP1 POP SWAP2 SWAP1 POP JUMP JUMPDEST PUSH2 0x239 DUP4 PUSH2 0x206 JUMP JUMPDEST PUSH2 0x24D PUSH2 0x245 DUP3 PUSH2 0x227 JUMP JUMPDEST DUP5 DUP5 SLOAD PUSH2 0x1A3 JUMP JUMPDEST DUP3 SSTORE POP POP POP POP JUMP JUMPDEST PUSH0 SWAP1 JUMP JUMPDEST PUSH2 0x261 PUSH2 0x255 JUMP JUMPDEST PUSH2 0x26C DUP2 DUP5 DUP5 PUSH2 0x230 JUMP JUMPDEST POP POP POP JUMP JUMPDEST JUMPDEST DUP2 DUP2 LT ISZERO PUSH2 0x28F JUMPI PUSH2 0x284 PUSH0 DUP3 PUSH2 0x259 JUMP JUMPDEST PUSH1 0x1 DUP2 ADD SWAP1 POP PUSH2 0x272 JUMP JUMPDEST POP POP JUMP JUMPDEST PUSH1 0x1F DUP3 GT ISZERO PUSH2 0x2D4 JUMPI PUSH2 0x2A5 DUP2 PUSH2 0x176 JUMP JUMPDEST PUSH2 0x2AE DUP5 PUSH2 0x188 JUMP JUMPDEST DUP2 ADD PUSH1 0x20 DUP6 LT ISZERO PUSH2 0x2BD JUMPI DUP2 SWAP1 POP JUMPDEST PUSH2 0x2D1 PUSH2 0x2C9 DUP6 PUSH2 0x188 JUMP JUMPDEST DUP4 ADD DUP3 PUSH2 0x271 JUMP JUMPDEST POP POP JUMPDEST POP POP POP JUMP JUMPDEST PUSH0 DUP3 DUP3 SHR SWAP1 POP SWAP3 SWAP2 POP POP JUMP JUMPDEST PUSH0 PUSH2 0x2F4 PUSH0 NOT DUP5 PUSH1 0x8 MUL PUSH2 0x2D9 JUMP JUMPDEST NOT DUP1 DUP4 AND SWAP2 POP POP SWAP3 SWAP2 POP POP JUMP JUMPDEST PUSH0 PUSH2 0x30C DUP4 DUP4 PUSH2 0x2E5 JUMP JUMPDEST SWAP2 POP DUP3 PUSH1 0x2 MUL DUP3 OR SWAP1 POP SWAP3 SWAP2 POP POP JUMP JUMPDEST PUSH2 0x325 DUP3 PUSH2 0xE2 JUMP JUMPDEST PUSH8 0xFFFFFFFFFFFFFFFF DUP2 GT ISZERO PUSH2 0x33E JUMPI PUSH2 0x33D PUSH2 0xEC JUMP JUMPDEST JUMPDEST PUSH2 0x348 DUP3 SLOAD PUSH2 0x146 JUMP JUMPDEST PUSH2 0x353 DUP3 DUP3 DUP6 PUSH2 0x293 JUMP JUMPDEST PUSH0 PUSH1 0x20 SWAP1 POP PUSH1 0x1F DUP4 GT PUSH1 0x1 DUP2 EQ PUSH2 0x384 JUMPI PUSH0 DUP5 ISZERO PUSH2 0x372 JUMPI DUP3 DUP8 ADD MLOAD SWAP1 POP JUMPDEST PUSH2 0x37C DUP6 DUP3 PUSH2 0x301 JUMP JUMPDEST DUP7 SSTORE POP PUSH2 0x3E3 JUMP JUMPDEST PUSH1 0x1F NOT DUP5 AND PUSH2 0x392 DUP7 PUSH2 0x176 JUMP JUMPDEST PUSH0 JUMPDEST DUP3 DUP2 LT ISZERO PUSH2 0x3B9 JUMPI DUP5 DUP10 ADD MLOAD DUP3 SSTORE PUSH1 0x1 DUP3 ADD SWAP2 POP PUSH1 0x20 DUP6 ADD SWAP5 POP PUSH1 0x20 DUP2 ADD SWAP1 POP PUSH2 0x394 JUMP JUMPDEST DUP7 DUP4 LT ISZERO PUSH2 0x3D6 JUMPI DUP5 DUP10 ADD MLOAD PUSH2 0x3D2 PUSH1 0x1F DUP10 AND DUP3 PUSH2 0x2E5 JUMP JUMPDEST DUP4 SSTORE POP JUMPDEST PUSH1 0x1 PUSH1 0x2 DUP9 MUL ADD DUP9 SSTORE POP POP POP JUMPDEST POP POP POP POP POP POP JUMP JUMPDEST PUSH2 0x2D7F DUP1 PUSH2 0x3F8 PUSH0 CODECOPY PUSH0 RETURN INVALID PUSH1 0x80 PUSH1 0x40 MSTORE CALLVALUE DUP1 ISZERO PUSH2 0xF JUMPI PUSH0 DUP1 REVERT JUMPDEST POP PUSH1 0x4 CALLDATASIZE LT PUSH2 0x114 JUMPI PUSH0 CALLDATALOAD PUSH1 0xE0 SHR DUP1 PUSH4 0x6352211E GT PUSH2 0xA0 JUMPI DUP1 PUSH4 0xA22CB465 GT PUSH2 0x6F JUMPI DUP1 PUSH4 0xA22CB465 EQ PUSH2 0x307 JUMPI DUP1 PUSH4 0xB88D4FDE EQ PUSH2 0x323 JUMPI DUP1 PUSH4 0xC87B56DD EQ PUSH2 0x33F JUMPI DUP1 PUSH4 0xE985E9C5 EQ PUSH2 0x36F JUMPI DUP1 PUSH4 0xF6B12F28 EQ PUSH2 0x39F JUMPI PUSH2 0x114 JUMP JUMPDEST DUP1 PUSH4 0x6352211E EQ PUSH2 0x26D JUMPI DUP1 PUSH4 0x669F8BCC EQ PUSH2 0x29D JUMPI DUP1 PUSH4 0x70A08231 EQ PUSH2 0x2B9 JUMPI DUP1 PUSH4 0x95D89B41 EQ PUSH2 0x2E9 JUMPI PUSH2 0x114 JUMP JUMPDEST DUP1 PUSH4 0x23B872DD GT PUSH2 0xE7 JUMPI DUP1 PUSH4 0x23B872DD EQ PUSH2 0x1B2 JUMPI DUP1 PUSH4 0x2A0C5221 EQ PUSH2 0x1CE JUMPI DUP1 PUSH4 0x42842E0E EQ PUSH2 0x1EA JUMPI DUP1 PUSH4 0x5ECF0202 EQ PUSH2 0x206 JUMPI DUP1 PUSH4 0x606D2E96 EQ PUSH2 0x23A JUMPI PUSH2 0x114 JUMP JUMPDEST DUP1 PUSH4 0x1FFC9A7 EQ PUSH2 0x118 JUMPI DUP1 PUSH4 0x6FDDE03 EQ PUSH2 0x148 JUMPI DUP1 PUSH4 0x81812FC EQ PUSH2 0x166 JUMPI DUP1 PUSH4 0x95EA7B3 EQ PUSH2 0x196 JUMPI JUMPDEST PUSH0 DUP1 REVERT JUMPDEST PUSH2 0x132 PUSH1 0x4 DUP1 CALLDATASIZE SUB DUP2 ADD SWAP1 PUSH2 0x12D SWAP2 SWAP1 PUSH2 0x1E34 JUMP JUMPDEST PUSH2 0x3BD JUMP JUMPDEST PUSH1 0x40 MLOAD PUSH2 0x13F SWAP2 SWAP1 PUSH2 0x1E79 JUMP JUMPDEST PUSH1 0x40 MLOAD DUP1 SWAP2 SUB SWAP1 RETURN JUMPDEST PUSH2 0x150 PUSH2 0x49E JUMP JUMPDEST PUSH1 0x40 MLOAD PUSH2 0x15D SWAP2 SWAP1 PUSH2 0x1F02 JUMP JUMPDEST PUSH1 0x40 MLOAD DUP1 SWAP2 SUB SWAP1 RETURN JUMPDEST PUSH2 0x180 PUSH1 0x4 DUP1 CALLDATASIZE SUB DUP2 ADD SWAP1 PUSH2 0x17B SWAP2 SWAP1 PUSH2 0x1F55 JUMP JUMPDEST PUSH2 0x52D JUMP JUMPDEST PUSH1 0x40 MLOAD PUSH2 0x18D SWAP2 SWAP1 PUSH2 0x1FBF JUMP JUMPDEST PUSH1 0x40 MLOAD DUP1 SWAP2 SUB SWAP1 RETURN JUMPDEST PUSH2 0x1B0 PUSH1 0x4 DUP1 CALLDATASIZE SUB DUP2 ADD SWAP1 PUSH2 0x1AB SWAP2 SWAP1 PUSH2 0x2002 JUMP JUMPDEST PUSH2 0x548 JUMP JUMPDEST STOP JUMPDEST PUSH2 0x1CC PUSH1 0x4 DUP1 CALLDATASIZE SUB DUP2 ADD SWAP1 PUSH2 0x1C7 SWAP2 SWAP1 PUSH2 0x2040 JUMP JUMPDEST PUSH2 0x55E JUMP JUMPDEST STOP JUMPDEST PUSH2 0x1E8 PUSH1 0x4 DUP1 CALLDATASIZE SUB DUP2 ADD SWAP1 PUSH2 0x1E3 SWAP2 SWAP1 PUSH2 0x2090 JUMP JUMPDEST PUSH2 0x65D JUMP JUMPDEST STOP JUMPDEST PUSH2 0x204 PUSH1 0x4 DUP1 CALLDATASIZE SUB DUP2 ADD SWAP1 PUSH2 0x1FF SWAP2 SWAP1 PUSH2 0x2040 JUMP JUMPDEST PUSH2 0xA71 JUMP JUMPDEST STOP JUMPDEST PUSH2 0x220 PUSH1 0x4 DUP1 CALLDATASIZE SUB DUP2 ADD SWAP1 PUSH2 0x21B SWAP2 SWAP1 PUSH2 0x1F55 JUMP JUMPDEST PUSH2 0xA90 JUMP JUMPDEST PUSH1 0x40 MLOAD PUSH2 0x231 SWAP6 SWAP5 SWAP4 SWAP3 SWAP2 SWAP1 PUSH2 0x20DD JUMP JUMPDEST PUSH1 0x40 MLOAD DUP1 SWAP2 SUB SWAP1 RETURN JUMPDEST PUSH2 0x254 PUSH1 0x4 DUP1 CALLDATASIZE SUB DUP2 ADD SWAP1 PUSH2 0x24F SWAP2 SWAP1 PUSH2 0x1F55 JUMP JUMPDEST PUSH2 0xBDD JUMP JUMPDEST PUSH1 0x40 MLOAD PUSH2 0x264 SWAP5 SWAP4 SWAP3 SWAP2 SWAP1 PUSH2 0x2157 JUMP JUMPDEST PUSH1 0x40 MLOAD DUP1 SWAP2 SUB SWAP1 RETURN JUMPDEST PUSH2 0x287 PUSH1 0x4 DUP1 CALLDATASIZE SUB DUP2 ADD SWAP1 PUSH2 0x282 SWAP2 SWAP1 PUSH2 0x1F55 JUMP JUMPDEST PUSH2 0xC44 JUMP JUMPDEST PUSH1 0x40 MLOAD PUSH2 0x294 SWAP2 SWAP1 PUSH2 0x1FBF JUMP JUMPDEST PUSH1 0x40 MLOAD DUP1 SWAP2 SUB SWAP1 RETURN JUMPDEST PUSH2 0x2B7 PUSH1 0x4 DUP1 CALLDATASIZE SUB DUP2 ADD SWAP1 PUSH2 0x2B2 SWAP2 SWAP1 PUSH2 0x22F0 JUMP JUMPDEST PUSH2 0xC55 JUMP JUMPDEST STOP JUMPDEST PUSH2 0x2D3 PUSH1 0x4 DUP1 CALLDATASIZE SUB DUP2 ADD SWAP1 PUSH2 0x2CE SWAP2 SWAP1 PUSH2 0x23B1 JUMP JUMPDEST PUSH2 0xDFE JUMP JUMPDEST PUSH1 0x40 MLOAD PUSH2 0x2E0 SWAP2 SWAP1 PUSH2 0x23DC JUMP JUMPDEST PUSH1 0x40 MLOAD DUP1 SWAP2 SUB SWAP1 RETURN JUMPDEST PUSH2 0x2F1 PUSH2 0xEB4 JUMP JUMPDEST PUSH1 0x40 MLOAD PUSH2 0x2FE SWAP2 SWAP1 PUSH2 0x1F02 JUMP JUMPDEST PUSH1 0x40 MLOAD DUP1 SWAP2 SUB SWAP1 RETURN JUMPDEST PUSH2 0x321 PUSH1 0x4 DUP1 CALLDATASIZE SUB DUP2 ADD SWAP1 PUSH2 0x31C SWAP2 SWAP1 PUSH2 0x241F JUMP JUMPDEST PUSH2 0xF44 JUMP JUMPDEST STOP JUMPDEST PUSH2 0x33D PUSH1 0x4 DUP1 CALLDATASIZE SUB DUP2 ADD SWAP1 PUSH2 0x338 SWAP2 SWAP1 PUSH2 0x24FB JUMP JUMPDEST PUSH2 0xF5A JUMP JUMPDEST STOP JUMPDEST PUSH2 0x359 PUSH1 0x4 DUP1 CALLDATASIZE SUB DUP2 ADD SWAP1 PUSH2 0x354 SWAP2 SWAP1 PUSH2 0x1F55 JUMP JUMPDEST PUSH2 0xF77 JUMP JUMPDEST PUSH1 0x40 MLOAD PUSH2 0x366 SWAP2 SWAP1 PUSH2 0x1F02 JUMP JUMPDEST PUSH1 0x40 MLOAD DUP1 SWAP2 SUB SWAP1 RETURN JUMPDEST PUSH2 0x389 PUSH1 0x4 DUP1 CALLDATASIZE SUB DUP2 ADD SWAP1 PUSH2 0x384 SWAP2 SWAP1 PUSH2 0x257B JUMP JUMPDEST PUSH2 0xFDD JUMP JUMPDEST PUSH1 0x40 MLOAD PUSH2 0x396 SWAP2 SWAP1 PUSH2 0x1E79 JUMP JUMPDEST PUSH1 0x40 MLOAD DUP1 SWAP2 SUB SWAP1 RETURN JUMPDEST PUSH2 0x3A7 PUSH2 0x106B JUMP JUMPDEST PUSH1 0x40 MLOAD PUSH2 0x3B4 SWAP2 SWAP1 PUSH2 0x1FBF JUMP JUMPDEST PUSH1 0x40 MLOAD DUP1 SWAP2 SUB SWAP1 RETURN JUMPDEST PUSH0 PUSH32 0x80AC58CD00000000000000000000000000000000000000000000000000000000 PUSH28 0xFFFFFFFFFFFFFFFFFFFFFFFFFFFFFFFFFFFFFFFFFFFFFFFFFFFFFFFF NOT AND DUP3 PUSH28 0xFFFFFFFFFFFFFFFFFFFFFFFFFFFFFFFFFFFFFFFFFFFFFFFFFFFFFFFF NOT AND EQ DUP1 PUSH2 0x487 JUMPI POP PUSH32 0x5B5E139F00000000000000000000000000000000000000000000000000000000 PUSH28 0xFFFFFFFFFFFFFFFFFFFFFFFFFFFFFFFFFFFFFFFFFFFFFFFFFFFFFFFF NOT AND DUP3 PUSH28 0xFFFFFFFFFFFFFFFFFFFFFFFFFFFFFFFFFFFFFFFFFFFFFFFFFFFFFFFF NOT AND EQ JUMPDEST DUP1 PUSH2 0x497 JUMPI POP PUSH2 0x496 DUP3 PUSH2 0x1090 JUMP JUMPDEST JUMPDEST SWAP1 POP SWAP2 SWAP1 POP JUMP JUMPDEST PUSH1 0x60 PUSH0 DUP1 SLOAD PUSH2 0x4AC SWAP1 PUSH2 0x25E6 JUMP JUMPDEST DUP1 PUSH1 0x1F ADD PUSH1 0x20 DUP1 SWAP2 DIV MUL PUSH1 0x20 ADD PUSH1 0x40 MLOAD SWAP1 DUP2 ADD PUSH1 0x40 MSTORE DUP1 SWAP3 SWAP2 SWAP1 DUP2 DUP2 MSTORE PUSH1 0x20 ADD DUP3 DUP1 SLOAD PUSH2 0x4D8 SWAP1 PUSH2 0x25E6 JUMP JUMPDEST DUP1 ISZERO PUSH2 0x523 JUMPI DUP1 PUSH1 0x1F LT PUSH2 0x4FA JUMPI PUSH2 0x100 DUP1 DUP4 SLOAD DIV MUL DUP4 MSTORE SWAP2 PUSH1 0x20 ADD SWAP2 PUSH2 0x523 JUMP JUMPDEST DUP3 ADD SWAP2 SWAP1 PUSH0 MSTORE PUSH1 0x20 PUSH0 KECCAK256 SWAP1 JUMPDEST DUP2 SLOAD DUP2 MSTORE SWAP1 PUSH1 0x1 ADD SWAP1 PUSH1 0x20 ADD DUP1 DUP4 GT PUSH2 0x506 JUMPI DUP3 SWAP1 SUB PUSH1 0x1F AND DUP3 ADD SWAP2 JUMPDEST POP POP POP POP POP SWAP1 POP SWAP1 JUMP JUMPDEST PUSH0 PUSH2 0x537 DUP3 PUSH2 0x10F9 JUMP JUMPDEST POP PUSH2 0x541 DUP3 PUSH2 0x117F JUMP JUMPDEST SWAP1 POP SWAP2 SWAP1 POP JUMP JUMPDEST PUSH2 0x55A DUP3 DUP3 PUSH2 0x555 PUSH2 0x11B8 JUMP JUMPDEST PUSH2 0x11BF JUMP JUMPDEST POP POP JUMP JUMPDEST PUSH0 PUSH20 0xFFFFFFFFFFFFFFFFFFFFFFFFFFFFFFFFFFFFFFFF AND DUP3 PUSH20 0xFFFFFFFFFFFFFFFFFFFFFFFFFFFFFFFFFFFFFFFF AND SUB PUSH2 0x5CE JUMPI PUSH0 PUSH1 0x40 MLOAD PUSH32 0x64A0AE9200000000000000000000000000000000000000000000000000000000 DUP2 MSTORE PUSH1 0x4 ADD PUSH2 0x5C5 SWAP2 SWAP1 PUSH2 0x1FBF JUMP JUMPDEST PUSH1 0x40 MLOAD DUP1 SWAP2 SUB SWAP1 REVERT JUMPDEST PUSH0 PUSH2 0x5E1 DUP4 DUP4 PUSH2 0x5DC PUSH2 0x11B8 JUMP JUMPDEST PUSH2 0x11D1 JUMP JUMPDEST SWAP1 POP DUP4 PUSH20 0xFFFFFFFFFFFFFFFFFFFFFFFFFFFFFFFFFFFFFFFF AND DUP2 PUSH20 0xFFFFFFFFFFFFFFFFFFFFFFFFFFFFFFFFFFFFFFFF AND EQ PUSH2 0x657 JUMPI DUP4 DUP3 DUP3 PUSH1 0x40 MLOAD PUSH32 0x64283D7B00000000000000000000000000000000000000000000000000000000 DUP2 MSTORE PUSH1 0x4 ADD PUSH2 0x64E SWAP4 SWAP3 SWAP2 SWAP1 PUSH2 0x2616 JUMP JUMPDEST PUSH1 0x40 MLOAD DUP1 SWAP2 SUB SWAP1 REVERT JUMPDEST POP POP POP POP JUMP JUMPDEST DUP2 CALLER PUSH20 0xFFFFFFFFFFFFFFFFFFFFFFFFFFFFFFFFFFFFFFFF AND PUSH2 0x67E DUP3 PUSH2 0xC44 JUMP JUMPDEST PUSH20 0xFFFFFFFFFFFFFFFFFFFFFFFFFFFFFFFFFFFFFFFF AND EQ PUSH2 0x6D4 JUMPI PUSH1 0x40 MLOAD PUSH32 0x8C379A000000000000000000000000000000000000000000000000000000000 DUP2 MSTORE PUSH1 0x4 ADD PUSH2 0x6CB SWAP1 PUSH2 0x26BB JUMP JUMPDEST PUSH1 0x40 MLOAD DUP1 SWAP2 SUB SWAP1 REVERT JUMPDEST DUP2 DUP4 SUB PUSH2 0x716 JUMPI PUSH1 0x40 MLOAD PUSH32 0x8C379A000000000000000000000000000000000000000000000000000000000 DUP2 MSTORE PUSH1 0x4 ADD PUSH2 0x70D SWAP1 PUSH2 0x2749 JUMP JUMPDEST PUSH1 0x40 MLOAD DUP1 SWAP2 SUB SWAP1 REVERT JUMPDEST PUSH0 PUSH1 0x6 DUP5 DUP2 SLOAD DUP2 LT PUSH2 0x72B JUMPI PUSH2 0x72A PUSH2 0x2767 JUMP JUMPDEST JUMPDEST SWAP1 PUSH0 MSTORE PUSH1 0x20 PUSH0 KECCAK256 SWAP1 PUSH1 0x5 MUL ADD SWAP1 POP PUSH0 PUSH1 0x6 DUP5 DUP2 SLOAD DUP2 LT PUSH2 0x74E JUMPI PUSH2 0x74D PUSH2 0x2767 JUMP JUMPDEST JUMPDEST SWAP1 PUSH0 MSTORE PUSH1 0x20 PUSH0 KECCAK256 SWAP1 PUSH1 0x5 MUL ADD SWAP1 POP PUSH0 DUP1 DUP3 PUSH1 0x2 ADD SLOAD DUP5 PUSH1 0x2 ADD SLOAD GT ISZERO PUSH2 0x782 JUMPI PUSH1 0x1 DUP3 PUSH2 0x77B SWAP2 SWAP1 PUSH2 0x27C1 JUMP JUMPDEST SWAP2 POP PUSH2 0x7A3 JUMP JUMPDEST DUP3 PUSH1 0x2 ADD SLOAD DUP5 PUSH1 0x2 ADD SLOAD LT ISZERO PUSH2 0x7A2 JUMPI PUSH1 0x1 DUP2 PUSH2 0x79F SWAP2 SWAP1 PUSH2 0x27C1 JUMP JUMPDEST SWAP1 POP JUMPDEST JUMPDEST DUP3 PUSH1 0x3 ADD SLOAD DUP5 PUSH1 0x3 ADD SLOAD GT ISZERO PUSH2 0x7C7 JUMPI PUSH1 0x1 DUP3 PUSH2 0x7C0 SWAP2 SWAP1 PUSH2 0x27C1 JUMP JUMPDEST SWAP2 POP PUSH2 0x7E8 JUMP JUMPDEST DUP3 PUSH1 0x3 ADD SLOAD DUP5 PUSH1 0x3 ADD SLOAD LT ISZERO PUSH2 0x7E7 JUMPI PUSH1 0x1 DUP2 PUSH2 0x7E4 SWAP2 SWAP1 PUSH2 0x27C1 JUMP JUMPDEST SWAP1 POP JUMPDEST JUMPDEST DUP3 PUSH1 0x4 ADD SLOAD DUP5 PUSH1 0x4 ADD SLOAD GT ISZERO PUSH2 0x80C JUMPI PUSH1 0x1 DUP3 PUSH2 0x805 SWAP2 SWAP1 PUSH2 0x27C1 JUMP JUMPDEST SWAP2 POP PUSH2 0x82D JUMP JUMPDEST DUP3 PUSH1 0x4 ADD SLOAD DUP5 PUSH1 0x4 ADD SLOAD LT ISZERO PUSH2 0x82C JUMPI PUSH1 0x1 DUP2 PUSH2 0x829 SWAP2 SWAP1 PUSH2 0x27C1 JUMP JUMPDEST SWAP1 POP JUMPDEST JUMPDEST PUSH0 DUP3 PUSH1 0xFF AND SUB PUSH2 0x8B9 JUMPI PUSH1 0x1 DUP5 PUSH1 0x2 ADD PUSH0 DUP3 DUP3 SLOAD PUSH2 0x84B SWAP2 SWAP1 PUSH2 0x27F5 JUMP JUMPDEST SWAP3 POP POP DUP2 SWAP1 SSTORE POP PUSH0 DUP5 PUSH1 0x2 ADD SLOAD LT ISZERO PUSH2 0x868 JUMPI PUSH0 DUP5 PUSH1 0x2 ADD DUP2 SWAP1 SSTORE POP JUMPDEST PUSH1 0x1 DUP5 PUSH1 0x3 ADD PUSH0 DUP3 DUP3 SLOAD PUSH2 0x87C SWAP2 SWAP1 PUSH2 0x27F5 JUMP JUMPDEST SWAP3 POP POP DUP2 SWAP1 SSTORE POP PUSH0 DUP5 PUSH1 0x3 ADD SLOAD LT ISZERO PUSH2 0x899 JUMPI PUSH0 DUP5 PUSH1 0x3 ADD DUP2 SWAP1 SSTORE POP JUMPDEST PUSH1 0x1 DUP4 PUSH1 0x3 ADD PUSH0 DUP3 DUP3 SLOAD PUSH2 0x8AD SWAP2 SWAP1 PUSH2 0x2828 JUMP JUMPDEST SWAP3 POP POP DUP2 SWAP1 SSTORE POP PUSH2 0x934 JUMP JUMPDEST DUP1 PUSH1 0xFF AND DUP3 PUSH1 0xFF AND LT ISZERO PUSH2 0x918 JUMPI PUSH1 0x1 DUP4 PUSH1 0x2 ADD PUSH0 DUP3 DUP3 SLOAD PUSH2 0x8DB SWAP2 SWAP1 PUSH2 0x2828 JUMP JUMPDEST SWAP3 POP POP DUP2 SWAP1 SSTORE POP PUSH1 0x1 DUP5 PUSH1 0x4 ADD PUSH0 DUP3 DUP3 SLOAD PUSH2 0x8F6 SWAP2 SWAP1 PUSH2 0x27F5 JUMP JUMPDEST SWAP3 POP POP DUP2 SWAP1 SSTORE POP PUSH0 DUP5 PUSH1 0x4 ADD SLOAD LT ISZERO PUSH2 0x913 JUMPI PUSH0 DUP5 PUSH1 0x4 ADD DUP2 SWAP1 SSTORE POP JUMPDEST PUSH2 0x933 JUMP JUMPDEST PUSH0 DUP5 PUSH1 0x2 ADD PUSH0 DUP3 DUP3 SLOAD PUSH2 0x92B SWAP2 SWAP1 PUSH2 0x2828 JUMP JUMPDEST SWAP3 POP POP DUP2 SWAP1 SSTORE POP JUMPDEST JUMPDEST PUSH0 DUP2 PUSH1 0xFF AND DUP4 PUSH1 0xFF AND GT ISZERO PUSH2 0x953 JUMPI PUSH2 0x94C DUP9 PUSH2 0xC44 JUMP JUMPDEST SWAP1 POP PUSH2 0x976 JUMP JUMPDEST DUP3 PUSH1 0xFF AND DUP3 PUSH1 0xFF AND GT ISZERO PUSH2 0x971 JUMPI PUSH2 0x96A DUP8 PUSH2 0xC44 JUMP JUMPDEST SWAP1 POP PUSH2 0x975 JUMP JUMPDEST PUSH0 SWAP1 POP JUMPDEST JUMPDEST PUSH1 0x7 PUSH1 0x40 MLOAD DUP1 PUSH1 0x80 ADD PUSH1 0x40 MSTORE DUP1 DUP11 DUP2 MSTORE PUSH1 0x20 ADD DUP10 DUP2 MSTORE PUSH1 0x20 ADD DUP5 PUSH1 0xFF AND DUP7 PUSH1 0xFF AND GT PUSH2 0x9A2 JUMPI DUP5 PUSH2 0x9A4 JUMP JUMPDEST DUP6 JUMPDEST PUSH1 0xFF AND DUP2 MSTORE PUSH1 0x20 ADD DUP4 PUSH20 0xFFFFFFFFFFFFFFFFFFFFFFFFFFFFFFFFFFFFFFFF AND DUP2 MSTORE POP SWAP1 DUP1 PUSH1 0x1 DUP2 SLOAD ADD DUP1 DUP3 SSTORE DUP1 SWAP2 POP POP PUSH1 0x1 SWAP1 SUB SWAP1 PUSH0 MSTORE PUSH1 0x20 PUSH0 KECCAK256 SWAP1 PUSH1 0x3 MUL ADD PUSH0 SWAP1 SWAP2 SWAP1 SWAP2 SWAP1 SWAP2 POP PUSH0 DUP3 ADD MLOAD DUP2 PUSH0 ADD SSTORE PUSH1 0x20 DUP3 ADD MLOAD DUP2 PUSH1 0x1 ADD SSTORE PUSH1 0x40 DUP3 ADD MLOAD DUP2 PUSH1 0x2 ADD PUSH0 PUSH2 0x100 EXP DUP2 SLOAD DUP2 PUSH1 0xFF MUL NOT AND SWAP1 DUP4 PUSH1 0xFF AND MUL OR SWAP1 SSTORE POP PUSH1 0x60 DUP3 ADD MLOAD DUP2 PUSH1 0x2 ADD PUSH1 0x1 PUSH2 0x100 EXP DUP2 SLOAD DUP2 PUSH20 0xFFFFFFFFFFFFFFFFFFFFFFFFFFFFFFFFFFFFFFFF MUL NOT AND SWAP1 DUP4 PUSH20 0xFFFFFFFFFFFFFFFFFFFFFFFFFFFFFFFFFFFFFFFF AND MUL OR SWAP1 SSTORE POP POP POP POP POP POP POP POP POP POP POP JUMP JUMPDEST PUSH2 0xA8B DUP4 DUP4 DUP4 PUSH1 0x40 MLOAD DUP1 PUSH1 0x20 ADD PUSH1 0x40 MSTORE DUP1 PUSH0 DUP2 MSTORE POP PUSH2 0xF5A JUMP JUMPDEST POP POP POP JUMP JUMPDEST PUSH1 0x6 DUP2 DUP2 SLOAD DUP2 LT PUSH2 0xA9F JUMPI PUSH0 DUP1 REVERT JUMPDEST SWAP1 PUSH0 MSTORE PUSH1 0x20 PUSH0 KECCAK256 SWAP1 PUSH1 0x5 MUL ADD PUSH0 SWAP2 POP SWAP1 POP DUP1 PUSH0 ADD DUP1 SLOAD PUSH2 0xABE SWAP1 PUSH2 0x25E6 JUMP JUMPDEST DUP1 PUSH1 0x1F ADD PUSH1 0x20 DUP1 SWAP2 DIV MUL PUSH1 0x20 ADD PUSH1 0x40 MLOAD SWAP1 DUP2 ADD PUSH1 0x40 MSTORE DUP1 SWAP3 SWAP2 SWAP1 DUP2 DUP2 MSTORE PUSH1 0x20 ADD DUP3 DUP1 SLOAD PUSH2 0xAEA SWAP1 PUSH2 0x25E6 JUMP JUMPDEST DUP1 ISZERO PUSH2 0xB35 JUMPI DUP1 PUSH1 0x1F LT PUSH2 0xB0C JUMPI PUSH2 0x100 DUP1 DUP4 SLOAD DIV MUL DUP4 MSTORE SWAP2 PUSH1 0x20 ADD SWAP2 PUSH2 0xB35 JUMP JUMPDEST DUP3 ADD SWAP2 SWAP1 PUSH0 MSTORE PUSH1 0x20 PUSH0 KECCAK256 SWAP1 JUMPDEST DUP2 SLOAD DUP2 MSTORE SWAP1 PUSH1 0x1 ADD SWAP1 PUSH1 0x20 ADD DUP1 DUP4 GT PUSH2 0xB18 JUMPI DUP3 SWAP1 SUB PUSH1 0x1F AND DUP3 ADD SWAP2 JUMPDEST POP POP POP POP POP SWAP1 DUP1 PUSH1 0x1 ADD DUP1 SLOAD PUSH2 0xB4A SWAP1 PUSH2 0x25E6 JUMP JUMPDEST DUP1 PUSH1 0x1F ADD PUSH1 0x20 DUP1 SWAP2 DIV MUL PUSH1 0x20 ADD PUSH1 0x40 MLOAD SWAP1 DUP2 ADD PUSH1 0x40 MSTORE DUP1 SWAP3 SWAP2 SWAP1 DUP2 DUP2 MSTORE PUSH1 0x20 ADD DUP3 DUP1 SLOAD PUSH2 0xB76 SWAP1 PUSH2 0x25E6 JUMP JUMPDEST DUP1 ISZERO PUSH2 0xBC1 JUMPI DUP1 PUSH1 0x1F LT PUSH2 0xB98 JUMPI PUSH2 0x100 DUP1 DUP4 SLOAD DIV MUL DUP4 MSTORE SWAP2 PUSH1 0x20 ADD SWAP2 PUSH2 0xBC1 JUMP JUMPDEST DUP3 ADD SWAP2 SWAP1 PUSH0 MSTORE PUSH1 0x20 PUSH0 KECCAK256 SWAP1 JUMPDEST DUP2 SLOAD DUP2 MSTORE SWAP1 PUSH1 0x1 ADD SWAP1 PUSH1 0x20 ADD DUP1 DUP4 GT PUSH2 0xBA4 JUMPI DUP3 SWAP1 SUB PUSH1 0x1F AND DUP3 ADD SWAP2 JUMPDEST POP POP POP POP POP SWAP1 DUP1 PUSH1 0x2 ADD SLOAD SWAP1 DUP1 PUSH1 0x3 ADD SLOAD SWAP1 DUP1 PUSH1 0x4 ADD SLOAD SWAP1 POP DUP6 JUMP JUMPDEST PUSH1 0x7 DUP2 DUP2 SLOAD DUP2 LT PUSH2 0xBEC JUMPI PUSH0 DUP1 REVERT JUMPDEST SWAP1 PUSH0 MSTORE PUSH1 0x20 PUSH0 KECCAK256 SWAP1 PUSH1 0x3 MUL ADD PUSH0 SWAP2 POP SWAP1 POP DUP1 PUSH0 ADD SLOAD SWAP1 DUP1 PUSH1 0x1 ADD SLOAD SWAP1 DUP1 PUSH1 0x2 ADD PUSH0 SWAP1 SLOAD SWAP1 PUSH2 0x100 EXP SWAP1 DIV PUSH1 0xFF AND SWAP1 DUP1 PUSH1 0x2 ADD PUSH1 0x1 SWAP1 SLOAD SWAP1 PUSH2 0x100 EXP SWAP1 DIV PUSH20 0xFFFFFFFFFFFFFFFFFFFFFFFFFFFFFFFFFFFFFFFF AND SWAP1 POP DUP5 JUMP JUMPDEST PUSH0 PUSH2 0xC4E DUP3 PUSH2 0x10F9 JUMP JUMPDEST SWAP1 POP SWAP2 SWAP1 POP JUMP JUMPDEST PUSH1 0x8 PUSH0 SWAP1 SLOAD SWAP1 PUSH2 0x100 EXP SWAP1 DIV PUSH20 0xFFFFFFFFFFFFFFFFFFFFFFFFFFFFFFFFFFFFFFFF AND PUSH20 0xFFFFFFFFFFFFFFFFFFFFFFFFFFFFFFFFFFFFFFFF AND CALLER PUSH20 0xFFFFFFFFFFFFFFFFFFFFFFFFFFFFFFFFFFFFFFFF AND EQ PUSH2 0xCE4 JUMPI PUSH1 0x40 MLOAD PUSH32 0x8C379A000000000000000000000000000000000000000000000000000000000 DUP2 MSTORE PUSH1 0x4 ADD PUSH2 0xCDB SWAP1 PUSH2 0x28CB JUMP JUMPDEST PUSH1 0x40 MLOAD DUP1 SWAP2 SUB SWAP1 REVERT JUMPDEST PUSH1 0x14 DUP3 DUP5 DUP7 PUSH2 0xCF3 SWAP2 SWAP1 PUSH2 0x27C1 JUMP JUMPDEST PUSH2 0xCFD SWAP2 SWAP1 PUSH2 0x27C1 JUMP JUMPDEST PUSH1 0xFF AND EQ PUSH2 0xD40 JUMPI PUSH1 0x40 MLOAD PUSH32 0x8C379A000000000000000000000000000000000000000000000000000000000 DUP2 MSTORE PUSH1 0x4 ADD PUSH2 0xD37 SWAP1 PUSH2 0x2933 JUMP JUMPDEST PUSH1 0x40 MLOAD DUP1 SWAP2 SUB SWAP1 REVERT JUMPDEST PUSH0 PUSH1 0x6 DUP1 SLOAD SWAP1 POP SWAP1 POP PUSH1 0x6 PUSH1 0x40 MLOAD DUP1 PUSH1 0xA0 ADD PUSH1 0x40 MSTORE DUP1 DUP10 DUP2 MSTORE PUSH1 0x20 ADD DUP5 DUP2 MSTORE PUSH1 0x20 ADD DUP8 PUSH1 0xFF AND DUP2 MSTORE PUSH1 0x20 ADD DUP7 PUSH1 0xFF AND DUP2 MSTORE PUSH1 0x20 ADD DUP6 PUSH1 0xFF AND DUP2 MSTORE POP SWAP1 DUP1 PUSH1 0x1 DUP2 SLOAD ADD DUP1 DUP3 SSTORE DUP1 SWAP2 POP POP PUSH1 0x1 SWAP1 SUB SWAP1 PUSH0 MSTORE PUSH1 0x20 PUSH0 KECCAK256 SWAP1 PUSH1 0x5 MUL ADD PUSH0 SWAP1 SWAP2 SWAP1 SWAP2 SWAP1 SWAP2 POP PUSH0 DUP3 ADD MLOAD DUP2 PUSH0 ADD SWAP1 DUP2 PUSH2 0xDB4 SWAP2 SWAP1 PUSH2 0x2AEE JUMP JUMPDEST POP PUSH1 0x20 DUP3 ADD MLOAD DUP2 PUSH1 0x1 ADD SWAP1 DUP2 PUSH2 0xDCA SWAP2 SWAP1 PUSH2 0x2AEE JUMP JUMPDEST POP PUSH1 0x40 DUP3 ADD MLOAD DUP2 PUSH1 0x2 ADD SSTORE PUSH1 0x60 DUP3 ADD MLOAD DUP2 PUSH1 0x3 ADD SSTORE PUSH1 0x80 DUP3 ADD MLOAD DUP2 PUSH1 0x4 ADD SSTORE POP POP PUSH2 0xDF5 DUP7 DUP3 PUSH2 0x13DC JUMP JUMPDEST POP POP POP POP POP POP POP JUMP JUMPDEST PUSH0 DUP1 PUSH20 0xFFFFFFFFFFFFFFFFFFFFFFFFFFFFFFFFFFFFFFFF AND DUP3 PUSH20 0xFFFFFFFFFFFFFFFFFFFFFFFFFFFFFFFFFFFFFFFF AND SUB PUSH2 0xE6F JUMPI PUSH0 PUSH1 0x40 MLOAD PUSH32 0x89C62B6400000000000000000000000000000000000000000000000000000000 DUP2 MSTORE PUSH1 0x4 ADD PUSH2 0xE66 SWAP2 SWAP1 PUSH2 0x1FBF JUMP JUMPDEST PUSH1 0x40 MLOAD DUP1 SWAP2 SUB SWAP1 REVERT JUMPDEST PUSH1 0x3 PUSH0 DUP4 PUSH20 0xFFFFFFFFFFFFFFFFFFFFFFFFFFFFFFFFFFFFFFFF AND PUSH20 0xFFFFFFFFFFFFFFFFFFFFFFFFFFFFFFFFFFFFFFFF AND DUP2 MSTORE PUSH1 0x20 ADD SWAP1 DUP2 MSTORE PUSH1 0x20 ADD PUSH0 KECCAK256 SLOAD SWAP1 POP SWAP2 SWAP1 POP JUMP JUMPDEST PUSH1 0x60 PUSH1 0x1 DUP1 SLOAD PUSH2 0xEC3 SWAP1 PUSH2 0x25E6 JUMP JUMPDEST DUP1 PUSH1 0x1F ADD PUSH1 0x20 DUP1 SWAP2 DIV MUL PUSH1 0x20 ADD PUSH1 0x40 MLOAD SWAP1 DUP2 ADD PUSH1 0x40 MSTORE DUP1 SWAP3 SWAP2 SWAP1 DUP2 DUP2 MSTORE PUSH1 0x20 ADD DUP3 DUP1 SLOAD PUSH2 0xEEF SWAP1 PUSH2 0x25E6 JUMP JUMPDEST DUP1 ISZERO PUSH2 0xF3A JUMPI DUP1 PUSH1 0x1F LT PUSH2 0xF11 JUMPI PUSH2 0x100 DUP1 DUP4 SLOAD DIV MUL DUP4 MSTORE SWAP2 PUSH1 0x20 ADD SWAP2 PUSH2 0xF3A JUMP JUMPDEST DUP3 ADD SWAP2 SWAP1 PUSH0 MSTORE PUSH1 0x20 PUSH0 KECCAK256 SWAP1 JUMPDEST DUP2 SLOAD DUP2 MSTORE SWAP1 PUSH1 0x1 ADD SWAP1 PUSH1 0x20 ADD DUP1 DUP4 GT PUSH2 0xF1D JUMPI DUP3 SWAP1 SUB PUSH1 0x1F AND DUP3 ADD SWAP2 JUMPDEST POP POP POP POP POP SWAP1 POP SWAP1 JUMP JUMPDEST PUSH2 0xF56 PUSH2 0xF4F PUSH2 0x11B8 JUMP JUMPDEST DUP4 DUP4 PUSH2 0x13F9 JUMP JUMPDEST POP POP JUMP JUMPDEST PUSH2 0xF65 DUP5 DUP5 DUP5 PUSH2 0x55E JUMP JUMPDEST PUSH2 0xF71 DUP5 DUP5 DUP5 DUP5 PUSH2 0x1562 JUMP JUMPDEST POP POP POP POP JUMP JUMPDEST PUSH1 0x60 PUSH2 0xF82 DUP3 PUSH2 0x10F9 JUMP JUMPDEST POP PUSH0 PUSH2 0xF8C PUSH2 0x1714 JUMP JUMPDEST SWAP1 POP PUSH0 DUP2 MLOAD GT PUSH2 0xFAA JUMPI PUSH1 0x40 MLOAD DUP1 PUSH1 0x20 ADD PUSH1 0x40 MSTORE DUP1 PUSH0 DUP2 MSTORE POP PUSH2 0xFD5 JUMP JUMPDEST DUP1 PUSH2 0xFB4 DUP5 PUSH2 0x172A JUMP JUMPDEST PUSH1 0x40 MLOAD PUSH1 0x20 ADD PUSH2 0xFC5 SWAP3 SWAP2 SWAP1 PUSH2 0x2BF7 JUMP JUMPDEST PUSH1 0x40 MLOAD PUSH1 0x20 DUP2 DUP4 SUB SUB DUP2 MSTORE SWAP1 PUSH1 0x40 MSTORE JUMPDEST SWAP2 POP POP SWAP2 SWAP1 POP JUMP JUMPDEST PUSH0 PUSH1 0x5 PUSH0 DUP5 PUSH20 0xFFFFFFFFFFFFFFFFFFFFFFFFFFFFFFFFFFFFFFFF AND PUSH20 0xFFFFFFFFFFFFFFFFFFFFFFFFFFFFFFFFFFFFFFFF AND DUP2 MSTORE PUSH1 0x20 ADD SWAP1 DUP2 MSTORE PUSH1 0x20 ADD PUSH0 KECCAK256 PUSH0 DUP4 PUSH20 0xFFFFFFFFFFFFFFFFFFFFFFFFFFFFFFFFFFFFFFFF AND PUSH20 0xFFFFFFFFFFFFFFFFFFFFFFFFFFFFFFFFFFFFFFFF AND DUP2 MSTORE PUSH1 0x20 ADD SWAP1 DUP2 MSTORE PUSH1 0x20 ADD PUSH0 KECCAK256 PUSH0 SWAP1 SLOAD SWAP1 PUSH2 0x100 EXP SWAP1 DIV PUSH1 0xFF AND SWAP1 POP SWAP3 SWAP2 POP POP JUMP JUMPDEST PUSH1 0x8 PUSH0 SWAP1 SLOAD SWAP1 PUSH2 0x100 EXP SWAP1 DIV PUSH20 0xFFFFFFFFFFFFFFFFFFFFFFFFFFFFFFFFFFFFFFFF AND DUP2 JUMP JUMPDEST PUSH0 PUSH32 0x1FFC9A700000000000000000000000000000000000000000000000000000000 PUSH28 0xFFFFFFFFFFFFFFFFFFFFFFFFFFFFFFFFFFFFFFFFFFFFFFFFFFFFFFFF NOT AND DUP3 PUSH28 0xFFFFFFFFFFFFFFFFFFFFFFFFFFFFFFFFFFFFFFFFFFFFFFFFFFFFFFFF NOT AND EQ SWAP1 POP SWAP2 SWAP1 POP JUMP JUMPDEST PUSH0 DUP1 PUSH2 0x1104 DUP4 PUSH2 0x17F4 JUMP JUMPDEST SWAP1 POP PUSH0 PUSH20 0xFFFFFFFFFFFFFFFFFFFFFFFFFFFFFFFFFFFFFFFF AND DUP2 PUSH20 0xFFFFFFFFFFFFFFFFFFFFFFFFFFFFFFFFFFFFFFFF AND SUB PUSH2 0x1176 JUMPI DUP3 PUSH1 0x40 MLOAD PUSH32 0x7E27328900000000000000000000000000000000000000000000000000000000 DUP2 MSTORE PUSH1 0x4 ADD PUSH2 0x116D SWAP2 SWAP1 PUSH2 0x23DC JUMP JUMPDEST PUSH1 0x40 MLOAD DUP1 SWAP2 SUB SWAP1 REVERT JUMPDEST DUP1 SWAP2 POP POP SWAP2 SWAP1 POP JUMP JUMPDEST PUSH0 PUSH1 0x4 PUSH0 DUP4 DUP2 MSTORE PUSH1 0x20 ADD SWAP1 DUP2 MSTORE PUSH1 0x20 ADD PUSH0 KECCAK256 PUSH0 SWAP1 SLOAD SWAP1 PUSH2 0x100 EXP SWAP1 DIV PUSH20 0xFFFFFFFFFFFFFFFFFFFFFFFFFFFFFFFFFFFFFFFF AND SWAP1 POP SWAP2 SWAP1 POP JUMP JUMPDEST PUSH0 CALLER SWAP1 POP SWAP1 JUMP JUMPDEST PUSH2 0x11CC DUP4 DUP4 DUP4 PUSH1 0x1 PUSH2 0x182D JUMP JUMPDEST POP POP POP JUMP JUMPDEST PUSH0 DUP1 PUSH2 0x11DC DUP5 PUSH2 0x17F4 JUMP JUMPDEST SWAP1 POP PUSH0 PUSH20 0xFFFFFFFFFFFFFFFFFFFFFFFFFFFFFFFFFFFFFFFF AND DUP4 PUSH20 0xFFFFFFFFFFFFFFFFFFFFFFFFFFFFFFFFFFFFFFFF AND EQ PUSH2 0x121D JUMPI PUSH2 0x121C DUP2 DUP5 DUP7 PUSH2 0x19EC JUMP JUMPDEST JUMPDEST PUSH0 PUSH20 0xFFFFFFFFFFFFFFFFFFFFFFFFFFFFFFFFFFFFFFFF AND DUP2 PUSH20 0xFFFFFFFFFFFFFFFFFFFFFFFFFFFFFFFFFFFFFFFF AND EQ PUSH2 0x12A8 JUMPI PUSH2 0x125C PUSH0 DUP6 PUSH0 DUP1 PUSH2 0x182D JUMP JUMPDEST PUSH1 0x1 PUSH1 0x3 PUSH0 DUP4 PUSH20 0xFFFFFFFFFFFFFFFFFFFFFFFFFFFFFFFFFFFFFFFF AND PUSH20 0xFFFFFFFFFFFFFFFFFFFFFFFFFFFFFFFFFFFFFFFF AND DUP2 MSTORE PUSH1 0x20 ADD SWAP1 DUP2 MSTORE PUSH1 0x20 ADD PUSH0 KECCAK256 PUSH0 DUP3 DUP3 SLOAD SUB SWAP3 POP POP DUP2 SWAP1 SSTORE POP JUMPDEST PUSH0 PUSH20 0xFFFFFFFFFFFFFFFFFFFFFFFFFFFFFFFFFFFFFFFF AND DUP6 PUSH20 0xFFFFFFFFFFFFFFFFFFFFFFFFFFFFFFFFFFFFFFFF AND EQ PUSH2 0x1327 JUMPI PUSH1 0x1 PUSH1 0x3 PUSH0 DUP8 PUSH20 0xFFFFFFFFFFFFFFFFFFFFFFFFFFFFFFFFFFFFFFFF AND PUSH20 0xFFFFFFFFFFFFFFFFFFFFFFFFFFFFFFFFFFFFFFFF AND DUP2 MSTORE PUSH1 0x20 ADD SWAP1 DUP2 MSTORE PUSH1 0x20 ADD PUSH0 KECCAK256 PUSH0 DUP3 DUP3 SLOAD ADD SWAP3 POP POP DUP2 SWAP1 SSTORE POP JUMPDEST DUP5 PUSH1 0x2 PUSH0 DUP7 DUP2 MSTORE PUSH1 0x20 ADD SWAP1 DUP2 MSTORE PUSH1 0x20 ADD PUSH0 KECCAK256 PUSH0 PUSH2 0x100 EXP DUP2 SLOAD DUP2 PUSH20 0xFFFFFFFFFFFFFFFFFFFFFFFFFFFFFFFFFFFFFFFF MUL NOT AND SWAP1 DUP4 PUSH20 0xFFFFFFFFFFFFFFFFFFFFFFFFFFFFFFFFFFFFFFFF AND MUL OR SWAP1 SSTORE POP DUP4 DUP6 PUSH20 0xFFFFFFFFFFFFFFFFFFFFFFFFFFFFFFFFFFFFFFFF AND DUP3 PUSH20 0xFFFFFFFFFFFFFFFFFFFFFFFFFFFFFFFFFFFFFFFF AND PUSH32 0xDDF252AD1BE2C89B69C2B068FC378DAA952BA7F163C4A11628F55A4DF523B3EF PUSH1 0x40 MLOAD PUSH1 0x40 MLOAD DUP1 SWAP2 SUB SWAP1 LOG4 DUP1 SWAP2 POP POP SWAP4 SWAP3 POP POP POP JUMP JUMPDEST PUSH2 0x13F5 DUP3 DUP3 PUSH1 0x40 MLOAD DUP1 PUSH1 0x20 ADD PUSH1 0x40 MSTORE DUP1 PUSH0 DUP2 MSTORE POP PUSH2 0x1AAF JUMP JUMPDEST POP POP JUMP JUMPDEST PUSH0 PUSH20 0xFFFFFFFFFFFFFFFFFFFFFFFFFFFFFFFFFFFFFFFF AND DUP3 PUSH20 0xFFFFFFFFFFFFFFFFFFFFFFFFFFFFFFFFFFFFFFFF AND SUB PUSH2 0x1469 JUMPI DUP2 PUSH1 0x40 MLOAD PUSH32 0x5B08BA1800000000000000000000000000000000000000000000000000000000 DUP2 MSTORE PUSH1 0x4 ADD PUSH2 0x1460 SWAP2 SWAP1 PUSH2 0x1FBF JUMP JUMPDEST PUSH1 0x40 MLOAD DUP1 SWAP2 SUB SWAP1 REVERT JUMPDEST DUP1 PUSH1 0x5 PUSH0 DUP6 PUSH20 0xFFFFFFFFFFFFFFFFFFFFFFFFFFFFFFFFFFFFFFFF AND PUSH20 0xFFFFFFFFFFFFFFFFFFFFFFFFFFFFFFFFFFFFFFFF AND DUP2 MSTORE PUSH1 0x20 ADD SWAP1 DUP2 MSTORE PUSH1 0x20 ADD PUSH0 KECCAK256 PUSH0 DUP5 PUSH20 0xFFFFFFFFFFFFFFFFFFFFFFFFFFFFFFFFFFFFFFFF AND PUSH20 0xFFFFFFFFFFFFFFFFFFFFFFFFFFFFFFFFFFFFFFFF AND DUP2 MSTORE PUSH1 0x20 ADD SWAP1 DUP2 MSTORE PUSH1 0x20 ADD PUSH0 KECCAK256 PUSH0 PUSH2 0x100 EXP DUP2 SLOAD DUP2 PUSH1 0xFF MUL NOT AND SWAP1 DUP4 ISZERO ISZERO MUL OR SWAP1 SSTORE POP DUP2 PUSH20 0xFFFFFFFFFFFFFFFFFFFFFFFFFFFFFFFFFFFFFFFF AND DUP4 PUSH20 0xFFFFFFFFFFFFFFFFFFFFFFFFFFFFFFFFFFFFFFFF AND PUSH32 0x17307EAB39AB6107E8899845AD3D59BD9653F200F220920489CA2B5937696C31 DUP4 PUSH1 0x40 MLOAD PUSH2 0x1555 SWAP2 SWAP1 PUSH2 0x1E79 JUMP JUMPDEST PUSH1 0x40 MLOAD DUP1 SWAP2 SUB SWAP1 LOG3 POP POP POP JUMP JUMPDEST PUSH0 DUP4 PUSH20 0xFFFFFFFFFFFFFFFFFFFFFFFFFFFFFFFFFFFFFFFF AND EXTCODESIZE GT ISZERO PUSH2 0x170E JUMPI DUP3 PUSH20 0xFFFFFFFFFFFFFFFFFFFFFFFFFFFFFFFFFFFFFFFF AND PUSH4 0x150B7A02 PUSH2 0x15A5 PUSH2 0x11B8 JUMP JUMPDEST DUP7 DUP6 DUP6 PUSH1 0x40 MLOAD DUP6 PUSH4 0xFFFFFFFF AND PUSH1 0xE0 SHL DUP2 MSTORE PUSH1 0x4 ADD PUSH2 0x15C7 SWAP5 SWAP4 SWAP3 SWAP2 SWAP1 PUSH2 0x2C6C JUMP JUMPDEST PUSH1 0x20 PUSH1 0x40 MLOAD DUP1 DUP4 SUB DUP2 PUSH0 DUP8 GAS CALL SWAP3 POP POP POP DUP1 ISZERO PUSH2 0x1602 JUMPI POP PUSH1 0x40 MLOAD RETURNDATASIZE PUSH1 0x1F NOT PUSH1 0x1F DUP3 ADD AND DUP3 ADD DUP1 PUSH1 0x40 MSTORE POP DUP2 ADD SWAP1 PUSH2 0x15FF SWAP2 SWAP1 PUSH2 0x2CCA JUMP JUMPDEST PUSH1 0x1 JUMPDEST PUSH2 0x1683 JUMPI RETURNDATASIZE DUP1 PUSH0 DUP2 EQ PUSH2 0x1630 JUMPI PUSH1 0x40 MLOAD SWAP2 POP PUSH1 0x1F NOT PUSH1 0x3F RETURNDATASIZE ADD AND DUP3 ADD PUSH1 0x40 MSTORE RETURNDATASIZE DUP3 MSTORE RETURNDATASIZE PUSH0 PUSH1 0x20 DUP5 ADD RETURNDATACOPY PUSH2 0x1635 JUMP JUMPDEST PUSH1 0x60 SWAP2 POP JUMPDEST POP PUSH0 DUP2 MLOAD SUB PUSH2 0x167B JUMPI DUP4 PUSH1 0x40 MLOAD PUSH32 0x64A0AE9200000000000000000000000000000000000000000000000000000000 DUP2 MSTORE PUSH1 0x4 ADD PUSH2 0x1672 SWAP2 SWAP1 PUSH2 0x1FBF JUMP JUMPDEST PUSH1 0x40 MLOAD DUP1 SWAP2 SUB SWAP1 REVERT JUMPDEST DUP1 MLOAD DUP2 PUSH1 0x20 ADD REVERT JUMPDEST PUSH4 0x150B7A02 PUSH1 0xE0 SHL PUSH28 0xFFFFFFFFFFFFFFFFFFFFFFFFFFFFFFFFFFFFFFFFFFFFFFFFFFFFFFFF NOT AND DUP2 PUSH28 0xFFFFFFFFFFFFFFFFFFFFFFFFFFFFFFFFFFFFFFFFFFFFFFFFFFFFFFFF NOT AND EQ PUSH2 0x170C JUMPI DUP4 PUSH1 0x40 MLOAD PUSH32 0x64A0AE9200000000000000000000000000000000000000000000000000000000 DUP2 MSTORE PUSH1 0x4 ADD PUSH2 0x1703 SWAP2 SWAP1 PUSH2 0x1FBF JUMP JUMPDEST PUSH1 0x40 MLOAD DUP1 SWAP2 SUB SWAP1 REVERT JUMPDEST POP JUMPDEST POP POP POP POP JUMP JUMPDEST PUSH1 0x60 PUSH1 0x40 MLOAD DUP1 PUSH1 0x20 ADD PUSH1 0x40 MSTORE DUP1 PUSH0 DUP2 MSTORE POP SWAP1 POP SWAP1 JUMP JUMPDEST PUSH1 0x60 PUSH0 PUSH1 0x1 PUSH2 0x1738 DUP5 PUSH2 0x1ACA JUMP JUMPDEST ADD SWAP1 POP PUSH0 DUP2 PUSH8 0xFFFFFFFFFFFFFFFF DUP2 GT ISZERO PUSH2 0x1756 JUMPI PUSH2 0x1755 PUSH2 0x21A2 JUMP JUMPDEST JUMPDEST PUSH1 0x40 MLOAD SWAP1 DUP1 DUP3 MSTORE DUP1 PUSH1 0x1F ADD PUSH1 0x1F NOT AND PUSH1 0x20 ADD DUP3 ADD PUSH1 0x40 MSTORE DUP1 ISZERO PUSH2 0x1788 JUMPI DUP2 PUSH1 0x20 ADD PUSH1 0x1 DUP3 MUL DUP1 CALLDATASIZE DUP4 CALLDATACOPY DUP1 DUP3 ADD SWAP2 POP POP SWAP1 POP JUMPDEST POP SWAP1 POP PUSH0 DUP3 PUSH1 0x20 ADD DUP3 ADD SWAP1 POP JUMPDEST PUSH1 0x1 ISZERO PUSH2 0x17E9 JUMPI DUP1 DUP1 PUSH1 0x1 SWAP1 SUB SWAP2 POP POP PUSH32 0x3031323334353637383961626364656600000000000000000000000000000000 PUSH1 0xA DUP7 MOD BYTE DUP2 MSTORE8 PUSH1 0xA DUP6 DUP2 PUSH2 0x17DE JUMPI PUSH2 0x17DD PUSH2 0x2CF5 JUMP JUMPDEST JUMPDEST DIV SWAP5 POP PUSH0 DUP6 SUB PUSH2 0x1795 JUMPI JUMPDEST DUP2 SWAP4 POP POP POP POP SWAP2 SWAP1 POP JUMP JUMPDEST PUSH0 PUSH1 0x2 PUSH0 DUP4 DUP2 MSTORE PUSH1 0x20 ADD SWAP1 DUP2 MSTORE PUSH1 0x20 ADD PUSH0 KECCAK256 PUSH0 SWAP1 SLOAD SWAP1 PUSH2 0x100 EXP SWAP1 DIV PUSH20 0xFFFFFFFFFFFFFFFFFFFFFFFFFFFFFFFFFFFFFFFF AND SWAP1 POP SWAP2 SWAP1 POP JUMP JUMPDEST DUP1 DUP1 PUSH2 0x1865 JUMPI POP PUSH0 PUSH20 0xFFFFFFFFFFFFFFFFFFFFFFFFFFFFFFFFFFFFFFFF AND DUP3 PUSH20 0xFFFFFFFFFFFFFFFFFFFFFFFFFFFFFFFFFFFFFFFF AND EQ ISZERO JUMPDEST ISZERO PUSH2 0x1997 JUMPI PUSH0 PUSH2 0x1874 DUP5 PUSH2 0x10F9 JUMP JUMPDEST SWAP1 POP PUSH0 PUSH20 0xFFFFFFFFFFFFFFFFFFFFFFFFFFFFFFFFFFFFFFFF AND DUP4 PUSH20 0xFFFFFFFFFFFFFFFFFFFFFFFFFFFFFFFFFFFFFFFF AND EQ ISZERO DUP1 ISZERO PUSH2 0x18DE JUMPI POP DUP3 PUSH20 0xFFFFFFFFFFFFFFFFFFFFFFFFFFFFFFFFFFFFFFFF AND DUP2 PUSH20 0xFFFFFFFFFFFFFFFFFFFFFFFFFFFFFFFFFFFFFFFF AND EQ ISZERO JUMPDEST DUP1 ISZERO PUSH2 0x18F1 JUMPI POP PUSH2 0x18EF DUP2 DUP5 PUSH2 0xFDD JUMP JUMPDEST ISZERO JUMPDEST ISZERO PUSH2 0x1933 JUMPI DUP3 PUSH1 0x40 MLOAD PUSH32 0xA9FBF51F00000000000000000000000000000000000000000000000000000000 DUP2 MSTORE PUSH1 0x4 ADD PUSH2 0x192A SWAP2 SWAP1 PUSH2 0x1FBF JUMP JUMPDEST PUSH1 0x40 MLOAD DUP1 SWAP2 SUB SWAP1 REVERT JUMPDEST DUP2 ISZERO PUSH2 0x1995 JUMPI DUP4 DUP6 PUSH20 0xFFFFFFFFFFFFFFFFFFFFFFFFFFFFFFFFFFFFFFFF AND DUP3 PUSH20 0xFFFFFFFFFFFFFFFFFFFFFFFFFFFFFFFFFFFFFFFF AND PUSH32 0x8C5BE1E5EBEC7D5BD14F71427D1E84F3DD0314C0F7B2291E5B200AC8C7C3B925 PUSH1 0x40 MLOAD PUSH1 0x40 MLOAD DUP1 SWAP2 SUB SWAP1 LOG4 JUMPDEST POP JUMPDEST DUP4 PUSH1 0x4 PUSH0 DUP6 DUP2 MSTORE PUSH1 0x20 ADD SWAP1 DUP2 MSTORE PUSH1 0x20 ADD PUSH0 KECCAK256 PUSH0 PUSH2 0x100 EXP DUP2 SLOAD DUP2 PUSH20 0xFFFFFFFFFFFFFFFFFFFFFFFFFFFFFFFFFFFFFFFF MUL NOT AND SWAP1 DUP4 PUSH20 0xFFFFFFFFFFFFFFFFFFFFFFFFFFFFFFFFFFFFFFFF AND MUL OR SWAP1 SSTORE POP POP POP POP POP JUMP JUMPDEST PUSH2 0x19F7 DUP4 DUP4 DUP4 PUSH2 0x1C1B JUMP JUMPDEST PUSH2 0x1AAA JUMPI PUSH0 PUSH20 0xFFFFFFFFFFFFFFFFFFFFFFFFFFFFFFFFFFFFFFFF AND DUP4 PUSH20 0xFFFFFFFFFFFFFFFFFFFFFFFFFFFFFFFFFFFFFFFF AND SUB PUSH2 0x1A6B JUMPI DUP1 PUSH1 0x40 MLOAD PUSH32 0x7E27328900000000000000000000000000000000000000000000000000000000 DUP2 MSTORE PUSH1 0x4 ADD PUSH2 0x1A62 SWAP2 SWAP1 PUSH2 0x23DC JUMP JUMPDEST PUSH1 0x40 MLOAD DUP1 SWAP2 SUB SWAP1 REVERT JUMPDEST DUP2 DUP2 PUSH1 0x40 MLOAD PUSH32 0x177E802F00000000000000000000000000000000000000000000000000000000 DUP2 MSTORE PUSH1 0x4 ADD PUSH2 0x1AA1 SWAP3 SWAP2 SWAP1 PUSH2 0x2D22 JUMP JUMPDEST PUSH1 0x40 MLOAD DUP1 SWAP2 SUB SWAP1 REVERT JUMPDEST POP POP POP JUMP JUMPDEST PUSH2 0x1AB9 DUP4 DUP4 PUSH2 0x1CDB JUMP JUMPDEST PUSH2 0x1AC5 PUSH0 DUP5 DUP5 DUP5 PUSH2 0x1562 JUMP JUMPDEST POP POP POP JUMP JUMPDEST PUSH0 DUP1 PUSH0 SWAP1 POP PUSH27 0x184F03E93FF9F4DAA797ED6E38ED64BF6A1F010000000000000000 DUP4 LT PUSH2 0x1B26 JUMPI PUSH27 0x184F03E93FF9F4DAA797ED6E38ED64BF6A1F010000000000000000 DUP4 DUP2 PUSH2 0x1B1C JUMPI PUSH2 0x1B1B PUSH2 0x2CF5 JUMP JUMPDEST JUMPDEST DIV SWAP3 POP PUSH1 0x40 DUP2 ADD SWAP1 POP JUMPDEST PUSH14 0x4EE2D6D415B85ACEF8100000000 DUP4 LT PUSH2 0x1B63 JUMPI PUSH14 0x4EE2D6D415B85ACEF8100000000 DUP4 DUP2 PUSH2 0x1B59 JUMPI PUSH2 0x1B58 PUSH2 0x2CF5 JUMP JUMPDEST JUMPDEST DIV SWAP3 POP PUSH1 0x20 DUP2 ADD SWAP1 POP JUMPDEST PUSH7 0x2386F26FC10000 DUP4 LT PUSH2 0x1B92 JUMPI PUSH7 0x2386F26FC10000 DUP4 DUP2 PUSH2 0x1B88 JUMPI PUSH2 0x1B87 PUSH2 0x2CF5 JUMP JUMPDEST JUMPDEST DIV SWAP3 POP PUSH1 0x10 DUP2 ADD SWAP1 POP JUMPDEST PUSH4 0x5F5E100 DUP4 LT PUSH2 0x1BBB JUMPI PUSH4 0x5F5E100 DUP4 DUP2 PUSH2 0x1BB1 JUMPI PUSH2 0x1BB0 PUSH2 0x2CF5 JUMP JUMPDEST JUMPDEST DIV SWAP3 POP PUSH1 0x8 DUP2 ADD SWAP1 POP JUMPDEST PUSH2 0x2710 DUP4 LT PUSH2 0x1BE0 JUMPI PUSH2 0x2710 DUP4 DUP2 PUSH2 0x1BD6 JUMPI PUSH2 0x1BD5 PUSH2 0x2CF5 JUMP JUMPDEST JUMPDEST DIV SWAP3 POP PUSH1 0x4 DUP2 ADD SWAP1 POP JUMPDEST PUSH1 0x64 DUP4 LT PUSH2 0x1C03 JUMPI PUSH1 0x64 DUP4 DUP2 PUSH2 0x1BF9 JUMPI PUSH2 0x1BF8 PUSH2 0x2CF5 JUMP JUMPDEST JUMPDEST DIV SWAP3 POP PUSH1 0x2 DUP2 ADD SWAP1 POP JUMPDEST PUSH1 0xA DUP4 LT PUSH2 0x1C12 JUMPI PUSH1 0x1 DUP2 ADD SWAP1 POP JUMPDEST DUP1 SWAP2 POP POP SWAP2 SWAP1 POP JUMP JUMPDEST PUSH0 DUP1 PUSH20 0xFFFFFFFFFFFFFFFFFFFFFFFFFFFFFFFFFFFFFFFF AND DUP4 PUSH20 0xFFFFFFFFFFFFFFFFFFFFFFFFFFFFFFFFFFFFFFFF AND EQ ISZERO DUP1 ISZERO PUSH2 0x1CD2 JUMPI POP DUP3 PUSH20 0xFFFFFFFFFFFFFFFFFFFFFFFFFFFFFFFFFFFFFFFF AND DUP5 PUSH20 0xFFFFFFFFFFFFFFFFFFFFFFFFFFFFFFFFFFFFFFFF AND EQ DUP1 PUSH2 0x1C93 JUMPI POP PUSH2 0x1C92 DUP5 DUP5 PUSH2 0xFDD JUMP JUMPDEST JUMPDEST DUP1 PUSH2 0x1CD1 JUMPI POP DUP3 PUSH20 0xFFFFFFFFFFFFFFFFFFFFFFFFFFFFFFFFFFFFFFFF AND PUSH2 0x1CB9 DUP4 PUSH2 0x117F JUMP JUMPDEST PUSH20 0xFFFFFFFFFFFFFFFFFFFFFFFFFFFFFFFFFFFFFFFF AND EQ JUMPDEST JUMPDEST SWAP1 POP SWAP4 SWAP3 POP POP POP JUMP JUMPDEST PUSH0 PUSH20 0xFFFFFFFFFFFFFFFFFFFFFFFFFFFFFFFFFFFFFFFF AND DUP3 PUSH20 0xFFFFFFFFFFFFFFFFFFFFFFFFFFFFFFFFFFFFFFFF AND SUB PUSH2 0x1D4B JUMPI PUSH0 PUSH1 0x40 MLOAD PUSH32 0x64A0AE9200000000000000000000000000000000000000000000000000000000 DUP2 MSTORE PUSH1 0x4 ADD PUSH2 0x1D42 SWAP2 SWAP1 PUSH2 0x1FBF JUMP JUMPDEST PUSH1 0x40 MLOAD DUP1 SWAP2 SUB SWAP1 REVERT JUMPDEST PUSH0 PUSH2 0x1D57 DUP4 DUP4 PUSH0 PUSH2 0x11D1 JUMP JUMPDEST SWAP1 POP PUSH0 PUSH20 0xFFFFFFFFFFFFFFFFFFFFFFFFFFFFFFFFFFFFFFFF AND DUP2 PUSH20 0xFFFFFFFFFFFFFFFFFFFFFFFFFFFFFFFFFFFFFFFF AND EQ PUSH2 0x1DC9 JUMPI PUSH0 PUSH1 0x40 MLOAD PUSH32 0x73C6AC6E00000000000000000000000000000000000000000000000000000000 DUP2 MSTORE PUSH1 0x4 ADD PUSH2 0x1DC0 SWAP2 SWAP1 PUSH2 0x1FBF JUMP JUMPDEST PUSH1 0x40 MLOAD DUP1 SWAP2 SUB SWAP1 REVERT JUMPDEST POP POP POP JUMP JUMPDEST PUSH0 PUSH1 0x40 MLOAD SWAP1 POP SWAP1 JUMP JUMPDEST PUSH0 DUP1 REVERT JUMPDEST PUSH0 DUP1 REVERT JUMPDEST PUSH0 PUSH32 0xFFFFFFFF00000000000000000000000000000000000000000000000000000000 DUP3 AND SWAP1 POP SWAP2 SWAP1 POP JUMP JUMPDEST PUSH2 0x1E13 DUP2 PUSH2 0x1DDF JUMP JUMPDEST DUP2 EQ PUSH2 0x1E1D JUMPI PUSH0 DUP1 REVERT JUMPDEST POP JUMP JUMPDEST PUSH0 DUP2 CALLDATALOAD SWAP1 POP PUSH2 0x1E2E DUP2 PUSH2 0x1E0A JUMP JUMPDEST SWAP3 SWAP2 POP POP JUMP JUMPDEST PUSH0 PUSH1 0x20 DUP3 DUP5 SUB SLT ISZERO PUSH2 0x1E49 JUMPI PUSH2 0x1E48 PUSH2 0x1DD7 JUMP JUMPDEST JUMPDEST PUSH0 PUSH2 0x1E56 DUP5 DUP3 DUP6 ADD PUSH2 0x1E20 JUMP JUMPDEST SWAP2 POP POP SWAP3 SWAP2 POP POP JUMP JUMPDEST PUSH0 DUP2 ISZERO ISZERO SWAP1 POP SWAP2 SWAP1 POP JUMP JUMPDEST PUSH2 0x1E73 DUP2 PUSH2 0x1E5F JUMP JUMPDEST DUP3 MSTORE POP POP JUMP JUMPDEST PUSH0 PUSH1 0x20 DUP3 ADD SWAP1 POP PUSH2 0x1E8C PUSH0 DUP4 ADD DUP5 PUSH2 0x1E6A JUMP JUMPDEST SWAP3 SWAP2 POP POP JUMP JUMPDEST PUSH0 DUP2 MLOAD SWAP1 POP SWAP2 SWAP1 POP JUMP JUMPDEST PUSH0 DUP3 DUP3 MSTORE PUSH1 0x20 DUP3 ADD SWAP1 POP SWAP3 SWAP2 POP POP JUMP JUMPDEST DUP3 DUP2 DUP4 MCOPY PUSH0 DUP4 DUP4 ADD MSTORE POP POP POP JUMP JUMPDEST PUSH0 PUSH1 0x1F NOT PUSH1 0x1F DUP4 ADD AND SWAP1 POP SWAP2 SWAP1 POP JUMP JUMPDEST PUSH0 PUSH2 0x1ED4 DUP3 PUSH2 0x1E92 JUMP JUMPDEST PUSH2 0x1EDE DUP2 DUP6 PUSH2 0x1E9C JUMP JUMPDEST SWAP4 POP PUSH2 0x1EEE DUP2 DUP6 PUSH1 0x20 DUP7 ADD PUSH2 0x1EAC JUMP JUMPDEST PUSH2 0x1EF7 DUP2 PUSH2 0x1EBA JUMP JUMPDEST DUP5 ADD SWAP2 POP POP SWAP3 SWAP2 POP POP JUMP JUMPDEST PUSH0 PUSH1 0x20 DUP3 ADD SWAP1 POP DUP2 DUP2 SUB PUSH0 DUP4 ADD MSTORE PUSH2 0x1F1A DUP2 DUP5 PUSH2 0x1ECA JUMP JUMPDEST SWAP1 POP SWAP3 SWAP2 POP POP JUMP JUMPDEST PUSH0 DUP2 SWAP1 POP SWAP2 SWAP1 POP JUMP JUMPDEST PUSH2 0x1F34 DUP2 PUSH2 0x1F22 JUMP JUMPDEST DUP2 EQ PUSH2 0x1F3E JUMPI PUSH0 DUP1 REVERT JUMPDEST POP JUMP JUMPDEST PUSH0 DUP2 CALLDATALOAD SWAP1 POP PUSH2 0x1F4F DUP2 PUSH2 0x1F2B JUMP JUMPDEST SWAP3 SWAP2 POP POP JUMP JUMPDEST PUSH0 PUSH1 0x20 DUP3 DUP5 SUB SLT ISZERO PUSH2 0x1F6A JUMPI PUSH2 0x1F69 PUSH2 0x1DD7 JUMP JUMPDEST JUMPDEST PUSH0 PUSH2 0x1F77 DUP5 DUP3 DUP6 ADD PUSH2 0x1F41 JUMP JUMPDEST SWAP2 POP POP SWAP3 SWAP2 POP POP JUMP JUMPDEST PUSH0 PUSH20 0xFFFFFFFFFFFFFFFFFFFFFFFFFFFFFFFFFFFFFFFF DUP3 AND SWAP1 POP SWAP2 SWAP1 POP JUMP JUMPDEST PUSH0 PUSH2 0x1FA9 DUP3 PUSH2 0x1F80 JUMP JUMPDEST SWAP1 POP SWAP2 SWAP1 POP JUMP JUMPDEST PUSH2 0x1FB9 DUP2 PUSH2 0x1F9F JUMP JUMPDEST DUP3 MSTORE POP POP JUMP JUMPDEST PUSH0 PUSH1 0x20 DUP3 ADD SWAP1 POP PUSH2 0x1FD2 PUSH0 DUP4 ADD DUP5 PUSH2 0x1FB0 JUMP JUMPDEST SWAP3 SWAP2 POP POP JUMP JUMPDEST PUSH2 0x1FE1 DUP2 PUSH2 0x1F9F JUMP JUMPDEST DUP2 EQ PUSH2 0x1FEB JUMPI PUSH0 DUP1 REVERT JUMPDEST POP JUMP JUMPDEST PUSH0 DUP2 CALLDATALOAD SWAP1 POP PUSH2 0x1FFC DUP2 PUSH2 0x1FD8 JUMP JUMPDEST SWAP3 SWAP2 POP POP JUMP JUMPDEST PUSH0 DUP1 PUSH1 0x40 DUP4 DUP6 SUB SLT ISZERO PUSH2 0x2018 JUMPI PUSH2 0x2017 PUSH2 0x1DD7 JUMP JUMPDEST JUMPDEST PUSH0 PUSH2 0x2025 DUP6 DUP3 DUP7 ADD PUSH2 0x1FEE JUMP JUMPDEST SWAP3 POP POP PUSH1 0x20 PUSH2 0x2036 DUP6 DUP3 DUP7 ADD PUSH2 0x1F41 JUMP JUMPDEST SWAP2 POP POP SWAP3 POP SWAP3 SWAP1 POP JUMP JUMPDEST PUSH0 DUP1 PUSH0 PUSH1 0x60 DUP5 DUP7 SUB SLT ISZERO PUSH2 0x2057 JUMPI PUSH2 0x2056 PUSH2 0x1DD7 JUMP JUMPDEST JUMPDEST PUSH0 PUSH2 0x2064 DUP7 DUP3 DUP8 ADD PUSH2 0x1FEE JUMP JUMPDEST SWAP4 POP POP PUSH1 0x20 PUSH2 0x2075 DUP7 DUP3 DUP8 ADD PUSH2 0x1FEE JUMP JUMPDEST SWAP3 POP POP PUSH1 0x40 PUSH2 0x2086 DUP7 DUP3 DUP8 ADD PUSH2 0x1F41 JUMP JUMPDEST SWAP2 POP POP SWAP3 POP SWAP3 POP SWAP3 JUMP JUMPDEST PUSH0 DUP1 PUSH1 0x40 DUP4 DUP6 SUB SLT ISZERO PUSH2 0x20A6 JUMPI PUSH2 0x20A5 PUSH2 0x1DD7 JUMP JUMPDEST JUMPDEST PUSH0 PUSH2 0x20B3 DUP6 DUP3 DUP7 ADD PUSH2 0x1F41 JUMP JUMPDEST SWAP3 POP POP PUSH1 0x20 PUSH2 0x20C4 DUP6 DUP3 DUP7 ADD PUSH2 0x1F41 JUMP JUMPDEST SWAP2 POP POP SWAP3 POP SWAP3 SWAP1 POP JUMP JUMPDEST PUSH2 0x20D7 DUP2 PUSH2 0x1F22 JUMP JUMPDEST DUP3 MSTORE POP POP JUMP JUMPDEST PUSH0 PUSH1 0xA0 DUP3 ADD SWAP1 POP DUP2 DUP2 SUB PUSH0 DUP4 ADD MSTORE PUSH2 0x20F5 DUP2 DUP9 PUSH2 0x1ECA JUMP JUMPDEST SWAP1 POP DUP2 DUP2 SUB PUSH1 0x20 DUP4 ADD MSTORE PUSH2 0x2109 DUP2 DUP8 PUSH2 0x1ECA JUMP JUMPDEST SWAP1 POP PUSH2 0x2118 PUSH1 0x40 DUP4 ADD DUP7 PUSH2 0x20CE JUMP JUMPDEST PUSH2 0x2125 PUSH1 0x60 DUP4 ADD DUP6 PUSH2 0x20CE JUMP JUMPDEST PUSH2 0x2132 PUSH1 0x80 DUP4 ADD DUP5 PUSH2 0x20CE JUMP JUMPDEST SWAP7 SWAP6 POP POP POP POP POP POP JUMP JUMPDEST PUSH0 PUSH1 0xFF DUP3 AND SWAP1 POP SWAP2 SWAP1 POP JUMP JUMPDEST PUSH2 0x2151 DUP2 PUSH2 0x213C JUMP JUMPDEST DUP3 MSTORE POP POP JUMP JUMPDEST PUSH0 PUSH1 0x80 DUP3 ADD SWAP1 POP PUSH2 0x216A PUSH0 DUP4 ADD DUP8 PUSH2 0x20CE JUMP JUMPDEST PUSH2 0x2177 PUSH1 0x20 DUP4 ADD DUP7 PUSH2 0x20CE JUMP JUMPDEST PUSH2 0x2184 PUSH1 0x40 DUP4 ADD DUP6 PUSH2 0x2148 JUMP JUMPDEST PUSH2 0x2191 PUSH1 0x60 DUP4 ADD DUP5 PUSH2 0x1FB0 JUMP JUMPDEST SWAP6 SWAP5 POP POP POP POP POP JUMP JUMPDEST PUSH0 DUP1 REVERT JUMPDEST PUSH0 DUP1 REVERT JUMPDEST PUSH32 0x4E487B7100000000000000000000000000000000000000000000000000000000 PUSH0 MSTORE PUSH1 0x41 PUSH1 0x4 MSTORE PUSH1 0x24 PUSH0 REVERT JUMPDEST PUSH2 0x21D8 DUP3 PUSH2 0x1EBA JUMP JUMPDEST DUP2 ADD DUP2 DUP2 LT PUSH8 0xFFFFFFFFFFFFFFFF DUP3 GT OR ISZERO PUSH2 0x21F7 JUMPI PUSH2 0x21F6 PUSH2 0x21A2 JUMP JUMPDEST JUMPDEST DUP1 PUSH1 0x40 MSTORE POP POP POP JUMP JUMPDEST PUSH0 PUSH2 0x2209 PUSH2 0x1DCE JUMP JUMPDEST SWAP1 POP PUSH2 0x2215 DUP3 DUP3 PUSH2 0x21CF JUMP JUMPDEST SWAP2 SWAP1 POP JUMP JUMPDEST PUSH0 PUSH8 0xFFFFFFFFFFFFFFFF DUP3 GT ISZERO PUSH2 0x2234 JUMPI PUSH2 0x2233 PUSH2 0x21A2 JUMP JUMPDEST JUMPDEST PUSH2 0x223D DUP3 PUSH2 0x1EBA JUMP JUMPDEST SWAP1 POP PUSH1 0x20 DUP2 ADD SWAP1 POP SWAP2 SWAP1 POP JUMP JUMPDEST DUP3 DUP2 DUP4 CALLDATACOPY PUSH0 DUP4 DUP4 ADD MSTORE POP POP POP JUMP JUMPDEST PUSH0 PUSH2 0x226A PUSH2 0x2265 DUP5 PUSH2 0x221A JUMP JUMPDEST PUSH2 0x2200 JUMP JUMPDEST SWAP1 POP DUP3 DUP2 MSTORE PUSH1 0x20 DUP2 ADD DUP5 DUP5 DUP5 ADD GT ISZERO PUSH2 0x2286 JUMPI PUSH2 0x2285 PUSH2 0x219E JUMP JUMPDEST JUMPDEST PUSH2 0x2291 DUP5 DUP3 DUP6 PUSH2 0x224A JUMP JUMPDEST POP SWAP4 SWAP3 POP POP POP JUMP JUMPDEST PUSH0 DUP3 PUSH1 0x1F DUP4 ADD SLT PUSH2 0x22AD JUMPI PUSH2 0x22AC PUSH2 0x219A JUMP JUMPDEST JUMPDEST DUP2 CALLDATALOAD PUSH2 0x22BD DUP5 DUP3 PUSH1 0x20 DUP7 ADD PUSH2 0x2258 JUMP JUMPDEST SWAP2 POP POP SWAP3 SWAP2 POP POP JUMP JUMPDEST PUSH2 0x22CF DUP2 PUSH2 0x213C JUMP JUMPDEST DUP2 EQ PUSH2 0x22D9 JUMPI PUSH0 DUP1 REVERT JUMPDEST POP JUMP JUMPDEST PUSH0 DUP2 CALLDATALOAD SWAP1 POP PUSH2 0x22EA DUP2 PUSH2 0x22C6 JUMP JUMPDEST SWAP3 SWAP2 POP POP JUMP JUMPDEST PUSH0 DUP1 PUSH0 DUP1 PUSH0 DUP1 PUSH1 0xC0 DUP8 DUP10 SUB SLT ISZERO PUSH2 0x230A JUMPI PUSH2 0x2309 PUSH2 0x1DD7 JUMP JUMPDEST JUMPDEST PUSH0 DUP8 ADD CALLDATALOAD PUSH8 0xFFFFFFFFFFFFFFFF DUP2 GT ISZERO PUSH2 0x2327 JUMPI PUSH2 0x2326 PUSH2 0x1DDB JUMP JUMPDEST JUMPDEST PUSH2 0x2333 DUP10 DUP3 DUP11 ADD PUSH2 0x2299 JUMP JUMPDEST SWAP7 POP POP PUSH1 0x20 PUSH2 0x2344 DUP10 DUP3 DUP11 ADD PUSH2 0x1FEE JUMP JUMPDEST SWAP6 POP POP PUSH1 0x40 PUSH2 0x2355 DUP10 DUP3 DUP11 ADD PUSH2 0x22DC JUMP JUMPDEST SWAP5 POP POP PUSH1 0x60 PUSH2 0x2366 DUP10 DUP3 DUP11 ADD PUSH2 0x22DC JUMP JUMPDEST SWAP4 POP POP PUSH1 0x80 PUSH2 0x2377 DUP10 DUP3 DUP11 ADD PUSH2 0x22DC JUMP JUMPDEST SWAP3 POP POP PUSH1 0xA0 DUP8 ADD CALLDATALOAD PUSH8 0xFFFFFFFFFFFFFFFF DUP2 GT ISZERO PUSH2 0x2398 JUMPI PUSH2 0x2397 PUSH2 0x1DDB JUMP JUMPDEST JUMPDEST PUSH2 0x23A4 DUP10 DUP3 DUP11 ADD PUSH2 0x2299 JUMP JUMPDEST SWAP2 POP POP SWAP3 SWAP6 POP SWAP3 SWAP6 POP SWAP3 SWAP6 JUMP JUMPDEST PUSH0 PUSH1 0x20 DUP3 DUP5 SUB SLT ISZERO PUSH2 0x23C6 JUMPI PUSH2 0x23C5 PUSH2 0x1DD7 JUMP JUMPDEST JUMPDEST PUSH0 PUSH2 0x23D3 DUP5 DUP3 DUP6 ADD PUSH2 0x1FEE JUMP JUMPDEST SWAP2 POP POP SWAP3 SWAP2 POP POP JUMP JUMPDEST PUSH0 PUSH1 0x20 DUP3 ADD SWAP1 POP PUSH2 0x23EF PUSH0 DUP4 ADD DUP5 PUSH2 0x20CE JUMP JUMPDEST SWAP3 SWAP2 POP POP JUMP JUMPDEST PUSH2 0x23FE DUP2 PUSH2 0x1E5F JUMP JUMPDEST DUP2 EQ PUSH2 0x2408 JUMPI PUSH0 DUP1 REVERT JUMPDEST POP JUMP JUMPDEST PUSH0 DUP2 CALLDATALOAD SWAP1 POP PUSH2 0x2419 DUP2 PUSH2 0x23F5 JUMP JUMPDEST SWAP3 SWAP2 POP POP JUMP JUMPDEST PUSH0 DUP1 PUSH1 0x40 DUP4 DUP6 SUB SLT ISZERO PUSH2 0x2435 JUMPI PUSH2 0x2434 PUSH2 0x1DD7 JUMP JUMPDEST JUMPDEST PUSH0 PUSH2 0x2442 DUP6 DUP3 DUP7 ADD PUSH2 0x1FEE JUMP JUMPDEST SWAP3 POP POP PUSH1 0x20 PUSH2 0x2453 DUP6 DUP3 DUP7 ADD PUSH2 0x240B JUMP JUMPDEST SWAP2 POP POP SWAP3 POP SWAP3 SWAP1 POP JUMP JUMPDEST PUSH0 PUSH8 0xFFFFFFFFFFFFFFFF DUP3 GT ISZERO PUSH2 0x2477 JUMPI PUSH2 0x2476 PUSH2 0x21A2 JUMP JUMPDEST JUMPDEST PUSH2 0x2480 DUP3 PUSH2 0x1EBA JUMP JUMPDEST SWAP1 POP PUSH1 0x20 DUP2 ADD SWAP1 POP SWAP2 SWAP1 POP JUMP JUMPDEST PUSH0 PUSH2 0x249F PUSH2 0x249A DUP5 PUSH2 0x245D JUMP JUMPDEST PUSH2 0x2200 JUMP JUMPDEST SWAP1 POP DUP3 DUP2 MSTORE PUSH1 0x20 DUP2 ADD DUP5 DUP5 DUP5 ADD GT ISZERO PUSH2 0x24BB JUMPI PUSH2 0x24BA PUSH2 0x219E JUMP JUMPDEST JUMPDEST PUSH2 0x24C6 DUP5 DUP3 DUP6 PUSH2 0x224A JUMP JUMPDEST POP SWAP4 SWAP3 POP POP POP JUMP JUMPDEST PUSH0 DUP3 PUSH1 0x1F DUP4 ADD SLT PUSH2 0x24E2 JUMPI PUSH2 0x24E1 PUSH2 0x219A JUMP JUMPDEST JUMPDEST DUP2 CALLDATALOAD PUSH2 0x24F2 DUP5 DUP3 PUSH1 0x20 DUP7 ADD PUSH2 0x248D JUMP JUMPDEST SWAP2 POP POP SWAP3 SWAP2 POP POP JUMP JUMPDEST PUSH0 DUP1 PUSH0 DUP1 PUSH1 0x80 DUP6 DUP8 SUB SLT ISZERO PUSH2 0x2513 JUMPI PUSH2 0x2512 PUSH2 0x1DD7 JUMP JUMPDEST JUMPDEST PUSH0 PUSH2 0x2520 DUP8 DUP3 DUP9 ADD PUSH2 0x1FEE JUMP JUMPDEST SWAP5 POP POP PUSH1 0x20 PUSH2 0x2531 DUP8 DUP3 DUP9 ADD PUSH2 0x1FEE JUMP JUMPDEST SWAP4 POP POP PUSH1 0x40 PUSH2 0x2542 DUP8 DUP3 DUP9 ADD PUSH2 0x1F41 JUMP JUMPDEST SWAP3 POP POP PUSH1 0x60 DUP6 ADD CALLDATALOAD PUSH8 0xFFFFFFFFFFFFFFFF DUP2 GT ISZERO PUSH2 0x2563 JUMPI PUSH2 0x2562 PUSH2 0x1DDB JUMP JUMPDEST JUMPDEST PUSH2 0x256F DUP8 DUP3 DUP9 ADD PUSH2 0x24CE JUMP JUMPDEST SWAP2 POP POP SWAP3 SWAP6 SWAP2 SWAP5 POP SWAP3 POP JUMP JUMPDEST PUSH0 DUP1 PUSH1 0x40 DUP4 DUP6 SUB SLT ISZERO PUSH2 0x2591 JUMPI PUSH2 0x2590 PUSH2 0x1DD7 JUMP JUMPDEST JUMPDEST PUSH0 PUSH2 0x259E DUP6 DUP3 DUP7 ADD PUSH2 0x1FEE JUMP JUMPDEST SWAP3 POP POP PUSH1 0x20 PUSH2 0x25AF DUP6 DUP3 DUP7 ADD PUSH2 0x1FEE JUMP JUMPDEST SWAP2 POP POP SWAP3 POP SWAP3 SWAP1 POP JUMP JUMPDEST PUSH32 0x4E487B7100000000000000000000000000000000000000000000000000000000 PUSH0 MSTORE PUSH1 0x22 PUSH1 0x4 MSTORE PUSH1 0x24 PUSH0 REVERT JUMPDEST PUSH0 PUSH1 0x2 DUP3 DIV SWAP1 POP PUSH1 0x1 DUP3 AND DUP1 PUSH2 0x25FD JUMPI PUSH1 0x7F DUP3 AND SWAP2 POP JUMPDEST PUSH1 0x20 DUP3 LT DUP2 SUB PUSH2 0x2610 JUMPI PUSH2 0x260F PUSH2 0x25B9 JUMP JUMPDEST JUMPDEST POP SWAP2 SWAP1 POP JUMP JUMPDEST PUSH0 PUSH1 0x60 DUP3 ADD SWAP1 POP PUSH2 0x2629 PUSH0 DUP4 ADD DUP7 PUSH2 0x1FB0 JUMP JUMPDEST PUSH2 0x2636 PUSH1 0x20 DUP4 ADD DUP6 PUSH2 0x20CE JUMP JUMPDEST PUSH2 0x2643 PUSH1 0x40 DUP4 ADD DUP5 PUSH2 0x1FB0 JUMP JUMPDEST SWAP5 SWAP4 POP POP POP POP JUMP JUMPDEST PUSH32 0x4170656E6173206F20646F6E6F20706F646520626174616C68617220636F6D20 PUSH0 DUP3 ADD MSTORE PUSH32 0x65737465204D6563686121000000000000000000000000000000000000000000 PUSH1 0x20 DUP3 ADD MSTORE POP JUMP JUMPDEST PUSH0 PUSH2 0x26A5 PUSH1 0x2B DUP4 PUSH2 0x1E9C JUMP JUMPDEST SWAP2 POP PUSH2 0x26B0 DUP3 PUSH2 0x264B JUMP JUMPDEST PUSH1 0x40 DUP3 ADD SWAP1 POP SWAP2 SWAP1 POP JUMP JUMPDEST PUSH0 PUSH1 0x20 DUP3 ADD SWAP1 POP DUP2 DUP2 SUB PUSH0 DUP4 ADD MSTORE PUSH2 0x26D2 DUP2 PUSH2 0x2699 JUMP JUMPDEST SWAP1 POP SWAP2 SWAP1 POP JUMP JUMPDEST PUSH32 0x556D204D65636861206E616F20706F6465206C7574617220636F6E7472612073 PUSH0 DUP3 ADD MSTORE PUSH32 0x69206D65736D6F21000000000000000000000000000000000000000000000000 PUSH1 0x20 DUP3 ADD MSTORE POP JUMP JUMPDEST PUSH0 PUSH2 0x2733 PUSH1 0x28 DUP4 PUSH2 0x1E9C JUMP JUMPDEST SWAP2 POP PUSH2 0x273E DUP3 PUSH2 0x26D9 JUMP JUMPDEST PUSH1 0x40 DUP3 ADD SWAP1 POP SWAP2 SWAP1 POP JUMP JUMPDEST PUSH0 PUSH1 0x20 DUP3 ADD SWAP1 POP DUP2 DUP2 SUB PUSH0 DUP4 ADD MSTORE PUSH2 0x2760 DUP2 PUSH2 0x2727 JUMP JUMPDEST SWAP1 POP SWAP2 SWAP1 POP JUMP JUMPDEST PUSH32 0x4E487B7100000000000000000000000000000000000000000000000000000000 PUSH0 MSTORE PUSH1 0x32 PUSH1 0x4 MSTORE PUSH1 0x24 PUSH0 REVERT JUMPDEST PUSH32 0x4E487B7100000000000000000000000000000000000000000000000000000000 PUSH0 MSTORE PUSH1 0x11 PUSH1 0x4 MSTORE PUSH1 0x24 PUSH0 REVERT JUMPDEST PUSH0 PUSH2 0x27CB DUP3 PUSH2 0x213C JUMP JUMPDEST SWAP2 POP PUSH2 0x27D6 DUP4 PUSH2 0x213C JUMP JUMPDEST SWAP3 POP DUP3 DUP3 ADD SWAP1 POP PUSH1 0xFF DUP2 GT ISZERO PUSH2 0x27EF JUMPI PUSH2 0x27EE PUSH2 0x2794 JUMP JUMPDEST JUMPDEST SWAP3 SWAP2 POP POP JUMP JUMPDEST PUSH0 PUSH2 0x27FF DUP3 PUSH2 0x1F22 JUMP JUMPDEST SWAP2 POP PUSH2 0x280A DUP4 PUSH2 0x1F22 JUMP JUMPDEST SWAP3 POP DUP3 DUP3 SUB SWAP1 POP DUP2 DUP2 GT ISZERO PUSH2 0x2822 JUMPI PUSH2 0x2821 PUSH2 0x2794 JUMP JUMPDEST JUMPDEST SWAP3 SWAP2 POP POP JUMP JUMPDEST PUSH0 PUSH2 0x2832 DUP3 PUSH2 0x1F22 JUMP JUMPDEST SWAP2 POP PUSH2 0x283D DUP4 PUSH2 0x1F22 JUMP JUMPDEST SWAP3 POP DUP3 DUP3 ADD SWAP1 POP DUP1 DUP3 GT ISZERO PUSH2 0x2855 JUMPI PUSH2 0x2854 PUSH2 0x2794 JUMP JUMPDEST JUMPDEST SWAP3 SWAP2 POP POP JUMP JUMPDEST PUSH32 0x4170656E6173206F20646F6E6F20646F206A6F676F20706F6465206372696172 PUSH0 DUP3 ADD MSTORE PUSH32 0x206E6F766F73204D656368617321000000000000000000000000000000000000 PUSH1 0x20 DUP3 ADD MSTORE POP JUMP JUMPDEST PUSH0 PUSH2 0x28B5 PUSH1 0x2E DUP4 PUSH2 0x1E9C JUMP JUMPDEST SWAP2 POP PUSH2 0x28C0 DUP3 PUSH2 0x285B JUMP JUMPDEST PUSH1 0x40 DUP3 ADD SWAP1 POP SWAP2 SWAP1 POP JUMP JUMPDEST PUSH0 PUSH1 0x20 DUP3 ADD SWAP1 POP DUP2 DUP2 SUB PUSH0 DUP4 ADD MSTORE PUSH2 0x28E2 DUP2 PUSH2 0x28A9 JUMP JUMPDEST SWAP1 POP SWAP2 SWAP1 POP JUMP JUMPDEST PUSH32 0x4120736F6D6120646F7320706F6E746F73206465766520736572203230000000 PUSH0 DUP3 ADD MSTORE POP JUMP JUMPDEST PUSH0 PUSH2 0x291D PUSH1 0x1D DUP4 PUSH2 0x1E9C JUMP JUMPDEST SWAP2 POP PUSH2 0x2928 DUP3 PUSH2 0x28E9 JUMP JUMPDEST PUSH1 0x20 DUP3 ADD SWAP1 POP SWAP2 SWAP1 POP JUMP JUMPDEST PUSH0 PUSH1 0x20 DUP3 ADD SWAP1 POP DUP2 DUP2 SUB PUSH0 DUP4 ADD MSTORE PUSH2 0x294A DUP2 PUSH2 0x2911 JUMP JUMPDEST SWAP1 POP SWAP2 SWAP1 POP JUMP JUMPDEST PUSH0 DUP2 SWAP1 POP DUP2 PUSH0 MSTORE PUSH1 0x20 PUSH0 KECCAK256 SWAP1 POP SWAP2 SWAP1 POP JUMP JUMPDEST PUSH0 PUSH1 0x20 PUSH1 0x1F DUP4 ADD DIV SWAP1 POP SWAP2 SWAP1 POP JUMP JUMPDEST PUSH0 DUP3 DUP3 SHL SWAP1 POP SWAP3 SWAP2 POP POP JUMP JUMPDEST PUSH0 PUSH1 0x8 DUP4 MUL PUSH2 0x29AD PUSH32 0xFFFFFFFFFFFFFFFFFFFFFFFFFFFFFFFFFFFFFFFFFFFFFFFFFFFFFFFFFFFFFFFF DUP3 PUSH2 0x2972 JUMP JUMPDEST PUSH2 0x29B7 DUP7 DUP4 PUSH2 0x2972 JUMP JUMPDEST SWAP6 POP DUP1 NOT DUP5 AND SWAP4 POP DUP1 DUP7 AND DUP5 OR SWAP3 POP POP POP SWAP4 SWAP3 POP POP POP JUMP JUMPDEST PUSH0 DUP2 SWAP1 POP SWAP2 SWAP1 POP JUMP JUMPDEST PUSH0 PUSH2 0x29F2 PUSH2 0x29ED PUSH2 0x29E8 DUP5 PUSH2 0x1F22 JUMP JUMPDEST PUSH2 0x29CF JUMP JUMPDEST PUSH2 0x1F22 JUMP JUMPDEST SWAP1 POP SWAP2 SWAP1 POP JUMP JUMPDEST PUSH0 DUP2 SWAP1 POP SWAP2 SWAP1 POP JUMP JUMPDEST PUSH2 0x2A0B DUP4 PUSH2 0x29D8 JUMP JUMPDEST PUSH2 0x2A1F PUSH2 0x2A17 DUP3 PUSH2 0x29F9 JUMP JUMPDEST DUP5 DUP5 SLOAD PUSH2 0x297E JUMP JUMPDEST DUP3 SSTORE POP POP POP POP JUMP JUMPDEST PUSH0 SWAP1 JUMP JUMPDEST PUSH2 0x2A33 PUSH2 0x2A27 JUMP JUMPDEST PUSH2 0x2A3E DUP2 DUP5 DUP5 PUSH2 0x2A02 JUMP JUMPDEST POP POP POP JUMP JUMPDEST JUMPDEST DUP2 DUP2 LT ISZERO PUSH2 0x2A61 JUMPI PUSH2 0x2A56 PUSH0 DUP3 PUSH2 0x2A2B JUMP JUMPDEST PUSH1 0x1 DUP2 ADD SWAP1 POP PUSH2 0x2A44 JUMP JUMPDEST POP POP JUMP JUMPDEST PUSH1 0x1F DUP3 GT ISZERO PUSH2 0x2AA6 JUMPI PUSH2 0x2A77 DUP2 PUSH2 0x2951 JUMP JUMPDEST PUSH2 0x2A80 DUP5 PUSH2 0x2963 JUMP JUMPDEST DUP2 ADD PUSH1 0x20 DUP6 LT ISZERO PUSH2 0x2A8F JUMPI DUP2 SWAP1 POP JUMPDEST PUSH2 0x2AA3 PUSH2 0x2A9B DUP6 PUSH2 0x2963 JUMP JUMPDEST DUP4 ADD DUP3 PUSH2 0x2A43 JUMP JUMPDEST POP POP JUMPDEST POP POP POP JUMP JUMPDEST PUSH0 DUP3 DUP3 SHR SWAP1 POP SWAP3 SWAP2 POP POP JUMP JUMPDEST PUSH0 PUSH2 0x2AC6 PUSH0 NOT DUP5 PUSH1 0x8 MUL PUSH2 0x2AAB JUMP JUMPDEST NOT DUP1 DUP4 AND SWAP2 POP POP SWAP3 SWAP2 POP POP JUMP JUMPDEST PUSH0 PUSH2 0x2ADE DUP4 DUP4 PUSH2 0x2AB7 JUMP JUMPDEST SWAP2 POP DUP3 PUSH1 0x2 MUL DUP3 OR SWAP1 POP SWAP3 SWAP2 POP POP JUMP JUMPDEST PUSH2 0x2AF7 DUP3 PUSH2 0x1E92 JUMP JUMPDEST PUSH8 0xFFFFFFFFFFFFFFFF DUP2 GT ISZERO PUSH2 0x2B10 JUMPI PUSH2 0x2B0F PUSH2 0x21A2 JUMP JUMPDEST JUMPDEST PUSH2 0x2B1A DUP3 SLOAD PUSH2 0x25E6 JUMP JUMPDEST PUSH2 0x2B25 DUP3 DUP3 DUP6 PUSH2 0x2A65 JUMP JUMPDEST PUSH0 PUSH1 0x20 SWAP1 POP PUSH1 0x1F DUP4 GT PUSH1 0x1 DUP2 EQ PUSH2 0x2B56 JUMPI PUSH0 DUP5 ISZERO PUSH2 0x2B44 JUMPI DUP3 DUP8 ADD MLOAD SWAP1 POP JUMPDEST PUSH2 0x2B4E DUP6 DUP3 PUSH2 0x2AD3 JUMP JUMPDEST DUP7 SSTORE POP PUSH2 0x2BB5 JUMP JUMPDEST PUSH1 0x1F NOT DUP5 AND PUSH2 0x2B64 DUP7 PUSH2 0x2951 JUMP JUMPDEST PUSH0 JUMPDEST DUP3 DUP2 LT ISZERO PUSH2 0x2B8B JUMPI DUP5 DUP10 ADD MLOAD DUP3 SSTORE PUSH1 0x1 DUP3 ADD SWAP2 POP PUSH1 0x20 DUP6 ADD SWAP5 POP PUSH1 0x20 DUP2 ADD SWAP1 POP PUSH2 0x2B66 JUMP JUMPDEST DUP7 DUP4 LT ISZERO PUSH2 0x2BA8 JUMPI DUP5 DUP10 ADD MLOAD PUSH2 0x2BA4 PUSH1 0x1F DUP10 AND DUP3 PUSH2 0x2AB7 JUMP JUMPDEST DUP4 SSTORE POP JUMPDEST PUSH1 0x1 PUSH1 0x2 DUP9 MUL ADD DUP9 SSTORE POP POP POP JUMPDEST POP POP POP POP POP POP JUMP JUMPDEST PUSH0 DUP2 SWAP1 POP SWAP3 SWAP2 POP POP JUMP JUMPDEST PUSH0 PUSH2 0x2BD1 DUP3 PUSH2 0x1E92 JUMP JUMPDEST PUSH2 0x2BDB DUP2 DUP6 PUSH2 0x2BBD JUMP JUMPDEST SWAP4 POP PUSH2 0x2BEB DUP2 DUP6 PUSH1 0x20 DUP7 ADD PUSH2 0x1EAC JUMP JUMPDEST DUP1 DUP5 ADD SWAP2 POP POP SWAP3 SWAP2 POP POP JUMP JUMPDEST PUSH0 PUSH2 0x2C02 DUP3 DUP6 PUSH2 0x2BC7 JUMP JUMPDEST SWAP2 POP PUSH2 0x2C0E DUP3 DUP5 PUSH2 0x2BC7 JUMP JUMPDEST SWAP2 POP DUP2 SWAP1 POP SWAP4 SWAP3 POP POP POP JUMP JUMPDEST PUSH0 DUP2 MLOAD SWAP1 POP SWAP2 SWAP1 POP JUMP JUMPDEST PUSH0 DUP3 DUP3 MSTORE PUSH1 0x20 DUP3 ADD SWAP1 POP SWAP3 SWAP2 POP POP JUMP JUMPDEST PUSH0 PUSH2 0x2C3E DUP3 PUSH2 0x2C1A JUMP JUMPDEST PUSH2 0x2C48 DUP2 DUP6 PUSH2 0x2C24 JUMP JUMPDEST SWAP4 POP PUSH2 0x2C58 DUP2 DUP6 PUSH1 0x20 DUP7 ADD PUSH2 0x1EAC JUMP JUMPDEST PUSH2 0x2C61 DUP2 PUSH2 0x1EBA JUMP JUMPDEST DUP5 ADD SWAP2 POP POP SWAP3 SWAP2 POP POP JUMP JUMPDEST PUSH0 PUSH1 0x80 DUP3 ADD SWAP1 POP PUSH2 0x2C7F PUSH0 DUP4 ADD DUP8 PUSH2 0x1FB0 JUMP JUMPDEST PUSH2 0x2C8C PUSH1 0x20 DUP4 ADD DUP7 PUSH2 0x1FB0 JUMP JUMPDEST PUSH2 0x2C99 PUSH1 0x40 DUP4 ADD DUP6 PUSH2 0x20CE JUMP JUMPDEST DUP2 DUP2 SUB PUSH1 0x60 DUP4 ADD MSTORE PUSH2 0x2CAB DUP2 DUP5 PUSH2 0x2C34 JUMP JUMPDEST SWAP1 POP SWAP6 SWAP5 POP POP POP POP POP JUMP JUMPDEST PUSH0 DUP2 MLOAD SWAP1 POP PUSH2 0x2CC4 DUP2 PUSH2 0x1E0A JUMP JUMPDEST SWAP3 SWAP2 POP POP JUMP JUMPDEST PUSH0 PUSH1 0x20 DUP3 DUP5 SUB SLT ISZERO PUSH2 0x2CDF JUMPI PUSH2 0x2CDE PUSH2 0x1DD7 JUMP JUMPDEST JUMPDEST PUSH0 PUSH2 0x2CEC DUP5 DUP3 DUP6 ADD PUSH2 0x2CB6 JUMP JUMPDEST SWAP2 POP POP SWAP3 SWAP2 POP POP JUMP JUMPDEST PUSH32 0x4E487B7100000000000000000000000000000000000000000000000000000000 PUSH0 MSTORE PUSH1 0x12 PUSH1 0x4 MSTORE PUSH1 0x24 PUSH0 REVERT JUMPDEST PUSH0 PUSH1 0x40 DUP3 ADD SWAP1 POP PUSH2 0x2D35 PUSH0 DUP4 ADD DUP6 PUSH2 0x1FB0 JUMP JUMPDEST PUSH2 0x2D42 PUSH1 0x20 DUP4 ADD DUP5 PUSH2 0x20CE JUMP JUMPDEST SWAP4 SWAP3 POP POP POP JUMP INVALID LOG2 PUSH5 0x6970667358 0x22 SLT KECCAK256 NUMBER 0xA5 PUSH1 0x17 SWAP6 CODECOPY PUSH13 0x1A5C9747CC8A39B90B3610AC4F XOR DUP16 MCOPY ORIGIN PUSH9 0x6B6861529712E56473 PUSH16 0x6C634300081A00330000000000000000 "
				},
				"gasEstimates": {
					"creation": {
						"codeDepositCost": "2329400",
						"executionCost": "infinite",
						"totalCost": "infinite"
					},
					"external": {
						"approve(address,uint256)": "infinite",
						"balanceOf(address)": "infinite",
						"battle(uint256,uint256)": "infinite",
						"battles(uint256)": "infinite",
						"createNewMecha(string,address,uint8,uint8,uint8,string)": "infinite",
						"gameOwner()": "2618",
						"getApproved(uint256)": "infinite",
						"isApprovedForAll(address,address)": "infinite",
						"mechas(uint256)": "infinite",
						"name()": "infinite",
						"ownerOf(uint256)": "infinite",
						"safeTransferFrom(address,address,uint256)": "infinite",
						"safeTransferFrom(address,address,uint256,bytes)": "infinite",
						"setApprovalForAll(address,bool)": "infinite",
						"supportsInterface(bytes4)": "787",
						"symbol()": "infinite",
						"tokenURI(uint256)": "infinite",
						"transferFrom(address,address,uint256)": "infinite"
					}
				},
				"methodIdentifiers": {
					"approve(address,uint256)": "095ea7b3",
					"balanceOf(address)": "70a08231",
					"battle(uint256,uint256)": "2a0c5221",
					"battles(uint256)": "606d2e96",
					"createNewMecha(string,address,uint8,uint8,uint8,string)": "669f8bcc",
					"gameOwner()": "f6b12f28",
					"getApproved(uint256)": "081812fc",
					"isApprovedForAll(address,address)": "e985e9c5",
					"mechas(uint256)": "5ecf0202",
					"name()": "06fdde03",
					"ownerOf(uint256)": "6352211e",
					"safeTransferFrom(address,address,uint256)": "42842e0e",
					"safeTransferFrom(address,address,uint256,bytes)": "b88d4fde",
					"setApprovalForAll(address,bool)": "a22cb465",
					"supportsInterface(bytes4)": "01ffc9a7",
					"symbol()": "95d89b41",
					"tokenURI(uint256)": "c87b56dd",
					"transferFrom(address,address,uint256)": "23b872dd"
				}
			},
			"storageLayout": {
				"storage": [
					{
						"astId": 169,
						"contract": "contracts/MechaWarNFT/MechaWar.sol:MechaWar",
						"label": "_name",
						"offset": 0,
						"slot": "0",
						"type": "t_string_storage"
					},
					{
						"astId": 171,
						"contract": "contracts/MechaWarNFT/MechaWar.sol:MechaWar",
						"label": "_symbol",
						"offset": 0,
						"slot": "1",
						"type": "t_string_storage"
					},
					{
						"astId": 175,
						"contract": "contracts/MechaWarNFT/MechaWar.sol:MechaWar",
						"label": "_owners",
						"offset": 0,
						"slot": "2",
						"type": "t_mapping(t_uint256,t_address)"
					},
					{
						"astId": 179,
						"contract": "contracts/MechaWarNFT/MechaWar.sol:MechaWar",
						"label": "_balances",
						"offset": 0,
						"slot": "3",
						"type": "t_mapping(t_address,t_uint256)"
					},
					{
						"astId": 183,
						"contract": "contracts/MechaWarNFT/MechaWar.sol:MechaWar",
						"label": "_tokenApprovals",
						"offset": 0,
						"slot": "4",
						"type": "t_mapping(t_uint256,t_address)"
					},
					{
						"astId": 189,
						"contract": "contracts/MechaWarNFT/MechaWar.sol:MechaWar",
						"label": "_operatorApprovals",
						"offset": 0,
						"slot": "5",
						"type": "t_mapping(t_address,t_mapping(t_address,t_bool))"
					},
					{
						"astId": 2817,
						"contract": "contracts/MechaWarNFT/MechaWar.sol:MechaWar",
						"label": "mechas",
						"offset": 0,
						"slot": "6",
						"type": "t_array(t_struct(Mecha)2804_storage)dyn_storage"
					},
					{
						"astId": 2821,
						"contract": "contracts/MechaWarNFT/MechaWar.sol:MechaWar",
						"label": "battles",
						"offset": 0,
						"slot": "7",
						"type": "t_array(t_struct(BattleStruct)2813_storage)dyn_storage"
					},
					{
						"astId": 2823,
						"contract": "contracts/MechaWarNFT/MechaWar.sol:MechaWar",
						"label": "gameOwner",
						"offset": 0,
						"slot": "8",
						"type": "t_address"
					}
				],
				"types": {
					"t_address": {
						"encoding": "inplace",
						"label": "address",
						"numberOfBytes": "20"
					},
					"t_array(t_struct(BattleStruct)2813_storage)dyn_storage": {
						"base": "t_struct(BattleStruct)2813_storage",
						"encoding": "dynamic_array",
						"label": "struct MechaWar.BattleStruct[]",
						"numberOfBytes": "32"
					},
					"t_array(t_struct(Mecha)2804_storage)dyn_storage": {
						"base": "t_struct(Mecha)2804_storage",
						"encoding": "dynamic_array",
						"label": "struct MechaWar.Mecha[]",
						"numberOfBytes": "32"
					},
					"t_bool": {
						"encoding": "inplace",
						"label": "bool",
						"numberOfBytes": "1"
					},
					"t_mapping(t_address,t_bool)": {
						"encoding": "mapping",
						"key": "t_address",
						"label": "mapping(address => bool)",
						"numberOfBytes": "32",
						"value": "t_bool"
					},
					"t_mapping(t_address,t_mapping(t_address,t_bool))": {
						"encoding": "mapping",
						"key": "t_address",
						"label": "mapping(address => mapping(address => bool))",
						"numberOfBytes": "32",
						"value": "t_mapping(t_address,t_bool)"
					},
					"t_mapping(t_address,t_uint256)": {
						"encoding": "mapping",
						"key": "t_address",
						"label": "mapping(address => uint256)",
						"numberOfBytes": "32",
						"value": "t_uint256"
					},
					"t_mapping(t_uint256,t_address)": {
						"encoding": "mapping",
						"key": "t_uint256",
						"label": "mapping(uint256 => address)",
						"numberOfBytes": "32",
						"value": "t_address"
					},
					"t_string_storage": {
						"encoding": "bytes",
						"label": "string",
						"numberOfBytes": "32"
					},
					"t_struct(BattleStruct)2813_storage": {
						"encoding": "inplace",
						"label": "struct MechaWar.BattleStruct",
						"members": [
							{
								"astId": 2806,
								"contract": "contracts/MechaWarNFT/MechaWar.sol:MechaWar",
								"label": "attackingMecha",
								"offset": 0,
								"slot": "0",
								"type": "t_uint256"
							},
							{
								"astId": 2808,
								"contract": "contracts/MechaWarNFT/MechaWar.sol:MechaWar",
								"label": "defendingMecha",
								"offset": 0,
								"slot": "1",
								"type": "t_uint256"
							},
							{
								"astId": 2810,
								"contract": "contracts/MechaWarNFT/MechaWar.sol:MechaWar",
								"label": "rounds",
								"offset": 0,
								"slot": "2",
								"type": "t_uint8"
							},
							{
								"astId": 2812,
								"contract": "contracts/MechaWarNFT/MechaWar.sol:MechaWar",
								"label": "winner",
								"offset": 1,
								"slot": "2",
								"type": "t_address"
							}
						],
						"numberOfBytes": "96"
					},
					"t_struct(Mecha)2804_storage": {
						"encoding": "inplace",
						"label": "struct MechaWar.Mecha",
						"members": [
							{
								"astId": 2795,
								"contract": "contracts/MechaWarNFT/MechaWar.sol:MechaWar",
								"label": "name",
								"offset": 0,
								"slot": "0",
								"type": "t_string_storage"
							},
							{
								"astId": 2797,
								"contract": "contracts/MechaWarNFT/MechaWar.sol:MechaWar",
								"label": "img",
								"offset": 0,
								"slot": "1",
								"type": "t_string_storage"
							},
							{
								"astId": 2799,
								"contract": "contracts/MechaWarNFT/MechaWar.sol:MechaWar",
								"label": "strength",
								"offset": 0,
								"slot": "2",
								"type": "t_uint256"
							},
							{
								"astId": 2801,
								"contract": "contracts/MechaWarNFT/MechaWar.sol:MechaWar",
								"label": "defense",
								"offset": 0,
								"slot": "3",
								"type": "t_uint256"
							},
							{
								"astId": 2803,
								"contract": "contracts/MechaWarNFT/MechaWar.sol:MechaWar",
								"label": "agility",
								"offset": 0,
								"slot": "4",
								"type": "t_uint256"
							}
						],
						"numberOfBytes": "160"
					},
					"t_uint256": {
						"encoding": "inplace",
						"label": "uint256",
						"numberOfBytes": "32"
					},
					"t_uint8": {
						"encoding": "inplace",
						"label": "uint8",
						"numberOfBytes": "1"
					}
				}
			},
			"userdoc": {
				"kind": "user",
				"methods": {},
				"version": 1
			}
		}
	}
}